S02400004652454552544F535F4F4C4544315F5850524F5F4558414D504C45322E737265639D
S1130000185D0020410A00003D0A00003D0A00007E
S113001000000000000000000000000000000000DC
S1130020000000000000000000000000210C00009F
S11300300000000000000000890C0000CD0C00004E
S11300403D0A00003D0A00003D0A00003D0A000090
S1130050C10200003D0A00003D0A00003D0A000004
S11300603D0A00005504000065040000750400000A
S11300708504000095040000A50400003D0A00006A
S11300803D0A00003D0A000091020000A1020000A8
S1130090B102000000000000000000003D0A000062
S11300A079030000000000003D0A00003D0A000042
S11300B00000000010B5064C2378002B07D1054B37
S11300C0002B02D0044800E000BF0123237010BDC0
S11300D070000020000000008833000008B5084BC1
S11300E0002B03D00748084900E000BF0748036815
S11300F0002B03D0064B002B00D0984708BDC04608
S113010000000000883300007400002088330000E1
S113011000000000054B197802220A431A701A1CC9
S113012053785BB2002BFBDB7047C04600180040DD
S113013000B583B0124B996940220A439A6101A920
S113014000230B7005200F4B984705200E4B984752
S11301500E4B197801220A431A701A1C53785BB2A9
S1130160002BFBDB0A4B191C4031002204C38B42D9
S1130170FCD11022074B1A60074B984703B000BD0F
S1130180000400400D090000810800000018004030
S1130190B03C002000E100E015010000F0B5474646
S11301A080B40C1C904600280CD1002A0DDD8F1859
S11301B0094E0A4D3068211C2B6898470134BC4213
S11301C0F8D104E00120404202E0002000E0404673
S11301D004BC9046F0BDC046F83C0020F03C002032
S11301E0F0B5474680B40E1C151C0138022810D8FF
S11301F0002A11D000240D4B98460D4F4346186831
S1130200315D3B689847002808DB0134A542F5D1ED
S113021007E00120404205E0002003E001204042C5
S113022000E0201C04BC9046F0BDC046F83C002011
S1130230F43C002038B58000144BC4582268957BE8
S1130240237E1D40637E1D40EB0705D5201CA2685C
S11302509047012322689373AB0705D5201CE268FD
S11302609047022322689373EB0605D5201C22696C
S11302709047102322689373AB0605D5201C62694E
S11302809047236820229A7338BDC046FC3C002066
S113029008B50020014B984708BDC0463502000050
S11302A008B50120014B984708BDC046350200003F
S11302B008B50220014B984708BDC046350200002E
S11302C070B50022164B1A7000231F26154D144CCE
S11302D01F2B10D919E0144900E000210A619B008A
S11302E05B59002B00D0984723780133DBB223708D
S11302F00F2B14D8ECE7321C1A40012191400A1C40
S1130300094909691142E6D1EEE7321C1A4001217C
S113031091400A1C002109691142DED1E4E770BD55
S1130320083D0020B03C00200018004038B5800093
S1130330104BC45822689579237E1D40637E1D406E
S1130340EB0705D5201C626890470123226893714E
S1130350AB0705D5201CA26890470223226893713D
S1130360EB0605D5201C62699047236810229A7118
S113037038BDC0460C3D002008B50020014B98470D
S113038008BDC0462D0300000C4B1B68002B10D188
S1130390EFF31083002B09D172B6BFF35F8F0022F5
S11303A0074B1A700122074B1A7002E00022054B1A
S11303B01A70024B1A6801321A6070478C000020D0
S11303C00000002090000020084B1A68013A1A60CF
S11303D01B68002B09D1064B1B78002B05D001228A
S11303E0044B1A70BFF35F8F62B670478C00002015
S11303F09000002000000020F0B583B001AC01257E
S113040065700027A77025701320211C064EB04785
S113041080221203054B9A61277065701C20211CF1
S1130420B04703B0F0BDC0463104000000440041B1
S113043000B583B001AB80221A700A785A704A78EA
S11304409A708A78DA70191C014B984703B000BD82
S1130450E909000008B5024B1B680020984708BD55
S11304609400002008B5024B5B680120984708BD42
S11304709400002008B5024B9B680220984708BDF1
S11304809400002008B5024BDB680320984708BDA0
S11304909400002008B5024B1B690420984708BD4E
S11304A09400002008B5024B5B690520984708BDFD
S11304B09400002008B5082834D880001B4B1B5832
S11304C09F468020000230E0194B18692DE0194B3B
S11304D0186A8005800F184BC340181C25E0144B84
S11304E0586922E0124B1B68022018401DD01149A4
S11304F01022CB681A42FCD00D4B1B685A0713D547
S113050000200E4B98470A4B9B681B041B0C584356
S11305100BE05023074AD35C00205A0705D5044B4F
S1130520D86802E0002000E0054808BDF83100006A
S1130530AC0000200008004000127A0029090000E5
S1130540006CDC0270B50C4B1C6A0178857840782D
S11305500122104080014026B44304432A40D001C4
S113056080229443221C02430320014009020348D1
S113057002400A431A6270BD00080040FFFCFFFFFE
S1130580082843D88000224B1B589F4600203EE099
S1130590204B196A02220A431A62002037E01D4BDD
S11305A0996902220A439A61002030E0194B198AA2
S11305B002220A431A82002029E0164B998A022259
S11305C00A439A82002022E0134B196802220A434C
S11305D01A601A68114B1A400E4B9A84191C102287
S11305E0CB681A42FCD00C4A91680A4BD962516814
S11305F09962126892B29A84002008E0054A442362
S1130600D05C02210143D154002000E01720704740
S11306101C32000000080040AC0000207FFF0000F6
S1130620F0B5474680B484B0C222D200214B9A6010
S1130630214B5A681E218A435A6001236A4613706B
S113064000241E4DE0B26946A8470134252CF9D197
S113065003A8002444700123984683700470184B47
S113066098470620174B9847174B98476B465C7082
S113067006271F701C725C721023019303206946C5
S1130680124EB0470320124DA847124B1C725C72E5
S11306909C72424601926B465C701F701C725C72C5
S11306A000206946B0470020A84704B004BC904627
S11306B0F0BDC04600080040004000410D090000A4
S11306C04505000081050000D9060000FD06000074
S11306D0B107000000040040064B996908220A4350
S11306E09A610122044B1A70191C0B781342FCD135
S11306F07047C04600040040000C0040F8B5061CDA
S1130700071C0D782D0205434B78002B02D0802363
S1130710DB021D434B7A002B02D080231B031D43B5
S11307204C68012C17D9631E1C420FD1022C06D928
S11307300223002201325B009C42FBD800E000222D
S11307401702374380235B031D4304E0270237432A
S113075080239B021D430B7A002B02D080239B0332
S11307601D430F4A53785BB2002BFBDB0D4B9847BC
S11307700D4B1E700A4A53785BB2002BFBDB084B0F
S11307809F601A1C53785BB2002BFBDB044B596847
S1130790802252020A4015435D60044B9847F8BD1D
S11307A0000C004089030000080C0040C90300004D
S11307B010B5041C0B4A53785BB2002BFBDB0A4BCD
S11307C098470A4B1C70074A53785BB2002BFBDB3B
S11307D0044B5968802252020A435A60044B9847DA
S11307E010BDC046000C004089030000040C00400A
S11307F0C903000070B5041C1A4A53785BB2002B7D
S1130800FBDB194B9847194B1C70164A53785BB2A3
S1130810002BFBDB134E7068C004C00E144B9847CA
S1130820051C124B1C707668F602F60F114B1C70F7
S11308300C4A53785BB2002BFBDB0A4B9C68240AFE
S1130840A4B20D4B9847002E07D1012C07D9281CC0
S1130850211C0A4B9847051C01E00134E540281C83
S113086070BDC046000C004089030000040C004029
S1130870B5040000080C0040C9030000192300005F
S113088010B5041C064B9847064B1C70064B598840
S11308908022D2010A435A80044B984710BDC046B7
S11308A089030000020C0040000C0040C903000052
S11308B010B5041C0F4B98470F4B1C700F4B5888F6
S11308C00005000F59880E4A0A405A8059880D4A7B
S11308D00A405A80191C8022D2014B881342FCD151
S11308E0064B01025888064A02400A435A80064BC6
S11308F0984710BD89030000020C0040000C004022
S1130900FFF0FFFFFFBFFFFFC903000010B50C7825
S113091024020443024B9847A4B2024B5C8010BDEE
S1130920B1080000000C004010B5041C064B9847A9
S1130930064B1C70064B5C882405240F054B984716
S1130940201C054B984710BD89030000020C004091
S1130950000C0040C9030000F507000030B5D3784F
S1130960002B1ED11378802B04D01B068024640234
S1130970234300E0002354780225AC430AD1947841
S1130980002C03D18024A402234302E0C024E40207
S1130990234341605478013C012C04D8114C23407A
S11309A001E0416000230D042D0CA024E4052C4338
S11309B01C4384620D0CD02424062C431C43846203
S11309C0D478002C0CD15C0305D59378012B01D18C
S11309D0816100E041615378013B012B00D88160C3
S11309E030BDC046FFFFFBFF08B5031C0A1CC1094C
S11309F00020002903D15809C001044940181F21CF
S1130A000B4001219940024B984708BD0044004126
S1130A105D0900007047C04608B5044B9847044B75
S1130A209847044B9847044B984708BD210600009B
S1130A30F9030000150A000031010000FEE7C0467A
S1130A4010B51C4B1C4A9A4203D01C4B194A9A42BB
S1130A5004D31B4B1B4A9A4210D31BE01A4B174872
S1130A600330C01A80080130800000231149124A63
S1130A70D458CC5004338342FAD1EAE7114B1A1DFF
S1130A800F490331891A890889005218002102C3C9
S1130A909342FCD10D4B7F210D4A8A439A600D4B42
S1130AA0596880220A435A600B4B98470B4B98476E
S1130AB0FEE7C046000000208833000070000020DC
S1130AC0143D0020700000200400002000ED00E030
S1130AD00000000000400041B9230000FD22000096
S1130AE0064B1B68002B02D1054A044B1A60034ACB
S1130AF0136818181060181C7047C046C400002002
S1130B00185D0020012040427047C04680239B01AD
S1130B104B6000207047C04601207047002070479A
S1130B2010B51820044B9847041E03D0002308C0B6
S1130B30024B9847201C10BD750D0000410B0000AE
S1130B40031C08334360012252428260C360036184
S1130B50002303607047C046002303617047C0460A
S1130B6043684B609A688A609A685160996008612A
S1130B70036801330360704730B50C68021C083207
S1130B80631C01D1026905E053681D68AC4201D3BE
S1130B901A1CF9E753684B6099608A6051600861D8
S1130BA003680133036030BD036942688168916062
S1130BB08268416851605A68824201D192685A60E1
S1130BC0002202611868013818607047034B1B68E3
S1130BD0013301D072B6FEE772B6FEE704000020CE
S1130BE0064A13681868203080F30988022080F3CD
S1130BF014883FBCAE4662B600BDC0461C3C002013
S1130C0010B5031F802464041C60043B1960043B7A
S1130C1002491960143B1A60403810BDCD0B000026
S1130C207047C04680225205034B1A60BFF34F8FB2
S1130C30BFF36F8F7047C04604ED00E072B6044BFB
S1130C401A6801321A60BFF34F8FBFF36F8F70477A
S1130C5004000020064B1B68002B01D172B6FEE78E
S1130C60013B034A1360002B00D162B67047C046B3
S1130C7004000020EFF3108072B670470020C046D5
S1130C8080F310887047C046EFF309800E4B1A6852
S1130C9020381060F0C044464D4656465F46F0C0CA
S1130CA008B572B600F012FF62B60CBC1168086891
S1130CB01030F0C8A046A946B246BB4680F3098866
S1130CC02038F0C81847C0461C3C002010B5074B1C
S1130CD09847041C064B9847002803D080225205ED
S1130CE0044B1A60201C044B984710BD750C00007F
S1130CF0C917000004ED00E0810C000008B50022D3
S1130D00074B1A600020074B9847C821064B9847A9
S1130D100138064B18600722054B1A6008BDC0460F
S1130D2018E000E0F50700001923000014E000E0DB
S1130D3010E000E008B50A4B1968FF2212040A43C8
S1130D401A601968FF2212060A431A60054B984775
S1130D500022054B1A60054B9847054B9847C0463F
S1130D6020ED00E0FD0C000004000020E10B000079
S1130D70CD0B000038B5041C430702D007239C4365
S1130D800834104B9847104B1B68002B05D10723E0
S1130D900E4A08329A430C4B1A600D4B1B68E41838
S1130DA00C4A944207D8A34207D2074A1568ED18A3
S1130DB0074B1C6002E0002500E00025064B984725
S1130DC0281C38BD99170000643B0020CC0000208B
S1130DD0C80000208F3A0000F5180000002801D058
S1130DE072B6FEE77047C04638B5041C151C026C89
S1130DF0002A08D1016800292AD14068164B984777
S1130E000023636024E0002D0CD18068134B9847C5
S1130E10A268216C5318A3606268934218D32368B4
S1130E20A36015E0C0680D4B9847216C4A42E16805
S1130E308B18E36021688B4202D263689A18E260DF
S1130E40022D05D1A36B002B02D0A36B013BA3633E
S1130E50A36B0133A36338BDCD1D0000052400003E
S1130E6010B582B001900A1CC46C002C01D172B67A
S1130E70FEE7A16BE36B994201D372B6FEE7A16B67
S1130E8000208B420DD9201C01A9074B9847002054
S1130E90636A002B05D0201C2430044B9847431E62
S1130EA0984102B010BDC046E90D0000FD1B0000D2
S1130EB038B50468002C0CD0026CC568AB18C3604C
S1130EC04568AB4200D3C460C368081C191C014BBD
S1130ED0984738BD05240000F8B5041C234B9847F7
S1130EE0A36C002B1CDD224E224DE36C002B07D09B
S1130EF0201C0021A84701280CD11F4B984709E06A
S1130F00636A002B0CD0201C2430B047002801D089
S1130F10194B9847A36C013BA364A36C002BE4DC3E
S1130F2001235B42A364154B9847104B9847636CAD
S1130F30002B15DD2369002B12D0271C10370C4E13
S1130F400D4D02E02369002B0AD0381CB04700285D
S1130F5000D0A847636C013B6364636C002BF1DC35
S1130F6001235B426364054B9847F8BD3D0C0000C8
S1130F70FD1B0000610E0000151D0000550C000053
S1130F8038B5041C0D1C002801D172B6FEE7154BC0
S1130F9098472368226CE06B504319186160002164
S1130FA0A163A360821A9B18E36001235B4263641C
S1130FB0A364002D0BD1216900290FD0201C10300F
S1130FC0094B9847012809D1084B984706E0201C93
S1130FD01030074DA847201C2430A847054B9847DC
S1130FE0012038BD3D0C0000FD1B0000250C000055
S1130FF0410B0000550C000070B5051C0E1C0028A8
S113100011D050200E4B9847041E0CD0301C68435E
S113101001300B4B98472060002806D1201C094B57
S1131020984700E0FEE772B6FCE7E5632664201CFF
S11310300121054B98470023E364201C70BDC04682
S1131040750D0000DD0D0000810F0000F0B557465E
S11310504E464546E0B484B0041C0E1C01921D1C8F
S1131060002801D172B6FEE7002904D1026C002ADF
S113107001D072B6FEE7022D04D1E36B012B01D03F
S113108072B6FEE7414B9847002802D1019A002A24
S113109003D100273E4B984601E072B6FEE7C047F5
S11310A0A36BE26B934201D3022D1FD1201C311C90
S11310B02A1C384B9847E36C002B08D0201C291CB1
S11310C0354B984701280DD1344B98470AE0626AA2
S11310D0002A07D0201C2430314B9847012801D125
S11310E02E4B98472F4B9847012049E0019B002B3A
S11310F003D12C4B9847002042E0002F03D102A8D3
S1131100294A90470127274B9847284B9847204B5B
S11311109847636C013301D100236364A36C0133EA
S113112001D10023A3641F4B984702A801A9204BB7
S1131130984700281ED1164B9847A26B9246E36B42
S11311409946184B9847CA450ED1201C1030019976
S1131150184B9847201C184B9847184B9847002861
S11311609DD10E4B98479AE7201C134B9847134B7D
S1131170984794E7201C104B9847104B9847002041
S113118004B01CBC90469946A246F0BD2D1D00003B
S11311903D0C0000E90D0000610E0000250C00006C
S11311A0FD1B0000550C0000851C00009917000071
S11311B0A51C0000651B0000D90E0000F5180000F6
S11311C038B55020114B9847041E01D002E0FEE7C9
S11311D072B6FCE70023436003608360C3608363EB
S11311E00122C2630364524242648264C3641030C5
S11311F0074DA847201C2430A847201C00210022AA
S11312000023044DA847201C38BDC046750D0000BE
S1131210410B00004D100000F0B5474680B4041C9B
S11312208846161C1D1C002801D172B6FEE7002951
S113123004D1036C002B01D072B6FEE7022D33D12A
S1131240E26B012A39D072B6FEE7201C41462A1C03
S1131250204B9847A36C01331DD1E36C002B0BD0BA
S1131260201C291C1C4B9847012501282AD1002E3B
S113127016D00123336025E00125626A002A21D0BB
S1131280201C2430154B984700281BD0002E09D071
S11312900123336016E0A36C0133A364012511E03C
S11312A001250FE001250DE00D4B9847071CA36BAA
S11312B0E26B9342C9D3002504E0094B9847071C0D
S11312C0A36BC2E7381C074B9847281C04BC904604
S11312D0F0BDC046E90D0000610E0000FD1B0000DA
S11312E0750C0000810C0000F0B54F464646C0B4B2
S11312F085B0041C0D1C01921F1C002801D172B67C
S1131300FEE7002904D1036C002B01D072B6FEE77E
S11313104A4B9847002802D1019B002B03D1002699
S1131320474B984601E072B6FEE7C047A36B002B1B
S11313302BD0E668201C291C424B9847002F14D15F
S1131340A36B013BA3632368002B02D13E4B984758
S113135060602369002B14D0201C10303B4B98474D
S113136001280ED13A4B98470BE0E660636A002BE4
S113137007D0201C2430354B9847002801D0344B2B
S11313809847344B9847012052E0019B002B03D12E
S1131390304B984700204BE0002E03D102A82E4B7F
S11313A0984701262B4B98472C4B9847244B98473A
S11313B0636C013301D100236364A36C013301D155
S11313C00023A364234B984702A801A9244B984700
S11313D0002827D11A4B9847A36B99461D4B984771
S11313E04B46002B18D12368002B06D1144B984789
S11313F060681C4B9847174B9847201C2430019970
S1131400194B9847201C194B9847194B98470028AB
S11314108BD10F4B984788E7201C144B9847144BEB
S1131420984782E7201C114B9847114B984700209E
S113143005B00CBC90469946F0BDC0462D1D000079
S11314403D0C0000B10E0000211D0000FD1B00003A
S1131450250C0000550C0000851C000099170000A5
S1131460A51C00004D1D0000651B0000D90E0000E6
S1131470F518000038B5041C0D1C0D4B9847636C1F
S1131480013301D100236364A36C013301D1002330
S1131490A364084B9847A36B002B04D1201C243071
S11314A0291C054B9847201C044B984738BDC0465F
S11314B03D0C0000550C0000BD1B0000D90E0000BF
S11314C0084B1B681B68002B04D101225242064BB7
S11314D01A6006E0034B1B68DB68DB685A68024B42
S11314E01A6070476C3B00200800002010B5041CF3
S11314F00E4B1B6858600E4B1B68984207D20D4B6D
S113150018680A4B196804310B4B98470CE00B4BD5
S11315101868064B19680431074B9847084B1B6839
S11315209C4201D2064B1C6010BDC0461C3C0020EE
S1131530383C00203C3C0020790B00006C3B002030
S113154008000020F8B55F4656464D464446F0B4C0
S1131550071C0E1C91469A460A9D002801D172B6BA
S1131560FEE7042D01D972B6FEE740205B4B984795
S1131570041E00D1AAE00C9A002A00D092E04B4647
S11315809800564B98472063002800D08CE0201C1C
S1131590534B98479AE0F15CE21834321170F25CD4
S11315A0002A02D00133082BF5D100223B23E25458
S11315B02E1E042E00D90426E662E663221D904600
S11315C0101C484B99469847201C1830C847246182
S11315D005239E1BA66164625846391C5246424B41
S11315E0984720600B9A002A00D014603F4B98471C
S11315F03F4B1A6801321A603E4B1B68002B23D103
S11316003C4B1C603A4B1B68012B28D13A4E642397
S11316109B199946394F301CB84714364E45FAD1B8
S1131620374A9146101C354EB047364F381CB047E8
S11316303548B0473548B0473548B047354B4A463A
S11316401A60354B1F600AE0344B1B68002B06D12F
S1131650284B1B68DB6A9D4201D3264B1C60304B30
S11316601A6801321A60E36A2E4A1268934201D959
S11316702C4A13609A00D3189B001F48C018414697
S1131680294B9847294B9847244B1B680120002B72
S11316901ED0184B1B68DB6A9D4219D9244B98470E
S11316A0012015E00C9B0363224A131C4B449B004E
S11316B0226BD318072293439B4632783423E25497
S11316C03378002B00D170E7012364E70120404206
S11316D03CBC90469946A246AB46F8BD750D000049
S11316E0DD0D0000590B0000010C00003D0C000052
S11316F0443C00201C3C0020A43B0020410B000083
S1131700783B00208C3B0020203C0020083C00203B
S1131710483C00206C3B00203C3C0020703B0020F7
S1131720403C00205C3C0020610B0000550C000094
S1131730250C0000FFFFFF3F10B584B00023009389
S11317400193029303930D480D4964220D4CA04765
S113175001280DD10C4B9847012809D172B60122FA
S11317600A4B1A6000220A4B1A600A4B984703E09E
S1131770002801D172B6FEE704B010BD491A00007A
S11317804032000045150000D11E0000703B0020CF
S1131790383C0020350D0000024B1A6801321A60F3
S11317A07047C046343C002010B5044B9847044BA6
S11317B01C68044B9847201C10BDC0463D0C00001B
S11317C0383C0020550C0000F0B5474680B43B4B34
S11317D01B68002B61D13A4B1A6801321A601F68EA
S11317E0002F12D1374B1B681B68002B01D072B637
S11317F0FEE7344A1168344B186810601960334BA3
S11318001A6801321A60324B9847324B1B68002425
S11318109F4237D32B4E00E0012433681B68002B12
S113182004D1012252422B4B1A602BE0254A136843
S1131830DB68DD686B689F4202D2264A136021E0B0
S11318402B1D9846181C244A9047AB6A002B03D0E2
S1131850281C1830204B9847EB6A204A12689342A0
S113186001D91E4A13609A00D3189B001C48C01863
S113187041461C4B98471C4B1B68EA6ADB6A9A4238
S1131880CAD2CAE7184B1B68DB6A9A00D3189B00BC
S1131890134A9B58012B06D806E0144B1A680132F0
S11318A01A60002400E00124114B1B68002B00D0B7
S11318B00124201C04BC9046F0BDC046343C0020EA
S11318C0383C00206C3B00203C3C0020683B00205E
S11318D0C114000008000020A90B00005C3C00209B
S11318E0A43B0020610B00001C3C0020A03B002016
S11318F0603C0020F8B52F4B1B68002B01D172B659
S1131900FEE72D4B98472B4B1A68013A1A601B6867
S11319100024002B49D1294B1B68002B45D0284DAE
S11319202F1C21E0FB68DC68201C1830254B9847ED
S1131930261D301C234B9847E36A234A12689342BE
S113194001D9214A13609A00D3189B001F48C0187C
S1131950311C1F4B98471F4B1B68E26ADB6A9A4293
S113196002D301221C4B1A602B68002BDAD11B4BCB
S11319701B68002B11D0194B1B68002B0DD0184E7F
S1131980154D164CB047002801D001232B60236865
S1131990013B23602368002BF4D10F4B1B68002408
S11319A0012B02D10F4B984701240F4B9847201C61
S11319B0F8BDC046343C00203D0C0000443C0020EF
S11319C0203C0020A90B00005C3C0020A43B00202C
S11319D0610B00001C3C0020603C0020A03B002068
S11319E0C9170000250C0000550C000010B5041E9A
S11319F016D00D4B1B68002B01D072B6FEE70B4BC3
S1131A0098470B4B1B68E4180A4B186804300A4BC0
S1131A109847201C094B9847094B9847002801D147
S1131A20084B984710BDC046343C0020991700006D
S1131A30383C00201C3C0020A90B0000ED140000E1
S1131A40F5180000250C0000F8B5154E154F1EE0E2
S1131A50154B9847154B1C68154B9847002C16D00E
S1131A60144B9847114BDB68DC68201D124B9847D8
S1131A70124B1A68013A1A60094B1A68013A1A6043
S1131A800F4B9847206B0F4DA847201CA84733687D
S1131A90002BDDD13B68012BF9D90B4B9847F6E7B6
S1131AA0743B0020A43B002099170000083C002050
S1131AB0F51800003D0C0000A90B0000443C002078
S1131AC0550C0000DD0D0000250C000010B5204B66
S1131AD01B68002B03D001221E4B1A6036E0002243
S1131AE01C4B1A601C4B1B689A00D3189B001B4AA2
S1131AF09B58002B16D1184B1B68002B05D102E014
S1131B000268002A04D172B6FEE7134B134C181C6A
S1131B101A68013A1A601A6891008A1892001259D8
S1131B20002AEDD00C4B1B689A00D3189B000B4A7B
S1131B30D3185A6852685A60191C08318A4201D174
S1131B4052685A605B68DA68054B1A6010BDC0467B
S1131B50343C0020603C00205C3C0020A43B00207E
S1131B601C3C002038B50C1C002801D172B6FEE7DD
S1131B700B4D296818310B4B9847286804300A4BE1
S1131B809847631C06D1064B196804310748084B73
S1131B90984704E0074B18682018074B984738BD4E
S1131BA01C3C0020790B0000A90B0000483C0020DD
S1131BB0610B0000383C0020ED14000038B50D1C0A
S1131BC0002801D172B6FEE7074C21681831074B93
S1131BD0984720680430064B9847064B1868281825
S1131BE0054B984738BDC0461C3C0020610B0000E3
S1131BF0A90B0000383C0020ED14000038B5C36880
S1131C00DC68002C01D172B6FEE7251C1835281CAF
S1131C10144B9847144B1B68002B13D1251D281C0B
S1131C20104B9847E36A114A1268934201D90F4A4C
S1131C3013609A00D3189B000D48C018291C0D4B43
S1131C40984703E00C48291C0A4B98470B4B1B6828
S1131C50E26ADB6A00209A4203D90122084B1A6027
S1131C60012038BDA90B0000343C00205C3C00205E
S1131C70A43B0020610B0000203C00201C3C002001
S1131C80603C0020002801D172B6FEE7034B1B68BC
S1131C900360034B1B6843607047C046683B0020E9
S1131CA0383C002070B5041C0E1C002801D172B60B
S1131CB0FEE7002901D172B6FEE7114B9847114B9C
S1131CC01A683368581C15D00F490968206888427F
S1131CD003D0012561688A420DD26168501A01253A
S1131CE0834208D98A1AD3183360201C074B9847BB
S1131CF0002500E00025064B9847281C70BDC0460F
S1131D003D0C0000383C0020683B0020851C00008E
S1131D10550C00000122014B1A607047603C002002
S1131D20014B18687047C0461C3C0020054B1B68DB
S1131D300120002B04D0044B186843425841400052
S1131D407047C046703B0020343C002038B5041E68
S1131D5031D0C36A184A1268D26A93422BD282697C
S1131D60002A05DB144A1268D26A05218A1A8261A4
S1131D709A00D3189B00114AD31862699A4216D16B
S1131D80251D281C0E4B98470B4B1B68DB6AE3622E
S1131D900C4A1268934201D90A4A13609800C31886
S1131DA09B000648C018291C074B984703E0024BC8
S1131DB01B68DB6AE36238BD1C3C0020A43B0020A6
S1131DC0A90B00005C3C0020610B000038B5041E28
S1131DD01DD0C26AC36B9A4219D0051D281C0C4B36
S1131DE09847E36BE362A269002A02DB0522D21A58
S1131DF0A261084A1268934201D9064A1360980006
S1131E00C3189B000448C018291C044B984738BDCC
S1131E10A90B00005C3C0020A43B0020610B0000E7
S1131E2010B5041C4160206191420BD8D21A0120E4
S1131E30A3699A4211D2094B1868211D084B98478F
S1131E4000200AE09A4202D20120994205D2054BB1
S1131E501868211D024B9847002010BD983C0020B3
S1131E60790B0000643C002070B5104B9847104B70
S1131E701B68002B16D10F4D281C0F4EB0470F4C7A
S1131E80201CB0470E4B1D600E4B1C6002200C2121
S1131E9000220D4B9847002802D0054B186001E042
S1131EA072B6FEE7094B984770BDC0463D0C000072
S1131EB0943C0020683C0020410B00007C3C002046
S1131EC0643C0020983C0020F90F0000550C0000F1
S1131ED010B584B00B4B98470B4B1B68002B0CD0F0
S1131EE002230093002301930293039307480849B4
S1131EF05022084CA047002801D172B6FEE704B076
S1131F0010BDC046691E0000943C0020392000002A
S1131F10703200004515000010B584B0134C2468DD
S1131F20002C1FD0019102920390052913DC104B61
S1131F309847022807D10D4B186801A9069A002377
S1131F400C4CA0470FE0094B186801A9002200239C
S1131F50084CA04707E0201C01A91A1C0023064CCA
S1131F60A04700E0002004B010BDC046943C00200F
S1131F702D1D00004D10000019120000F0B5574649
S1131F804E464546E0B482B08146244B984780468D
S1131F90234B1B68984234D2224E234F24E0DB6843
S1131FA018688246DC68251D281CB847201C616A15
S1131FB08847E269012A17D1A069031C5344534599
S1131FC007D963602461174B1868291C174B98477D
S1131FD00AE000230093201C00215246144CA04721
S1131FE0002801D172B6FEE7336818680028D6D1FC
S1131FF0104A0C4914680C601360012348460360BE
S113200002E0002349460B60054B42461A604046F5
S113201002B01CBC90469946A246F0BDA917000028
S1132020903C0020643C0020A90B0000790B0000C8
S1132030191F0000983C0020F0B5474680B486B0D4
S11320404E48804641460B681A68002A00D18AE04F
S1132050DB681C684A4B984703A84A4B9847051C01
S1132060039B002B31D1844223D8474B9847434BE1
S11320701B68DB68DE68301D444B9847F769012F05
S113208013D1B0692118301C2A1C231C404DA847C9
S113209001280AD100230093301C0021221C3D4C4E
S11320A0A047002801D172B6FEE7736A301C984736
S11320B00DE0394B1868611B384B9847324B9847F1
S11320C0002804D1364B984701E02F4B9847324DF6
S11320D0344C40E0039900293DDB059E7269002AD7
S11320E002D0301D294B984702A8264B9847031C61
S11320F0039F092F2FD8BA002B498A589746049F6B
S1132100B269B918301C1A1C3B1C214FB84701286E
S113211021D1301C716A8847F269012A1BD1B36945
S1132120049FDA1900230093301C0021194EB04794
S1132130002810D172B6FEE70499B161002901D1DB
S113214072B6FEE75918301C1A1C114EB04702E053
S1132150301C164B9847286803A900220023A04787
S11321600028B7D16EE70648804703A80549884789
S1132170051C0024039AA2429BD0A6E7643C0020DD
S1132180991700007D1F0000F5180000A90B00003E
S1132190211E0000191F0000943C0020751400004B
S11321A0250C0000E912000048320000DD0D00009B
S11321B008B50620014B984708BDC046ED1900003C
S11321C008B50620014B984708BDC046ED1900002C
S11321D008B50620014B984708BDC046ED1900001C
S11321E008B50620014B984708BDC046ED1900000C
S11321F008B5C820014B984708BDC046ED1900003A
S113220008B50348034B98470A20034B984708BD79
S11322107832000029240000ED19000070B584B064
S11322200120244CA047244B18600120A047234BD5
S11322301860234B9847234B186014230093002401
S11322400194029403942048204964220023204DE1
S1132250A847012600960194029403941D481E4940
S113226064220023A84700960194029403941B4817
S11322701B4964220023A847009601940294039406
S11322801848194964220023A8470096019402942F
S113229003941648164964220023A8470096019423
S11322A0029403941348144964220023A84704B0F9
S11322B070BDC046C1110000A43C00209C3C00201D
S11322C0210B0000A03C0020012200008432000009
S11322D045150000F121000088320000E1210000D2
S11322E094320000D1210000A4320000C12100007A
S11322F0B0320000B1210000BC32000008B5034B2D
S11323009847034B9847034B9847FEE7190A000088
S11323101D22000039170000002934D001230022B7
S113232010B488422CD301242407A14204D2814250
S113233002D209011B01F8E7E400A14204D2814260
S113234002D249005B00F8E7884201D3401A1A43DD
S11323504C08A04202D3001B5C0822438C08A04214
S113236002D3001B9C082243CC08A04202D3001BCA
S1132370DC082243002803D01B0901D00909E3E744
S1132380101C10BC7047002801D00020C04307B4C3
S1132390024802A14018029003BDC0461900000083
S11323A00029F0D003B5FFF7B9FF0EBC4243891AE8
S11323B01847C0467047C04670B50E4B0E4D0024FA
S11323C0ED1AAD101E1CAC4204D0A300F35898477C
S11323D00134F8E700F0C8FF084B094D0024ED1A5A
S11323E0AD101E1CAC4204D0A300F358984701342E
S11323F0F8E770BD743300007433000074330000D8
S11324007833000010B50023934203D0CC5CC4544D
S11324100133F9E710BD031C8218934202D01970EE
S11324200133FAE7704700000FB40B4B13B51C6877
S1132430002C05D0A369002B02D1201C00F09CFCC9
S113244005ABA168201C049A019300F02FF816BC78
S113245008BC04B01847C0466C000020936810B54F
S1132460013B9360002B05DA9469A34208DBCBB2ED
S11324700A2B05D01368581C10601970C8B201E00B
S113248000F0A6FA10BDF8B5061C0F1C141CD518D4
S1132490AC4208D02178301C3A1CFFF7DFFF01342E
S11324A0431CF5D100E00020F8BD0000F0B59FB05A
S11324B0061C0F1C03920593002804D0816900298F
S11324C001D100F059FC754B9F4201D1776808E0B7
S11324D0734B9F4201D1B76803E0724B9F4200D116
S11324E0F768BB891A070AD53B69002B07D006ADEC
S11324F000236B6120236B763023AB763BE0301CEA
S1132500391C00F0BDFA0028F1D001204042C2E09D
S1132510059A111D12680591002A76DB099201348F
S113252023782E2B00D181E021785F48032200F02C
S1132530E3FC002807D05C492A68431A40209840ED
S11325401043286001342178631C58480622039301
S1132550297600F0D1FC002800D18AE0544B002BEE
S11325607ED1059B072207339343083305936A6999
S1132570049953186B61039C2378002B04D10399AD
S1132580611A029110D003E0252BF8D00134F3E74F
S1132590301C391C039A029BFFF775FF013075D07C
S11325A06A69029953186B612378002B6ED001225B
S11325B052426A606A4600235B3201342B60EB604E
S11325C0AB601370AB6521783A48052200F094FCA7
S11325D0002808D0374A0134831A012098402B6818
S11325E018432860EFE72B68D90603D56A462021F3
S11325F05B3211701A0703D56A462B215B321170C6
S113260022782A2A84D0099B05E05242EA600222F9
S113261013432B6083E72278303A092A04D80A212D
S11326204B4301349B18F6E7099379E763782A2B27
S113263009D1059B02341A1D1B680592002B0DDA83
S113264001235B420AE0013400232278303A092A4C
S113265004D80A214B4301349B18F6E7079363E738
S113266005AB0093301C291C3A1C134B00E000BF3F
S113267007E005AB0093301C291C3A1C0E4B00F0FC
S113268091F804900499013100D070E7BB895A068F
S113269000D53AE70B981FB0F0BDC04608330000E0
S11326A02833000048330000DA320000DE32000034
S11326B000000000D432000087240000F7B5151C88
S11326C001930A698B68061C0C1C934200DA131CE4
S11326D0221C2B6043321278002A01D001332B6074
S11326E02068800602D52B6802332B6021680627F8
S11326F00F401FD0231C43331B785A1E934122687A
S113270092061FD5E11840313020C870211C5A1C94
S113271045310978A21840320233D17012E0221CEC
S1132720301C019919320123089FB847013011D098
S1132730009F01370097E0682968009F431A9F4271
S1132740EDDBD7E7221C301C01994332089FB847C0
S1132750013002D10120404223E0206806212B6889
S1132760E26801400025042903D1D51AEB43DB17A5
S11327701D40A26823699A4201DDD31AED1800278F
S11327800097009FAF420BDA221C301C01991A32C9
S11327900123089FB8470130DCD0009F0137EFE7E1
S11327A00020FEBDF0B50D1C8BB04335069205909C
S11327B0079304950B7E0C1C109A6E2B00D1A7E096
S11327C011D8632B22D009D8002B00D1B0E0582BAC
S11327D000D0C0E045310B707B4D4EE0642B1CD023
S11327E0692B1AD0B7E0732B00D1A5E009D86F2B61
S11327F029D0702B00D0AEE00E68202333430B6049
S113280036E0752B1FD0782B32D0A4E013680D1C52
S1132810191D423511601B689FE0216813680E067C
S113282003D5191D11601E6805E04806F9D5191D68
S1132830116000215E5E644B002E3BDA049D2D2264
S113284076422A7036E0216813680E0603D5191DF6
S113285011601E6804E04806F9D5191D1E88116030
S1132860594B227E039308276F2A1ED00A271CE0A7
S1132870231C78214533554D197011682368081DB0
S1132880039510601E0601D50E6802E05806FBD5BC
S11328900E88D90702D52022134323601027002E67
S11328A003D1226820239A432260231C002243334D
S11328B01A7001E003930A276368A360002B03DB0B
S11328C02568042295432560002E02D1049D002B27
S11328D00ED0049D301C391CFFF762FD0398013DA6
S11328E0435C301C2B70391CFFF716FD061EF1D11A
S11328F0082F09D12168C90706D5626823699A425D
S113290002DC013D30232B70049E731B23612AE0FB
S1132910086813684969050604D5181D10601B680A
S1132920196005E04606F8D5181D10601B6819806B
S113293000232361049D16E01368191D11601D68AE
S1132940281C00F0DFFB63682061984200D92361F2
S11329502069606004E0251C42352B70012323614B
S1132960049E00233370079E05980096211C09AA33
S1132970069BFFF7A3FE013002D10120404221E073
S11329802A1C059806992369079DA8470130F4D0AD
S11329902668B60705D4099BE068984212DA181C29
S11329A010E00025E0680999431A9D42F3DA221CDD
S11329B00598069919320123079EB0470130DCD0EF
S11329C00135EFE70BB0F0BDE5320000F632000050
S11329D070B5051C0E1C141C002804D08269002A42
S11329E001D100F0C9F9234B9C4201D16C6808E085
S11329F0214B9C4201D1AC6803E0204B9C4200D1A6
S1132A00EC68A369A360A3891A070AD52369002B7C
S1132A1007D022682369F6B2D01A626990420FDBAC
S1132A2008E0281C211C00F02BF80028F1D001201C
S1132A3040421DE0281C211C00F01EF90028F6D19C
S1132A40A3680130013BA36023685A1C22601E70F6
S1132A506369984205D0A389301CDA0708D50A2E89
S1132A6006D1281C211C00F007F90028DFD1301CF6
S1132A7070BDC0460833000028330000483300000E
S1132A80344B70B51D68061C0C1C002D05D0A969BB
S1132A90002902D1281C00F06FF92F4B9C4201D170
S1132AA06C6808E02D4B9C4201D1AC6803E02C4BD0
S1132AB09C4200D1EC68A28993B2190721D4D906AB
S1132AC005D40923336040231A43A2813FE05A0707
S1132AD013D5616B002908D0231C4433994202D0DA
S1132AE0301C00F015FA00236363A3892422934366
S1132AF0A3810023636023692360A389082213430D
S1132B00A381216900290BD1A389A02292001A4034
S1132B1080239B009A4203D0301C211C00F09CF9B6
S1132B20A38901221A4005D061690022A2604A42A9
S1132B30A26103E0990700D46269A26022690020BF
S1132B40824206D1190604D540221343A3810120F1
S1132B50404270BD6C0000200833000028330000A0
S1132B6048330000F7B58B89051C0C1C19075ED48B
S1132B706268002A02DC276C002F1ADDE76A002F46
S1132B8017D000222E682A60802252011A4001D0F8
S1132B90626D15E0281C216A0123B847021C411C00
S1132BA00ED12B68002B0BD01D2B01D0162B02D17C
S1132BB02E6000205EE0A38940210B43A38159E0ED
S1132BC0A3895F0706D56168636B521A002B01D095
S1132BD0276CD21B281C216A0023E76AB847A28904
S1132BE0411C06D12B68002B03D01D2B01D0162BC2
S1132BF019D10023636023692360D70405D5411CE0
S1132C0002D12A68002A00D16065616B2E60002918
S1132C10CFD0231C4433994202D0281C00F078F909
S1132C200020606326E040231A43A28122E0266943
S1132C30002EBED027680022BF1B0197266099078B
S1132C4000D16269A260019F002FB2DD281C216AB5
S1132C50321C019BA76AB847002806DCA3894022DE
S1132C6013430120A381404204E0019F36183F1A18
S1132C700197E8E7FEBD00000A6938B5051C0C1C85
S1132C80002A01D100201CE0002804D08369002B15
S1132C9001D100F071F80B4B9C4201D16C6808E043
S1132CA0094B9C4201D1AC6803E0084B9C4200D123
S1132CB0EC680C22A35E002BE4D0281C211CFFF737
S1132CC051FF38BD083300002833000048330000AA
S1132CD0F8B5041C071C4834002C12D0A56866689B
S1132CE0013E0CD4AB89012B07D90E22AB5E013314
S1132CF003D0381C291CFFF7BFFF6835F0E72468B0
S1132D00EAE7F8BD002310B5041C03604360836048
S1132D1081814366C281036143618361191C082276
S1132D205C30FFF778FB054B24626362044BA362BB
S1132D30044BE362044B236310BDC0466D300000B6
S1132D4095300000CD300000F930000070B54B1E06
S1132D5068255D430E1C291C743100F021F9041E02
S1132D6008D00021016046602A1C0C30A060683243
S1132D70FFF751FB201C70BD836913B5041C002BA5
S1132D8027D18364C3640365124B134A1B688262B0
S1132D90984201D101238361201C00F01FF8606078
S1132DA0201C00F01BF8A060201C00F017F8042180
S1132DB0E06000226068FFF7A5FFA06809210122F6
S1132DC0FFF7A0FFE06812210222FFF79BFF012317
S1132DD0A36113BDD0320000D12C0000F8B51D4B07
S1132DE0071C1E68B269002A02D1301CFFF7C4FF19
S1132DF04836B4687368013B05D40C22A55E002DE7
S1132E0010D06834F7E73368002B06D1381C04214E
S1132E10FFF79CFF3060002801D03668E9E70C23F7
S1132E203B6016E001235B42E381201C0123A38164
S1132E3065662560A560656025616561A5615C3096
S1132E40291C0822FFF7E7FA6563A563A564E56416
S1132E50201CF8BDD0320000F0B58B8991B0051C60
S1132E600C1C9A0725D40E23C95E002906DAA7890B
S1132E7080231F400FD0002740260EE001AA00F057
S1132E806FF90028F3DB029BF0273F02184A1F402A
S1132E90BF187B425F418026F600281C311C00F0DD
S1132EA07FF800280CD1A3899A051FD4022213436A
S1132EB0A381231C4733236023610123636115E04D
S1132EC00C4B8022AB62A38920601343A381206151
S1132ED06661002F0AD00E23E15E281C00F052F92F
S1132EE0002803D0A38901221343A38111B0F0BDAC
S1132EF000E0FFFFD12C0000C9B28218904204D038
S1132F0003788B4202D00130F8E7002070470000BC
S1132F1030B5002940D004390B68002B00DAC918F9
S1132F201E4A1368141C002B02D14B60116033E05D
S1132F3099420FD208680A189A4205D11368526858
S1132F40C01808604A6000E04B60216024E08A42B7
S1132F5003D8131C5A68002AF9D11D685C198C42E5
S1132F600BD10968691858181960904214D1146873
S1132F705268091919605A600EE08C4202D90C2378
S1132F80036009E008680C18944203D1146852687D
S1132F90001908604A60596030BDC046AC3C00204E
S1132FA070B50323CD1C9D430835061C0C2D01D29E
S1132FB00C2501E0002D3FDB8D423DD3204B1C68E6
S1132FC01A1C211C002913D00868431B0DD40B2B99
S1132FD002D90B60CC181EE08C4202D163681360E6
S1132FE01AE0486860600C1C16E00C1C4968E9E7AC
S1132FF0144C2068002803D1301C00F025F8206010
S1133000301C291C00F020F8431C15D0C41C0323D9
S11330109C4384420AD12560201C0B300722231DC7
S11330209043C31A0BD05A42E25008E0211A301CD4
S113303000F00AF80130EED10C233360002070BD9B
S1133040AC3C0020A83C002038B5074C0023051CEC
S1133050081C2360FDF744FD431C03D12368002BA7
S113306000D02B6038BDC046103D002038B50C1C84
S11330700E25495F00F0ACF8002803DB626D1318DD
S1133080636503E0A289024B1340A38138BDC046A7
S1133090FFEFFFFFF8B51E1C8B89051C0C1C171CC9
S11330A0DA0505D50E23C95E0022022300F07CF860
S11330B0A289054B281C1340A3810E22A15E331C58
S11330C03A1C00F027F8F8BDFFEFFFFF38B50C1CE1
S11330D00E25495F00F068F8A389421C03D1054A14
S11330E01340A38104E0802252011343A38160654D
S11330F038BDC046FFEFFFFF08B50E23C95E00F0E0
S11331001DF808BD0023C25C0133002AFBD1581E00
S11331107047000038B5084C051C00202060081CCE
S1133120111C1A1CFDF75CF8431C03D12368002B07
S113313000D02B6038BDC046103D002038B5074C88
S11331400023051C081C2360FDF7DCFC431C03D191
S11331502368002B00D02B6038BDC046103D0020F2
S113316038B5074C0023051C081C111C2360FDF70F
S1133170CDFC431C03D12368002B00D02B6038BD49
S1133180103D002038B5074C0023051C081C2360A3
S1133190FDF7C2FC431C03D12368002B00D02B6035
S11331A038BDC046103D002038B5084C051C002031
S11331B02060081C111C1A1CFDF7B0FC431C03D131
S11331C02368002B00D02B6038BDC046103D002082
S11331D038B5084C051C00202060081C111C1A1C62
S11331E0FCF7DCFF431C03D12368002B00D02B60C9
S11331F038BDC046103D0020C8040000240500006E
S113320024050000C2040000C2040000DE04000023
S1133210CE040000E404000012050000AC05000028
S11332200C0600000C0600008C0500009E05000042
S1133230BA05000090050000C8050000FC05000068
S113324049444C4500000000FE200000FE20000020
S1133250FE2000005621000038210000502100000B
S1133260FE200000FE20000056210000382100004E
S1133270546D7220537663006C63645F7461736B86
S1133280000000004C4344004E65772053656E7384
S11332906F720000416E616C797A652044617461DB
S11332A00000000053616D706C652054656D700002
S11332B04F70656E2F436C6F7365000053797374A0
S11332C061736B2048616E646C657200430000009A
S11332D00C000020232D302B2000686C4C00656608
S11332E06745464700303132333435363738394153
S11332F04243444546003031323334353637383969
S11333006162636465660000000000000000000064
S113331000000000000000000000000000000000A9
S11333200000000000000000000000000000000099
S11333300000000000000000000000000000000089
S11333400000000000000000000000000000000079
S11333500000000000000000000000000000000069
S11333600000000000000000F8B5C046F8BC08BC2E
S11333709E467047DD000000F8B5C046F8BC08BCA6
S10B33809E467047B5000000F1
S113338801000000AAAAAAAAFFFFFFFF000000008C
S11333980833000028330000483300000000000010
S11333A8000000000000000000000000CC32000013
S11333B80000000000000000000000000000000001
S11333C800000000000000000000000000000000F1
S11333D800000000000000000000000000000000E1
S11333E80000000000000000000000000C000020A5
S9030A41B1
