:10000000985C0020A9090000A5090000A5090000CE
:1000100000000000000000000000000000000000E0
:10002000000000000000000000000000490B00007C
:100030000000000000000000B10B0000F50B000004
:10004000A5090000A5090000A5090000A5090000F8
:1000500029020000A5090000A5090000A50900006B
:10006000A5090000BD030000CD030000DD03000072
:10007000ED030000FD0300000D040000A5090000D1
:10008000A5090000A5090000F9010000090200000F
:10009000190200000000000000000000A509000097
:1000A000E102000000000000A5090000A509000011
:1000B0000000000010B5064C2378002B07D1054B3B
:1000C000002B02D0044800E000BF0123237010BDC4
:1000D0000C000020000000001824000008B5084BA8
:1000E000002B03D00748084900E000BF0748036819
:1000F000002B03D0064B002B00D0984708BDC0460C
:100100000000000018240000100000201824000047
:1001100000000000054B197802220A431A701A1CCD
:1001200053785BB2002BFBDB7047C04600180040E1
:1001300000B583B0124B996940220A439A6101A924
:1001400000230B7005200F4B984705200E4B984756
:100150000E4B197801220A431A701A1C53785BB2AD
:10016000002BFBDB0A4B191C4031002204C38B42DD
:10017000FCD11022074B1A60074B984703B000BD13
:100180000004004075080000E90700000018004066
:10019000403C002000E100E01501000038B580007F
:1001A000144BC4582268957B237E1D40637E1D40FE
:1001B000EB0705D5201CA2689047012322689373A2
:1001C000AB0705D5201CE268904702232268937391
:1001D000EB0605D5201C22699047102322689373F3
:1001E000AB0605D5201C62699047236820229A73CC
:1001F00038BDC046803C002008B50020014B984720
:1002000008BDC0469D01000008B50120014B98477C
:1002100008BDC0469D01000008B50220014B98476B
:1002200008BDC0469D01000070B50022164B1A7033
:1002300000231F26154D144C1F2B10D919E014490B
:1002400000E000210A619B005B59002B00D0984719
:1002500023780133DBB223700F2B14D8ECE7321C68
:100260001A40012191400A1C094909691142E6D14D
:10027000EEE7321C1A40012191400A1C0021096955
:100280001142DED1E4E770BD8C3C0020403C0020F0
:100290000018004038B58000104BC458226895798A
:1002A000237E1D40637E1D40EB0705D5201C626840
:1002B0009047012322689371AB0705D5201CA268E3
:1002C0009047022322689371EB0605D5201C6269D2
:1002D0009047236810229A7138BDC046903C002098
:1002E00008B50020014B984708BDC04695020000A4
:1002F0000C4B1B68002B10D1EFF31083002B09D19E
:1003000072B6BFF35F8F0022074B1A700122074BB2
:100310001A7002E00022054B1A70024B1A68013273
:100320001A60704728000020000000202C000020E8
:10033000084B1A68013A1A601B68002B09D1064B5A
:100340001B78002B05D00122044B1A70BFF35F8F7E
:1003500062B67047280000202C000020000000201A
:10036000F0B583B001AC012565700027A77025703A
:100370001320211C064EB04780221203054B9A61C0
:10038000277065701C20211CB04703B0F0BDC0462B
:10039000990300000044004100B583B001AB802206
:1003A0001A700A785A704A789A708A78DA70191C2A
:1003B000014B984703B000BD5109000008B5024B3E
:1003C0001B680020984708BD3000002008B5024B8C
:1003D0005B680120984708BD3000002008B5024B3B
:1003E0009B680220984708BD3000002008B5024BEA
:1003F000DB680320984708BD3000002008B5024B99
:100400001B690420984708BD3000002008B5024B46
:100410005B690520984708BD3000002008B5082812
:1004200034D880001B4B1B589F468020000230E0D0
:10043000194B18692DE0194B186A8005800F184B6D
:10044000C340181C25E0144B586922E0124B1B686E
:10045000022018401DD011491022CB681A42FCD04E
:100460000D4B1B685A0713D500200E4B98470A4BBB
:100470009B681B041B0C58430BE05023074AD35CBA
:1004800000205A0705D5044BD86802E0002000E0A0
:10049000054808BD30230000480000200008004047
:1004A00000127A0091080000006CDC0270B50C4B61
:1004B0001C6A01788578407801221040800140262E
:1004C000B44304432A40D00180229443221C0243B7
:1004D000032001400902034802400A431A6270BD2A
:1004E00000080040FFFCFFFF082843D88000224B93
:1004F0001B589F4600203EE0204B196A02220A4307
:100500001A62002037E01D4B996902220A439A6162
:10051000002030E0194B198A02220A431A82002077
:1005200029E0164B998A02220A439A82002022E08F
:10053000134B196802220A431A601A68114B1A40B9
:100540000E4B9A84191C1022CB681A42FCD00C4A1C
:1005500091680A4BD96251689962126892B29A8482
:10056000002008E0054A4423D05C02210143D15415
:10057000002000E0172070475423000000080040CE
:10058000480000207FFF0000F0B5474680B484B0EB
:10059000C222D200214B9A60214B5A681E218A4305
:1005A0005A6001236A46137000241E4DE0B269466A
:1005B000A8470134252CF9D103A800244470012355
:1005C000984683700470184B98470620174B98473D
:1005D000174B98476B465C7006271F701C725C7245
:1005E0001023019303206946124EB0470320124D99
:1005F000A847124B1C725C729C72424601926B4679
:100600005C701F701C725C7200206946B04700204D
:10061000A84704B004BC9046F0BDC04600080040A6
:100620000040004175080000AD040000E90400002E
:1006300041060000650600001907000000040040A4
:10064000064B996908220A439A610122044B1A70E9
:10065000191C0B781342FCD17047C04600040040BF
:10066000000C0040F8B5061C071C0D782D02054350
:100670004B78002B02D08023DB021D434B7A002BEA
:1006800002D080231B031D434C68012C17D9631E25
:100690001C420FD1022C06D90223002201325B003A
:1006A0009C42FBD800E000221702374380235B0303
:1006B0001D4304E02702374380239B021D430B7A2E
:1006C000002B02D080239B031D430F4A53785BB25B
:1006D000002BFBDB0D4B98470D4B1E700A4A5378DD
:1006E0005BB2002BFBDB084B9F601A1C53785BB29C
:1006F000002BFBDB044B5968802252020A40154351
:100700005D60044B9847F8BD000C0040F10200000A
:10071000080C00403103000010B5041C0B4A53784C
:100720005BB2002BFBDB0A4B98470A4B1C70074A55
:1007300053785BB2002BFBDB044B596880225202DA
:100740000A435A60044B984710BDC046000C004055
:10075000F1020000040C00403103000070B5041CDD
:100760001A4A53785BB2002BFBDB194B9847194BA5
:100770001C70164A53785BB2002BFBDB134E70687B
:10078000C004C00E144B9847051C124B1C707668B1
:10079000F602F60F114B1C700C4A53785BB2002B1B
:1007A000FBDB0A4B9C68240AA4B20D4B9847002E31
:1007B00007D1012C07D9281C211C0A4B9847051C7E
:1007C00001E00134E540281C70BDC046000C00402B
:1007D000F1020000040C00401D040000080C004061
:1007E000310300003122000010B5041C064B98476D
:1007F000064B1C70064B59888022D2010A435A804E
:10080000044B984710BDC046F1020000020C0040A6
:10081000000C00403103000010B5041C0F4B98473A
:100820000F4B1C700F4B58880005000F59880E4A5B
:100830000A405A8059880D4A0A405A80191C802261
:10084000D2014B881342FCD1064B01025888064A5C
:1008500002400A435A80064B984710BDF10200003F
:10086000020C0040000C0040FFF0FFFFFFBFFFFF45
:100870003103000010B50C7824020443024B984762
:10088000A4B2024B5C8010BD19080000000C0040AF
:1008900010B5041C064B9847064B1C70064B5C8831
:1008A0002405240F054B9847201C054B984710BD85
:1008B000F1020000020C0040000C00403103000077
:1008C0005D07000030B5D378002B1ED11378802B44
:1008D00004D01B0680246402234300E000235478E4
:1008E0000225AC430AD19478002C03D18024A402C1
:1008F000234302E0C024E402234341605478013CD6
:10090000012C04D8114C234001E0416000230D0468
:100910002D0CA024E4052C431C4384620D0CD02430
:1009200024062C431C438462D478002C0CD15C0335
:1009300005D59378012B01D1816100E041615378A5
:10094000013B012B00D8816030BDC046FFFFFBFF9B
:1009500008B5031C0A1CC1090020002903D158094D
:10096000C001044940181F210B4001219940024B4E
:10097000984708BD00440041C50800007047C046C4
:1009800008B5044B9847044B9847044B9847044BD1
:10099000984708BD89050000610300007D0900003B
:1009A00031010000FEE7C04610B51C4B1C4A9A42BC
:1009B00003D01C4B194A9A4204D31B4B1B4A9A4240
:1009C00010D31BE01A4B17480330C01A80080130BF
:1009D000800000231149124AD458CC50043383427A
:1009E000FAD1EAE7114B1A1D0F490331891A890818
:1009F00089005218002102C39342FCD10D4B7F2184
:100A00000D4A8A439A600D4B596880220A435A6006
:100A10000B4B98470B4B9847FEE7C0460000002061
:100A2000182400000C000020943C00200C00002042
:100A30000400002000ED00E0000000000040004144
:100A4000D12200001522000010B51820044B984751
:100A5000041E03D0002308C0024B9847201C10BD81
:100A60009D0C0000690A0000031C0833436001224A
:100A700052428260C3600361002303607047C04636
:100A8000002303617047C04643684B609A688A60E0
:100A90009A68516099600861036801330360704788
:100AA00030B50C68021C0832631C01D1026905E0F4
:100AB00053681D68AC4201D31A1CF9E753684B60B8
:100AC00099608A605160086103680133036030BD3A
:100AD00003694268816891608268416851605A6820
:100AE000824201D192685A6000220261186801387E
:100AF00018607047034B1B68013301D072B6FEE7E4
:100B000072B6FEE704000020064A13681868203019
:100B100080F30988022080F314883FBCAE4662B699
:100B200000BDC046B43B002010B5031F8024640400
:100B30001C60043B1960043B02491960143B1A60B5
:100B4000403810BDF50A00007047C04680225205AB
:100B5000034B1A60BFF34F8FBFF36F8F7047C046D0
:100B600004ED00E072B6044B1A6801321A60BFF35C
:100B70004F8FBFF36F8F704704000020064B1B6838
:100B8000002B01D172B6FEE7013B034A1360002B34
:100B900000D162B67047C04604000020EFF3108019
:100BA00072B670470020C04680F310887047C04678
:100BB000EFF309800E4B1A6820381060F0C04446ED
:100BC0004D4656465F46F0C008B572B600F012FFBB
:100BD00062B60CBC116808681030F0C8A046A9467F
:100BE000B246BB4680F309882038F0C81847C04693
:100BF000B43B002010B5074B9847041C064B9847A0
:100C0000002803D080225205044B1A60201C044B9C
:100C1000984710BD9D0B0000F116000004ED00E0A8
:100C2000A90B000008B50022074B1A600020074BF3
:100C30009847C821064B98470138064B1860072291
:100C4000054B1A6008BDC04618E000E05D070000D3
:100C50003122000014E000E010E000E008B50A4B8B
:100C60001968FF2212040A431A601968FF2212064B
:100C70000A431A60054B98470022054B1A60054B42
:100C80009847054B9847C04620ED00E0250C000032
:100C900004000020090B0000F50A000038B5041C10
:100CA000430702D007239C430834104B9847104B4E
:100CB0001B68002B05D107230E4A08329A430C4BC0
:100CC0001A600D4B1B68E4180C4A944207D8A342E3
:100CD00007D2074A1568ED18074B1C6002E0002593
:100CE00000E00025064B9847281C38BDC1160000BF
:100CF000FC3A002064000020600000208F3A0000D1
:100D00001D180000002801D072B6FEE77047C046EB
:100D100038B5041C151C026C002A08D10168002992
:100D20002AD14068164B98470023636024E0002DC9
:100D30000CD18068134B9847A268216C5318A360AC
:100D40006268934218D32368A36015E0C0680D4B16
:100D50009847216C4A42E1688B18E36021688B4216
:100D600002D263689A18E260022D05D1A36B002BB2
:100D700002D0A36B013BA363A36B0133A36338BD14
:100D8000F51C00001D23000010B582B001900A1C64
:100D9000C46C002C01D172B6FEE7A16BE36B9942E3
:100DA00001D372B6FEE7A16B00208B420DD9201C47
:100DB00001A9074B98470020636A002B05D0201C2F
:100DC0002430044B9847431E984102B010BDC046E2
:100DD000110D0000251B000038B50468002C0CD054
:100DE000026CC568AB18C3604568AB4200D3C460F1
:100DF000C368081C191C014B984738BD1D2300000F
:100E0000F8B5041C234B9847A36C002B1CDD224E25
:100E1000224DE36C002B07D0201C0021A84701289D
:100E20000CD11F4B984709E0636A002B0CD0201CA3
:100E30002430B047002801D0194B9847A36C013BE0
:100E4000A364A36C002BE4DC01235B42A364154B79
:100E50009847104B9847636C002B15DD2369002BD6
:100E600012D0271C10370C4E0D4D02E02369002BC9
:100E70000AD0381CB047002800D0A847636C013B5B
:100E80006364636C002BF1DC01235B426364054BFC
:100E90009847F8BD650B0000251B0000890D000078
:100EA0003D1C00007D0B000038B5041C0D1C002803
:100EB00001D172B6FEE7154B98472368226CE06BB0
:100EC0005043191861600021A163A360821A9B1826
:100ED000E36001235B426364A364002D0BD12169AD
:100EE00000290FD0201C1030094B9847012809D148
:100EF000084B984706E0201C1030074DA847201CDF
:100F00002430A847054B9847012038BD650B0000E9
:100F1000251B00004D0B0000690A00007D0B00003E
:100F200070B5051C0E1C002811D050200E4B9847A0
:100F3000041E0CD0301C684301300B4B98472060D6
:100F4000002806D1201C094B984700E0FEE772B646
:100F5000FCE7E5632664201C0121054B984700232C
:100F6000E364201C70BDC0469D0C0000050D000010
:100F7000A90E0000F0B557464E464546E0B484B091
:100F8000041C0E1C01921D1C002801D172B6FEE744
:100F9000002904D1026C002A01D072B6FEE7022DAE
:100FA00004D1E36B012B01D072B6FEE7414B9847A9
:100FB000002802D1019A002A03D100273E4B98460F
:100FC00001E072B6FEE7C047A36BE26B934201D328
:100FD000022D1FD1201C311C2A1C384B9847E36C72
:100FE000002B08D0201C291C354B984701280DD117
:100FF000344B98470AE0626A002A07D0201C24304C
:10100000314B9847012801D12E4B98472F4B9847D9
:10101000012049E0019B002B03D12C4B9847002075
:1010200042E0002F03D102A8294A90470127274B0D
:101030009847284B9847204B9847636C013301D160
:1010400000236364A36C013301D10023A3641F4B0D
:10105000984702A801A9204B984700281ED1164B9B
:101060009847A26B9246E36B9946184B9847CA453E
:101070000ED1201C10300199184B9847201C184B9A
:101080009847184B984700289DD10E4B98479AE7F0
:10109000201C134B9847134B984794E7201C104B88
:1010A0009847104B9847002004B01CBC90469946C6
:1010B000A246F0BD551C0000650B0000110D00009C
:1010C000890D00004D0B0000251B00007D0B00006A
:1010D000AD1B0000C1160000CD1B00008D1A0000E2
:1010E000010E00001D18000038B55020114B984724
:1010F000041E01D002E0FEE772B6FCE70023436065
:1011000003608360C36083630122C263036452424D
:1011100042648264C3641030074DA847201C243009
:10112000A847201C002100220023044DA847201CB2
:1011300038BDC0469D0C0000690A0000750F000014
:10114000F0B5474680B4041C8846161C1D1C0028B8
:1011500001D172B6FEE7002904D1036C002B01D047
:1011600072B6FEE7022D33D1E26B012A39D072B696
:10117000FEE7201C41462A1C204B9847A36C0133F4
:101180001DD1E36C002B0BD0201C291C1C4B984755
:10119000012501282AD1002E16D00123336025E035
:1011A0000125626A002A21D0201C2430154B984763
:1011B00000281BD0002E09D00123336016E0A36C59
:1011C0000133A364012511E001250FE001250DE0A5
:1011D0000D4B9847071CA36BE26B9342C9D30025C4
:1011E00004E0094B9847071CA36BC2E7381C074B68
:1011F0009847281C04BC9046F0BDC046110D000065
:10120000890D0000251B00009D0B0000A90B0000AC
:10121000F0B54F464646C0B485B0041C0D1C019283
:101220001F1C002801D172B6FEE7002904D1036C0F
:10123000002B01D072B6FEE74A4B9847002802D136
:10124000019B002B03D10026474B984601E072B664
:10125000FEE7C047A36B002B2BD0E668201C291C9F
:10126000424B9847002F14D1A36B013BA363236823
:10127000002B02D13E4B984760602369002B14D0AD
:10128000201C10303B4B984701280ED13A4B984711
:101290000BE0E660636A002B07D0201C2430354B3E
:1012A0009847002801D0344B9847344B9847012089
:1012B00052E0019B002B03D1304B984700204BE0BC
:1012C000002E03D102A82E4B984701262B4B98479E
:1012D0002C4B9847244B9847636C013301D1002372
:1012E0006364A36C013301D10023A364234B9847AB
:1012F00002A801A9244B9847002827D11A4B9847E8
:10130000A36B99461D4B98474B46002B18D1236879
:10131000002B06D1144B984760681C4B9847174B1D
:101320009847201C24300199194B9847201C194BD1
:101330009847194B984700288BD10F4B984788E75F
:10134000201C144B9847144B984782E7201C114BE4
:101350009847114B9847002005B00CBC9046994621
:10136000F0BDC046551C0000650B0000D90D000003
:10137000491C0000251B00004D0B00007D0B0000E8
:10138000AD1B0000C1160000CD1B0000751C000045
:101390008D1A0000010E00001D18000038B5041C55
:1013A0000D1C0D4B9847636C013301D1002363641E
:1013B000A36C013301D10023A364084B9847A36BAE
:1013C000002B04D1201C2430291C054B9847201CDD
:1013D000044B984738BDC046650B00007D0B0000EC
:1013E000E51A0000010E0000084B1B681B68002B6B
:1013F00004D101225242064B1A6006E0034B1B68DF
:10140000DB68DB685A68024B1A607047043B0020B7
:101410000800002010B5041C0E4B1B6858600E4BD2
:101420001B68984207D20D4B18680A4B19680431A3
:101430000B4B98470CE00B4B1868064B19680431AE
:10144000074B9847084B1B689C4201D2064B1C6017
:1014500010BDC046B43B0020D03B0020D43B002050
:10146000A10A0000043B002008000020F8B55F46F8
:1014700056464D464446F0B4071C0E1C91469A460B
:101480000A9D002801D172B6FEE7042D01D972B67B
:10149000FEE740205B4B9847041E00D1AAE00C9A5F
:1014A000002A00D092E04B469800564B98472063A4
:1014B000002800D08CE0201C534B98479AE0F15C48
:1014C000E21834321170F25C002A02D00133082B8A
:1014D000F5D100223B23E2542E1E042E00D904260F
:1014E000E662E663221D9046101C484B99469847D9
:1014F000201C1830C847246105239E1BA661646226
:101500005846391C5246424B984720600B9A002A95
:1015100000D014603F4B98473F4B1A6801321A6065
:101520003E4B1B68002B23D13C4B1C603A4B1B6885
:10153000012B28D13A4E64239B199946394F301C10
:10154000B84714364E45FAD1374A9146101C354EED
:10155000B047364F381CB0473548B0473548B047DC
:101560003548B047354B4A461A60354B1F600AE094
:10157000344B1B68002B06D1284B1B68DB6A9D424D
:1015800001D3264B1C60304B1A6801321A60E36AA3
:101590002E4A1268934201D92C4A13609A00D3183C
:1015A0009B001F48C0184146294B9847294B984734
:1015B000244B1B680120002B1ED0184B1B68DB6AD4
:1015C0009D4219D9244B9847012015E00C9B0363D9
:1015D000224A131C4B449B00226BD31807229343CF
:1015E0009B4632783423E2543378002B00D170E7E5
:1015F000012364E7012040423CBC90469946A24644
:10160000AB46F8BD9D0C0000050D0000810A0000EE
:10161000290B0000650B0000DC3B0020B43B0020E0
:101620003C3B0020690A0000103B0020243B0020C6
:10163000B83B0020A03B0020E03B0020043B002002
:10164000D43B0020083B0020D83B0020F43B002086
:10165000890A00007D0B00004D0B0000FFFFFF3FDB
:1016600010B584B0002300930193029303930D48B7
:101670000D4964220D4CA04701280DD10C4B984711
:10168000012809D172B601220A4B1A6000220A4BC6
:101690001A600A4B984703E0002801D172B6FEE7B2
:1016A00004B010BD71190000782300006D14000013
:1016B000F91D0000083B0020D03B00205D0C00001D
:1016C000024B1A6801321A607047C046CC3B0020BA
:1016D00010B5044B9847044B1C68044B9847201CDA
:1016E00010BDC046650B0000D03B00207D0B000004
:1016F000F0B5474680B43B4B1B68002B61D13A4B99
:101700001A6801321A601F68002F12D1374B1B680C
:101710001B68002B01D072B6FEE7344A1168344BC7
:10172000186810601960334B1A6801321A60324B26
:101730009847324B1B6800249F4237D32B4E00E062
:10174000012433681B68002B04D1012252422B4B29
:101750001A602BE0254A1368DB68DD686B689F42DE
:1017600002D2264A136021E02B1D9846181C244AF9
:101770009047AB6A002B03D0281C1830204B9847A9
:10178000EB6A204A1268934201D91E4A13609A00FC
:10179000D3189B001C48C01841461C4B98471C4B53
:1017A0001B68EA6ADB6A9A42CAD2CAE7184B1B680E
:1017B000DB6A9A00D3189B00134A9B58012B06D86A
:1017C00006E0144B1A6801321A60002400E001247C
:1017D000114B1B68002B00D00124201C04BC904638
:1017E000F0BDC046CC3B0020D03B0020043B002095
:1017F000D43B0020003B0020E9130000080000203B
:10180000D10A0000F43B00203C3B0020890A000084
:10181000B43B0020383B0020F83B0020F8B52F4BAC
:101820001B68002B01D172B6FEE72D4B98472B4B5E
:101830001A68013A1A601B680024002B49D1294B11
:101840001B68002B45D0284D2F1C21E0FB68DC686D
:10185000201C1830254B9847261D301C234B9847D9
:10186000E36A234A1268934201D9214A13609A001D
:10187000D3189B001F48C018311C1F4B98471F4BA3
:101880001B68E26ADB6A9A4202D301221C4B1A608F
:101890002B68002BDAD11B4B1B68002B11D0194B86
:1018A0001B68002B0DD0184E154D164CB047002864
:1018B00001D001232B602368013B23602368002BA8
:1018C000F4D10F4B1B680024012B02D10F4B98471A
:1018D00001240F4B9847201CF8BDC046CC3B00208C
:1018E000650B0000DC3B0020B83B0020D10A000063
:1018F000F43B00203C3B0020890A0000B43B002060
:10190000F83B0020383B0020F11600004D0B000092
:101910007D0B000010B5041E16D00D4B1B68002B6C
:1019200001D072B6FEE70B4B98470B4B1B68E418CF
:101930000A4B186804300A4B9847201C094B9847FB
:10194000094B9847002801D1084B984710BDC04665
:10195000CC3B0020C1160000D03B0020B43B00204F
:10196000D10A0000151400001D1800004D0B0000E6
:10197000F8B5154E154F1EE0154B9847154B1C68D2
:10198000154B9847002C16D0144B9847114BDB6829
:10199000DC68201D124B9847124B1A68013A1A60F6
:1019A000094B1A68013A1A600F4B9847206B0F4D8C
:1019B000A847201CA8473368002BDDD13B68012BCA
:1019C000F9D90B4B9847F6E70C3B00203C3B002035
:1019D000C1160000A03B00201D180000650B000090
:1019E000D10A0000DC3B00207D0B0000050D00004B
:1019F0004D0B000010B5204B1B68002B03D00122BB
:101A00001E4B1A6036E000221C4B1A601C4B1B68F0
:101A10009A00D3189B001B4A9B58002B16D1184BD9
:101A20001B68002B05D102E00268002A04D172B6BF
:101A3000FEE7134B134C181C1A68013A1A601A6817
:101A400091008A1892001259002AEDD00C4B1B68A5
:101A50009A00D3189B000B4AD3185A6852685A60F0
:101A6000191C08318A4201D152685A605B68DA68F1
:101A7000054B1A6010BDC046CC3B0020F83B00204F
:101A8000F43B00203C3B0020B43B002038B50C1C4C
:101A9000002801D172B6FEE70B4D296818310B4BB7
:101AA0009847286804300A4B9847631C06D1064BB8
:101AB000196804310748084B984704E0074B186839
:101AC0002018074B984738BDB43B0020A10A0000FE
:101AD000D10A0000E03B0020890A0000D03B002032
:101AE0001514000038B50D1C002801D172B6FEE7B0
:101AF000074C21681831074B984720680430064B83
:101B00009847064B18682818054B984738BDC046BB
:101B1000B43B0020890A0000D10A0000D03B00201D
:101B20001514000038B5C368DC68002C01D172B60A
:101B3000FEE7251C1835281C144B9847144B1B68CE
:101B4000002B13D1251D281C104B9847E36A114A1E
:101B50001268934201D90F4A13609A00D3189B0070
:101B60000D48C018291C0D4B984703E00C48291C50
:101B70000A4B98470B4B1B68E26ADB6A00209A42CB
:101B800003D90122084B1A60012038BDD10A000098
:101B9000CC3B0020F43B00203C3B0020890A0000A5
:101BA000B83B0020B43B0020F83B0020002801D1C6
:101BB00072B6FEE7034B1B680360034B1B68436070
:101BC0007047C046003B0020D03B002070B5041C8D
:101BD0000E1C002801D172B6FEE7002901D172B6B1
:101BE000FEE7114B9847114B1A683368581C15D003
:101BF0000F4909682068884203D0012561688A423C
:101C00000DD26168501A0125834208D98A1AD31867
:101C10003360201C074B9847002500E00025064B49
:101C20009847281C70BDC046650B0000D03B0020C3
:101C3000003B0020AD1B00007D0B00000122014B8A
:101C40001A607047F83B0020014B18687047C04687
:101C5000B43B0020054B1B680120002B04D0044B33
:101C600018684342584140007047C046083B002076
:101C7000CC3B002038B5041E31D0C36A184A126824
:101C8000D26A93422BD28269002A05DB144A126879
:101C9000D26A05218A1A82619A00D3189B00114AE0
:101CA000D31862699A4216D1251D281C0E4B9847FD
:101CB0000B4B1B68DB6AE3620C4A1268934201D942
:101CC0000A4A13609800C3189B000648C018291CD4
:101CD000074B984703E0024B1B68DB6AE36238BDA1
:101CE000B43B00203C3B0020D10A0000F43B002024
:101CF000890A000038B5041E1DD0C26AC36B9A421F
:101D000019D0051D281C0C4B9847E36BE362A269B0
:101D1000002A02DB0522D21AA261084A1268934205
:101D200001D9064A13609800C3189B000448C018E4
:101D3000291C044B984738BDD10A0000F43B002011
:101D40003C3B0020890A000010B5041C4160206162
:101D500091420BD8D21A0120A3699A4211D2094BA1
:101D60001868211D084B984700200AE09A4202D2C9
:101D70000120994205D2054B1868211D024B984756
:101D8000002010BD303C0020A10A0000FC3B0020D8
:101D900070B5104B9847104B1B68002B16D10F4D98
:101DA000281C0F4EB0470F4C201CB0470E4B1D6037
:101DB0000E4B1C6002200C2100220D4B984700287E
:101DC00002D0054B186001E072B6FEE7094B984758
:101DD00070BDC046650B00002C3C0020003C00207C
:101DE000690A0000143C0020FC3B0020303C00202D
:101DF000210F00007D0B000010B584B00B4B9847FD
:101E00000B4B1B68002B0CD0022300930023019383
:101E100002930393074808495022084CA047002822
:101E200001D172B6FEE704B010BDC046911D00009E
:101E30002C3C0020611F0000A82300006D1400004E
:101E400010B584B0134C2468002C1FD0019102926D
:101E50000390052913DC104B9847022807D10D4B3E
:101E6000186801A9069A00230C4CA0470FE0094B03
:101E7000186801A900220023084CA04707E0201C95
:101E800001A91A1C0023064CA04700E0002004B062
:101E900010BDC0462C3C0020551C0000750F0000F2
:101EA00041110000F0B557464E464546E0B482B0B9
:101EB0008146244B98478046234B1B68984234D276
:101EC000224E234F24E0DB6818688246DC68251D1B
:101ED000281CB847201C616A8847E269012A17D18B
:101EE000A069031C5344534507D963602461174B11
:101EF0001868291C174B98470AE000230093201C00
:101F000000215246144CA047002801D172B6FEE7CA
:101F1000336818680028D6D1104A0C4914680C6040
:101F2000136001234846036002E0002349460B602A
:101F3000054B42461A60404602B01CBC904699468A
:101F4000A246F0BDD1160000283C0020FC3B00203A
:101F5000D10A0000A10A0000411E0000303C002010
:101F6000F0B5474680B486B04E48804641460B687F
:101F70001A68002A00D18AE0DB681C684A4B98473F
:101F800003A84A4B9847051C039B002B31D1844280
:101F900023D8474B9847434B1B68DB68DE68301DEE
:101FA000444B9847F769012F13D1B0692118301CB1
:101FB0002A1C231C404DA84701280AD10023009366
:101FC000301C0021221C3D4CA047002801D172B6D4
:101FD000FEE7736A301C98470DE0394B1868611BA7
:101FE000384B9847324B9847002804D1364B9847D6
:101FF00001E02F4B9847324D344C40E003990029C3
:102000003DDB059E7269002A02D0301D294B98479E
:1020100002A8264B9847031C039F092F2FD8BA000C
:102020002B498A589746049FB269B918301C1A1C6C
:102030003B1C214FB847012821D1301C716A8847C9
:10204000F269012A1BD1B369049FDA1900230093B6
:10205000301C0021194EB047002810D172B6FEE79F
:102060000499B161002901D172B6FEE75918301CFC
:102070001A1C114EB04702E0301C164B98472868D6
:1020800003A900220023A0470028B7D16EE7064825
:10209000804703A805498847051C0024039AA242EB
:1020A0009BD0A6E7FC3B0020C1160000A51E000047
:1020B0001D180000D10A0000491D0000411E00004B
:1020C0002C3C00209D1300004D0B0000111200005D
:1020D00080230000050D000008B50620014B98473D
:1020E00008BDC0461519000008B50620014B9847E9
:1020F00008BDC0461519000008B50620014B9847D9
:1021000008BDC0461519000008B50620014B9847C8
:1021100008BDC0461519000008B5C820014B9847F6
:1021200008BDC0461519000008B50A20014B9847A4
:1021300008BDC0461519000070B584B00120234CBD
:10214000A047234B18600120A047224B1860224B68
:102150009847224B186001260096002401940294AF
:1021600003941F481F49642200231F4DA84700966F
:102170000194029403941D481D4964220023A8473A
:1021800000960194029403941A481B496422002388
:10219000A8470096019402940394184818496422B1
:1021A0000023A84700960194029403941548164909
:1021B00064220023A84700960194029403941348D4
:1021C000134964220023A84704B070BDE910000041
:1021D0003C3C0020343C0020490A0000383C0020F0
:1021E00029210000B02300006D1400001921000017
:1021F000B423000009210000C0230000F9200000E2
:10220000D0230000E9200000DC230000D9200000DA
:10221000E823000008B5034B9847034B9847034B4E
:102220009847FEE78109000039210000611600008F
:10223000002934D00123002210B488422CD3012479
:102240002407A14204D2814202D209011B01F8E70E
:10225000E400A14204D2814202D249005B00F8E7C7
:10226000884201D3401A1A434C08A04202D3001BF3
:102270005C0822438C08A04202D3001B9C08224326
:10228000CC08A04202D3001BDC082243002803D064
:102290001B0901D00909E3E7101C10BC7047002896
:1022A00001D00020C04307B4024802A140180290A8
:1022B00003BDC046190000000029F0D003B5FFF7A8
:1022C000B9FF0EBC4243891A1847C0467047C04642
:1022D00070B50E4B0E4D0024ED1AAD101E1CAC4215
:1022E00004D0A300F35898470134F8E700F084F8CD
:1022F000084B094D0024ED1AAD101E1CAC4204D051
:10230000A300F35898470134F8E770BD0424000097
:1023100004240000042400000824000010B5002359
:10232000934203D0CC5CC4540133F9E710BD0000E4
:10233000300400008C0400008C0400002A0400001B
:102340002A04000046040000360400004C0400008B
:102350007A040000140500007405000074050000F4
:10236000F40400000605000022050000F804000047
:10237000300500006405000049444C4500000000A1
:102380002620000026200000262000007E200000DD
:102390006020000078200000262000002620000099
:1023A0007E20000060200000546D72205376630090
:1023B0004C4344004E65772053656E736F72000086
:1023C000416E616C797A652044617461000000009F
:1023D00053616D706C652054656D70004F70656E53
:1023E0002F436C6F736500005379737461736B20B6
:1023F00048616E646C657200F8B5C046F8BC08BCF4
:102400009E467047DD000000F8B5C046F8BC08BC29
:082410009E467047B500000074
:0C24180001000000AAAAAAAAFFFFFFFF13
:04000003000009A947
:00000001FF
