S01100004B6F7A795F4D61696E2E7372656382
S1130000E8640020F54F0000F14F0000F14F0000BC
S113001000000000000000000000000000000000DC
S1130020000000000000000000000000110A0000B1
S11300300000000000000000790A0000BD0A000072
S1130040F14F0000F14F0000F14F0000F14F0000AC
S1130050ED480000F14F0000F14F0000F14F0000A7
S1130060F14F00001D4800002D4800003D480000ED
S11300704D4800005D4800006D480000F14F00004D
S1130080F14F0000F14F0000553D0000653D0000B8
S1130090753D00000000000000000000F14F00006A
S11300A0F14F000000000000F14F0000F14F00008C
S11300B00000000010B5064C2378002B07D1054B37
S11300C0002B02D0044800E000BF0123237010BDC0
S11300D09800002000000000086A000008B5084BE2
S11300E0002B03D00748084900E000BF0748036815
S11300F0002B03D0064B002B00D0984708BDC04608
S113010000000000086A00009C000020086A00004B
S113011000000000054B197802220A431A701A1CC9
S113012053785BB2002BFBDB7047C04600180040DD
S113013000B583B0124B996940220A439A6101A920
S113014000230B7005200F4B984705200E4B984752
S11301500E4B197801220A431A701A1C53785BB2A9
S1130160002BFBDB0A4B191C4031002204C38B42D9
S1130170FCD11022074B1A60074B984703B000BD0F
S113018000040040C14E0000354E0000001800403D
S11301903043002000E100E015010000002303606B
S11301A0436001220272427283720223C372704757
S11301B0F0B583B0051C0C1C01A900234B70CB7057
S11301C063680B70237A8B702078154B9847002353
S11301D01F2D00D8134B072129408900E07AA27A09
S11301E0002A01D008221043EA0892009A1896695E
S11301F088400F278F40BE43311C01439161627ACE
S1130200002A06D05A690121A9400D1C15435D61DD
S113021004E05A690121A9408A435A6103B0F0BD40
S11302209D4F00000018004010B5031C49084020F1
S113023099420CD30024C91A601C80B28B4201D8A5
S1130240041CF8E74020FF2C01D81480002010BDC6
S1130250F0B55F4656464D464446F0B487B0061C9A
S11302600D1C049210AA1078321C424340248A4286
S113027000D9B3E0002B4BD10021321C5E4CA047C7
S113028083462E1C002700200021002200233F2447
S1130290A4460125A846029003916146203903D45F
S11302A040468840814605E0202165464C1B404677
S11302B0E040814641466446A1408A46101C191C10
S11302C080185941021C0B1C5D464C46254202D045
S11302D0424602430B1C9F420CD801D1964209D8D6
S11302E0921BBB415046029D28434946039C21432F
S11302F0029003916546013DAC46CED20298039923
S11303003C4B3B4A121A8B41120C1B041A4362E009
S11303100022012B5FD14F0FB946CD00AB4600211F
S1130320321C0023344CA047061C0F1C002301255B
S1130330029603979A465046C0B20590002188461B
S1130340002200233F24271C203F03D42E1CBE4040
S1130350019604E02020071B291CF94001912E1C62
S1130360A6400096101C191C80185941021C0B1C35
S11303705F463740BC46019E4F463E4067463E437B
S113038002D02A1C02430B1C039898420BD802D1BA
S11303900299914207D8029E039F921BBB41474694
S11303A000980743B846013CCDD2414652468B1AC9
S11303B0DB08124CA34208D9059A0132D2B2059245
S11303C00126B2445746082FB5D140240598082881
S11303D004D042031A43049C22800024201C07B04A
S11303E03CBC90469946A246AB46F0BDC046C046CA
S11303F00000000001000000E9570000FF1F00009A
S113040010B582B0041C0F4B1B78002B01D00029BF
S11304100DD001A90C7013200B4B984713200B4BE4
S11304209847084B5C7001221A70002007E0054BC6
S11304305A781D20141B621E94416442204002B06D
S113044010BDC046B4000020C14E0000354E00006F
S1130450444B984233D006D8434B98420DD0434B7B
S113046098421BD06FE0424B98424AD0414B98428D
S113047058D0414B984266D132E0012965D0002919
S113048004D0022906D0032906D001E03B4867E0E6
S1130490002065E03A4863E03A4861E0012956D01B
S11304A0002904D0022906D0032906D001E0032044
S11304B056E0002054E0344852E0344850E001292A
S11304C047D0002904D0022906D0032906D001E030
S11304D02F4845E0002043E02E4841E02E483FE00D
S11304E0012938D0002904D0022906D0032906D0D6
S11304F001E02A4834E0002032E0294830E029486D
S11305002EE0012929D0002904D0022906D003298C
S113051006D001E0244823E0002021E023481FE026
S113052023481DE001291AD0002904D0022906D04D
S1130530032906D001E01F4812E0002010E01E4805
S11305400EE01E480CE000200AE01D4808E01D48AB
S113055006E01D4804E01D4802E01D4800E01D4877
S11305607047C0460010004200080042000C0042E0
S113057000180042001C0042001400420300040062
S1130580030006000300070003001E0003001F0011
S113059002000C0002000E0002000F000300100015
S11305A003001200030013000500530005003E0081
S11305B00500520003001600030018000300190090
S11305C0030005000300010002000D0003001100F8
S11305D005003F000300170070B586B00C4A6B4657
S11305E070CA70C332CA32C3009E864206D0012349
S11305F09A0069465258824203D100E00023D8B2DF
S113060003E00133062BF3D1002006B070BDC046D1
S11306101868000070B584B0011C01AB0A4A70CAA6
S113062070C3019B83420AD0029C844205D00020FF
S1130630039D8D4205D1022002E0012000E000204C
S1130640C0B204B070BDC04630680000F0B54F467B
S11306504646C0B487B0041C0D1C9046081C904B41
S1130660984781468F4F391C0C3105A803228E4EC2
S1130670B047391C103103A80622B0470023A360F9
S1130680E360236163612376637648468200874B87
S1130690D450256041468B78082B04D117204A4654
S11306A0D20700D4F6E023712B880520D90700D5A2
S11306B0F0E0EB7B1C20DA0600D5EBE02B889907F1
S11306C000D5E7E04246137C002B0CD002A901239D
S11306D08B700022CA704046806908704B70424695
S11306E0107D734B98474046037F002B0BD002A923
S11306F001238B700022CA70426A0A704B70036A2D
S1130700D8B26B4B98476B4B196A4846420003A812
S1130710125A0A431A6241468B78082B08D1654B5A
S11307201A6A48460130400003A9415A0A431A6232
S113073001A9424613780B7005AB48461E5C301C79
S11307405D4B9847301C5D4B9847414688880B8920
S1130750034388798A78104318434B78002B02D0DE
S113076080231B01184321687F22CB7B9343FCD158
S113077028804246507B431E98418000937B002B87
S113078001D00123184321687F22CB7B9343FCD102
S1130790FF232B71002805D021687F22CB7B934354
S11307A0FCD168714346987ADB7A002B01D0102380
S11307B0184341460B7B002B01D0202318432168AA
S11307C07F22CB7B9343FCD1A87122687F21D37B0A
S11307D08B43FCD12379042B05D0082B41D017205F
S11307E0002B57D124E07F21D37B8B43FCD12823DA
S11307F04246D35C2B7421687F22CB7B9343FCD18C
S113080029234046C35C2B7521687F22CB7B93430D
S1130810FCD12A234146CB5C2B7621687F22CB7BFB
S11308209343FCD12B234246D35C6B76002031E00A
S11308307F21D37B8B43FCD14046038D2B822168DF
S11308407F22CB7B9343FCD141464B8D2B83216884
S11308507F22CB7B9343FCD14246938D6B83002054
S113086018E07F21D37B8B43FCD143469B6A2B61E9
S113087021687F22CB7B9343FCD14046C06AA861A8
S113088021687F22CB7B9343FCD141460B6BEB6108
S11308900020FFE707B00CBC90469946F0BDC04667
S11308A0150600003068000079580000AC440020B0
S11308B09D4F000000040040C14E0000354E000072
S11308C002687F21D37B8B43FCD10379042B05D0B1
S11308D0082B09D00020002B08D102E0107CC0B204
S11308E004E0108A80B201E01069FFE77047C04657
S11308F030B504687F25E37BAB43FCD10379042B3B
S113090005D0082B14D01720002B19D107E017208D
S1130910012915D8D2B261180A76002010E01720F8
S113092001290DD892B20C3149000A53002007E086
S11309301720012904D8063189000A510020FFE755
S113094030BDC046F0B5474680B40C1C9046002824
S11309500CD1002A0DDD8F18094E0A4D3068211C78
S11309602B6898470134BC42F8D104E0012040428E
S113097002E0002000E0404604BC9046F0BDC046C2
S11309807843002070430020F0B5474680B40E1C25
S1130990151C0138022810D8002A11D000240D4B50
S11309A098460D4F43461868315D3B6898470028C8
S11309B008DB0134A542F5D107E00120404205E0FF
S11309C0002003E00120404200E0201C04BC9046CB
S11309D0F0BDC0467843002074430020034B1B68DD
S11309E0013301D072B6FEE772B6FEE700000020C4
S11309F010B5031F802464041C60043B1960043B8D
S1130A0002491960143B1A60403810BDDD0900002A
S1130A107047C04680225205034B1A60BFF34F8FC4
S1130A20BFF36F8F7047C04604ED00E072B6044B0D
S1130A301A6801321A60BFF34F8FBFF36F8F70478C
S1130A4000000020064B1B68002B01D172B6FEE7A4
S1130A50013B034A1360002B00D162B67047C046C5
S1130A6000000020EFF3108072B670470020C046EB
S1130A7080F310887047C046EFF309800E4B1A6864
S1130A8020381060F0C044464D4656465F46F0C0DC
S1130A9008B572B602F08CFF62B60CBC1168086827
S1130AA01030F0C8A046A946B246BB4680F3098878
S1130AB02038F0C81847C0463842002010B5074B0C
S1130AC09847041C064B9847002803D080225205FF
S1130AD0044B1A60201C044B984710BD650A0000A3
S1130AE03137000004ED00E0710A000038B5041C41
S1130AF0430702D007239C430834104B9847104BFC
S1130B001B68002B05D107230E4A08329A430C4B6D
S1130B101A600D4B1B68E4180C4A944207D8A34290
S1130B2007D2074A1568ED18074B1C6002E0002540
S1130B3000E00025064B9847281C38BD21370000EB
S1130B40543B0020BC000020B80000208F3A000075
S1130B505D380000002801D072B6FEE77047C04639
S1130B607047C04638B5031C0D1C144C601C191C7E
S1130B701022134B9847647C124B1B78002B08D02F
S1130B8083200E491222104B984700220D4B1A70F5
S1130B9005E084200949013111220B4B9847002DAF
S1130BA005D0281C054901311022054B9847034BF9
S1130BB05C741820054B984738BDC0467C3B002028
S1130BC079580000903B0020F91500009549000079
S1130BD0F0B5474680B484B0051C0F1C141C0028D3
S1130BE017D000223E4B1A7002223E4B1A703E4828
S1130BF0291C10223D4B984698473D4E10233370D4
S1130C00701C291C1022C0478320311C1122394B2F
S1130C109847002C02D0012C12D05AE0314B1B789B
S1130C20012B3DD1324D10232B70681C2E4910220C
S1130C302E4B98478320291C11222E4B98472FE0D6
S1130C40284B1B78012B2BD01022294B1A70244BD4
S1130C501B78002B16D1264D2B7080236B74012238
S1130C60254B1A7068460021244B984710232B709B
S1130C708320291C01221F4B9847842020491022DD
S1130C80204B98471A4D681C1D491022174B984752
S1130C908320291C1122174B9847114B01221A70EB
S1130CA0104B1C70002F02D00020022F13D1E4003F
S1130CB008231C403F0170231F403C430C4B1C7015
S1130CC080277F423C435C7401220B4B1A70012045
S1130CD001E00020FFE704B004BC9046F0BDC0462C
S1130CE0583B0020040000206C3B00207958000091
S1130CF07C3B0020E5120000903B0020650B0000C7
S1130D005C3B00205D14000008B5011C8420102207
S1130D10014B984708BDC0465D14000008B5012288
S1130D20034B1A61034B1B68002B00D0984708BD86
S1130D3000180040943B0020F0B585B0354A0023EC
S1130D40537093703F211170334C21706370A37002
S1130D50012269464A708B700A703F202F4B9847D6
S1130D602378D9090022002903D15A09D2012C4938
S1130D7052181F273B400124211C99409161294AA4
S1130D801470002353609360137453749474D47474
S1130D90137524215354D361136280235B02D360FF
S1130DA0214B9361214B936201235B42D362204B1D
S1130DB01363204B5363204E301C2049204B98472B
S1130DC03568281C1F4B98470740BC401E4B1C60CD
S1130DD03268D369002BFCD12B68022633432B6085
S1130DE001AC201C194B98472023019380239B03BB
S1130DF063602672012363720022A272E3720020F0
S1130E00211C134B9847134800210022124B98478A
S1130E1005B0F0BD8043002084430020694A0000EF
S1130E20004400418843002000093D0005005300B0
S1130E3005003E0005005200C04300200018004297
S1130E40CD420000F147000000E100E09D010000F8
S1130E50B10100001D0D00007D48000070B5094B74
S1130E601C1C803480252D02A561802252035A6106
S1130E70A5204000044EB04765610A20B047A56133
S1130E8070BDC046004400419549000070B5061C81
S1130E90EFF3108463425C4172B6BFF35F8F0022AC
S1130EA0334B1A70334D281C33490122334B984776
S1130EB02B6801211A7E0A42FCD01A7ED10702D582
S1130EC0802216439E6202211A7E0A42FCD004212B
S1130ED01A7E0A42FCD01A7E510714D55A8B510748
S1130EE003D5598B04220A435A83224A9279012A50
S1130EF005D1996AC905C90D214A118003E0996A8F
S1130F00C9B21F4A118001211A7E0A42FCD01A7EFE
S1130F10D10701D500229A6202211A7E0A42FCD02E
S1130F2004211A7E0A42FCD01A7E0025510710D5EE
S1130F305A8B510703D5598B04220A435A830D4A0D
S1130F409279012A03D19D6AED05ED0D01E09D6AB8
S1130F50EDB2084808490022084B9847002C05D0F8
S1130F600122034B1A70BFF35F8F62B6E8B270BD03
S1130F7014000020C043002084430020E544000006
S1130F807C430020F8B5071C0D1CEFF3108463426A
S1130F905C4172B6BFF35F8F0022344B1A70344E3B
S1130FA0301C34490122344B9847336801211A7E9E
S1130FB00A42FCD01A7ED10702D5C02217439F6291
S1130FC002211A7E0A42FCD004211A7E0A42FCD075
S1130FD01A7E510714D55A8B510703D5598B042215
S1130FE00A435A83224A9279012A05D1996AC9058A
S1130FF0C90D224A118003E0996AC9B21F4A1180BF
S113100001201A7E0242FCD01A7ED10700D59D62CF
S113101002211A7E0A42FCD004211A7E0A42FCD024
S11310201A7E510714D55A8B510703D5598B0422C4
S11310300A435A830E4A9279012A05D19A6AD20543
S1131040D20D0E4B1A8003E09A6AD2B20B4B1A806F
S1131050074808490022084B9847002C05D0012274
S1131060024B1A70BFF35F8F62B6F8BD1400002004
S1131070C043002084430020E54400007C4300205A
S1131080F0B55F4656464D464446F0B483B0061C60
S11310900C1CEFF3108778427841019072B6BFF3CD
S11310A05F8F0022414B1A70414D281C4149012297
S11310B0414B98472B6801211A7E0A42FCD01A7EC4
S11310C0D10701D520229A6202211A7E0A42FCD05D
S11310D004201A7E0242FCD01A7E50070FD55A8B88
S11310E0510703D5598B04220A435A83304A927913
S11310F0012A09D19A6AD205D20D304B1A80631E97
S1131100DBB2002C05D13CE09A6AD2B22B4B1A8098
S1131110F5E701339B1999462020254A904601247E
S113112000239A4602250421171C042293464246B2
S113113013681A7E2242FCD01A7E224201D0524603
S11311409A621A7E2A42FCD01A7E0A42FCD03B687C
S11311501A7E0A4211D05A8B0A4204D05A8B58463E
S1131160024392B25A8312488279012A03D1986ABF
S1131170C005C00D01E0986AC0B2307001364E451A
S1131180D5D10B480B4900220B4B984701990029F4
S113119005D00122054B1A70BFF35F8F62B603B00E
S11311A03CBC90469946A246AB46F0BD14000020D4
S11311B0C043002084430020E54400007C43002019
S11311C0F8B54F464646C0B4041C0D1CEFF3108618
S11311D071427141894672B6BFF35F8F00223C4B66
S11311E01A703C4F381C3C4901223C4B98473B68E1
S11311F001211A7E0A42FCD01A7ED10701D5602251
S11312009A6202211A7E0A42FCD004211A7E0A4202
S1131210FCD01A7E51070FD55A8B510703D5598B31
S113122004220A435A832B4A9279012A0ED1996ADD
S1131230C905C90D2A4A1180264A92799046261C6E
S1131240012702200424042294462BE0996AC9B29F
S1131250234A1180F0E71A7E3A42FCD031781A7E94
S11312603A4200D099621A7E0242FCD01A7E22428F
S1131270FCD01A7E224214D05A8B224204D05A8BBC
S113128061460A4392B25A834246012A05D19A6AB8
S1131290D205D20D12490A8003E09A6AD2B21049EB
S11312A00A800136013DEDB2FF2DD4D109480A4927
S11312B000220A4B98474A46002A05D00122044BD3
S11312C01A70BFF35F8F62B60CBC90469946F8BDA6
S11312D014000020C043002084430020E5440000A3
S11312E07C430020F8B54F464646C0B4071C0C1C8E
S11312F0151CEFF3108671427141894672B6BFF333
S11313005F8F0022504B1A70504E301C50490122FE
S1131310504B9847336801211A7E0A42FCD01A7E4A
S1131320D10701D540229A6202211A7E0A42FCD0DA
S113133004211A7E0A42FCD01A7E510714D55A8B16
S1131340510703D5598B04220A435A833F4A9279A1
S1131350012A05D1996AC905C90D3F4A118003E0E4
S1131360996AC9B23C4A118001211A7E0A42FCD012
S11313701A7ED10700D59F6202211A7E0A42FCD050
S113138004211A7E0A42FCD01A7E51070FD55A8BCB
S1131390510703D5598B04220A435A832B4A927965
S11313A0012A0ED1996AC905C90D2B4A1180274A11
S11313B092799046261C0127022104240422944693
S11313C02BE0996AC9B2244A1180F0E7187E3842AA
S11313D0FCD03278187E384200D09A62187E0842D7
S11313E0FCD0187E2042FCD0187E204214D0588BAA
S11313F0204204D0588B6246104380B25883424640
S1131400012A05D1986AC005C00D134A108003E073
S1131410986AC0B2104A10800136013DEDB2FF2D2A
S1131420D4D10A480A4900220A4B98474B46002B5C
S113143005D00122044B1A70BFF35F8F62B60CBC57
S113144090469946F8BDC04614000020C0430020D1
S113145084430020E54400007C430020F0B55F464F
S113146056464D464446F0B483B0051C0E1C141C6D
S113147001205B4B9847EFF3108779427941019142
S113148072B6BFF35F8F0022564B1A70564F381C4A
S113149056490122564B98473B6801211A7E0A425D
S11314A0FCD01A7ED10701D500229A6202211A7E4D
S11314B00A42FCD00422197E1142FCD01A7E510744
S11314C014D55A8B510703D5598B04220A435A83E6
S11314D0454A9279012A05D1996AC905C90D454A37
S11314E0118003E0996AC9B2424A11800122197E2F
S11314F01142FCD01A7ED10700D59D620222197ECA
S11315001142FCD00422197E1142FCD01A7E5107EC
S11315100FD55A8B510703D5598B04220A435A839A
S1131520314A9279012A09D19A6AD205D20D314BF6
S11315301A80631EDBB2002C05D13BE09A6AD2B25A
S11315402C4B1A80F5E701339B1999460021264A52
S1131550904601248A4602250420171C042293463F
S1131560424613681A7E2242FCD01A7E224201D0DF
S113157052469A621A7E2A42FCD01A7E0242FCD05B
S11315803B681A7E024211D05A8B024204D05A8B15
S113159059460A4392B25A8313498A79012A03D1DC
S11315A0996AC905C90D01E0996AC9B23170013659
S11315B04E45D5D10C480D4900220D4B9847019A50
S11315C0002A05D00122074B1A70BFF35F8F62B661
S11315D003B03CBC90469946A246AB46F0BDC0461B
S11315E09549000014000020C043002084430020DB
S11315F0E54400007C430020F0B55F4656464D4666
S11316004446F0B483B0051C8846141C0120834B67
S1131610984700200021824B9847824E301C824913
S11316200122824B9847336801211A7E0A42FCD07A
S11316301A7ED00701D540229A6202211A7E0A42FC
S1131640FCD004211A7E0A42FCD01A7E510714D51C
S11316505A8B560703D5598B04220A435A83714A7D
S11316609279012A05D1996AC905C90D704A118078
S113167003E0996AC9B26E4A118001211A7E0A42B6
S1131680FCD01A7ED00700D59D6202211A7E0A4240
S1131690FCD00422197E1142FCD01A7E510714D5C5
S11316A05A8B560703D5598B04220A435A835D4A41
S11316B09279012A05D1996AC905C90D5C4A11803C
S11316C003E0996AC9B25A4A11800122197E114273
S11316D0FCD0404601781A7ED60700D599620222D2
S11316E0197E1142FCD00422197E1142FCD01A7ECC
S11316F050070FD55A8B510703D5598B04220A433F
S11317005A83484A9279012A08D19A6AD205D20D9D
S1131710474B1A800021002C47D004E09A6AD2B2C9
S1131720434B1A80F6E74546013CE4B20194231C7E
S1131730434401339B4600213A4B9A46012002243C
S1131740042299465F46564633681E7E0642FCD004
S1131750AC466E78B3461E7E064201D05E469E625B
S11317601E7E2642FCD01E7E1642FCD04E463368B6
S11317701E7E164211D0598B114204D0598B042677
S1131780314389B25983274EB179012903D1996A2A
S1131790C905C90D01E0996AC9B2634619700135DA
S11317A0BD42D0D1019B013398441E4B1B680120DC
S11317B01A7E0242FCD01A7ED60701D500229A6214
S11317C002201A7E0242FCD004201A7E0242FCD07F
S11317D01A7E500710D55A8B510703D5598B042212
S11317E00A435A830F4A9279012A03D1996AC90597
S11317F0C90D01E0996AC9B24246117009480A4903
S113180000220A4B9847002000210A4B984703B056
S11318103CBC90469946A246AB46F0BD95490000B3
S1131820CD480000C043002084430020E54400006C
S11318307C430020AD48000008B5014B984708BD23
S11318406156000008B5014B984708BD19560000C1
S113185008B50248024B984780B208BD30440020C6
S1131860C1080000034B102219680A73597E914382
S1131870597670473044002010B50A4C20680A4B52
S113188098470A4B1B5C1F221A40012393401A1CE1
S1131890074B1A60627E1023134363762368102279
S11318A05A7310BD3044002015060000486800003B
S11318B000E100E008B5021C02480021024B9847F1
S11318C008BDC04630440020F1080000F8B54F467A
S11318D04646C0B42D4A00231370937000219380B0
S11318E09171138151709172D1721173917351730B
S11318F01174536193611177136253621385938555
S113190001235B425385224C201C2249224B9847D9
S1131910201C22490022224DA847201C21490222D2
S1131920A8472068204A91469047204B98461B5C64
S11319301F273B4001252A1C9A401D4E3260627EBF
S113194001231343637620684573C8474246135CFA
S11319501F40BD403560627E1023134363762268C6
S1131960102353737F21D37B8B43FCD11188022333
S11319700B43138000200F4B98470F490F4B984798
S1131980C0B20CBC90469946F8BDC046FC4300204A
S113199030440020002C00424D0600004518000091
S11319A0C53C000039180000150600004868000016
S11319B000E100E0A94D000040420F0089560000FC
S11319C008B5044B9847044B9847044B9847044B7D
S11319D0984708BD911A0000610B0000F91B000034
S11319E0291E000008B5034B9847034B9847034B47
S11319F0984708BD6D1D0000B51E0000151B0000B2
S1131A0008B5024B9847024B984708BD411D00009A
S1131A10192A000030B5154B1D68002D1ED08268B0
S1131A2069682C1C8A420AD204E05968914203D89E
S1131A301C1C04E02B1C0024891A596003E0521A70
S1131A402368002BF1D14260002C03D0236803608B
S1131A50206009E00560054B186005E00023036081
S1131A6083684360014B186030BDC046983B00203A
S1131A7008B5044B1A780132D2B21A700248034BEB
S1131A80984708BD4C440020102700008D550000E5
S1131A9010B50024064B1C700648074B9847074BAB
S1131AA098470748074B9847074B1C6010BDC04632
S1131AB04C440020711A00007D560000F9550000C6
S1131AC0102700008D550000983B0020094B1B682F
S1131AD0002B09D0834202D108E0984208D01B6849
S1131AE0002BFAD1002004E0002002E0012000E0F5
S1131AF001207047983B002010B5041C034B984705
S1131B00002802D1201C024B984710BDCD1A0000BA
S1131B10151A0000F8B51A4B1B78002B2FD0EFF3E1
S1131B20108072B6BFF35F8F0021164B1970144AF0
S1131B301378DBB21170002805D10121114A11700C
S1131B40BFF35F8F62B69D00ED186D000E4E371C1B
S1131B500DE0ED1A23683B60237B012B02D1201C8E
S1131B600A4B98472369002B01D0201C98473468FE
S1131B70002C04D063689D42EBD25D1B6560F8BD08
S1131B804C44002014000020983B0020151A00004B
S1131B90F8B5041C0B4F0C4E1F2502200321B84737
S1131BA00120B04728400828F7D1064F064E1F25CC
S1131BB00220211CB8470120B04728408442F7D1B5
S1131BC0F8BDC046850F00008D0E000008B5082042
S1131BD0064B98470F20064B9847064B1B78002B63
S1131BE002D01620014B984708BDC046911B000047
S1131BF08D0E00001D3C002070B50E4B98470E4B17
S1131C00984700220D4B1A7001220D4B1A700D4E8D
S1131C100D4D1F2402200821B0470120A847204071
S1131C200828F7D104202E21064CA0470C2080213F
S1131C30A04770BD390D00005D0E00001D3C002062
S1131C401C3C0020850F00008D0E000008B5024BDF
S1131C501870024B984708BD1D3C0020CD1B0000A6
S1131C6010B5041C0820054B98471F23011C9943F9
S1131C700C43E1B20820024B984710BD8D0E0000C2
S1131C80850F000030B583B06C46E080C1B22220DD
S1131C90034DA847E1792320A84703B030BDC046CF
S1131CA0850F000070B582B06D46E8800635C6B277
S1131CB02020311C054CA0476D782120291CA04709
S1131CC0AE19F1B22D20A04702B070BD850F0000FF
S1131CD010B5041C0520054B98470F23011C99439C
S1131CE00C43E1B20520024B984710BD8D0E000055
S1131CF0850F000010B5041C19200C4B98470F20C9
S1131D000B4B984721788B1C23700131C9B2201CDE
S1131D10084B98470322084B1A70084B8022520341
S1131D209A61C046C0465A6110BDC046911B00006E
S1131D308D0E0000C11100001C3C00200044004135
S1131D4010B5041C081C00210022054B9847201CD8
S1131D500021044B9847201C034B984710BDC046F4
S1131D60D10B0000650B0000090D0000F0B585B033
S1131D70264B1B78022B46D00F20254B9847030790
S1131D8041D5224B1B78012B24D10720204B9847A7
S1131D90071C6C460734201C01211E4EB0471E4D03
S1131DA021780231C9B2281CB04702A86A1C0292E9
S1131DB02278911E0171AD186A7842715B3F877178
S1131DC0164B9847124D1F240120A847204016287F
S1131DD0FAD118E0032B16D102200D4B9847440981
S1131DE0E4B2002C07D0032C04D0053C631E9C41B4
S1131DF0023400E001240A4B98470122034B1A7075
S1131E00201C084B984705B0F0BDC0461C3C002080
S1131E108D0E0000811000009C3B0020B1250000C5
S1131E20CD1B0000C92E000008B50D4900230B711D
S1131E304B710B8058228B520B1C08334831002203
S1131E4004C38B42FCD1074B9847074B9847074B79
S1131E509847074B9847074B9847074B984708BD47
S1131E6050440020052D0000712500009D20000035
S1131E70191F000091210000D129000008B5024B70
S1131E801880024B984708BD50440020A51C000050
S1131E9008B5024B5880024B984708BD50440020B7
S1131EA0851C000002308000014BC1507047C046C1
S1131EB05044002008B5044B9847044B9847044B02
S1131EC09847044B984708BD0D260000092F0000D1
S1131ED0591F0000C52A000008B50D4B1B68002BD4
S1131EE012D05A6882420CD102E05A68824208D168
S1131EF08522825C1A778822825C5A7702221A72BF
S1131F0002E01B68002BF0D1024B984708BDC04685
S1131F10203C0020212100000022014B1A60704760
S1131F20203C00200023037203774360084A5823AF
S1131F30D15A0131D152074B1B68002B03D10360E6
S1131F40044B186002E00360024B18607047C046FF
S1131F5050440020203C002038B54A4B1A68002A1F
S1131F6000D18DE0141C237A002B02D0022B6DD0FB
S1131F7082E0454B9847051E03D102232372237741
S1131F807EE0606001222272404B89214354180A8A
S1131F908A216854180C8B2168541B0E8C216B54B5
S1131FA0A07B80080123184088216854A17B194034
S1131FB0E87A9043021C0A43EA72A17BC9081940DB
S1131FC08900D2B2042082430A43EA72A27B5208F7
S1131FD013405A00EB7A02218B431343EB722C4BD0
S1131FE01A790132D2B21A712A731A786A735B7839
S1131FF0AB736389A27AEA731B0A2B74617B0F2388
S113200019406A7C0F2082430A436A74227B1201BE
S1132010697C0B4013436B748123EB5C8222A85CC4
S1132020000218438323EB5C1B0418438423EB5CFA
S11320301B061843227D2169164B9847227D6B7835
S1132040D3186B70281C144B984719E0944203D1A1
S11320500C4B22681A6006E013689C4201D01A1CDB
S1132060FAE7236813600A4A5823D15A0139D15236
S1132070A369201C984703E02468002C00D072E771
S113208038BDC046203C0020B1200000D91E00000D
S11320905044002079580000392D0000034B0022E1
S11320A01A708D215A5449005A547047243C002018
S11320B070B5184B1B78002B0ED08D23154AD35CBA
S11320C0002B07D08D235B00D35C0024002B1FD191
S11320D0022302E0012300E000230E4E8D255D4320
S11320E07419201C00218D220B4B98471023637018
S11320F0231C8033221C12325A70110A9970110C5D
S1132100D970120E1A71054A5823D15A0131D1528D
S1132110201C70BD243C00208B580000504400203B
S113212000230370024A5823D15A0139D15270470F
S113213050440020002806D08D300C4BA833FF33C8
S1132140984201D30FE009480378002B0CD1074AC9
S1132150A832FF3202E00378002B05D18D30904283
S1132160F9D3002000E000207047C046243C002042
S113217000228523C254054B1A790132D2B21A7156
S113218002731A7842735B7883737047504400205B
S1132190F0B5094A0232002301277F42064801268E
S11321A000251780D9000C5CB4430C54157101331D
S11321B00832642BF5D1F0BDCC3D002070B50B4A3C
S11321C002320023094E1488844209D1DC00A45D44
S11321D0A407E40F8C4203D1DD000448401904E055
S11321E001330832642BEED1002070BDCC3D0020B9
S11321F010B500221048C824A40001190378DC0794
S11322000BD48379002B0CD0002A03D094799C4200
S113221002D802E0021C00E0021C08308842EDD122
S1132220101C0378022293430F22134030221343DD
S113223003708023837110BDCC3D00200378DA073E
S113224004D401235B424380002383717047C0465A
S113225008B5044B9847002801D0808800E0024864
S113226008BDC046BD210000FFFF000008B5034BB8
S11322709847002801D0024B984708BDBD210000B3
S11322803D22000038B5041C427A857A2D0215439C
S11322902BB2002B05DA427B837B1B0213439D4246
S11322A041D16179A27912020A431F4B9A423AD072
S11322B0627BA07B0002104300211C4B984700283E
S11322C022D0E179227A12020A430021164B9A4263
S11322D008D1E27B217C0902154B1B881143591A52
S11322E04B4259418388AB4204D08523E25CC379D5
S11322F09A4201D8002913D0858003780F22134015
S11323003022134303700BE00A4B9847617BA27B96
S113231012020A434280627AA37A1B021343838027
S11323208523E35CC37138BDFFFF0000BD210000BD
S113233050440020F121000010B5041CC37B007C34
S1132340000218431B4B984232D0E17A0907C90FA7
S1132350194B984700282BD00378DA0728D4852313
S1132360E35C002B17D103780F2213403022134370
S1132370037083790133DBB28371FF2B18D10F49CA
S11323808B1D0F4A89181A78520801321A700833C3
S11323908B42F8D10CE0027813090F330F210B4064
S11323A01C010A4022430270002B01D1054B9847BF
S11323B010BDC046FFFF0000BD210000CC3D002041
S11323C0260300003D22000010B5C17B037C1B02E4
S11323D00B430D4A934204D101235B42C371037240
S11323E010E0C27A510703D5C3711B0A037209E0D6
S11323F0841CC17A0907C90F181C044B98476071E3
S1132400000AA07110BDC046FFFF00005122000069
S1132410F0B5474680B4041CC27B067C36021643E2
S1132420C77A3F07FF0FF9B2301C284B9847284B57
S113243098420FD000228923E2548A23E2548B234A
S1132440E2548C23E25402228823E254201C214BC0
S1132450984738E0627BA37B1B02134398461E4BCC
S11324609847051E2CD01D4B98476B7806336B702C
S113247000228923EA548A23EA548B23EA548C23C6
S1132480EA54FF2143461940E9731A0A2A74812346
S1132490E85C8223EB5C1B0203438320285C00047A
S11324A003438420285C00060343012018705970FC
S11324B09A70DE70360A1E715F71281C054B9847AE
S11324C0201C074B984704BC9046F0BD51220000E5
S11324D0FFFF0000392D0000B12000007121000031
S11324E02121000008B58268037B0020062B07D158
S11324F0D3781079000218435179024B9847012090
S113250008BDC0466D22000008B5027B0023002AE6
S11325100FD082681378002B02D0012B04D007E07F
S1132520054B9847031C04E0044B9847031C00E048
S11325300023181C08BDC046852E0000E5240000B9
S113254038B509490B1D4031002401251A78002AA9
S113255002D0013A1A702C1C06338B42F6D1002C9F
S113256001D0024B984738BDEC400020F91A000016
S113257008B50A490B1D403100221A7006338B42FC
S1132580FBD1074B64229A6000221A73054A1A6130
S113259000200549054B984708BDC046EC40002083
S11325A02C4100204125000009250000A51E000043
S11325B010B5041C03685A78882A1AD11B78202283
S11325C09343412B15D103790F2B12D9094B98470B
S11325D000280ED020230370237943706279852369
S11325E0C254A2798623C254023022792168024B54
S11325F0984710BDB120000079580000002902D08E
S11326002223037001E0242303707047F0B54F4682
S11326104646C0B485B00024D34DD44881463C20FE
S113262081449AE12378203BDAB2042A00D994E168
S11326309300CF4AD3589F4624232370E37A190783
S113264000D58AE16179A27912020A43C94B9A4200
S113265014D1E27B237C1B021343C74A12889A429B
S113266003D0C44A934200D077E1E37A9A0702D5B3
S11326702123237071E1222323706EE1E17B227C0C
S113268012020A43BB4B9A4203D1E37ADE0700D518
S113269063E1617BA37B1B02B74A12880B439A4216
S11326A000D15AE1201CB54B9847B04B0027A11C20
S11326B0181C1A79002A37D0CE7A0A7B1202904667
S11326C01A88944642461643B4452ED1227B9B7801
S11326D09B1ADBB2072B1CD8C278111C1941CE07F8
S11326E012D5E179237A1B02A34A12880B439A423A
S11326F000D032E1E27B207C00021043E17A09073A
S1132700C90F9F4B984728E1012199400A43C270A1
S11327104EE18270C2785B42DBB29A4001231343DC
S1132720C3701F23037143E11F1C06334B45BFD104
S1132730002F00D111E1617BA27B12020A433A808F
S1132740237BBB700123FB701F233B718D488E4B91
S113275098472DE1884B1A88E07B237C1B020343B6
S11327609A4210D0E17A4F070AD4201C874B98472D
S1132770814B1A88E07B237C1B0203439A4202D0DC
S11327807C498B4208D1E37A980702D52123237030
S1132790E3E022232370E0E0E179237A1B020B4378
S11327A09A4200D0D9E023232370D6E0201C0021D4
S11327B0774B9847D1E00022764B1A70617C090967
S11327C0CAB2023292006C4BD258002A5FD0A31CCA
S11327D0677BA07B0002384380466E463080E07BF6
S11327E0267C3602371C074368464780667C3607DA
S11327F0360F067141718121615C8220265C3602AC
S113280031438320265C360431438420265C36061B
S113281031430291591A8C466178614468460173C8
S11328208521615C41738621615C8173E37AD907F8
S1132830C90F022633400B43DBB2E17A4907C90FC3
S113284049010B43E17A0907C90F89010B43524936
S11328507F1879424F41BF003B43677AA17A09024E
S113286039434646701A41424841C00003436F460B
S1132870BB716079A17909020143474809184842AC
S1132880414109010B43BB716846904700E00020B9
S1132890E37ADB07DB171840E379227A12021A4342
S11328A0344B9A420BD1E17B237C1B02324A1288BF
S11328B00B439A4203D1E37A190700D401206379C8
S11328C0A27912021A432B4B9A423CD02A4B1A8803
S11328D0284B9A4237D0002835D0304B9847071EF2
S11328E031D02F4B98477B7803337B7000228923A8
S11328F0FA548A23FA548B23FA548C23FA54E27A36
S113290002231A40FB7A02218B431343FB72627B3E
S1132910A37BFA733B748123FA5C8223FB5C1B0266
S113292013438322BA5C120413438422BA5C120652
S1132930134300221A70174A12789A70227B5A7035
S1132940381C184B98472423237006E0201C164B90
S1132950984702E0201C154B9847201CA847041EEA
S113296000D05FE62DE0C04635210000EC40002099
S11329704C680000FFFF0000504400208522000046
S11329806D2200002C410020F91A0000F92D0000EE
S1132990FD290000284100200100FFFFB1200000B4
S11329A071210000392D00001124000021210000B4
S11329B0E179227A12020A43044B9A4200D0D7E604
S11329C0C8E605B00CBC90469946F0BDFFFF000078
S11329D00023024A1370024A1360704740410020EA
S11329E04441002008B5011C02481022024B9847BC
S11329F008BDC0469844002079580000002902D040
S1132A003023037001E031230370024B1A78013242
S1132A101A70704740410020F0B5474680B4244BFB
S1132A201E68244B1B7898468123F35C8222B15C98
S1132A30090219438323F45C240421438423F45CB2
S1132A402406214341441C4B1B789C461F1C102B1D
S1132A5000D91027FFB2002F16D0184B1D780B1C7D
S1132A60174A7C1EE4B20C190134107819784140DD
S1132A701970002D01D0117002E0107841401170DE
S1132A8001330132A342F0D14346FA18094B1A70BC
S1132A906346DF1BFFB2084B1F70002F02D03223A6
S1132AA0337001E03423337004BC9046F0BDC0465B
S1132AB04441002048410020494100204A4100206F
S1132AC04C41002030B583B0564B1B78002B00D10D
S1132AD0A5E0554B1C68002C00D19BE02378342BD7
S1132AE045D18123E35C8222A15C0902194383233B
S1132AF0E35C1B0419438423E35C1B0619434B4B1F
S1132B001B78C9184A4B5D681A6855409A68554045
S1132B10DB685D400095474B1B78002B09D0081CEF
S1132B2069460422444B9847637804336370012157
S1132B3008E001A80422404B9847019BE91A4D4242
S1132B406941C9B23B4B1B78002B04D0364B186843
S1132B503A4B984703E0344B1868394B98470022A6
S1132B60314B1A602F4B1A78013A1A7057E0322B06
S1132B7055D1332323702E483249334B98474EE0C6
S1132B800378303B012B47D8274B1860284A017B38
S1132B901160C17B047C24020C432404417C090998
S1132BA021435160417B847B24020C432404417CF7
S1132BB00907090F21439160C17A447983791B0283
S1132BC023431B040B43D3600378312B02D1437896
S1132BD0043B4370831C8122815C8222825C12024A
S1132BE00A438321415C09040A438421415C0906A8
S1132BF00A439A1A4378D218144B1A7000220B4BCA
S1132C001A700278303A53425A410A4B1A703223EE
S1132C10037004E000200E4CA0470028B0D103B09C
S1132C2030BDC046404100204441002048410020BE
S1132C304C4100204A41002079580000C12E000078
S1132C40FD25000098440020011A0000494100209D
S1132C5035210000F0B5474680B4804600270020A7
S1132C600F4C8626872510E00378112B0DD1825D49
S1132C70435D1B021343013B9BB283551A0A425521
S1132C800127002B01D113230370A0470028EBD1A7
S1132C90002F02D04046034B984704BC9046F0BD39
S1132CA035210000F91A0000F0B5474680B480468B
S1132CB000270020114C8626872513E00378162B65
S1132CC010D1825D435D1B021343013B9BB28355CC
S1132CD01A0A42550127002B04D11723037010222E
S1132CE08523C254A0470028E8D1002F02D04046D3
S1132CF0034B984704BC9046F0BDC0463521000004
S1132D00F91A00000022074B1A60074B3221996020
S1132D101A7306491961064B0A2199601A73054A08
S1132D201A617047704100205C410020A92C00000A
S1132D3074410020552C000010B5041C8823C35C8A
S1132D40990702D51222027007E0C27A910702D5D0
S1132D501022027001E01222027000218522A15487
S1132D60DA0704D5012149426171A17104E01E49C9
S1132D7088786071C978A17105221A4203D1201C98
S1132D801A4B984703E0E17B227CE1712272164AD8
S1132D90117861725178A17251790131C9B25171BE
S1132DA02171E179227A12020A43114B9A4210D11D
S1132DB04123A37078235B42E3700E4B98470723AB
S1132DC0184001308623E054000A80B28723E0547F
S1132DD009E06123A37078235B42E3700022862319
S1132DE0E2548723E25410BD50440020C92300005C
S1132DF0FFFF0000D158000038B5051C1D4B984753
S1132E00041E36D0122303706B784370002285238E
S1132E10C254194B98470723184001308623E054C5
S1132E20000A80B28723E05400228923E2548A23D3
S1132E30E2548B23E2548C23E254A01C6A78A91C2C
S1132E400E4B98474123A37078235B42E370012320
S1132E505B42E37123726A79AB796271A371084BA7
S1132E601A7862725A78A2725A790132D2B25A71BD
S1132E70227138BDB1200000D158000079580000FB
S1132E805044002038B58568037B0020032B13D100
S1132E900DE00378162B0CD1027B6B789A4208D193
S1132EA017230370AA788823C254012004E0002069
S1132EB0024CA0470028ECD138BDC04635210000A3
S1132EC0122303707047C0460D4B1B68012809D0BC
S1132ED0002803D02122022805D001E0002202E0CC
S1132EE0012200E0202285215A5415221A70002262
S1132EF0034B1A60034A5823D15A0139D1527047FF
S1132F00704100205044002070B50024374D384EE5
S1132F1066E02378103BDAB2072A61D89300F358AD
S1132F209F46201C0121334B984759E08623E25CDD
S1132F308723E35C1B02134305D0112323702E481F
S1132F402E4B98474CE01323237049E02C4B1B680D
S1132F50002B45D12A4B1C6014232370601C294B81
S1132F609847294A5823D15A0131D15238E0852350
S1132F70E35C002B19D1617BA37B1B02224A1288DC
S1132F800B439A420ED1E37ADA070BD5162323704A
S1132F9015228623E25400228723E2541B48174B50
S1132FA098471DE0172323701AE01723237017E0B6
S1132FB0201C174B98478923E25C8A23E35C1B029D
S1132FC013438B22A25C120413438C22A25C1206CC
S1132FD0134303D1201C0F4B984701E0201C984752
S1132FE0201CA847041E94D170BDC04635210000A2
S1132FF060680000FD29000074410020F91A0000F7
S113300070410020F51C0000504400205C41002069
S11330103923000021210000031C083343600122EE
S113302052428260C3600361002303607047C0465C
S1133030002303617047C04643684B609A688A6006
S11330409A685160996008610368013303607047AE
S113305030B50C68021C0832631C01D1026905E01A
S113306053681D68AC4201D31A1CF9E753684B60DE
S113307099608A605160086103680133036030BD60
S113308003694268816891608268416851605A6846
S1133090824201D192685A600022026118680138A4
S11330A01860704738B5041C151C026C002A08D13E
S11330B0016800292AD14068164B984700236360B1
S11330C024E0002D0CD18068134B9847A268216C32
S11330D05318A3606268934218D32368A36015E071
S11330E0C0680D4B9847216C4A42E1688B18E36035
S11330F021688B4202D263689A18E260022D05D1DE
S1133100A36B002B02D0A36B013BA363A36B01331E
S1133110A36338BD713C00007958000010B582B03B
S113312001900A1C446D002C01D172B6FEE7A16B1C
S1133130E36B994201D372B6FEE7A16B00208B4288
S11331400DD9201C01A9074B98470020636A002B66
S113315005D0201C2430044B9847431E984102B0EC
S113316010BDC046A5300000A13A000038B504687F
S1133170002C0CD0026CC568AB18C3604568AB4228
S113318000D3C460C368081C191C014B984738BDA0
S113319079580000F8B5041C234B9847A36C002B06
S11331A01CDD224E224D636D002B07D0201C002114
S11331B0A84701280CD11F4B984709E0636A002BEC
S11331C00CD0201C2430B047002801D0194B98475C
S11331D0A36C013BA364A36C002BE4DC01235B42DE
S11331E0A364154B9847104B9847636C002B15DD6F
S11331F02369002B12D0271C10370C4E0D4D02E012
S11332002369002B0AD0381CB047002800D0A847F7
S1133210636C013B6364636C002BF1DC01235B4250
S11332206364054B9847F8BD2D0A0000A13A0000DD
S11332301D310000B93B0000450A000038B5041CEC
S11332400D1C002801D172B6FEE7154B9847236880
S1133250226CE06B5043191861600021A163A360E4
S1133260821A9B18E36001235B426364A364002D0C
S11332700BD1216900290FD0201C1030094B98472D
S1133280012809D1084B984706E0201C1030074D4F
S1133290A847201C2430A847054B9847012038BD77
S11332A02D0A0000A13A0000150A000019300000A0
S11332B0450A0000F8B5051C0E1C171C002811D087
S11332C058200F4B9847041E0CD0301C6843013023
S11332D00B4B98472060002806D1201C094B9847C7
S11332E000E0FEE772B6FCE7E5632664201C0121DA
S11332F0054B98475023E75400236365201CF8BD11
S1133300ED0A0000550B00003D320000F0B54F46B9
S11333104646C0B485B0041C0D1C01921F1C002835
S113332001D172B6FEE7002904D1036C002B01D051
S113333072B6FEE74A4B9847002802D1019B002B46
S113334003D10026474B984601E072B6FEE7C0471A
S1133350A36B002B2BD0E668201C291C424B9847FA
S1133360002F14D1A36B013BA3632368002B02D16C
S11333703E4B984760602369002B14D0201C10300A
S11333803B4B984701280ED13A4B98470BE0E66037
S1133390636A002B07D0201C2430354B9847002843
S11333A001D0344B9847344B9847012052E0019B9D
S11333B0002B03D1304B984700204BE0002E03D163
S11333C002A82E4B984701262B4B98472C4B984725
S11333D0244B9847636C013301D100236364A36CCD
S11333E0013301D10023A364234B984702A801A908
S11333F0244B9847002827D11A4B9847A36B99462A
S11334001D4B98474B46002B18D12368002B06D13F
S1133410144B984760681C4B9847174B9847201CDF
S113342024300199194B9847201C194B9847194B84
S1133430984700288BD10F4B984788E7201C144BE2
S11334409847144B984782E7201C114B9847114B1F
S11334509847002005B00CBC90469946F0BDC04684
S1133460D13B00002D0A00006D310000C53B000077
S1133470A13A0000150A0000450A0000293B00009B
S113348021370000493B0000F13B0000493A0000AD
S1133490953100005D380000084B1B681B68002B49
S11334A004D101225242064B1A6006E0034B1B680A
S11334B0DB68DB685A68024B1A6070478C41002055
S11334C00800002010B5041C0E4B1B6858600E4BFE
S11334D01B68984207D20D4B18680A4B19680431CF
S11334E00B4B98470CE00B4B1868064B19680431DA
S11334F0074B9847084B1B689C4201D2064B1C6043
S113350010BDC046384200205442002058420020DA
S1133510513000008C41002008000020F8B55F46BF
S113352056464D464446F0B4071C0E1C91469A4636
S11335300A9D002801D172B6FEE7042D01D972B6A6
S1133540FEE748205E4B9847041E00D1AFE00C9A7A
S1133550002A00D0A7E04B469800594B98472063B7
S1133560002803D1201C574B9847A0E04B469A00F3
S1133570A521554B9847554A131C4B449B00226B7D
S1133580D318072293439B4632783423E25433788A
S1133590002B0AD00123F15CE21834321170F25C82
S11335A0002A02D00133082BF5D100223B23E25438
S11335B02E1E042E00D90426E6626664231D984656
S11335C0181C434A91469047201C1830C847246170
S11335D005239E1BA66164625846391C52463D4B26
S11335E0984720600B9B002B00D01C603A4B9847F7
S11335F03A4B1A6801321A60394B1B68002B23D1ED
S1133600374B1C60354B1B68012B28D1354E642287
S113361092199146344F301CB84714364E45FAD1AE
S1133620324B9946181C304EB047314F381CB047C6
S11336303048B0473048B0473048B047304B4A462E
S11336401A60304B1F600AE02F4B1B68002B06D119
S1133650234B1B68DB6A9D4201D3214B1C602B4A20
S1133660136801331360E363E36A294A12689342DF
S113367001D9274A13609A00D3189B001948C0182F
S11336804146244B9847244B98471F4B1B68012005
S1133690002B0ED0124B1B68DB6A9D4209D91F4BCD
S11336A09847012005E00C9B0363181C5EE701208A
S11336B040423CBC90469946A246AB46F8BDC04643
S11336C0ED0A0000550B00008B580000FFFFFF3F80
S11336D031300000F10900002D0A00006042002092
S11336E038420020C04100201930000094410020DD
S11336F0A84100203C4200202442002064420020D3
S11337008C41002058420020904100205C4200205F
S11337107842002039300000450A0000150A0000F4
S1133720024B1A6801321A607047C04650420020AA
S1133730F0B5474680B43B4B1B68002B61D13A4B34
S11337401A6801321A601F68002F12D1374B1B68A8
S11337501B68002B01D072B6FEE7344A1168344B63
S1133760186810601960334B1A6801321A60324BC2
S11337709847324B1B6800249F4237D32B4E00E0FE
S1133780012433681B68002B04D1012252422B4BC5
S11337901A602BE0254A1368DB68DD686B689F427A
S11337A002D2264A136021E02B1D9846181C244A95
S11337B09047AB6A002B03D0281C1830204B984745
S11337C0EB6A204A1268934201D91E4A13609A0098
S11337D0D3189B001C48C01841461C4B98471C4BEF
S11337E01B68EA6ADB6A9A42CAD2CAE7184B1B68AA
S11337F0DB6A9A00D3189B00134A9B58012B06D806
S113380006E0144B1A6801321A60002400E0012417
S1133810114B1B68002B00D00124201C04BC9046D3
S1133820F0BDC04650420020544200208C4100208C
S113383058420020884100209934000008000020EC
S11338408130000078420020C0410020393000005F
S113385038420020BC4100207C420020F8B52F4BA8
S11338601B68002B01D172B6FEE72D4B98472B4BFA
S11338701A68013A1A601B680024002B49D1294BAD
S11338801B68002B45D0284D2F1C21E0FB68DC6809
S1133890201C1830254B9847261D301C234B984775
S11338A0E36A234A1268934201D9214A13609A00B9
S11338B0D3189B001F48C018311C1F4B98471F4B3F
S11338C01B68E26ADB6A9A4202D301221C4B1A602B
S11338D02B68002BDAD11B4B1B68002B11D0194B22
S11338E01B68002B0DD0184E154D164CB047002800
S11338F001D001232B602368013B23602368002B44
S1133900F4D10F4B1B680024012B02D10F4B9847B5
S113391001240F4B9847201CF8BDC046504200209C
S11339202D0A0000604200203C420020813000004B
S113393078420020C0410020393000003842002085
S11339407C420020BC41002031370000150A0000F1
S1133950450A000010B5041E16D00D4B1B68002B41
S113396001D072B6FEE70B4B98470B4B1B68E4186B
S11339700A4B186804300A4B9847201C094B984797
S1133980094B9847002801D1084B984710BDC04601
S113399050420020213700005442002038420020C9
S11339A081300000C53400005D380000150A0000B5
S11339B010B5204B1B68002B03D001221E4B1A604C
S11339C036E000221C4B1A601C4B1B689A00D3186B
S11339D09B001B4A9B58002B16D1184B1B68002BCD
S11339E005D102E00268002A04D172B6FEE7134B47
S11339F0134C181C1A68013A1A601A6891008A1844
S1133A0092001259002AEDD00C4B1B689A00D3186F
S1133A109B000B4AD3185A6852685A60191C083123
S1133A208A4201D152685A605B68DA68054B1A60B1
S1133A3010BDC046504200207C4200207842002045
S1133A40C04100203842002038B50C1C002801D1A8
S1133A5072B6FEE70B4D296818310B4B984728685E
S1133A6004300A4B9847631C06D1064B196804318D
S1133A700748084B984704E0074B18682018074B81
S1133A80984738BD38420020513000008130000092
S1133A90644200203930000054420020C534000044
S1133AA038B5C368DC68002C01D172B6FEE7251C6A
S1133AB01835281C144B9847144B1B68002B13D142
S1133AC0251D281C104B9847E36A114A126893423B
S1133AD001D90F4A13609A00D3189B000D48C018EF
S1133AE0291C0D4B984703E00C48291C0A4B9847A6
S1133AF00B4B1B68E26ADB6A00209A4203D901225D
S1133B00084B1A60012038BD81300000504200206B
S1133B1078420020C0410020393000003C4200209F
S1133B20384200207C420020002801D172B6FEE712
S1133B30034B1B680360034B1B6843607047C0461C
S1133B40884100205442002070B5041C0E1C00283B
S1133B5001D172B6FEE7002901D172B6FEE7114B1E
S1133B609847114B1A683368581C15D00F490968D7
S1133B702068884203D0012561688A420DD26168B9
S1133B80501A0125834208D98A1AD3183360201C9D
S1133B90074B9847002500E00025064B9847281C52
S1133BA070BDC0462D0A0000544200208841002008
S1133BB0293B0000450A00000122014B1A607047AE
S1133BC07C420020014B18687047C04638420020F0
S1133BD0054B1B680120002B04D0044B186843429A
S1133BE0584140007047C046904100205042002098
S1133BF038B5041E31D0C36A184A1268D26A934297
S1133C002BD28269002A05DB144A1268D26A052184
S1133C108A1A82619A00D3189B00114AD3186269E8
S1133C209A4216D1251D281C0E4B98470B4B1B6836
S1133C30DB6AE3620C4A1268934201D90A4A1360B0
S1133C409800C3189B000648C018291C074B9847C6
S1133C5003E0024B1B68DB6AE36238BD3842002094
S1133C60C04100208130000078420020393000003B
S1133C7038B5041E1DD0C26A436C9A4219D0051D82
S1133C80281C0C4B9847636CE362A269002A02DB90
S1133C900522D21AA261084A1268934201D9064A3F
S1133CA013609800C3189B000448C018291C044BD7
S1133CB0984738BD8130000078420020C041002080
S1133CC039300000931C9B001950022A04D1027E53
S1133CD01023134303760CE0032A04D1027E20232D
S1133CE01343037605E0012393401A1C037E1A4311
S1133CF0027600207047C04638B58000144BC45883
S1133D002268957B237E1D40637E1D40EB0705D50D
S1133D10201CA2689047012322689373AB0705D542
S1133D20201CE2689047022322689373EB0605D5B2
S1133D30201C22699047102322689373AB0605D593
S1133D40201C62699047236820229A7338BDC046BC
S1133D50AC44002008B50020014B984708BDC0467C
S1133D60F93C000008B50120014B984708BDC04646
S1133D70F93C000008B50220014B984708BDC04635
S1133D80F93C0000F0B55F4656464D464446F0B453
S1133D9091B0051C0C1C161C2960081CAD4B9847DF
S1133DA0021C23680520D90700D54BE123681C2099
S1133DB09F0700D546E1A84B186A911C01278F4044
S1133DC0391C014319620FA92D27F35D0B701432BE
S1133DD0D2B29046101CA14B98474046A04B98473E
S1133DE0F05D00219F4B9847F37A6B712423F35CB9
S1133DF0AB712523F35CEB71F37E2B72337F6B7213
S1133E0029688846081C934B9847143000226B4657
S1133E10DA84328A02928023DB019A4221D0802301
S1133E20DB019A4204D880239B019A4211D008E016
S1133E30C023DB01029F9F420FD080231B029F42BD
S1133E4003D01027069700270EE0032706970027C4
S1133E500AE010270697012706E00827069701279E
S1133E6002E008270697002731680391F26891461B
S1133E7073690493317E8A462623F35C9B467368F8
S1133E80002B13D08022520593422ED12723F35CBA
S1133E90002B2ED1376AC0B2734B9847011C381CD3
S1133EA06A462632714B9847031C1FE02723F35CB4
S1133EB0002B0AD0069A0092306AB16A6A4626320A
S1133EC03B1C6B4FB847031C10E0316A0791C0B22A
S1133ED0654B9847011C069A009207986A46263259
S1133EE03B1C634FB847031C00E00023181E00D09E
S1133EF0A8E0737E002B02D0B37E41468B732A6800
S1133F00029FD369002BFCD102976B4626331B8892
S1133F10424693814B46039F3B43049F3B43716856
S1133F200B43029F1F43524613021F4359464B073C
S1133F301F432723F35C002B01D104231F43717E0D
S1133F408902337F5B021943F27AB37A134319432C
S1133F50737F1B0219432423F35C5B041943252359
S1133F60F35C1B0419433389FF2B0BD0F27E002A28
S1133F7003D0A022D204174302E080225204174344
S1133F80194305E0F37E002B02D08023DB041F439A
S1133F902C23F35C002B03D1364B9B789A0701D575
S1133FA080231F432A68D369002BFCD14346596000
S1133FB02A68D369002BFCD141460F600EAB8022E6
S1133FC01A7000225A70DA709A70326B0A92736B0C
S1133FD00B93B76B0C97F66B0D9600270EAEF9B2E8
S1133FE0BB000AAA9858002802D1201C224A9047F4
S1133FF0431C05D03070000CC0B2311C1F4A9047DE
S11340000137042FEBD10023EB602B616B61AB61B3
S1134010EB612B62AB626B620022EB85AB853023D4
S1134020EA543123EA543223EA543323EA54286805
S1134030084B9847041C1249124B9847A400124B92
S1134040E550002011B03CBC90469946A246AB46D0
S1134050F0BDC046D905000000040040C14E000078
S1134060354E000001040000DD4E0000290200006E
S11340705102000000200041510400009D4F000047
S113408031410000B5470000BC44002010B5021CBB
S11340900368C4791C20002C0DD0D28D92B2052067
S11340A0002A08D1DA69002AFCD1198502211A7E76
S11340B00A42FCD0002010BD10B5031C04688279AC
S11340C01C20002A33D09B8D9BB20520002B2ED1BF
S11340D0237E5A072BD5E369002BFCD1638BDBB21B
S11340E09A0621D09A0703D5022363831A201EE07F
S11340F05A0703D5042363831E2018E0DA0703D587
S113410001236383132012E0DA0605D5628B1023A2
S11341101343638342200AE09A0605D5628B202369
S113412013436383412002E0238D0B80002010BDE4
S1134130F8B58000644BC5582C68E369002BFCD1AA
S1134140237EA67D1E403123EB5C3022AF5C1F40F2
S1134150F10720D5EB8D9BB2002B1AD0AB6A1A78ED
S1134160D2B2591CA9626979012904D1597809028A
S11341700A430233AB62D305DB0D2385EB8D013B90
S11341809BB2EB85002B06D1012323750223A37573
S113419001E001232375B20709D502232375002208
S11341A03323EA54FB0702D5281CE96888477207C1
S11341B06AD5AB8D9BB2002B64D0638BDBB219073D
S11341C002D43F22134001E037221340002B37D0A2
S11341D09A0707D51A223223EA54628B0223134327
S11341E0638327E0590707D51E223223EA54628BE2
S11341F00423134363831DE0DA0707D51322322314
S1134200EA54628B01231343638313E0D90607D571
S113421042223223EA54628B10231343638309E05E
S113422020221A4206D041223223EA54628B2023F0
S1134230134363837A0727D5281C6B69984723E0C7
S1134240228DD205D20DD3B2696A0B706B6A591CE8
S113425069626979012904D1120A5A706B6A0133BF
S11342606B62AB8D013B9BB2AB85002B0CD104235D
S1134270237500223223EA54BA0705D5281C2B697A
S1134280984701E004232375F10607D5102323750D
S11342902376FA0602D5281CEB699847B10607D5A0
S11342A02023237523763A0702D5281CAB69984747
S11342B0310707D5082323752376BA0602D52B6A5E
S11342C0281C9847F8BDC046BC440020F0B54746BA
S11342D080B488B0051C0C1C161C29600B681C20BB
S11342E09A0700D5DFE00B680520DA0700D5DAE08D
S11342F0081C6F4B98476F4B196A821C0127974023
S11343003A1C0A431A6207A92427F35D0B70143080
S1134310C0B28046684B98474046684B9847F05D6A
S11343200021674B98473378012B03D122680C2373
S1134330134323603378002B00D0B1E022680823B4
S113434013432360ACE0EA18D16004331C2BFAD188
S11343500023EB62AB620024AB862B863623EC543D
S11343603723EC543823EC5403236B722C712868E4
S11343704F4B9847071C5349534B9847BF00534B27
S1134380FD502F6802AB80221A705C7001229A7073
S1134390DC703378002B02D1002202AB9A70B36A2E
S11343A00393F06A0490326B0592736B06930024B6
S11343B0E1B2A30003AA9858002802D1381C444A49
S11343C09047431C06D06A461072000CC0B202A982
S11343D0404B98470134042CEAD133786B71337C19
S11343E0AB71B37CEB71337D2B7200226B46DA80A8
S11343F03378012B14D128682D4B98471430C0B260
S1134400354B9847011CB0696A460632334B9847CE
S1134410031C1720002B46D16B4606331B783B73D5
S11344203378002B0FD1B169B38B786AF47F2404FD
S1134430B27F224302437A622022B25C002A04D073
S11344404022134301E000230021B2687068024354
S1134450F06802430A43317C0B43717C002903D189
S11344601F498978880701D580210A43B17C002936
S113447002D0802189020B43F17C002902D08021E3
S113448089000B43317D002902D0802189010B432F
S113449039680A433A607A6813437B60002002E07B
S11344A0002300214FE708B004BC9046F0BDC0468D
S11344B0D905000000040040C14E0000354E000044
S11344C001040000D1450000B5470000BC440020B1
S11344D0510400009D4F0000DD4E00002902000041
S11344E00020004110B544791523012C6CD1047AC5
S11344F00023002C68D1002A57D04B78002B44D0DD
S11345000268137EDC070FD40B78D9090022002936
S113451003D15A09D2012D4952181F210B40012100
S11345209940916105234FE00B78DC090022002CAF
S113453003D15A09D201254C12191F242340012406
S11345409C405461897803681A7ED40700D5996227
S1134550C2790023002A37D102680421137E0B425A
S1134560FCD0117E00234C072ED5538B590703D55D
S1134570518B04230B4353838379012B02D1936A18
S1134580002321E0936A00231EE00B78D90900225E
S1134590002903D15A09D2010C4C12191F210B40D6
S11345A001219940516100230EE00B78D9090022C2
S11345B0002903D15A09D201044952181F210B4082
S11345C00121994091610023181C10BD0044004151
S11345D0F8B58000744BC45825683623E35C372251
S11345E0A75C1F402B7EAE7D1E40F10749D5637941
S11345F0012B16D1637A002B0FD16C4B1B88AB6255
S1134600638E013B9BB26386638E9BB2002B01D108
S113461001232B756379012B03D1637A002B05D118
S11346202FE0002B2DD1637A002B2AD02268E36A75
S11346301978C9B2581CE062A079012804D15878CD
S1134640000201430233E362CB05DB0D9362A38EC8
S1134650013B9BB2A386A38E9BB2002B11D10123F5
S11346602B75637A012B0CD1E379002B09D1032339
S1134670637200223823E254FA0702D5201CE3684F
S11346809847710761D56B8B5A0714D5637A012B50
S11346900BD01E223823E2540323637205232B75A7
S11346A03B0702D5201CA1698847AB6A6A8B0423A7
S11346B013436B8349E0637A012B16D123689B6A09
S11346C0638E013B9BB26386638E9BB2002B3CD10D
S11346D004232B7500223823E25403236372FA0760
S11346E033D5201CE36898472FE023689A6AD205E3
S11346F0D20DD3B2A16A0B70A36A591CA162A1792D
S1134700012904D1120A5A70A36A0133A362238EC9
S1134710013B9BB22386238E9BB2002B15D1002232
S11347203823E25404232B75637A022B05D17A07CC
S11347300BD5201C6369984707E0637A002B04D1EA
S1134740B90702D5201C22699047B30713D56379B2
S1134750002B10D107232B7502232B7603236372BE
S11347600023A386238638230022E254F90602D5C7
S1134770201CE269904733070AD56379002B07D1DF
S113478008232B752B76B90602D5201C226A904784
S1134790F60907D080232B752B767B0602D5636A36
S11347A0201C9847F8BDC046BC440020B8440020F3
S11347B07047C046F0B50A4B1B78002B0CD1094F4B
S11347C0094E0A4D0024DE515A1914600433182B83
S11347D0F9D10122024B1A708000024BC150F0BD86
S11347E08042002084420020B1470000BC440020E5
S11347F010B582B0041C684605490622054B98474B
S1134800201C054B98476B46185602B010BDC04695
S11348108068000079580000D905000008B5024BF3
S11348201B680020984708BD8442002008B5024B4D
S11348305B680120984708BD8442002008B5024BFC
S11348409B680220984708BD8442002008B5024BAB
S1134850DB680320984708BD8442002008B5024B5A
S11348601B690420984708BD8442002008B5024B08
S11348705B690520984708BD844200201723002A5D
S11348800FD18B00084A9A58002A04D1191C064BF0
S1134890C850002305E01D23121A501E82415242C3
S11348A01340181C7047C0463043002017230029CA
S11348B007D100231F2800D8034B01228240DA606D
S11348C00023181C7047C046001800401723002915
S11348D007D100231F2800D8034B012282409A608D
S11348E00023181C7047C0460018004070B5002211
S11348F0164B1A7000231F26154D144C1F2B10D96C
S113490019E0144900E000210A619B005B59002B67
S113491000D0984723780133DBB223700F2B14D8CF
S1134920ECE7321C1A40012191400A1C094909692B
S11349301142E6D1EEE7321C1A40012191400A1CD3
S1134940002109691142DED1E4E770BDD44400209E
S1134950304300200018004010B50020084B984751
S1134960084CFA218900A047074B1860FA218900F6
S1134970A047064B18600522054B1A6010BDC046BF
S1134980A94D000089560000100000200C000020F2
S113499010E000E030B5084B1C68084A002580216F
S11349A0490206E0002C04D05460956013680B4261
S11349B0FCD00138F6D230BD0C00002010E000E03D
S11349C00C4B1B68002B10D1EFF31083002B09D183
S11349D072B6BFF35F8F0022074B1A700122074B98
S11349E01A7002E00022054B1A70024B1A68013259
S11349F01A6070479C42002014000020A04200204E
S1134A00084B1A68013A1A601B68002B09D1064B3F
S1134A101B78002B05D00122044B1A70BFF35F8F63
S1134A2062B670479C420020A0420020140000207F
S1134A30F0B583B001AC012565700027A77025701F
S1134A401320211C064EB04780221203054B9A61A5
S1134A50277065701C20211CB04703B0F0BDC04610
S1134A60694A00000044004100B583B001AB8022D4
S1134A701A700A785A704A789A708A78DA70191C0F
S1134A80014B984703B000BD9D4F000008B50828AE
S1134A9034D880001B4B1B589F468020000230E016
S1134AA0194B18692DE0194B186A8005800F184BB3
S1134AB0C340181C25E0144B586922E0124B1B68B4
S1134AC0022018401DD011491022CB681A42FCD094
S1134AD00D4B1B685A0713D500200E4B98470A4B01
S1134AE09B681B041B0C58430BE05023074AD35C00
S1134AF000205A0705D5044BD86802E0002000E0E6
S1134B00054808BD88680000A44200200008004051
S1134B1000127A00DD4E0000006CDC0270B50C4B14
S1134B201C6A017885784078012210408001402673
S1134B30B44304432A40D00180229443221C0243FC
S1134B40032001400902034802400A431A6270BD6F
S1134B5000080040FFFCFFFF082843D88000224BD8
S1134B601B589F4600203EE0204B196A02220A434C
S1134B701A62002037E01D4B996902220A439A61A8
S1134B80002030E0194B198A02220A431A820020BD
S1134B9029E0164B998A02220A439A82002022E0D5
S1134BA0134B196802220A431A601A68114B1A40FF
S1134BB00E4B9A84191C1022CB681A42FCD00C4A62
S1134BC091680A4BD96251689962126892B29A84C8
S1134BD0002008E0054A4423D05C02210143D1545B
S1134BE0002000E017207047AC6800000008004077
S1134BF0A44200207FFF000030B585B0C222D2005D
S1134C00194B9A60194B5A681E218A435A60012332
S1134C106A4613700024164DE0B26946A847013471
S1134C20252CF9D103A80024447001258570047053
S1134C30104B98470620104B9847104B9847104B41
S1134C401C725C729C7201956B465C7006236A460A
S1134C50137014725472002069460A4B984700205E
S1134C60094B984705B030BD0008004000400041A2
S1134C70C14E00001D4B0000594B00008D4C00003C
S1134C8000040040B14C0000654D0000064B9969DA
S1134C9008220A439A610122044B1A70191C0B78EA
S1134CA01342FCD17047C04600040040000C004091
S1134CB0F8B5061C071C0D782D0205434B78002B14
S1134CC002D08023DB021D434B7A002B02D08023C9
S1134CD01B031D434C68012C17D9631E1C420FD1C2
S1134CE0022C06D90223002201325B009C42FBD82D
S1134CF000E000221702374380235B031D4304E0D6
S1134D002702374380239B021D430B7A002B02D0DA
S1134D1080239B031D430F4A53785BB2002BFBDBBC
S1134D200D4B98470D4B1E700A4A53785BB2002B0B
S1134D30FBDB084B9F601A1C53785BB2002BFBDB38
S1134D40044B5968802252020A4015435D60044BAB
S1134D509847F8BD000C0040C1490000080C004011
S1134D60014A000010B5041C0B4A53785BB2002BB7
S1134D70FBDB0A4B98470A4B1C70074A53785BB21B
S1134D80002BFBDB044B5968802252020A435A6011
S1134D90044B984710BDC046000C0040C1490000B8
S1134DA0040C0040014A000070B5041C1A4A5378F0
S1134DB05BB2002BFBDB194B9847194B1C70164A4E
S1134DC053785BB2002BFBDB134E7068C004C00E3B
S1134DD0144B9847051C124B1C707668F602F60FAC
S1134DE0114B1C700C4A53785BB2002BFBDB0A4B53
S1134DF09C68240AA4B20D4B9847002E07D1012CBD
S1134E0007D9281C211C0A4B9847051C01E00134D2
S1134E10E540281C70BDC046000C0040C14900009C
S1134E20040C00408D4A0000080C0040014A0000B8
S1134E308956000010B5041C064B9847064B1C709D
S1134E40064B59888022D2010A435A80044B984762
S1134E5010BDC046C1490000020C0040000C0040D7
S1134E60014A000010B5041C0F4B98470F4B1C70EF
S1134E700F4B58880005000F59880E4A0A405A8083
S1134E8059880D4A0A405A80191C8022D2014B8845
S1134E901342FCD1064B01025888064A02400A43D9
S1134EA05A80064B984710BDC1490000020C0040CF
S1134EB0000C0040FFF0FFFFFFBFFFFF014A0000AE
S1134EC010B50C7824020443024B9847A4B2024B59
S1134ED05C8010BD654E0000000C004010B5041C41
S1134EE0064B9847064B1C70064B5C882405240F20
S1134EF0054B9847201C054B984710BDC14900003D
S1134F00020C0040000C0040014A0000A94D0000C2
S1134F1030B5D378002B1ED11378802B04D01B0618
S1134F2080246402234300E0002354780225AC4328
S1134F300AD19478002C03D18024A402234302E0F4
S1134F40C024E402234341605478013C012C04D87A
S1134F50114C234001E0416000230D042D0CA024DA
S1134F60E4052C431C4384620D0CD02424062C43FA
S1134F701C438462D478002C0CD15C0305D593784F
S1134F80012B01D1816100E041615378013B012B88
S1134F9000D8816030BDC046FFFFFBFF08B5031C8D
S1134FA00A1CC1090020002903D15809C001044981
S1134FB040181F210B4001219940024B984708BD1E
S1134FC000440041114F00007047C04608B5044B2F
S1134FD09847044B9847044B9847044B984708BD9F
S1134FE0F94B0000314A0000C94F000031010000B4
S1134FF0FEE7C04610B51C4B1C4A9A4203D01C4B1A
S1135000194A9A4204D31B4B1B4A9A4210D31BE001
S11350101A4B17480330C01A80080130800000235F
S11350201149124AD458CC5004338342FAD1EAE7E6
S1135030114B1A1D0F490331891A89088900521826
S1135040002102C39342FCD10D4B7F210D4A8A43B8
S11350509A600D4B596880220A435A600B4B98475B
S11350600B4B9847FEE7C04600000020086A00008A
S113507098000020E844002098000020040000204C
S113508000ED00E000000000004000412D58000049
S11350905D530000064B1B68002B02D1054A044BEC
S11350A01A60034A136818181060181C7047C04629
S11350B0BC420020E8640020012040427047C04602
S11350C080239B014B6000207047C046012070473D
S11350D000207047037F002B03D180221203014B71
S11350E0DA6170470044004138B5034D034CA847CA
S11350F00A20A047FBE7C046E51900005539000027
S113510038B5FA25AD00024C281CA047FCE7C04680
S113511055390000F0B583B00B4E0C4D0C4F306880
S1135120694664220023A847002801D0009B3B6005
S1135130084C206801306321074B98472160FA200E
S11351404000064B9847EAE7D84400200D3300009E
S1135150280000202C000020D15700005539000001
S113516070B582B0051C0E1C00226B46DA80064C1A
S1135170281C69460631A0470028F9D16B4606333E
S11351801B88337002B070BDB940000070B5061CB6
S11351900D1C034C301C291CA0470028FAD170BDFB
S11351A08D40000008B5044B1A6801321A600348A8
S11351B0034B984708BDC04628000020D068000073
S11351C09D58000010B584B0354B18688268936808
S11351D0013B9360002B19DA8268916893699942C4
S11351E010DB1368FE221A702D4B1868826813684E
S11351F019780A2902D00133136011E00A21294BDE
S113520098470DE0FE21274B984709E083681B6807
S1135210FE221A70224B1B689B681A6801321A60BE
S11352201F4B186882689368013B9360002B19DA5E
S1135230826891689369994210DB136880221A701E
S1135240174B18688268136819780A2902D0013349
S1135250136011E00A21134B98470DE08021114B94
S1135260984709E083681B6880221A700C4B1B68FE
S11352709B681A6801321A600B4B19780B4B1A6839
S11352800B4B1B6800910B480068019002910A497E
S11352900978039109480A490A4CA04704B010BD93
S11352A094000020DD5F0000300000202C0000206E
S11352B018000020280000201C000020D8680000EE
S11352C0200000209D58000038B5034D034CA8472A
S11352D0FA20A047FBE7C046C5510000553900003D
S11352E008B50020084B98470848094B98470F20F9
S11352F0084B98470120084B98472320074B9847B1
S11353000748084B984708BD7D1E0000674500000C
S1135310911E0000611C00004D1C0000D11C000007
S113532000690000E529000000B583B00A0AD2B282
S1135330074B5A811A7301225A7302229A73186115
S11353401975044A9A61181C034B984703B000BDB1
S1135350F4420020D5500000251F0000F0B54F4650
S11353604646C0B497B0634B9847634B9847634B2A
S11353709847634B984704AA8023DB0504930023D2
S11353805360FF21118100219372D3729620800112
S11353901062012624201654252016542620135466
S11353A02720135493622C2013542D20135453613B
S11353B01382D3761176117751761323937651772E
S11353C080235B03D3604F4B13634F4B5363012321
S11353D05B429363D3634D4C4D4B1C604D494E4B24
S11353E019604E494E4B1960201C4E494E4B98474C
S11353F04E4F3B68986800214D4DA8473B6858685C
S11354000021A8472568281C4A4B98471F231840A9
S11354108640494B1E602368DA69002AFCD12B6858
S11354200222914613432B6004AE301C434B984731
S11354301C2304930024746003239846F37201250B
S1135440B5720820311C3E4B98473E480821002283
S11354503D4B9847082000213C4B98473C4E357003
S1135460BFF35F8F62B60F2008210022394FB8477F
S1135470394B18600F2008210022B847374B1860B9
S113548062B63570BFF35F8F62B68027BF004B46AC
S11354900093019402940394314832493A1C002346
S11354A0314EB04700950194029403942F4830493B
S11354B08022D2000023B047009501940294039403
S11354C02C482D493A1C0023B047009501940294BE
S11354D003942A482A493A1C0023B04714AB424695
S11354E05A719C711D7101201599264B9847264CC1
S11354F0A047FDE7CD4F000059490000C119000045
S1135500E15200000300040003000500C042002033
S1135510784300208D510000744300206151000045
S11355207043002000080042853D000094000020E4
S113553049590000F147000000E100E09D0100002E
S1135540B1010000A55100007D480000AD480000F5
S113555014000020B5320000D8440020DC440020B0
S1135560C9520000146900001D35000015510000E7
S113557018690000015100002C690000E950000086
S11355803869000029530000E519000010B5041C17
S1135590134B9847134B1A7862438118124B596086
S11355A05968090C59605B68002B07D00E4B596889
S11355B00132801818810D4B984704E082180A4B79
S11355C01A810B4B9847084B1B89632B02D8643311
S11355D0054A1381044B1889064B984710BDC046F1
S11355E051180000E0440020144300206518000016
S11355F079180000B518000008B50022034B1A7092
S1135600034B9847034B187008BDC0461443002051
S1135610CD180000E044002008B50E4B5B68002B59
S113562007D00C4A5368013B5360002B01D10A4B4D
S11356309847084A13780133DBB21370074A12788B
S11356409A4206D8034B00221A70DB68002B00D064
S1135650984708BD1443002079180000E044002056
S113566008B5044B9847044B1B69002B00D098479E
S113567008BDC0466518000014430020014B1861A2
S11356807047C04614430020002934D0012300226F
S113569010B488422CD301242407A14204D28142AD
S11356A002D209011B01F8E7E400A14204D28142BD
S11356B002D249005B00F8E7884201D3401A1A433A
S11356C04C08A04202D3001B5C0822438C08A04271
S11356D002D3001B9C082243CC08A04202D3001B27
S11356E0DC082243002803D01B0901D00909E3E7A1
S11356F0101C10BC7047002801D00020C04307B420
S1135700024802A14018029003BDC046D90000001F
S11357100029F0D003B5FFF7B9FF0EBC4243891A44
S11357201847C046002941D010B4041C4C40A4467C
S113573001230022002900D54942002800D5404217
S113574088422CD301242407A14204D2814202D2EC
S113575009011B01F8E7E400A14204D2814202D20C
S113576049005B00F8E7884201D3401A1A434C0809
S1135770A04202D3001B5C0822438C08A04202D33F
S1135780001B9C082243CC08A04202D3001BDC0867
S11357902243002803D01B0901D00909E3E7101CA8
S11357A06446002C00D5404210BC7047002806D047
S11357B003DB0020C043400801E08020000607B45A
S11357C0024802A14018029003BDC046190000001F
S11357D00029EBD003B5FFF7A7FF0EBC4243891A9B
S11357E01847C0467047C0469C460304F0B51B0CDE
S11357F017043F0C150C1E1C041C000C7E436B4349
S113580047434543FB18300C1818874202D98023BC
S11358105B02ED18030CED1863465C434A433604FF
S1135820360CA118000480194919F0BD70B50E4B4F
S11358300E4D0024ED1AAD101E1CAC4204D0A30082
S1135840F35898470134F8E701F0CEF8084B094DB6
S11358500024ED1AAD101E1CAC4204D0A300F35872
S113586098470134F8E770BDF4690000F46900005A
S1135870F4690000F869000010B50023934203D0D6
S1135880CC5CC4540133F9E710BD031C8218934265
S113589002D019700133FAE7704700000FB40B4BC4
S11358A013B51C68002C05D0A369002B02D1201C61
S11358B000F068FD05ABA168201C049A019300F078
S11358C0FBF816BC08BC04B01847C046940000207E
S11358D0174B10B51C68A36B002B15D1182000F0D2
S11358E011FE144BA0630380134B4380134B83803E
S11358F0134BC380134B0381052343810B23838103
S11359000122002302614361084B074AA46B20690A
S11359106169FFF769FF0122002380185941206162
S113592061614800400810BD2D7F954C2DF45158FD
S1135930940000200E330000CDABFFFF34120000B2
S11359406DE6FFFFECDEFFFF08B54A424A418023C3
S11359505200DB0000F002F808BD0000F7B51E1C81
S11359603C4B041C1D680F1C0192002D05D0AA6934
S1135970002A02D1281C00F005FD374B9C4201D1BE
S11359806C6808E0354B9C4201D1AC6803E0344BB1
S11359909C4200D1EC68019B022B57D8002E55DBAA
S11359A0281C211C00F06EFC00236360A361A38902
S11359B01A0603D5281C216900F0BAFDA3898322A5
S11359C09343A381019B022B13D0002F25D1002EDA
S11359D001D18026F600301C00F094FD071E18D17A
S11359E08020C00000F08EFD071E10D1012040422F
S11359F000E00020A38902221343A3810023A360B3
S1135A00231C4733236023610123636120E0802644
S1135A10F600A38980221343A381019A012A04D1A9
S1135A20A3891343A3817342A3610E4B0020AB628D
S1135A30A3892760276166611A0709D503221340E9
S1135A405A4253415B421E40A66001E0012040429D
S1135A50FEBDC0469400002088690000A8690000CB
S1135A60C8690000DD620000936810B5013B9360D3
S1135A70002B05DA9469A34208DBCBB20A2B05D0CC
S1135A801368581C10601970C8B201E000F0A6FA3F
S1135A9010BDF8B5061C0F1C141CD518AC4208D058
S1135AA02178301C3A1CFFF7DFFF0134431CF5D189
S1135AB000E00020F8BD0000F0B59FB0061C0F1CEC
S1135AC003920593002804D08169002901D100F0D4
S1135AD059FC754B9F4201D1776808E0734B9F4294
S1135AE001D1B76803E0724B9F4200D1F768BB89CC
S1135AF01A070AD53B69002B07D006AD00236B615A
S1135B0020236B763023AB763BE0301C391C00F04D
S1135B10BDFA0028F1D001204042C2E0059A111DCF
S1135B2012680591002A76DB0992013423782E2B22
S1135B3000D181E021785F48032200F0EDFC0028C9
S1135B4007D05C492A68431A4020984010432860D3
S1135B5001342178631C584806220393297600F007
S1135B60DBFC002800D18AE0544B002B7ED1059B3E
S1135B70072207339343083305936A69049953183A
S1135B806B61039C2378002B04D10399611A029161
S1135B9010D003E0252BF8D00134F3E7301C391C76
S1135BA0039A029BFFF775FF013075D06A69029969
S1135BB053186B612378002B6ED0012252426A6025
S1135BC06A4600235B3201342B60EB60AB601370D8
S1135BD0AB6521783A48052200F09EFC002808D0E5
S1135BE0374A0134831A012098402B6818432860EF
S1135BF0EFE72B68D90603D56A4620215B32117082
S1135C001A0703D56A462B215B32117022782A2A9F
S1135C1084D0099B05E05242EA60022213432B60C0
S1135C2083E72278303A092A04D80A214B43013405
S1135C309B18F6E7099379E763782A2B09D1059B2A
S1135C4002341A1D1B680592002B0DDA01235B42F6
S1135C500AE0013400232278303A092A04D80A21C0
S1135C604B4301349B18F6E7079363E705AB0093B6
S1135C70301C291C3A1C134B00E000BF07E005ABA5
S1135C800093301C291C3A1C0E4B00F091F8049030
S1135C900499013100D070E7BB895A0600D53AE770
S1135CA00B981FB0F0BDC04688690000A8690000C9
S1135CB0C86900005A6900005E6900000000000025
S1135CC054690000935A0000F7B5151C01930A6942
S1135CD08B68061C0C1C934200DA131C221C2B60DC
S1135CE043321278002A01D001332B6020688006E9
