S01100004B6F7A795F4D61696E2E7372656382
S113000030640020D53D0000D13D0000D13D00000A
S113001000000000000000000000000000000000DC
S1130020000000000000000000000000310A000091
S11300300000000000000000990A0000DD0A000032
S1130040D13D0000D13D0000D13D0000D13D000074
S1130050CD360000D13D0000D13D0000D13D00006F
S1130060D13D00003D3600004D3600005D360000F5
S11300706D3600007D3600008D360000D13D000055
S1130080D13D0000D13D0000752B0000852B000000
S1130090952B00000000000000000000D13D00008E
S11300A0D13D000000000000D13D0000D13D000022
S11300B00000000010B5064C2378002B07D1054B37
S11300C0002B02D0044800E000BF0123237010BDC0
S11300D094000020000000009C55000008B5084B67
S11300E0002B03D00748084900E000BF0748036815
S11300F0002B03D0064B002B00D0984708BDC04608
S1130100000000009C550000980000209C55000051
S113011000000000054B197802220A431A701A1CC9
S113012053785BB2002BFBDB7047C04600180040DD
S113013000B583B0124B996940220A439A6101A920
S113014000230B7005200F4B984705200E4B984752
S11301500E4B197801220A431A701A1C53785BB2A9
S1130160002BFBDB0A4B191C4031002204C38B42D9
S1130170FCD11022074B1A60074B984703B000BD0F
S113018000040040A13C0000153C000000180040A1
S11301907442002000E100E0150100000023036028
S11301A0436001220272427283720223C372704757
S11301B0F0B583B0051C0C1C01A900234B70CB7057
S11301C063680B70237A8B702078154B9847002353
S11301D01F2D00D8134B072129408900E07AA27A09
S11301E0002A01D008221043EA0892009A1896695E
S11301F088400F278F40BE43311C01439161627ACE
S1130200002A06D05A690121A9400D1C15435D61DD
S113021004E05A690121A9408A435A6103B0F0BD40
S11302207D3D00000018004010B5031C4908402023
S113023099420CD30024C91A601C80B28B4201D8A5
S1130240041CF8E74020FF2C01D81480002010BDC6
S1130250F0B55F4656464D464446F0B487B0061C9A
S11302600D1C049210AA1078321C424340248A4286
S113027000D9B3E0002B4BD10021321C5E4CA047C7
S113028083462E1C002700200021002200233F2447
S1130290A4460125A846029003916146203903D45F
S11302A040468840814605E0202165464C1B404677
S11302B0E040814641466446A1408A46101C191C10
S11302C080185941021C0B1C5D464C46254202D045
S11302D0424602430B1C9F420CD801D1964209D8D6
S11302E0921BBB415046029D28434946039C21432F
S11302F0029003916546013DAC46CED20298039923
S11303003C4B3B4A121A8B41120C1B041A4362E009
S11303100022012B5FD14F0FB946CD00AB4600211F
S1130320321C0023344CA047061C0F1C002301255B
S1130330029603979A465046C0B20590002188461B
S1130340002200233F24271C203F03D42E1CBE4040
S1130350019604E02020071B291CF94001912E1C62
S1130360A6400096101C191C80185941021C0B1C35
S11303705F463740BC46019E4F463E4067463E437B
S113038002D02A1C02430B1C039898420BD802D1BA
S11303900299914207D8029E039F921BBB41474694
S11303A000980743B846013CCDD2414652468B1AC9
S11303B0DB08124CA34208D9059A0132D2B2059245
S11303C00126B2445746082FB5D140240598082881
S11303D004D042031A43049C22800024201C07B04A
S11303E03CBC90469946A246AB46F0BDC046C046CA
S11303F0000000000100000015440000FF1F000081
S113040010B582B0041C0F4B1B78002B01D00029BF
S11304100DD001A90C7013200B4B984713200B4BE4
S11304209847084B5C7001221A70002007E0054BC6
S11304305A781D20141B621E94416442204002B06D
S113044010BDC046B0000020A13C0000153C0000D7
S1130450444B984233D006D8434B98420DD0434B7B
S113046098421BD06FE0424B98424AD0414B98428D
S113047058D0414B984266D132E0012965D0002919
S113048004D0022906D0032906D001E03B4867E0E6
S1130490002065E03A4863E03A4861E0012956D01B
S11304A0002904D0022906D0032906D001E0032044
S11304B056E0002054E0344852E0344850E001292A
S11304C047D0002904D0022906D0032906D001E030
S11304D02F4845E0002043E02E4841E02E483FE00D
S11304E0012938D0002904D0022906D0032906D0D6
S11304F001E02A4834E0002032E0294830E029486D
S11305002EE0012929D0002904D0022906D003298C
S113051006D001E0244823E0002021E023481FE026
S113052023481DE001291AD0002904D0022906D04D
S1130530032906D001E01F4812E0002010E01E4805
S11305400EE01E480CE000200AE01D4808E01D48AB
S113055006E01D4804E01D4802E01D4800E01D4877
S11305607047C0460010004200080042000C0042E0
S113057000180042001C0042001400420300040062
S1130580030006000300070003001E0003001F0011
S113059002000C0002000E0002000F000300100015
S11305A003001200030013000500530005003E0081
S11305B00500520003001600030018000300190090
S11305C0030005000300010002000D0003001100F8
S11305D005003F000300170070B586B00C4A6B4657
S11305E070CA70C332CA32C3009E864206D0012349
S11305F09A0069465258824203D100E00023D8B2DF
S113060003E00133062BF3D1002006B070BDC046D1
S1130610CC53000070B584B0011C01AB0A4A70CA07
S113062070C3019B83420AD0029C844205D00020FF
S1130630039D8D4205D1022002E0012000E000204C
S1130640C0B204B070BDC046E4530000F0B54F46DC
S11306504646C0B487B0041C0D1C9046081C904B41
S1130660984781468F4F391C0C3105A803228E4EC2
S1130670B047391C103103A80622B0470023A360F9
S1130680E360236163612376637648468200874B87
S1130690D450256041468B78082B04D117204A4654
S11306A0D20700D4F6E023712B880520D90700D5A2
S11306B0F0E0EB7B1C20DA0600D5EBE02B889907F1
S11306C000D5E7E04246137C002B0CD002A901239D
S11306D08B700022CA704046806908704B70424695
S11306E0107D734B98474046037F002B0BD002A923
S11306F001238B700022CA70426A0A704B70036A2D
S1130700D8B26B4B98476B4B196A4846420003A812
S1130710125A0A431A6241468B78082B08D1654B5A
S11307201A6A48460130400003A9415A0A431A6232
S113073001A9424613780B7005AB48461E5C301C79
S11307405D4B9847301C5D4B9847414688880B8920
S1130750034388798A78104318434B78002B02D0DE
S113076080231B01184321687F22CB7B9343FCD158
S113077028804246507B431E98418000937B002B87
S113078001D00123184321687F22CB7B9343FCD102
S1130790FF232B71002805D021687F22CB7B934354
S11307A0FCD168714346987ADB7A002B01D0102380
S11307B0184341460B7B002B01D0202318432168AA
S11307C07F22CB7B9343FCD1A87122687F21D37B0A
S11307D08B43FCD12379042B05D0082B41D017205F
S11307E0002B57D124E07F21D37B8B43FCD12823DA
S11307F04246D35C2B7421687F22CB7B9343FCD18C
S113080029234046C35C2B7521687F22CB7B93430D
S1130810FCD12A234146CB5C2B7621687F22CB7BFB
S11308209343FCD12B234246D35C6B76002031E00A
S11308307F21D37B8B43FCD14046038D2B822168DF
S11308407F22CB7B9343FCD141464B8D2B83216884
S11308507F22CB7B9343FCD14246938D6B83002054
S113086018E07F21D37B8B43FCD143469B6A2B61E9
S113087021687F22CB7B9343FCD14046C06AA861A8
S113088021687F22CB7B9343FCD141460B6BEB6108
S11308900020FFE707B00CBC90469946F0BDC04667
S11308A015060000E4530000A5440000F0430020B6
S11308B07D3D000000040040A13C0000153C000008
S11308C002687F21D37B8B43FCD10379042B05D0B1
S11308D0082B09D00020002B08D102E0107CC0B204
S11308E004E0108A80B201E01069FFE77047C04657
S11308F030B504687F25E37BAB43FCD10379042B3B
S113090005D0082B14D01720002B19D107E017208D
S1130910012915D8D2B261180A76002010E01720F8
S113092001290DD892B20C3149000A53002007E086
S11309301720012904D8063189000A510020FFE755
S113094030BDC046F0B5474680B40C1C9046002824
S11309500CD1002A0DDD8F18094E0A4D3068211C78
S11309602B6898470134BC42F8D104E0012040428E
S113097002E0002000E0404604BC9046F0BDC046C2
S1130980BC420020B4420020F0B5474680B40E1C9F
S1130990151C0138022810D8002A11D000240D4B50
S11309A098460D4F43461868315D3B6898470028C8
S11309B008DB0134A542F5D107E00120404205E0FF
S11309C0002003E00120404200E0201C04BC9046CB
S11309D0F0BDC046BC420020B8420020034B1B6857
S11309E0013301D072B6FEE772B6FEE700000020C4
S11309F0064A13681868203080F30988022080F3BF
S1130A0014883FBCAE4662B600BDC04664410020B7
S1130A1010B5031F802464041C60043B1960043B6C
S1130A2002491960143B1A60403810BDDD0900000A
S1130A307047C04680225205034B1A60BFF34F8FA4
S1130A40BFF36F8F7047C04604ED00E072B6044BED
S1130A501A6801321A60BFF34F8FBFF36F8F70476C
S1130A6000000020064B1B68002B01D172B6FEE784
S1130A70013B034A1360002B00D162B67047C046A5
S1130A8000000020EFF3108072B670470020C046CB
S1130A9080F310887047C046EFF309800E4B1A6844
S1130AA020381060F0C044464D4656465F46F0C0BC
S1130AB008B572B601F0A4FC62B60CBC11680868F3
S1130AC01030F0C8A046A946B246BB4680F3098858
S1130AD02038F0C81847C0466441002010B5074BC1
S1130AE09847041C064B9847002803D080225205DF
S1130AF0044B1A60201C044B984710BD850A000063
S1130B00FD20000004ED00E0910A00000022044BE7
S1130B101A60044A044B1A600722044B1A60704797
S1130B2018E000E03F1F000014E000E010E000E0E7
S1130B3008B50A4B1968FF2212040A431A6019689F
S1130B40FF2212060A431A60054B98470022054B00
S1130B501A60054B9847054B9847C04620ED00E0C6
S1130B600D0B000000000020F1090000DD09000069
S1130B7038B5041C430702D007239C430834104BA8
S1130B809847104B1B68002B05D107230E4A0832E7
S1130B909A430C4B1A600D4B1B68E4180C4A9442A0
S1130BA007D8A34207D2074A1568ED18074B1C6003
S1130BB002E0002500E00025064B9847281C38BDBC
S1130BC0CD200000503B0020B8000020B4000020DD
S1130BD08F3A000029220000002801D072B6FEE7F7
S1130BE07047C0467047C04608B50122034B1A61DE
S1130BF0034B1B68002B00D0984708BD0018004029
S1130C00543B0020F0B585B0354A002353709370EF
S1130C103F211170334C21706370A3700122694627
S1130C204A708B700A703F202F4B98472378D9095C
S1130C300022002903D15A09D2012C4952181F2736
S1130C403B400124211C99409161294A14700023DE
S1130C5053609360137453749474D474137524217F
S1130C605354D361136280235B02D360214B93619D
S1130C70214B936201235B42D362204B1363204BCD
S1130C805363204E301C2049204B98473568281C5C
S1130C901F4B98470740BC401E4B1C603268D36909
S1130CA0002BFCD12B68022633432B6001AC201CA3
S1130CB0194B98472023019380239B03636026727A
S1130CC0012363720022A272E3720020211C134BE1
S1130CD09847134800210022124B984705B0F0BDF5
S1130CE0C4420020C84200204938000000440041AA
S1130CF0CC42002000093D000500530005003E00E1
S1130D00050052000443002000180042ED300000AA
S1130D101136000000E100E09D010000B101000077
S1130D20E90B00009D36000070B5094B1C1C803493
S1130D3080252D02A561802252035A61A52040001E
S1130D40044EB04765610A20B047A56170BDC04636
S1130D50004400417537000070B5061CEFF31084A1
S1130D6063425C4172B6BFF35F8F0022334B1A704B
S1130D70334D281C33490122334B98472B680121FA
S1130D801A7E0A42FCD01A7ED10702D5802216436D
S1130D909E6202211A7E0A42FCD004211A7E0A4273
S1130DA0FCD01A7E510714D55A8B510703D5598BA1
S1130DB004220A435A83224A9279012A05D1996A64
S1130DC0C905C90D214A118003E0996AC9B21F4AB5
S1130DD0118001211A7E0A42FCD01A7ED10701D566
S1130DE000229A6202211A7E0A42FCD004211A7E51
S1130DF00A42FCD01A7E0025510710D55A8B5107A0
S1130E0003D5598B04220A435A830D4A9279012A45
S1130E1003D19D6AED05ED0D01E09D6AEDB2084830
S1130E2008490022084B9847002C05D00122034BA7
S1130E301A70BFF35F8F62B6E8B270BD1000002075
S1130E4004430020C842002005330000C0420020B3
S1130E50F8B5071C0D1CEFF3108463425C4172B6B5
S1130E60BFF35F8F0022344B1A70344E301C344968
S1130E700122344B9847336801211A7E0A42FCD080
S1130E801A7ED10702D5C02217439F6202211A7E1F
S1130E900A42FCD004211A7E0A42FCD01A7E510771
S1130EA014D55A8B510703D5598B04220A435A830C
S1130EB0224A9279012A05D1996AC905C90D224AA3
S1130EC0118003E0996AC9B21F4A118001201A7E79
S1130ED00242FCD01A7ED10700D59D6202211A7EFF
S1130EE00A42FCD004211A7E0A42FCD01A7E510721
S1130EF014D55A8B510703D5598B04220A435A83BC
S1130F000E4A9279012A05D19A6AD205D20D0E4B66
S1130F101A8003E09A6AD2B20B4B1A800748084938
S1130F200022084B9847002C05D00122024B1A706E
S1130F30BFF35F8F62B6F8BD1000002004430020A9
S1130F40C842002005330000C042002008B5014B10
S1130F50984708BD4D43000008B5014B984708BDAC
S1130F600543000008B50248024B984780B208BD0B
S1130F7074430020C1080000034B102219680A734F
S1130F80597E9143597670477443002010B50A4C3A
S1130F9020680A4B98470A4B1B5C1F221A40012306
S1130FA093401A1C074B1A60627E10231343637626
S1130FB0236810225A7310BD7443002015060000E4
S1130FC0FC53000000E100E008B5021C02480021C7
S1130FD0024B984708BDC04674430020F108000046
S1130FE0F8B54F464646C0B42D4A0023137093709B
S1130FF0002193809171138151709172D172117398
S11310009173517311745361936111771362536235
S11310101385938501235B425385224C201C22496E
S1131020224B9847201C22490022224DA847201C0D
S113103021490222A8472068204A91469047204B24
S113104098461B5C1F273B4001252A1C9A401D4ED5
S11310503260627E01231343637620684573C84778
S11310604246135C1F40BD403560627E102313432B
S113107063762268102353737F21D37B8B43FCD187
S1131080118802230B43138000200F4B98470F490C
S11310900F4B9847C0B20CBC90469946F8BDC04669
S11310A04043002074430020002C00424D06000001
S11310B0590F0000E52A00004D0F0000150600003E
S11310C0FC53000000E100E0893B000040420F00B7
S11310D07543000008B5044B9847044B9847044BEC
S11310E09847044B984708BD75110000E50B0000B4
S11310F0611200005D13000030B5154B1D68002D12
S11311001ED0826869682C1C8A420AD204E059689D
S1131110914203D81C1C04E02B1C0024891A59603A
S113112003E0521A2368002BF1D14260002C03D053
S113113023680360206009E00560054B186005E042
S11311400023036083684360014B186030BDC046D0
S1131150583B002008B5044B1A780132D2B21A70F9
S11311600248034B984708BD904300201027000015
S11311707942000010B50024064B1C700648074B4A
S11311809847074B98470748074B9847074B1C60FD
S113119010BDC04690430020551100006943000073
S11311A0E54200001027000079420000583B00206F
S11311B0094B1B68002B09D0834202D108E09842F6
S11311C008D01B68002BFAD1002004E0002002E0C4
S11311D0012000E001207047583B002010B5041C9A
S11311E0034B9847002802D1201C024B984710BD9E
S11311F0B1110000F9100000F8B5041C0B4F0C4E9F
S11312001F2502200321B8470120B04728400828A1
S1131210F7D1064F064E1F250220211CB847012096
S1131220B04728408442F7D1F8BDC046510E0000B3
S1131230590D000008B50820064B98470F20064BAF
S11312409847064B1B78002B02D01620014B984779
S113125008BDC046F9110000590D00005D3B002097
S113126070B50E4B98470E4B984700220D4B1A70E1
S113127001220D4B1A700D4E0D4D1F240220082122
S1131280B0470120A84720400828F7D104202E2188
S1131290064CA0470C208021A04770BD050C00001F
S11312A0290D00005D3B00205C3B0020510E000036
S11312B0590D000008B5024B1870024B984708BD41
S11312C05D3B00203512000010B5041C0820054BBE
S11312D098471F23011C99430C43E1B20820024B99
S11312E0984710BD590D0000510E000030B583B071
S11312F06C46E080C1B22220034DA847E179232047
S1131300A84703B030BDC046510E000070B582B08E
S11313106D46E8800635C6B22020311C054CA04736
S11313206D782120291CA047AE19F1B22D20A047C9
S113133002B070BD510E000010B5041C0520054B11
S113134098470F23011C99430C43E1B20520024B3B
S1131350984710BD590D0000510E000008B50D4905
S113136000230B714B710B8058228B520B1C0833DA
S11313704831002204C38B42FCD1074B9847074BEA
S11313809847074B9847074B9847074B9847074B95
S1131390984708BD94430020791600005D150000AD
S11313A0F5130000E9130000451400009D1500002A
S11313B008B5024B1880024B984708BD944300209F
S11313C00D13000008B5024B5880024B984708BD26
S11313D094430020ED12000002308000014BC15004
S11313E07047C046944300200022014B1A607047A6
S11313F0603B0020034B00221A708D215A5449008F
S11314005A547047643B0020002806D08D300C4BA2
S1131410A833FF33984201D30FE009480378002B27
S11314200CD1074AA832FF3202E00378002B05D121
S11314308D309042F9D3002000E000207047C04670
S1131440643B0020F0B5094A0232002301277F42A1
S11314500648012600251780D9000C5CB4430C54BF
S1131460157101330832642BF5D1F0BD0C3D002019
S113147070B50B4A02320023094E1488844209D104
S1131480DC00A45DA407E40F8C4203D1DD00044812
S1131490401904E001330832642BEED1002070BD02
S11314A00C3D00200378DA0704D401235B42438017
S11314B0002383717047C04608B5034B9847002842
S11314C001D0024B984708BD71140000A514000018
S11314D008B58268037B0020062B07D1D3781079E6
S11314E0000218435179024B9847012008BDC046B9
S11314F0B914000008B5027B0023002A0FD08268CB
S11315001378002B02D0012B04D007E0054B984739
S1131510031C04E0044B9847031C00E00023181C40
S113152008BDC046AD160000D114000038B5094905
S11315300B1D4031002401251A78002A02D0013AFB
S11315401A702C1C06338B42F6D1002C01D0024BAE
S1131550984738BD2C400020DD11000008B50A4929
S11315600B1D403100221A7006338B42FBD1074B0E
S113157064229A6000221A73054A1A610020054900
S1131580054B984708BDC0462C4000206840002009
S11315902D150000F5140000D91300000023024AA1
S11315A01370024A136070477C4000208040002082
S11315B008B5011C02481022024B984708BDC046DA
S11315C0DC430020A5440000F0B5474680B48046C3
S11315D0002700200F4C8626872510E00378112B66
S11315E00DD1825D435D1B021343013B9BB28355C6
S11315F01A0A42550127002B01D113230370A04777
S11316000028EBD1002F02D04046034B984704BC7E
S11316109046F0BD09140000DD110000F0B5474606
S113162080B4804600270020114C8626872513E0CD
S11316300378162B10D1825D435D1B021343013BDB
S11316409BB283551A0A42550127002B04D1172354
S1131650037010228523C254A0470028E8D1002F2C
S113166002D04046034B984704BC9046F0BDC046A8
S113167009140000DD1100000022074B1A60074B1B
S1131680322199601A7306491961064B0A2199603F
S11316901A73054A1A61704798400020844000205C
S11316A01D1600009C400020C915000038B585684F
S11316B0037B0020032B13D10DE00378162B0CD1F0
S11316C0027B6B789A4208D117230370AA78882387
S11316D0C254012004E00020024CA0470028ECD1B1
S11316E038BDC04609140000031C083343600122BE
S11316F052428260C3600361002303607047C046A6
S1131700002303617047C04643684B609A688A604F
S11317109A685160996008610368013303607047F7
S113172030B50C68021C0832631C01D1026905E063
S113173053681D68AC4201D31A1CF9E753684B6027
S113174099608A605160086103680133036030BDA9
S113175003694268816891608268416851605A688F
S1131760824201D192685A600022026118680138ED
S11317701860704738B5041C151C026C002A08D187
S1131780016800292AD14068164B984700236360FA
S113179024E0002D0CD18068134B9847A268216C7B
S11317A05318A3606268934218D32368A36015E0BA
S11317B0C0680D4B9847216C4A42E1688B18E3607E
S11317C021688B4202D263689A18E260022D05D127
S11317D0A36B002B02D0A36B013BA363A36B013368
S11317E0A36338BD01270000A544000010B582B0F2
S11317F001900A1CC46C002C01D172B6FEE7A16BE7
S1131800E36B994201D372B6FEE7A16B00208B42D1
S11318100DD9201C01A9074B98470020636A002BAF
S113182005D0201C2430044B9847431E984102B035
S113183010BDC046751700003125000038B5046896
S1131840002C0CD0026CC568AB18C3604568AB4271
S113185000D3C460C368081C191C014B984738BDE9
S1131860A5440000F8B5041C234B9847A36C002B37
S11318701CDD224E224DE36C002B07D0201C0021DE
S1131880A84701280CD11F4B984709E0636A002B35
S11318900CD0201C2430B047002801D0194B9847A5
S11318A0A36C013BA364A36C002BE4DC01235B4227
S11318B0A364154B9847104B9847636C002B15DDB8
S11318C02369002B12D0271C10370C4E0D4D02E05B
S11318D02369002B0AD0381CB047002800D0A84741
S11318E0636C013B6364636C002BF1DC01235B429A
S11318F06364054B9847F8BD4D0A0000312500008C
S1131900ED17000049260000650A000038B5041CE4
S11319100D1C002801D172B6FEE7154B98472368C9
S1131920226CE06B5043191861600021A163A3602D
S1131930821A9B18E36001235B426364A364002D55
S11319400BD1216900290FD0201C1030094B984776
S1131950012809D1084B984706E0201C1030074D98
S1131960A847201C2430A847054B9847012038BDC0
S11319704D0A000031250000350A0000E916000078
S1131980650A000070B5051C0E1C002811D05020FB
S11319900E4B9847041E0CD0301C684301300B4B8F
S11319A098472060002806D1201C094B984700E086
S11319B0FEE772B6FCE7E5632664201C0121054BB3
S11319C098470023E364201C70BDC046710B0000DF
S11319D0D90B00000D190000F0B557464E46454698
S11319E0E0B484B0041C0E1C01921D1C002801D11B
S11319F072B6FEE7002904D1026C002A01D072B647
S1131A00FEE7022D04D1E36B012B01D072B6FEE791
S1131A10414B9847002802D1019A002A03D100279C
S1131A203E4B984601E072B6FEE7C047A36BE26BFB
S1131A30934201D3022D1FD1201C311C2A1C384B88
S1131A409847E36C002B08D0201C291C354B984781
S1131A5001280DD1344B98470AE0626A002A07D066
S1131A60201C2430314B9847012801D12E4B984734
S1131A702F4B9847012049E0019B002B03D12C4BAD
S1131A809847002042E0002F03D102A8294A90473A
S1131A900127274B9847284B9847204B9847636C5E
S1131AA0013301D100236364A36C013301D100230A
S1131AB0A3641F4B984702A801A9204B984700280C
S1131AC01ED1164B9847A26B9246E36B9946184B6E
S1131AD09847CA450ED1201C10300199184B9847DD
S1131AE0201C184B9847184B984700289DD10E4B43
S1131AF098479AE7201C134B9847134B984794E751
S1131B00201C104B9847104B9847002004B01CBC75
S1131B1090469946A246F0BD612600004D0A000099
S1131B2075170000ED170000350A0000312500008C
S1131B30650A0000B9250000CD200000D925000069
S1131B40992400006518000029220000F0B54746DA
S1131B5080B4041C8846161C1D1C002801D172B6D2
S1131B60FEE7002904D1036C002B01D072B6FEE716
S1131B70022D33D1E26B012A39D072B6FEE7201C64
S1131B8041462A1C204B9847A36C01331DD1E36CBA
S1131B90002B0BD0201C291C1C4B98470125012825
S1131BA02AD1002E16D00123336025E00125626A74
S1131BB0002A21D0201C2430154B984700281BD024
S1131BC0002E09D00123336016E0A36C0133A36413
S1131BD0012511E001250FE001250DE00D4B98478B
S1131BE0071CA36BE26B9342C9D3002504E0094BA5
S1131BF09847071CA36BC2E7381C074B9847281C5F
S1131C0004BC9046F0BDC04675170000ED170000F7
S1131C1031250000850A0000910A0000F0B54F4606
S1131C204646C0B485B0041C0D1C01921F1C00283C
S1131C3001D172B6FEE7002904D1036C002B01D058
S1131C4072B6FEE74A4B9847002802D1019B002B4D
S1131C5003D10026474B984601E072B6FEE7C04721
S1131C60A36B002B2BD0E668201C291C424B984701
S1131C70002F14D1A36B013BA3632368002B02D173
S1131C803E4B984760602369002B14D0201C103011
S1131C903B4B984701280ED13A4B98470BE0E6603E
S1131CA0636A002B07D0201C2430354B984700284A
S1131CB001D0344B9847344B9847012052E0019BA4
S1131CC0002B03D1304B984700204BE0002E03D16A
S1131CD002A82E4B984701262B4B98472C4B98472C
S1131CE0244B9847636C013301D100236364A36CD4
S1131CF0013301D10023A364234B984702A801A90F
S1131D00244B9847002827D11A4B9847A36B994630
S1131D101D4B98474B46002B18D12368002B06D146
S1131D20144B984760681C4B9847174B9847201CE6
S1131D3024300199194B9847201C194B9847194B8B
S1131D40984700288BD10F4B984788E7201C144BE9
S1131D509847144B984782E7201C114B9847114B26
S1131D609847002005B00CBC90469946F0BDC0468B
S1131D70612600004D0A00003D18000055260000B1
S1131D8031250000350A0000650A0000B92500006D
S1131D90CD200000D92500008126000099240000F0
S1131DA0651800002922000038B5041C0D1C0D4BD9
S1131DB09847636C013301D100236364A36C01333E
S1131DC001D10023A364084B9847A36B002B04D1D3
S1131DD0201C2430291C054B9847201C044B984791
S1131DE038BDC0464D0A0000650A0000F124000019
S1131DF065180000084B1B681B68002B04D10122E6
S1131E005242064B1A6006E0034B1B68DB68DB6832
S1131E105A68024B1A607047B44000200400002046
S1131E2010B5041C0E4B1B6858600E4B1B6898427F
S1131E3007D20D4B18680A4B196804310B4B9847AD
S1131E400CE00B4B1868064B19680431074B984794
S1131E50084B1B689C4201D2064B1C6010BDC04657
S1131E6064410020804100208441002021170000AB
S1131E70B440002004000020F8B55F4656464D46A5
S1131E804446F0B4071C0E1C91469A460A9D00284D
S1131E9001D172B6FEE7042D01D972B6FEE74020E7
S1131EA05B4B9847041E00D1AAE00C9A002A00D08C
S1131EB092E04B469800564B98472063002800D088
S1131EC08CE0201C534B98479AE0F15CE2183432C2
S1131ED01170F25C002A02D00133082BF5D10022E4
S1131EE03B23E2542E1E042E00D90426E662E66348
S1131EF0221D9046101C484B99469847201C1830C8
S1131F00C847246105239E1BA66164625846391C98
S1131F105246424B984720600B9A002A00D0146026
S1131F203F4B98473F4B1A6801321A603E4B1B687F
S1131F30002B23D13C4B1C603A4B1B68012B28D14E
S1131F403A4E64239B199946394F301CB8471436CE
S1131F504E45FAD1374A9146101C354EB047364F9C
S1131F60381CB0473548B0473548B0473548B047C6
S1131F70354B4A461A60354B1F600AE0344B1B68E8
S1131F80002B06D1284B1B68DB6A9D4201D3264BEC
S1131F901C60304B1A6801321A60E36A2E4A1268D8
S1131FA0934201D92C4A13609A00D3189B001F480E
S1131FB0C0184146294B9847294B9847244B1B6826
S1131FC00120002B1ED0184B1B68DB6A9D4219D9D7
S1131FD0244B9847012015E00C9B0363224A131CF1
S1131FE04B449B00226BD318072293439B463278C1
S1131FF03423E2543378002B00D170E7012364E7E3
S1132000012040423CBC90469946A246AB46F8BDEE
S1132010710B0000D90B000001170000110A000029
S11320204D0A00008C41002064410020EC40002057
S1132030E9160000C0400020D44000206841002080
S11320405041002090410020B440002084410020F1
S1132050B840002088410020A44100200917000056
S1132060650A0000350A0000FFFFFF3F10B584B089
S1132070002300930193029303930D480D496422B6
S11320800D4CA04701280DD10C4B9847012809D1CC
S113209072B601220A4B1A6000220A4B1A600A4BDC
S11320A0984703E0002801D172B6FEE704B010BDE2
S11320B07D23000000540000791E00000528000064
S11320C0B840002080410020310B0000024B1A6808
S11320D001321A607047C0467C41002010B5044BA1
S11320E09847044B1C68044B9847201C10BDC046FD
S11320F04D0A000080410020650A0000F0B5474603
S113210080B43B4B1B68002B61D13A4B1A680132F7
S11321101A601F68002F12D1374B1B681B68002BF5
S113212001D072B6FEE7344A1168344B1868106067
S11321301960334B1A6801321A60324B9847324B9C
S11321401B6800249F4237D32B4E00E001243368E0
S11321501B68002B04D1012252422B4B1A602BE046
S1132160254A1368DB68DD686B689F4202D2264A01
S1132170136021E02B1D9846181C244A9047AB6A33
S1132180002B03D0281C1830204B9847EB6A204AB8
S11321901268934201D91E4A13609A00D3189B0017
S11321A01C48C01841461C4B98471C4B1B68EA6AE4
S11321B0DB6A9A42CAD2CAE7184B1B68DB6A9A00E8
S11321C0D3189B00134A9B58012B06D806E0144BE6
S11321D01A6801321A60002400E00124114B1B68C4
S11321E0002B00D00124201C04BC9046F0BDC04646
S11321F07C41002080410020B44000208441002024
S1132200B0400020F51D000004000020511700001C
S1132210A4410020EC400020091700006441002084
S1132220E8400020A8410020F8B52F4B1B68002B84
S113223001D172B6FEE72D4B98472B4B1A68013A31
S11322401A601B680024002B49D1294B1B68002B02
S113225045D0284D2F1C21E0FB68DC68201C183079
S1132260254B9847261D301C234B9847E36A234A85
S11322701268934201D9214A13609A00D3189B0033
S11322801F48C018311C1F4B98471F4B1B68E26A3C
S1132290DB6A9A4202D301221C4B1A602B68002B82
S11322A0DAD11B4B1B68002B11D0194B1B68002B78
S11322B00DD0184E154D164CB047002801D00123FF
S11322C02B602368013B23602368002BF4D10F4B60
S11322D01B680024012B02D10F4B984701240F4B9C
S11322E09847201CF8BDC0467C4100204D0A0000E0
S11322F08C4100206841002051170000A4410020B7
S1132300EC4000200917000064410020A84100208F
S1132310E8400020FD200000350A0000650A0000A6
S113232010B5041E16D00D4B1B68002B01D072B6DD
S1132330FEE70B4B98470B4B1B68E4180A4B1868D5
S113234004300A4B9847201C094B9847094B98477F
S1132350002801D1084B984710BDC0467C4100209D
S1132360CD2000008041002064410020511700006E
S1132370211E000029220000350A0000F8B5154E80
S1132380154F1EE0154B9847154B1C68154B984785
S1132390002C16D0144B9847114BDB68DC68201DC9
S11323A0124B9847124B1A68013A1A60094B1A6883
S11323B0013A1A600F4B9847206B0F4DA847201C19
S11323C0A8473368002BDDD13B68012BF9D90B4BAF
S11323D09847F6E7BC400020EC400020CD200000E8
S11323E050410020292200004D0A0000511700002E
S11323F08C410020650A0000D90B0000350A00005A
S113240010B5204B1B68002B03D001221E4B1A6011
S113241036E000221C4B1A601C4B1B689A00D31830
S11324209B001B4A9B58002B16D1184B1B68002B92
S113243005D102E00268002A04D172B6FEE7134B0C
S1132440134C181C1A68013A1A601A6891008A1809
S113245092001259002AEDD00C4B1B689A00D31835
S11324609B000B4AD3185A6852685A60191C0831E9
S11324708A4201D152685A605B68DA68054B1A6077
S113248010BDC0467C410020A8410020A44100208A
S1132490EC4000206441002038B50C1C002801D118
S11324A072B6FEE70B4D296818310B4B9847286824
S11324B004300A4B9847631C06D1064B1968043153
S11324C00748084B984704E0074B18682018074B47
S11324D0984738BD644100202117000051170000BF
S11324E0904100200917000080410020211E0000B7
S11324F038B50D1C002801D172B6FEE7074C2168DF
S11325001831074B984720680430064B9847064B10
S113251018682818054B984738BDC0466441002008
S1132520091700005117000080410020211E0000FF
S113253038B5C368DC68002C01D172B6FEE7251CEF
S11325401835281C144B9847144B1B68002B13D1C7
S1132550251D281C104B9847E36A114A12689342C0
S113256001D90F4A13609A00D3189B000D48C01874
S1132570291C0D4B984703E00C48291C0A4B98472B
S11325800B4B1B68E26ADB6A00209A4203D90122E2
S1132590084B1A60012038BD511700007C4100200F
S11325A0A4410020EC4000200917000068410020ED
S11325B064410020A8410020002801D172B6FEE742
S11325C0034B1B680360034B1B6843607047C046A2
S11325D0B04000208041002070B5041C0E1C00286F
S11325E001D172B6FEE7002901D172B6FEE7114BA4
S11325F09847114B1A683368581C15D00F4909685D
S11326002068884203D0012561688A420DD261683E
S1132610501A0125834208D98A1AD3183360201C22
S1132620074B9847002500E00025064B9847281CD7
S113263070BDC0464D0A000080410020B04000201B
S1132640B9250000650A00000122014B1A60704799
S1132650A8410020014B18687047C046644100201F
S1132660054B1B680120002B04D0044B186843421F
S1132670584140007047C046B84000207C410020CB
S113268038B5041E31D0C36A184A1268D26A93421C
S11326902BD28269002A05DB144A1268D26A05210A
S11326A08A1A82619A00D3189B00114AD31862696E
S11326B09A4216D1251D281C0E4B98470B4B1B68BC
S11326C0DB6AE3620C4A1268934201D90A4A136036
S11326D09800C3189B000648C018291C074B98474C
S11326E003E0024B1B68DB6AE36238BD64410020EF
S11326F0EC40002051170000A441002009170000FD
S113270038B5041E1DD0C26AC36B9A4219D0051D88
S1132710281C0C4B9847E36BE362A269002A02DB96
S11327200522D21AA261084A1268934201D9064AC4
S113273013609800C3189B000448C018291C044B5C
S1132740984738BD51170000A4410020EC400020F8
S11327500917000010B5041C4160206191420BD898
S1132760D21A0120A3699A4211D2094B1868211D7B
S1132770084B984700200AE09A4202D2012099426D
S113278005D2054B1868211D024B9847002010BD47
S1132790E041002021170000AC41002070B5104B2F
S11327A09847104B1B68002B16D10F4D281C0F4E59
S11327B0B0470F4C201CB0470E4B1D600E4B1C60E5
S11327C002200C2100220D4B9847002802D0054B13
S11327D0186001E072B6FEE7094B984770BDC04629
S11327E04D0A0000DC410020B0410020E916000041
S11327F0C4410020AC410020E041002085190000C4
S1132800650A000010B584B00B4B98470B4B1B684E
S1132810002B0CD002230093002301930293039313
S1132820074808495022084CA047002801D172B635
S1132830FEE704B010BDC0469D270000DC41002027
S11328406D29000030540000791E000010B584B0DA
S1132850134C2468002C1FD0019102920390052987
S113286013DC104B9847022807D10D4B186801A9B7
S1132870069A00230C4CA0470FE0094B186801A9E5
S113288000220023084CA04707E0201C01A91A1CC1
S11328900023064CA04700E0002004B010BDC04651
S11328A0DC41002061260000D91900004D1B000006
S11328B0F0B557464E464546E0B482B08146244BB7
S11328C098478046234B1B68984234D2224E234FAC
S11328D024E0DB6818688246DC68251D281CB8479C
S11328E0201C616A8847E269012A17D1A069031C88
S11328F05344534507D963602461174B1868291C56
S1132900174B98470AE000230093201C00215246ED
S1132910144CA047002801D172B6FEE7336818684A
S11329200028D6D1104A0C4914680C6013600123A6
S11329304846036002E0002349460B60054B4246CB
S11329401A60404602B01CBC90469946A246F0BDAF
S1132950DD200000D8410020AC41002051170000C8
S1132960211700004D280000E0410020F0B5474643
S113297080B486B04E48804641460B681A68002AE7
S113298000D18AE0DB681C684A4B984703A84A4B8D
S11329909847051C039B002B31D1844223D8474B15
S11329A09847434B1B68DB68DE68301D444B9847EF
S11329B0F769012F13D1B0692118301C2A1C231C7C
S11329C0404DA84701280AD100230093301C002160
S11329D0221C3D4CA047002801D172B6FEE7736A61
S11329E0301C98470DE0394B1868611B384B9847E9
S11329F0324B9847002804D1364B984701E02F4BBF
S1132A009847324D344C40E0039900293DDB059E44
S1132A107269002A02D0301D294B984702A8264B20
S1132A209847031C039F092F2FD8BA002B498A58B3
S1132A309746049FB269B918301C1A1C3B1C214FDD
S1132A40B847012821D1301C716A8847F269012AEC
S1132A501BD1B369049FDA1900230093301C0021B1
S1132A60194EB047002810D172B6FEE70499B1613F
S1132A70002901D172B6FEE75918301C1A1C114EF8
S1132A80B04702E0301C164B9847286803A900227F
S1132A900023A0470028B7D16EE70648804703A863
S1132AA005498847051C0024039AA2429BD0A6E747
S1132AB0AC410020CD200000B128000029220000F4
S1132AC051170000552700004D280000DC4100206C
S1132AD0A91D0000350A00001D1C00000854000058
S1132AE0D90B0000931C9B001950022A04D1027ECA
S1132AF01023134303760CE0032A04D1027E20231F
S1132B001343037605E0012393401A1C037E1A4302
S1132B10027600207047C04638B58000144BC45874
S1132B202268957B237E1D40637E1D40EB0705D5FF
S1132B30201CA2689047012322689373AB0705D534
S1132B40201CE2689047022322689373EB0605D5A4
S1132B50201C22699047102322689373AB0605D585
S1132B60201C62699047236820229A7338BDC046AE
S1132B70F043002008B50020014B984708BDC0462B
S1132B80192B000008B50120014B984708BDC04629
S1132B90192B000008B50220014B984708BDC04618
S1132BA0192B0000F0B55F4656464D464446F0B436
S1132BB091B0051C0C1C161C2960081CAD4B9847D1
S1132BC0021C23680520D90700D54BE123681C208B
S1132BD09F0700D546E1A84B186A911C01278F4036
S1132BE0391C014319620FA92D27F35D0B701432B0
S1132BF0D2B29046101CA14B98474046A04B984730
S1132C00F05D00219F4B9847F37A6B712423F35CAA
S1132C10AB712523F35CEB71F37E2B72337F6B7204
S1132C2029688846081C934B9847143000226B4649
S1132C30DA84328A02928023DB019A4221D08023F3
S1132C40DB019A4204D880239B019A4211D008E008
S1132C50C023DB01029F9F420FD080231B029F42AF
S1132C6003D01027069700270EE0032706970027B6
S1132C700AE010270697012706E008270697012790
S1132C8002E008270697002731680391F26891460D
S1132C9073690493317E8A462623F35C9B467368EA
S1132CA0002B13D08022520593422ED12723F35CAC
S1132CB0002B2ED1376AC0B2734B9847011C381CC5
S1132CC06A462632714B9847031C1FE02723F35CA6
S1132CD0002B0AD0069A0092306AB16A6A462632FC
S1132CE03B1C6B4FB847031C10E0316A0791C0B21C
S1132CF0654B9847011C069A009207986A4626324B
S1132D003B1C634FB847031C00E00023181E00D08F
S1132D10A8E0737E002B02D0B37E41468B732A68F1
S1132D20029FD369002BFCD102976B4626331B8884
S1132D30424693814B46039F3B43049F3B43716848
S1132D400B43029F1F43524613021F4359464B072E
S1132D501F432723F35C002B01D104231F43717EFF
S1132D608902337F5B021943F27AB37A134319431E
S1132D70737F1B0219432423F35C5B04194325234B
S1132D80F35C1B0419433389FF2B0BD0F27E002A1A
S1132D9003D0A022D204174302E080225204174336
S1132DA0194305E0F37E002B02D08023DB041F438C
S1132DB02C23F35C002B03D1364B9B789A0701D567
S1132DC080231F432A68D369002BFCD143465960F2
S1132DD02A68D369002BFCD141460F600EAB8022D8
S1132DE01A7000225A70DA709A70326B0A92736BFE
S1132DF00B93B76B0C97F66B0D9600270EAEF9B2DA
S1132E00BB000AAA9858002802D1201C224A9047E5
S1132E10431C05D03070000CC0B2311C1F4A9047CF
S1132E200137042FEBD10023EB602B616B61AB61A5
S1132E30EB612B62AB626B620022EB85AB853023C6
S1132E40EA543123EA543223EA543323EA542868F7
S1132E50084B9847041C1249124B9847A400124B84
S1132E60E550002011B03CBC90469946A246AB46C2
S1132E70F0BDC046D905000000040040A13C00009C
S1132E80153C000001040000BD3C000029020000C4
S1132E905102000000200041510400007D3D00006B
S1132EA0512F0000D53500000044002010B5021C4D
S1132EB00368C4791C20002C0DD0D28D92B2052059
S1132EC0002A08D1DA69002AFCD1198502211A7E68
S1132ED00A42FCD0002010BD10B5031C046882799E
S1132EE01C20002A33D09B8D9BB20520002B2ED1B1
S1132EF0237E5A072BD5E369002BFCD1638BDBB20D
S1132F009A0621D09A0703D5022363831A201EE070
S1132F105A0703D5042363831E2018E0DA0703D578
S1132F2001236383132012E0DA0605D5628B102394
S1132F301343638342200AE09A0605D5628B20235B
S1132F4013436383412002E0238D0B80002010BDD6
S1132F50F8B58000644BC5582C68E369002BFCD19C
S1132F60237EA67D1E403123EB5C3022AF5C1F40E4
S1132F70F10720D5EB8D9BB2002B1AD0AB6A1A78DF
S1132F80D2B2591CA9626979012904D1597809027C
S1132F900A430233AB62D305DB0D2385EB8D013B82
S1132FA09BB2EB85002B06D1012323750223A37565
S1132FB001E001232375B20709D5022323750022FA
S1132FC03323EA54FB0702D5281CE96888477207B3
S1132FD06AD5AB8D9BB2002B64D0638BDBB219072F
S1132FE002D43F22134001E037221340002B37D094
S1132FF09A0707D51A223223EA54628B0223134319
S1133000638327E0590707D51E223223EA54628BD3
S11330100423134363831DE0DA0707D51322322305
S1133020EA54628B01231343638313E0D90607D563
S113303042223223EA54628B10231343638309E050
S113304020221A4206D041223223EA54628B2023E2
S1133050134363837A0727D5281C6B69984723E0B9
S1133060228DD205D20DD3B2696A0B706B6A591CDA
S113307069626979012904D1120A5A706B6A0133B1
S11330806B62AB8D013B9BB2AB85002B0CD104234F
S1133090237500223223EA54BA0705D5281C2B696C
S11330A0984701E004232375F10607D510232375FF
S11330B02376FA0602D5281CEB699847B10607D592
S11330C02023237523763A0702D5281CAB69984739
S11330D0310707D5082323752376BA0602D52B6A50
S11330E0281C9847F8BDC04600440020F0B5474668
S11330F080B488B0051C0C1C161C29600B681C20AD
S11331009A0700D5DFE00B680520DA0700D5DAE07E
S1133110081C6F4B98476F4B196A821C0127974014
S11331203A1C0A431A6207A92427F35D0B70143072
S1133130C0B28046684B98474046684B9847F05D5C
S11331400021674B98473378012B03D122680C2365
S1133150134323603378002B00D0B1E022680823A6
S113316013432360ACE0EA18D16004331C2BFAD17A
S11331700023EB62AB620024AB862B863623EC542F
S11331803723EC543823EC5403236B722C712868D6
S11331904F4B9847071C5349534B9847BF00534B19
S11331A0FD502F6802AB80221A705C7001229A7065
S11331B0DC703378002B02D1002202AB9A70B36A20
S11331C00393F06A0490326B0592736B06930024A8
S11331D0E1B2A30003AA9858002802D1381C444A3B
S11331E09047431C06D06A461072000CC0B202A974
S11331F0404B98470134042CEAD133786B71337C0B
S1133200AB71B37CEB71337D2B7200226B46DA8099
S11332103378012B14D128682D4B98471430C0B251
S1133220354B9847011CB0696A460632334B9847C0
S1133230031C1720002B46D16B4606331B783B73C7
S11332403378002B0FD1B169B38B786AF47F2404EF
S1133250B27F224302437A622022B25C002A04D065
S11332604022134301E000230021B2687068024346
S1133270F06802430A43317C0B43717C002903D17B
S11332801F498978880701D580210A43B17C002928
S113329002D0802189020B43F17C002902D08021D5
S11332A089000B43317D002902D0802189010B4321
S11332B039680A433A607A6813437B60002002E06D
S11332C0002300214FE708B004BC9046F0BDC0467F
S11332D0D905000000040040A13C0000153C00009A
S11332E001040000F1330000D53500000044002043
S11332F0510400007D3D0000BD3C00002902000097
S11333000020004110B544791523012C6CD1047AB6
S11333100023002C68D1002A57D04B78002B44D0CE
S11333200268137EDC070FD40B78D9090022002928
S113333003D15A09D2012D4952181F210B400121F2
S11333409940916105234FE00B78DC090022002CA1
S113335003D15A09D201254C12191F2423400124F8
S11333609C405461897803681A7ED40700D5996219
S1133370C2790023002A37D102680421137E0B424C
S1133380FCD0117E00234C072ED5538B590703D54F
S1133390518B04230B4353838379012B02D1936A0A
S11333A0002321E0936A00231EE00B78D909002250
S11333B0002903D15A09D2010C4C12191F210B40C8
S11333C001219940516100230EE00B78D9090022B4
S11333D0002903D15A09D201044952181F210B4074
S11333E00121994091610023181C10BD0044004143
S11333F0F8B58000744BC45825683623E35C372243
S1133400A75C1F402B7EAE7D1E40F10749D5637932
S1133410012B16D1637A002B0FD16C4B1B88AB6246
S1133420638E013B9BB26386638E9BB2002B01D1FA
S113343001232B756379012B03D1637A002B05D10A
S11334402FE0002B2DD1637A002B2AD02268E36A67
S11334501978C9B2581CE062A079012804D15878BF
S1133460000201430233E362CB05DB0D9362A38EBA
S1133470013B9BB2A386A38E9BB2002B11D10123E7
S11334802B75637A012B0CD1E379002B09D103232B
S1133490637200223823E254FA0702D5201CE36841
S11334A09847710761D56B8B5A0714D5637A012B42
S11334B00BD01E223823E2540323637205232B7599
S11334C03B0702D5201CA1698847AB6A6A8B042399
S11334D013436B8349E0637A012B16D123689B6AFB
S11334E0638E013B9BB26386638E9BB2002B3CD1FF
S11334F004232B7500223823E25403236372FA0752
S113350033D5201CE36898472FE023689A6AD205D4
S1133510D20DD3B2A16A0B70A36A591CA162A1791E
S1133520012904D1120A5A70A36A0133A362238EBB
S1133530013B9BB22386238E9BB2002B15D1002224
S11335403823E25404232B75637A022B05D17A07BE
S11335500BD5201C6369984707E0637A002B04D1DC
S1133560B90702D5201C22699047B30713D56379A4
S1133570002B10D107232B7502232B7603236372B0
S11335800023A386238638230022E254F90602D5B9
S1133590201CE269904733070AD56379002B07D1D1
S11335A008232B752B76B90602D5201C226A904776
S11335B0F60907D080232B752B767B0602D5636A28
S11335C0201C9847F8BDC04600440020FC4300205E
S11335D07047C046F0B50A4B1B78002B0CD1094F3D
S11335E0094E0A4D0024DE515A1914600433182B75
S11335F0F9D10122024B1A708000024BC150F0BD78
S1133600E4410020E8410020D135000000440020BE
S113361010B582B0041C684605490622054B98473C
S1133620201C054B98476B46185602B010BDC04687
S113363038540000A5440000D905000008B5024B29
S11336401B680020984708BDE841002008B5024BDC
S11336505B680120984708BDE841002008B5024B8B
S11336609B680220984708BDE841002008B5024B3A
S1133670DB680320984708BDE841002008B5024BE9
S11336801B690420984708BDE841002008B5024B97
S11336905B690520984708BDE84100201723002AEC
S11336A00FD18B00084A9A58002A04D1191C064BE2
S11336B0C850002305E01D23121A501E82415242B5
S11336C01340181C7047C0467442002070B5002295
S11336D0164B1A7000231F26154D144C1F2B10D99E
S11336E019E0144900E000210A619B005B59002B9A
S11336F000D0984723780133DBB223700F2B14D802
S1133700ECE7321C1A40012191400A1C094909695D
S11337101142E6D1EEE7321C1A40012191400A1C05
S1133720002109691142DED1E4E770BD184400208C
S1133730744200200018004010B50020084B984740
S1133740084CFA218900A047074B1860FA21890028
S1133750A047064B18600522054B1A6010BDC046F1
S1133760893B0000754300000C0000200800002085
S113377010E000E030B5084B1C68084A00258021A1
S1133780490206E0002C04D05460956013680B4293
S1133790FCD00138F6D230BD0800002010E000E073
S11337A00C4B1B68002B10D1EFF31083002B09D1B5
S11337B072B6BFF35F8F0022074B1A700122074BCA
S11337C01A7002E00022054B1A70024B1A6801328B
S11337D01A607047004200201000002004420020BC
S11337E0084B1A68013A1A601B68002B09D1064B72
S11337F01B78002B05D00122044B1A70BFF35F8F96
S113380062B67047004200200442002010000020ED
S1133810F0B583B001AC012565700027A770257051
S11338201320211C064EB04780221203054B9A61D7
S1133830277065701C20211CB04703B0F0BDC04642
S1133840493800000044004100B583B001AB802238
S11338501A700A785A704A789A708A78DA70191C41
S1133860014B984703B000BD7D3D000008B5082812
S113387034D880001B4B1B589F468020000230E048
S1133880194B18692DE0194B186A8005800F184BE5
S1133890C340181C25E0144B586922E0124B1B68E6
S11338A0022018401DD011491022CB681A42FCD0C6
S11338B00D4B1B685A0713D500200E4B98470A4B33
S11338C09B681B041B0C58430BE05023074AD35C32
S11338D000205A0705D5044BD86802E0002000E018
S11338E0054808BD4054000008420020000800407C
S11338F000127A00BD3C0000006CDC0270B50C4B79
S11339001C6A0178857840780122104080014026A5
S1133910B44304432A40D00180229443221C02432E
S1133920032001400902034802400A431A6270BDA1
S113393000080040FFFCFFFF082843D88000224B0A
S11339401B589F4600203EE0204B196A02220A437E
S11339501A62002037E01D4B996902220A439A61DA
S1133960002030E0194B198A02220A431A820020EF
S113397029E0164B998A02220A439A82002022E007
S1133980134B196802220A431A601A68114B1A4031
S11339900E4B9A84191C1022CB681A42FCD00C4A94
S11339A091680A4BD96251689962126892B29A84FA
S11339B0002008E0054A4423D05C02210143D1548D
S11339C0002000E017207047645400000008004005
S11339D0084200207FFF000030B585B0C222D2002B
S11339E0194B9A60194B5A681E218A435A60012365
S11339F06A4613700024164DE0B26946A8470134A4
S1133A00252CF9D103A80024447001258570047085
S1133A10104B98470620104B9847104B9847104B73
S1133A201C725C729C7201956B465C7006236A463C
S1133A30137014725472002069460A4B9847002090
S1133A40094B984705B030BD0008004000400041D4
S1133A50A13C0000FD380000393900006D3A000037
S1133A6000040040913A0000453B0000064B996970
S1133A7008220A439A610122044B1A70191C0B781C
S1133A801342FCD17047C04600040040000C0040C3
S1133A90F8B5061C071C0D782D0205434B78002B46
S1133AA002D08023DB021D434B7A002B02D08023FB
S1133AB01B031D434C68012C17D9631E1C420FD1F4
S1133AC0022C06D90223002201325B009C42FBD85F
S1133AD000E000221702374380235B031D4304E008
S1133AE02702374380239B021D430B7A002B02D00D
S1133AF080239B031D430F4A53785BB2002BFBDBEF
S1133B000D4B98470D4B1E700A4A53785BB2002B3D
S1133B10FBDB084B9F601A1C53785BB2002BFBDB6A
S1133B20044B5968802252020A4015435D60044BDD
S1133B309847F8BD000C0040A1370000080C004075
S1133B40E137000010B5041C0B4A53785BB2002B1C
S1133B50FBDB0A4B98470A4B1C70074A53785BB24D
S1133B60002BFBDB044B5968802252020A435A6043
S1133B70044B984710BDC046000C0040A13700001C
S1133B80040C0040E137000070B5041C1A4A537855
S1133B905BB2002BFBDB194B9847194B1C70164A80
S1133BA053785BB2002BFBDB134E7068C004C00E6D
S1133BB0144B9847051C124B1C707668F602F60FDE
S1133BC0114B1C700C4A53785BB2002BFBDB0A4B85
S1133BD09C68240AA4B20D4B9847002E07D1012CEF
S1133BE007D9281C211C0A4B9847051C01E0013405
S1133BF0E540281C70BDC046000C0040A137000001
S1133C00040C00406D380000080C0040E13700004F
S1133C107543000010B5041C064B9847064B1C70F6
S1133C20064B59888022D2010A435A80044B984794
S1133C3010BDC046A1370000020C0040000C00403B
S1133C40E137000010B5041C0F4B98470F4B1C7054
S1133C500F4B58880005000F59880E4A0A405A80B5
S1133C6059880D4A0A405A80191C8022D2014B8877
S1133C701342FCD1064B01025888064A02400A430B
S1133C805A80064B984710BDA1370000020C004033
S1133C90000C0040FFF0FFFFFFBFFFFFE137000013
S1133CA010B50C7824020443024B9847A4B2024B8B
S1133CB05C8010BD453C0000000C004010B5041CA5
S1133CC0064B9847064B1C70064B5C882405240F52
S1133CD0054B9847201C054B984710BDA1370000A1
S1133CE0020C0040000C0040E1370000893B00005A
S1133CF030B5D378002B1ED11378802B04D01B064B
S1133D0080246402234300E0002354780225AC435A
S1133D100AD19478002C03D18024A402234302E026
S1133D20C024E402234341605478013C012C04D8AC
S1133D30114C234001E0416000230D042D0CA0240C
S1133D40E4052C431C4384620D0CD02424062C432C
S1133D501C438462D478002C0CD15C0305D5937881
S1133D60012B01D1816100E041615378013B012BBA
S1133D7000D8816030BDC046FFFFFBFF08B5031CBF
S1133D800A1CC1090020002903D15809C0010449B3
S1133D9040181F210B4001219940024B984708BD50
S1133DA000440041F13C00007047C04608B5044B94
S1133DB09847044B9847044B9847044B984708BDD1
S1133DC0D939000011380000A93D0000310100007C
S1133DD0FEE7C04610B51C4B1C4A9A4203D01C4B4C
S1133DE0194A9A4204D31B4B1B4A9A4210D31BE034
S1133DF01A4B17480330C01A800801308000002392
S1133E001149124AD458CC5004338342FAD1EAE718
S1133E10114B1A1D0F490331891A89088900521858
S1133E20002102C39342FCD10D4B7F210D4A8A43EA
S1133E309A600D4B596880220A435A600B4B98478D
S1133E400B4B9847FEE7C046000000209C5500003D
S1133E50940000202C440020940000200400002042
S1133E6000ED00E000000000004000415944000063
S1133E70FD400000064B1B68002B02D1054A044B91
S1133E801A60034A136818181060181C7047C0465B
S1133E902042002030640020012040427047C04688
S1133EA080239B014B6000207047C046012070476F
S1133EB00020704770B582B0074D084C084E286842
S1133EC0694664220023A047002801D0009B336088
S1133ED03220044B9847F2E71C4400201D1C0000CC
S1133EE0240000202123000070B582B0051C0E1CA4
S1133EF000226B46DA80064C281C69460631A0472E
S1133F000028F9D16B4606331B88337002B070BDAC
S1133F10D92E000070B5061C0D1C034C301C291C46
S1133F20A0470028FAD170BDAD2E000010B5041CC6
S1133F300E480F4B98472388022B02D0032B09D03D
S1133F4011E00C4B1868A168002200230A4CA0471A
S1133F50012009E0094B1868A16800220023064CDF
S1133F60A047012000E0002010BDC0468854000096
S1133F70C94400001C4400204D1B000020440020C4
S1133F8010B584B0354B186882689368013B936020
S1133F90002B19DA826891689369994210DB1368DF
S1133FA0FE221A702D4B18688268136819780A2942
S1133FB002D00133136011E00A21294B98470DE028
S1133FC0FE21274B984709E083681B68FE221A707C
S1133FD0224B1B689B681A6801321A601F4B1868D1
S1133FE082689368013B9360002B19DA82689168B8
S1133FF09369994210DB136880221A70174B186872
S11340008268136819780A2902D00133136011E019
S11340100A21134B98470DE08021114B984709E082
S113402083681B6880221A700C4B1B689B681A6893
S113403001321A600B4B19780B4B1A680B4B1B6837
S113404000910B480068019002910A4909680391A4
S113405009480A490A4CA04704B010BD900000204A
S1134060914B00002C0000202800002014000020A8
S11340702400002018000020945400001C0000209C
S1134080C944000038B5044B9847044D044CA84774
S11340906420A047FBE7C046DD200000813F00000C
S11340A02123000008B500200A4B98470A480B4B0F
S11340B098470F200A4B984701200A4B9847232022
S11340C0094B984709480A4B9847012009490A4B6C
S11340D0984708BDB113000067450000C5130000F0
S11340E0C9120000B512000039130000BC540000CE
S11340F0B11500002D3F0000D9130000F0B595B0B4
S1134100424B9847424B9847424B9847424B9847FB
S113411004AA8023DB05049300235360FF2111814B
S113412000219372D372962080011062012624200C
S11341301654252016542620135427201354936212
S11341402C2013542D20135453611382D3761176EB
S11341501177517613239376517780235B03D360D1
S11341602E4B13632E4B536301235B429363D36340
S11341702C4C2D4B1C602D492D4B19602D492E4B79
S11341801960201C2D492E4B98472E4F3B68986888
S113419000212D4DA8473B6858680021A847256891
S11341A0281C2A4B98471F2318408640284B1E6022
S11341B02368DA69002AFCD12B68022423432B608C
S11341C00F200821234DA847234B18600F200821F6
S11341D00022A847214B18608026F6000094002492
S11341E00194029403941E481E49321C00231E4D60
S11341F0A847012300930194029403941B481C498B
S1134200321C0023A8471B4B9847FEE7AD3D000036
S113421039370000D5100000A54000000300040059
S11342200300050024420020BC420020153F00008A
S1134230B8420020E93E0000B442002000080042D9
S1134240A52B000090000020FD4400001136000062
S113425000E100E0851900001C44002020440020F7
S113426085400000D0540000791E0000B53E0000D7
S1134270D45400006D20000010B5041C134B984763
S1134280134B1A7862438118124B59605968090C10
S113429059605B68002B07D00E4B596801328018B7
S11342A018810D4B984704E082180A4B1A810B4B76
S11342B09847084B1B89632B02D86433054A138142
S11342C0044B1889064B984710BDC046650F000083
S11342D02444002058420020790F00008D0F000074
S11342E0C90F000008B50022034B1A70034B98470E
S11342F0034B187008BDC04658420020E10F00006F
S11343002444002008B50E4B5B68002B07D00C4AF0
S11343105368013B5360002B01D10A4B9847084A6C
S113432013780133DBB21370074A12789A4206D825
S1134330034B00221A70DB68002B00D0984708BD9D
S1134340584200208D0F00002444002008B5044B7F
S11343509847044B1B69002B00D0984708BDC04602
S1134360790F000058420020014B18617047C04685
S113437058420020002934D00123002210B488427E
S11343802CD301242407A14204D2814202D2090180
S11343901B01F8E7E400A14204D2814202D24900A1
S11343A05B00F8E7884201D3401A1A434C08A04244
S11343B002D3001B5C0822438C08A04202D3001BDA
S11343C09C082243CC08A04202D3001BDC082243F1
S11343D0002803D01B0901D00909E3E7101C10BC15
S11343E07047002801D00020C04307B4024802A14E
S11343F04018029003BDC046190000000029F0D007
S113440003B5FFF7B9FF0EBC4243891A1847C046EB
S11344107047C0469C460304F0B51B0C17043F0CC0
S1134420150C1E1C041C000C7E436B434743454380
S1134430FB18300C1818874202D980235B02ED1850
S1134440030CED1863465C434A433604360CA1184A
S1134450000480194919F0BD70B50E4B0E4D0024AF
S1134460ED1AAD101E1CAC4204D0A300F3589847BB
S11344700134F8E701F082F8084B094D0024ED1AE5
S1134480AD101E1CAC4204D0A300F358984701346D
S1134490F8E770BD88550000885500008855000075
S11344A08C55000010B50023934203D0CC5CC45457
S11344B00133F9E710BD031C8218934202D019702E
S11344C00133FAE7704700000FB40B4B13B51C68B7
S11344D0002C05D0A369002B02D1201C00F02CFD78
S11344E005ABA168201C049A019300F0BFF816BC28
S11344F008BC04B01847C0469000002008B54A42E2
S11345004A4180235200DB0000F002F808BD00009D
S1134510F7B51E1C3C4B041C1D680F1C0192002D9A
S113452005D0AA69002A02D1281C00F005FD374BEA
S11345309C4201D16C6808E0354B9C4201D1AC68C7
S113454003E0344B9C4200D1EC68019B022B57D80A
S1134550002E55DB281C211C00F06EFC0023636038
S1134560A361A3891A0603D5281C216900F0BAFDAA
S1134570A38983229343A381019B022B13D0002F91
S113458025D1002E01D18026F600301C00F094FDC8
S1134590071E18D18020C00000F08EFD071E10D128
S11345A00120404200E00020A38902221343A3819A
S11345B00023A360231C4733236023610123636129
S11345C020E08026F600A38980221343A381019A68
S11345D0012A04D1A3891343A3817342A3610E4B1F
S11345E00020AB62A3892760276166611A0709D599
S11345F0032213405A4253415B421E40A66001E02D
S113460001204042FEBDC046900000201C55000021
S11346103C5500005C550000914E0000936810B5B5
S1134620013B9360002B05DA9469A34208DBCBB20B
S11346300A2B05D01368581C10601970C8B201E029
S113464000F0A6FA10BDF8B5061C0F1C141CD518F2
S1134650AC4208D02178301C3A1CFFF7DFFF01344C
S1134660431CF5D100E00020F8BD0000F0B59FB078
S1134670061C0F1C03920593002804D081690029AD
S113468001D100F059FC754B9F4201D1776808E0D5
S1134690734B9F4201D1B76803E0724B9F4200D134
S11346A0F768BB891A070AD53B69002B07D006AD0A
S11346B000236B6120236B763023AB763BE0301C08
S11346C0391C00F0BDFA0028F1D001204042C2E0BC
S11346D0059A111D12680591002A76DB09920134AE
S11346E023782E2B00D181E021785F48032200F04B
S11346F0EDFC002807D05C492A68431A4020984002
S11347001043286001342178631C5848062203931F
S1134710297600F0DBFC002800D18AE0544B002B02
S11347207ED1059B072207339343083305936A69B7
S1134730049953186B61039C2378002B04D10399CB
S1134740611A029110D003E0252BF8D00134F3E76D
S1134750301C391C039A029BFFF775FF013075D09A
S11347606A69029953186B612378002B6ED0012279
S113477052426A606A4600235B3201342B60EB606C
S1134780AB601370AB6521783A48052200F09EFCBB
S1134790002808D0374A0134831A012098402B6836
S11347A018432860EFE72B68D90603D56A46202111
S11347B05B3211701A0703D56A462B215B321170E4
S11347C022782A2A84D0099B05E05242EA60022218
S11347D013432B6083E72278303A092A04D80A214C
S11347E04B4301349B18F6E7099379E763782A2B46
S11347F009D1059B02341A1D1B680592002B0DDAA2
S113480001235B420AE0013400232278303A092A6A
S113481004D80A214B4301349B18F6E7079363E756
S113482005AB0093301C291C3A1C134B00E000BF5D
S113483007E005AB0093301C291C3A1C0E4B00F01A
S113484091F804900499013100D070E7BB895A06AD
S113485000D53AE70B981FB0F0BDC0461C550000C8
S11348603C5500005C550000EE540000F25400007A
S113487000000000E854000047460000F7B5151C8E
S113488001930A698B68061C0C1C934200DA131C02
S1134890221C2B6043321278002A01D001332B6092
S11348A02068800602D52B6802332B602168062716
S11348B00F401FD0231C43331B785A1E9341226898
S11348C092061FD5E11840313020C870211C5A1CB3
S11348D045310978A21840320233D17012E0221C0B
S11348E0301C019919320123089FB847013011D0B7
S11348F0009F01370097E0682968009F431A9F4290
S1134900EDDBD7E7221C301C01994332089FB847DE
S1134910013002D10120404223E0206806212B68A7
S1134920E26801400025042903D1D51AEB43DB17C3
S11349301D40A26823699A4201DDD31AED180027AD
S11349400097009FAF420BDA221C301C01991A32E7
S11349500123089FB8470130DCD0009F0137EFE7FF
S11349600020FEBDF0B50D1C8BB0433506920590BA
S1134970079304950B7E0C1C109A6E2B00D1A7E0B4
S113498011D8632B22D009D8002B00D1B0E0582BCA
S113499000D0C0E045310B707B4D4EE0642B1CD041
S11349A0692B1AD0B7E0732B00D1A5E009D86F2B7F
S11349B029D0702B00D0AEE00E68202333430B6067
S11349C036E0752B1FD0782B32D0A4E013680D1C71
S11349D0191D423511601B689FE0216813680E069B
S11349E003D5191D11601E6805E04806F9D5191D87
S11349F0116000215E5E644B002E3BDA049D2D2283
S1134A0076422A7036E0216813680E0603D5191D14
S1134A1011601E6804E04806F9D5191D1E8811604E
S1134A20594B227E039308276F2A1ED00A271CE0C5
S1134A30231C78214533554D197011682368081DCE
S1134A40039510601E0601D50E6802E05806FBD5DA
S1134A500E88D90702D52022134323601027002E85
S1134A6003D1226820239A432260231C002243336B
S1134A701A7001E003930A276368A360002B03DB29
S1134A802568042295432560002E02D1049D002B45
S1134A900ED0049D301C391CFFF7B0FC0398013D77
S1134AA0435C301C2B70391CFFF764FC061EF1D1EB
S1134AB0082F09D12168C90706D5626823699A427B
S1134AC002DC013D30232B70049E731B23612AE01A
S1134AD0086813684969050604D5181D10601B6829
S1134AE0196005E04606F8D5181D10601B6819808A
S1134AF000232361049D16E01368191D11601D68CD
S1134B00281C00F0E9FB63682061984200D9236106
S1134B102069606004E0251C42352B700123236169
S1134B20049E00233370079E05980096211C09AA51
S1134B30069BFFF7A3FE013002D10120404221E091
S1134B402A1C059806992369079DA8470130F4D0CB
S1134B502668B60705D4099BE068984212DA181C47
S1134B6010E00025E0680999431A9D42F3DA221CFB
S1134B700598069919320123079EB0470130DCD00D
S1134B800135EFE70BB0F0BDF95400000A55000001
S1134B9070B5051C0E1C141C002804D08269002A60
S1134BA001D100F0C9F9234B9C4201D16C6808E0A3
S1134BB0214B9C4201D1AC6803E0204B9C4200D1C4
S1134BC0EC68A369A360A3891A070AD52369002B9B
S1134BD007D022682369F6B2D01A626990420FDBCB
S1134BE008E0281C211C00F02BF80028F1D001203B
S1134BF040421DE0281C211C00F01EF90028F6D1BB
S1134C00A3680130013BA36023685A1C22601E7014
S1134C106369984205D0A389301CDA0708D50A2EA7
S1134C2006D1281C211C00F007F90028DFD1301C14
S1134C3070BDC0461C5500003C5500005C5500008A
S1134C40344B70B51D68061C0C1C002D05D0A969D9
S1134C50002902D1281C00F06FF92F4B9C4201D18E
S1134C606C6808E02D4B9C4201D1AC6803E02C4BEE
S1134C709C4200D1EC68A28993B2190721D4D906C9
S1134C8005D40923336040231A43A2813FE05A0725
S1134C9013D5616B002908D0231C4433994202D0F8
S1134CA0301C00F01FFA00236363A389242293437A
S1134CB0A3810023636023692360A389082213432B
S1134CC0A381216900290BD1A389A02292001A4053
S1134CD080239B009A4203D0301C211C00F09CF9D5
S1134CE0A38901221A4005D061690022A2604A42C8
S1134CF0A26103E0990700D46269A26022690020DE
S1134D00824206D1190604D540221343A38101200F
S1134D10404270BD900000201C5500003C5500002E
S1134D205C550000F7B58B89051C0C1C19075ED473
S1134D306268002A02DC276C002F1ADDE76A002F64
S1134D4017D000222E682A60802252011A4001D016
S1134D50626D15E0281C216A0123B847021C411C1E
S1134D600ED12B68002B0BD01D2B01D0162B02D19A
S1134D702E6000205EE0A38940210B43A38159E00B
S1134D80A3895F0706D56168636B521A002B01D0B3
S1134D90276CD21B281C216A0023E76AB847A28922
S1134DA0411C06D12B68002B03D01D2B01D0162BE0
S1134DB019D10023636023692360D70405D5411CFE
S1134DC002D12A68002A00D16065616B2E60002937
S1134DD0CFD0231C4433994202D0281C00F082F91E
S1134DE00020606326E040231A43A28122E0266962
S1134DF0002EBED027680022BF1B019726609907AA
S1134E0000D16269A260019F002FB2DD281C216AD3
S1134E10321C019BA76AB847002806DCA3894022FC
S1134E2013430120A381404204E0019F36183F1A36
S1134E300197E8E7FEBD00000A6938B5051C0C1CA3
S1134E40002A01D100201CE0002804D08369002B33
S1134E5001D100F071F80B4B9C4201D16C6808E061
S1134E60094B9C4201D1AC6803E0084B9C4200D141
S1134E70EC680C22A35E002BE4D0281C211CFFF755
S1134E8051FF38BD1C5500003C5500005C55000026
S1134E90F8B5041C071C4834002C12D0A5686668B9
S1134EA0013E0CD4AB89012B07D90E22AB5E013332
S1134EB003D0381C291CFFF7BFFF6835F0E72468CE
S1134EC0EAE7F8BD002310B5041C03604360836067
S1134ED081814366C281036143618361191C082295
S1134EE05C30FFF7E8FA054B24626362044BA3626B
S1134EF0044BE362044B236310BDC04641520000DF
S1134F0069520000A1520000CD52000070B54B1E42
S1134F1068255D430E1C291C743100F02BF9041E16
S1134F2008D00021016046602A1C0C30A060683261
S1134F30FFF7C1FA201C70BD836913B5041C002B54
S1134F4027D18364C3640365124B134A1B688262CE
S1134F50984201D101238361201C00F01FF8606096
S1134F60201C00F01BF8A060201C00F017F804219E
S1134F70E06000226068FFF7A5FFA0680921012214
S1134F80FFF7A0FFE06812210222FFF79BFF012335
S1134F90A36113BDE4540000914E0000F8B51D4B0D
S1134FA0071C1E68B269002A02D1301CFFF7C4FF37
S1134FB04836B4687368013B05D40C22A55E002D05
S1134FC010D06834F7E73368002B06D1381C04216D
S1134FD0FFF79CFF3060002801D03668E9E70C2316
S1134FE03B6016E001235B42E381201C0123A38183
S1134FF065662560A560656025616561A5615C30B5
S1135000291C0822FFF757FA6563A563A564E564C4
S1135010201CF8BDE4540000F0B58B8991B0051C48
S11350200C1C9A0725D40E23C95E002906DAA78929
S113503080231F400FD0002740260EE001AA00F075
S113504079F90028F3DB029BF0273F02184A1F403E
S1135050BF187B425F418026F600281C311C00F0FB
S113506089F800280CD1A3899A051FD4022213437E
S1135070A381231C4733236023610123636115E06B
S11350800C4B8022AB62A38920601343A38120616F
S11350906661002F0AD00E23E15E281C00F05CF943
S11350A0002803D0A38901221343A38111B0F0BDCA
S11350B000E0FFFF914E000008B5034B011C186887
S11350C000F058F808BDC04690000020C9B282180C
S11350D0904204D003788B4202D00130F8E70020DC
S11350E07047000030B5002940D004390B68002B0C
S11350F000DAC9181E4A1368141C002B02D14B6035
S1135100116033E099420FD208680A189A4205D117
S113511013685268C01808604A6000E04B60216060
S113512024E08A4203D8131C5A68002AF9D11D6866
S11351305C198C420BD1096869185818196090429F
S113514014D114685268091919605A600EE08C422F
S113515002D90C23036009E008680C18944203D1B7
S113516014685268001908604A60596030BDC0462E
S11351707042002070B50323CD1C9D430835061CE6
S11351800C2D01D20C2501E0002D3FDB8D423DD3D7
S1135190204B1C681A1C211C002913D00868431BCF
S11351A00DD40B2B02D90B60CC181EE08C4202D11B
S11351B0636813601AE0486860600C1C16E00C1CFD
S11351C04968E9E7144C2068002803D1301C00F03A
S11351D025F82060301C291C00F020F8431C15D051
S11351E0C41C03239C4384420AD12560201C0B3039
S11351F00722231D9043C31A0BD05A42E25008E001
S1135200211A301C00F00AF80130EED10C2333606F
S1135210002070BD704200206C42002038B5074C5D
S11352200023051C081C2360FEF724FE431C03D145
S11352302368002B00D02B6038BDC04628440020D2
S113524038B50C1C0E25495F00F0ACF8002803DBD0
S1135250626D1318636503E0A289024B1340A381B6
S113526038BDC046FFEFFFFFF8B51E1C8B89051C37
S11352700C1C171CDA0505D50E23C95E0022022377
S113528000F07CF8A289054B281C1340A3810E2250
S1135290A15E331C3A1C00F027F8F8BDFFEFFFFFB6
S11352A038B50C1C0E25495F00F068F8A389421C30
S11352B003D1054A1340A38104E080225201134321
S11352C0A381606538BDC046FFEFFFFF08B50E231C
S11352D0C95E00F01DF808BD0023C25C0133002A3A
S11352E0FBD1581E7047000038B5084C051C00203F
S11352F02060081C111C1A1CFBF746FB431C03D13D
S11353002368002B00D02B6038BDC0462844002001
S113531038B5074C0023051C081C2360FEF7BCFDB0
S1135320431C03D12368002B00D02B6038BDC0463A
S11353302844002038B5074C0023051C081C111C08
S11353402360FEF7ADFD431C03D12368002B00D07E
S11353502B6038BD2844002038B5074C0023051CB9
S1135360081C2360FEF7A2FD431C03D12368002B15
S113537000D02B6038BDC0462844002038B5084C06
S1135380051C00202060081C111C1A1CFEF790FD4F
S1135390431C03D12368002B00D02B6038BDC046CA
S11353A02844002038B5084C051C00202060081C47
S11353B0111C1A1CFBF7C6FA431C03D12368002BEB
S11353C000D02B6038BDC0462844002000080042AD
S11353D0000C004200100042001400420018004279
S11353E0001C0042002C0042003000420034004205
S11353F01B1C1C00000800100020000012131400E5
S113540049444C4500000000322A0000322A0000C2
S1135410322A00008A2A00006C2A0000842A000034
S1135420322A0000322A00008A2A00006C2A000076
S1135430546D722053766300090A0B0C0D0E0000A4
S113544080380000DC380000DC3800007A380000C6
S11354507A38000096380000863800009C38000036
S1135460CA38000064390000C4390000C43900009F
S113547044390000563900007239000048390000F0
S113548080390000B439000072656365697665642B
S1135490210000004D6F64653A25732020526D3A57
S11354A02532645461726765743A25326425632039
S11354B0253264256320257300000000546573744D
S11354C053656375726974794B6579300000000027
S11354D04C434400746573740000000058000000DD
S11354E04300000030000020232D302B2000686C86
S11354F04C006566674546470030313233343536F3
S1135500373839414243444546003031323334352B
S11355103637383961626364656600000000000054
S11355200000000000000000000000000000000077
S11355300000000000000000000000000000000067
S11355400000000000000000000000000000000057
S11355500000000000000000000000000000000047
S11355600000000000000000000000000000000037
S1135570000000000000000000000000F8B5C04674
S1135580F8BC08BC9E467047DD000000F8B5C04674
S10F5590F8BC08BC9E467047B500000043
S113559CAAAAAAAAFFFFFFFF08000000401F0000F0
S11355AC0100000046000000DC540000636F6F6CC7
S11355BC000000004600000001000000DF000000B5
S11355CC000000001C5500003C5500005C55000018
S11355DC00000000000000000000000000000000BB
S11355ECE054000000000000000000000000000077
S11355FC000000000000000000000000000000009B
S113560C000000000000000000000000000000008A
S113561C000000000000000000000000000000007A
S107562C3000002026
S9033DD5EA
