:10000000A8300020B5440000B1440000B144000015
:1000100000000000000000000000000000000000E0
:10002000000000000000000000000000B1440000DB
:100030000000000000000000B1440000B1440000D6
:10004000B1440000B1440000B1440000B1440000DC
:100050001D1B0000B1440000B1440000B144000089
:10006000B14400006D1A00007D1A00008D1A0000D6
:100070009D1A0000AD1A0000BD1A0000B144000036
:10008000B1440000B1440000C1100000D1100000D4
:10009000E1100000000000000000000091050000D9
:1000A000B144000000000000B1440000B144000071
:1000B0000000000010B5064C2378002B07D1054B3B
:1000C000002B02D0044800E000BF0123237010BDC4
:1000D0008800002000000000C060000008B5084B48
:1000E000002B03D00748084900E000BF0748036819
:1000F000002B03D0064B002B00D0984708BDC0460C
:1001000000000000C06000008C000020C060000003
:100110000000000010B50022002302704270002190
:100120004280017103760262C26182600624047318
:10013000C0246401C481037443748374C37403755D
:100140002A2403554375837524240355C2840285EC
:10015000C1752B23C1542C23C15410BDF0B55F468B
:1001600056464D464446F0B499B0061C141C016036
:10017000BA4B186A8022520202431A620B78052099
:10018000DA0700D5F4E10B781C20990700D5EFE1E0
:1001900063783371002B00D0DAE1B14B196C042283
:1001A0000A431A64D4E1237D002B02D10123737723
:1001B00001E0002373773268019223786846037266
:1001C0001E2002A9A74B98471E20A74B98472C2317
:1001D000E35C002B42D02B22A55C217B88464A1988
:1001E000D2B2D318DBB299469A4221D29F4A9346A3
:1001F0009F4B9A460F272F40237BFF1804A8594690
:100200005022D047132F0CD8BF0004ABF85803A9D5
:1002100000234B70CB708B7001230B70C0B2954ADA
:1002200090470135EDB240464319DBB24B45E1D36F
:10023000E58904A88D4950228D4B9847132D37D856
:10024000AD0004ABE85803A900234B70CB708B7052
:1002500001230B70C0B2874B984729E0257B04A887
:1002600082495022824B9847132D0CD8AD0004AB25
:10027000E85803A900234B70CB708B7001230B70DF
:10028000C0B27C4B9847E58904A878495022784B46
:100290009847132D0CD8AD0004ABE85803A90023F0
:1002A0004B70CB708B7001230B70C0B2714B9847B1
:1002B000637D9B00DBB201990B70A37DDB0162784B
:1002C0001343DBB24B702379342B00D93EE19B0002
:1002D000694AD3589F460222102501231AE0637C05
:1002E000227C102516E006221025012312E00822A8
:1002F000102500230EE00022302500230AE0002212
:100300002025002306E000220025002302E004222D
:10031000102502231B0170210B401343019A937097
:10032000E37D17203F2B00D922E1D3703268537E42
:100330005BB2002BFBDBE27C638813432422A25CCC
:10034000D2001343227D92001343A27C5200134338
:100350002B4301988380237E002B01D1316895E0E7
:10036000102D5BD002D8002D38D0F7E7202D19D002
:10037000302DF3D1E27C002A0AD0E26980321720C6
:10038000FF2A00D9F4E0226A8032FF2A00D9EFE088
:100390001720E169FF2900DDEAE0226AFF2A00DD7B
:1003A000E6E0DBE7E27C002A0DD0E06980229200E3
:1003B00081181720314A914200D9D9E0304A216A88
:1003C000914200DBD4E017202C4AE169914200DD24
:1003D000CEE0216A914200DDCAE0BFE7E27C002A5C
:1003E00011D0E2698020000111181720254A91429E
:1003F00000D9BDE0226A8020000111181720214A8F
:10040000914200D9B4E017201E4AE169914200DD13
:10041000AEE0216A914200DDAAE09FE7E27C002A7B
:1004200011D0E2698020000211181720164A91426B
:1004300000D99DE0226A8020000211181720124A7C
:10044000914200D994E017200F4AE169914200DD02
:100450008EE0216A914200DD8AE07FE700040040DF
:100460000008004081430000F5420000B05E00003B
:10047000254E00005D440000DC5D0000FF0300002D
:1004800001FEFFFFFF0F0000FFFF00004A7E52B297
:10049000002AFBDB019A13723268537E5BB2002B99
:1004A000FBDBA38B019883833268537E5BB2002B06
:1004B000FBDB238C01990B842C23E35C002B04D001
:1004C000013BDBB217200F2B52D82B22A25C172046
:1004D0000F2A4DD83168487E40B20028FBDBE08906
:1004E000217B0143A068014312050A431B04134307
:1004F00001990B612A23E35C0B750F238B75242371
:10050000E35C002B10D0E38C17201D4A93422FD8B8
:100510008B84238D80200001191889B21720184A76
:10052000914225D80199CB84164B1A685201E023D9
:10053000DB001A40144B586841011B68DB0E0B436B
:10054000DBB2134301990B85002011E017200FE067
:100550000023B360F3603361B376F376338333778C
:100560000A4B1E602A23E35C002B00D11BE620E629
:1005700019B03CBC90469946A246AB46F0BDC04679
:10058000FF0F00002460800020608000500C0020DD
:1005900038B52D4B1C6823681D7EEDB2E90735D5B3
:1005A000E27ED10732D5A27ED1072FD501221A765D
:1005B0002268537E5BB2002BFBDB6369991C61618F
:1005C000528B92B21A80238B013B9BB22383002B68
:1005D00011D0637F002B19D023685A7E52B2002AB3
:1005E000FBDB197B02220A431A732268537E5BB23B
:1005F000002BFBDB0AE0237F052B07D100232377A9
:10060000012322689375201CA368984769070BD5BE
:10061000042322681376E37E990705D5A37E9A0703
:1006200002D5201CE3689847A9070BD5022322684E
:100630001376E37E590705D5A37E5A0702D52369B1
:10064000201C984738BDC046500C0020054B197837
:1006500002220A431A701A1C53785BB2002BFBDB90
:100660007047C0460018004000B583B0124B99692E
:1006700040220A439A6101A900230B7005200F4B09
:10068000984705200E4B98470E4B197801220A43D4
:100690001A701A1C53785BB2002BFBDB0A4B191C37
:1006A0004031002204C38B42FCD11022074B1A6058
:1006B000074B984703B000BD000400408143000091
:1006C000F542000000180040540C002000E100E05A
:1006D0004D06000000230360436001220272427253
:1006E00083720223C3727047F0B583B0051C0C1CE3
:1006F00001A900234B70CB7063680B70237A8B7059
:100700002078154B984700231F2D00D8134B072145
:1007100029408900E07AA27A002A01D008221043F9
:10072000EA0892009A18966988400F278F40BE43C6
:10073000311C01439161627A002A06D05A69012175
:10074000A9400D1C15435D6104E05A690121A940CF
:100750008A435A6103B0F0BD5D44000000180040B8
:1007600010B5031C4908402099420CD30024C91A33
:10077000601C80B28B4201D8041CF8E74020FF2C9B
:1007800001D81480002010BDF0B55F4656464D4696
:100790004446F0B487B0061C0D1C049210AA1078D1
:1007A000321C424340248A4200D9B3E0002B4BD193
:1007B0000021321C5E4CA04783462E1C00270020DF
:1007C0000021002200233F24A4460125A8460290D0
:1007D00003916146203903D440468840814605E0B4
:1007E000202165464C1B4046E04081464146644618
:1007F000A1408A46101C191C80185941021C0B1C70
:100800005D464C46254202D0424602430B1C9F42A5
:100810000CD801D1964209D8921BBB415046029D8B
:1008200028434946039C2143029003916546013DBC
:10083000AC46CED2029803993C4B3B4A121A8B41EC
:10084000120C1B041A4362E00022012B5FD14F0FF0
:10085000B946CD00AB460021321C0023344CA047E2
:10086000061C0F1C00230125029603979A4650464A
:10087000C0B2059000218846002200233F24271C97
:10088000203F03D42E1CBE40019604E02020071B0D
:10089000291CF94001912E1CA6400096101C191C21
:1008A00080185941021C0B1C5F463740BC46019E14
:1008B0004F463E4067463E4302D02A1C02430B1C73
:1008C000039898420BD802D10299914207D8029E10
:1008D000039F921BBB41474600980743B846013C23
:1008E000CDD2414652468B1ADB08124CA34208D99E
:1008F000059A0132D2B205920126B2445746082F1A
:10090000B5D140240598082804D042031A43049C1A
:1009100022800024201C07B03CBC90469946A24689
:10092000AB46F0BDC046C04600000000010000001C
:10093000954D0000FF1F000010B582B0041C0F4B46
:100940001B78002B01D000290DD001A90C701320B9
:100950000B4B984713200B4B9847084B5C700122B8
:100960001A70002007E0054B5A781D20141B621EE8
:1009700094416442204002B010BDC046A400002053
:1009800081430000F5420000444B984233D006D822
:10099000434B98420DD0434B98421BD06FE0424BE3
:1009A00098424AD0414B984258D0414B984266D128
:1009B00032E0012965D0002904D0022906D003299C
:1009C00006D001E03B4867E0002065E03A4863E07C
:1009D0003A4861E0012956D0002904D0022906D006
:1009E000032906D001E0032056E0002054E03448FB
:1009F00052E0344850E0012947D0002904D00229B0
:100A000006D0032906D001E02F4845E0002043E04E
:100A10002E4841E02E483FE0012938D0002904D07B
:100A2000022906D0032906D001E02A4834E000203C
:100A300032E0294830E029482EE0012929D0002958
:100A400004D0022906D0032906D001E0244823E07F
:100A5000002021E023481FE023481DE001291AD08F
:100A6000002904D0022906D0032906D001E01F483E
:100A700012E0002010E01E480EE01E480CE00020AE
:100A80000AE01D4808E01D4806E01D4804E01D4836
:100A900002E01D4800E01D487047C04600100042BB
:100AA00000080042000C004200180042001C0042F6
:100AB00000140042030004000300060003000700C6
:100AC00003001E0003001F0002000C0002000E00C5
:100AD00002000F00030010000300120003001300C7
:100AE0000500530005003E000500520003001600FB
:100AF00003001800030019000300050003000100B3
:100B000002000D000300110005003F000300170064
:100B100070B586B00C4A6B4670CA70C332CA32C315
:100B2000009E864206D001239A00694652588242AE
:100B300003D100E00023D8B203E00133062BF3D148
:100B4000002006B070BDC046005F0000F0B547460B
:100B500080B488B0051C0C1C161C29600B681C2076
:100B60009A0700D5DFE00B680520DA0700D5DAE048
:100B7000081C6F4B98476F4B196A821C01279740DE
:100B80003A1C0A431A6207A92427F35D0B7014303C
:100B9000C0B28046684B98474046684B9847F05D26
:100BA0000021674B98473378012B03D122680C232F
:100BB000134323603378002B00D0B1E02268082370
:100BC00013432360ACE0EA18D16004331C2BFAD144
:100BD0000023EB62AB620024AB862B863623EC54F9
:100BE0003723EC543823EC5403236B722C712868A0
:100BF0004F4B9847071C5349534B9847BF00534BE3
:100C0000FD502F6802AB80221A705C7001229A702E
:100C1000DC703378002B02D1002202AB9A70B36AE9
:100C20000393F06A0490326B0592736B0693002471
:100C3000E1B2A30003AA9858002802D1381C444A04
:100C40009047431C06D06A461072000CC0B202A93D
:100C5000404B98470134042CEAD133786B71337CD4
:100C6000AB71B37CEB71337D2B7200226B46DA8063
:100C70003378012B14D128682D4B98471430C0B21B
:100C8000354B9847011CB0696A460632334B98478A
:100C9000031C1720002B46D16B4606331B783B7391
:100CA0003378002B0FD1B169B38B786AF47F2404B9
:100CB000B27F224302437A622022B25C002A04D02F
:100CC0004022134301E000230021B2687068024310
:100CD000F06802430A43317C0B43717C002903D145
:100CE0001F498978880701D580210A43B17C0029F2
:100CF00002D0802189020B43F17C002902D080219F
:100D000089000B43317D002902D0802189010B43EA
:100D100039680A433A607A6813437B60002002E036
:100D2000002300214FE708B004BC9046F0BDC04648
:100D3000110B00000004004081430000F542000058
:100D400039090000510E0000051A0000B00C002007
:100D5000890900005D4400009D4300006107000018
:100D60000020004110B544791523012C6CD1047A80
:100D70000023002C68D1002A57D04B78002B44D098
:100D80000268137EDC070FD40B78D90900220029F2
:100D900003D15A09D2012D4952181F210B400121BC
:100DA0009940916105234FE00B78DC090022002C6B
:100DB00003D15A09D201254C12191F2423400124C2
:100DC0009C405461897803681A7ED40700D59962E3
:100DD000C2790023002A37D102680421137E0B4216
:100DE000FCD0117E00234C072ED5538B590703D519
:100DF000518B04230B4353838379012B02D1936AD4
:100E0000002321E0936A00231EE00B78D909002219
:100E1000002903D15A09D2010C4C12191F210B4091
:100E200001219940516100230EE00B78D90900227D
:100E3000002903D15A09D201044952181F210B403D
:100E40000121994091610023181C10BD004400410C
:100E5000F8B58000744BC45825683623E35C37220C
:100E6000A75C1F402B7EAE7D1E40F10749D56379FC
:100E7000012B16D1637A002B0FD16C4B1B88AB6210
:100E8000638E013B9BB26386638E9BB2002B01D1C4
:100E900001232B756379012B03D1637A002B05D1D4
:100EA0002FE0002B2DD1637A002B2AD02268E36A31
:100EB0001978C9B2581CE062A079012804D1587889
:100EC000000201430233E362CB05DB0D9362A38E84
:100ED000013B9BB2A386A38E9BB2002B11D10123B1
:100EE0002B75637A012B0CD1E379002B09D10323F5
:100EF000637200223823E254FA0702D5201CE3680B
:100F00009847710761D56B8B5A0714D5637A012B0B
:100F10000BD01E223823E2540323637205232B7562
:100F20003B0702D5201CA1698847AB6A6A8B042362
:100F300013436B8349E0637A012B16D123689B6AC4
:100F4000638E013B9BB26386638E9BB2002B3CD1C8
:100F500004232B7500223823E25403236372FA071B
:100F600033D5201CE36898472FE023689A6AD2059E
:100F7000D20DD3B2A16A0B70A36A591CA162A179E8
:100F8000012904D1120A5A70A36A0133A362238E85
:100F9000013B9BB22386238E9BB2002B15D10022EE
:100FA0003823E25404232B75637A022B05D17A0788
:100FB0000BD5201C6369984707E0637A002B04D1A6
:100FC000B90702D5201C22699047B30713D563796E
:100FD000002B10D107232B7502232B76032363727A
:100FE0000023A386238638230022E254F90602D583
:100FF000201CE269904733070AD56379002B07D19B
:1010000008232B752B76B90602D5201C226A90473F
:10101000F60907D080232B752B767B0602D5636AF1
:10102000201C9847F8BDC046B00C0020940C00204E
:10103000931C9B001950022A04D1027E10231343F3
:1010400003760CE0032A04D1027E202313430376A7
:1010500005E0012393401A1C037E1A430276002008
:101060007047C04638B58000144BC4582268957B41
:10107000237E1D40637E1D40EB0705D5201CA26822
:101080009047012322689373AB0705D5201CE268C3
:101090009047022322689373EB0605D5201C226932
:1010A0009047102322689373AB0605D5201C626914
:1010B0009047236820229A7338BDC046980C0020C0
:1010C00008B50020014B984708BDC04665100000D8
:1010D00008B50120014B984708BDC04665100000C7
:1010E00008B50220014B984708BDC04665100000B6
:1010F00070B584B0011C01AB0A4A70CA70C3019B71
:1011000083420AD0029C844205D00020039D8D4278
:1011100005D1022002E0012000E00020C0B204B0AE
:1011200070BDC046185F0000F0B54F464646C0B4DB
:1011300087B0041C0D1C9046081C904B98478146B4
:101140008F4F391C0C3105A803228E4EB047391C35
:10115000103103A80622B0470023A360E360236197
:1011600063612376637648468200874BD4502560BE
:1011700041468B78082B04D117204A46D20700D469
:10118000F6E023712B880520D90700D5F0E0EB7B32
:101190001C20DA0600D5EBE02B88990700D5E7E0A4
:1011A0004246137C002B0CD002A901238B70002235
:1011B000CA704046806908704B704246107D734B80
:1011C00098474046037F002B0BD002A901238B7068
:1011D0000022CA70426A0A704B70036AD8B26B4B25
:1011E00098476B4B196A4846420003A8125A0A43B3
:1011F0001A6241468B78082B08D1654B1A6A48461B
:101200000130400003A9415A0A431A6201A942462B
:1012100013780B7005AB48461E5C301C5D4B98473D
:10122000301C5D4B9847414688880B890343887979
:101230008A78104318434B78002B02D080231B017F
:10124000184321687F22CB7B9343FCD12880424600
:10125000507B431E98418000937B002B01D00123DB
:10126000184321687F22CB7B9343FCD1FF232B7152
:10127000002805D021687F22CB7B9343FCD1687185
:101280004346987ADB7A002B01D01023184341465D
:101290000B7B002B01D02023184321687F22CB7BBE
:1012A0009343FCD1A87122687F21D37B8B43FCD16F
:1012B0002379042B05D0082B41D01720002B57D1C0
:1012C00024E07F21D37B8B43FCD128234246D35C8F
:1012D0002B7421687F22CB7B9343FCD1292340468A
:1012E000C35C2B7521687F22CB7B9343FCD12A23DF
:1012F0004146CB5C2B7621687F22CB7B9343FCD18C
:101300002B234246D35C6B76002031E07F21D37BD8
:101310008B43FCD14046038D2B8221687F22CB7BFF
:101320009343FCD141464B8D2B8321687F22CB7B9D
:101330009343FCD14246938D6B83002018E07F21BC
:10134000D37B8B43FCD143469B6A2B6121687F2270
:10135000CB7B9343FCD14046C06AA86121687F22C1
:10136000CB7B9343FCD141460B6BEB610020FFE745
:1013700007B00CBC90469946F0BDC046F110000085
:10138000185F0000254E0000980C00205D4400000E
:101390000004004081430000F542000002687F2104
:1013A000D37B8B43FCD10379042B05D0082B09D0C8
:1013B0000020002B08D102E0107CC0B204E0108AAB
:1013C00080B201E01069FFE77047C04630B504689D
:1013D0007F25E37BAB43FCD10379042B05D0082B9D
:1013E00014D01720002B19D107E01720012915D898
:1013F000D2B261180A76002010E0172001290DD81A
:1014000092B20C3149000A53002007E0172001294D
:1014100004D8063189000A510020FFE730BDC046DC
:10142000F0B5474680B40C1C904600280CD1002A29
:101430000DDD8F18094E0A4D3068211C2B68984726
:101440000134BC42F8D104E00120404202E0002017
:1014500000E0404604BC9046F0BDC046AC0C002005
:10146000A40C0020F0B5474680B40E1C151C0138B2
:10147000022810D8002A11D000240D4B98460D4F99
:1014800043461868315D3B689847002808DB013403
:10149000A542F5D107E00120404205E0002003E02D
:1014A0000120404200E0201C04BC9046F0BDC04634
:1014B000AC0C0020A80C0020F0B55F4656464D4607
:1014C0004446F0B491B0051C0C1C161C2960081C85
:1014D000AD4B9847021C23680520D90700D54BE186
:1014E00023681C209F0700D546E1A84B186A911C71
:1014F00001278F40391C014319620FA92D27F35D85
:101500000B701432D2B29046101CA14B9847404643
:10151000A04B9847F05D00219F4B9847F37A6B7181
:101520002423F35CAB712523F35CEB71F37E2B7208
:10153000337F6B7229688846081C934B9847143098
:1015400000226B46DA84328A02928023DB019A42BF
:1015500021D08023DB019A4204D880239B019A4248
:1015600011D008E0C023DB01029F9F420FD08023EF
:101570001B029F4203D01027069700270EE0032787
:10158000069700270AE010270697012706E008279C
:101590000697012702E00827069700273168039184
:1015A000F268914673690493317E8A462623F35C80
:1015B0009B467368002B13D08022520593422ED194
:1015C0002723F35C002B2ED1376AC0B2734B9847A8
:1015D000011C381C6A462632714B9847031C1FE0D9
:1015E0002723F35C002B0AD0069A0092306AB16A76
:1015F0006A4626323B1C6B4FB847031C10E0316A29
:101600000791C0B2654B9847011C069A0092079853
:101610006A4626323B1C634FB847031C00E0002398
:10162000181E00D0A8E0737E002B02D0B37E414686
:101630008B732A68029FD369002BFCD102976B46FB
:1016400026331B88424693814B46039F3B43049FAE
:101650003B4371680B43029F1F43524613021F43D3
:1016600059464B071F432723F35C002B01D104236A
:101670001F43717E8902337F5B021943F27AB37A8A
:1016800013431943737F1B0219432423F35C5B0448
:1016900019432523F35C1B0419433389FF2B0BD01B
:1016A000F27E002A03D0A022D204174302E0802257
:1016B00052041743194305E0F37E002B02D0802328
:1016C000DB041F432C23F35C002B03D1364B9B78A8
:1016D0009A0701D580231F432A68D369002BFCD1C8
:1016E000434659602A68D369002BFCD141460F60FC
:1016F0000EAB80221A7000225A70DA709A70326B28
:101700000A92736B0B93B76B0C97F66B0D960027D1
:101710000EAEF9B2BB000AAA9858002802D1201CCC
:10172000224A9047431C05D03070000CC0B2311CD7
:101730001F4A90470137042FEBD10023EB602B6148
:101740006B61AB61EB612B62AB626B620022EB857C
:10175000AB853023EA543123EA543223EA5433234D
:10176000EA542868084B9847041C1249124B9847C2
:10177000A400124BE550002011B03CBC90469946A5
:10178000A246AB46F0BDC046110B0000000400406D
:1017900081430000F5420000390900009D4300002C
:1017A000610700008907000000200041890900004E
:1017B0005D44000065180000051A0000B00C002010
:1017C00010B5021C0368C4791C20002C0DD0D28DEA
:1017D00092B20520002A08D1DA69002AFCD11985C5
:1017E00002211A7E0A42FCD0002010BD10B5031C55
:1017F000046882791C20002A33D09B8D9BB205207F
:10180000002B2ED1237E5A072BD5E369002BFCD168
:10181000638BDBB29A0621D09A0703D50223638338
:101820001A201EE05A0703D5042363831E2018E004
:10183000DA0703D501236383132012E0DA0605D506
:10184000628B10231343638342200AE09A0605D576
:10185000628B202313436383412002E0238D0B809E
:10186000002010BDF8B58000644BC5582C68E369B2
:10187000002BFCD1237EA67D1E403123EB5C302261
:10188000AF5C1F40F10720D5EB8D9BB2002B1AD027
:10189000AB6A1A78D2B2591CA9626979012904D1BC
:1018A000597809020A430233AB62D305DB0D238565
:1018B000EB8D013B9BB2EB85002B06D101232375F9
:1018C0000223A37501E001232375B20709D5022382
:1018D000237500223323EA54FB0702D5281CE9684C
:1018E000884772076AD5AB8D9BB2002B64D0638B9F
:1018F000DBB2190702D43F22134001E03722134024
:10190000002B37D09A0707D51A223223EA54628B6C
:1019100002231343638327E0590707D51E2232238E
:10192000EA54628B0423134363831DE0DA0707D56F
:1019300013223223EA54628B01231343638313E09F
:10194000D90607D542223223EA54628B102313436F
:10195000638309E020221A4206D041223223EA544E
:10196000628B2023134363837A0727D5281C6B6976
:10197000984723E0228DD205D20DD3B2696A0B704D
:101980006B6A591C69626979012904D1120A5A707B
:101990006B6A01336B62AB8D013B9BB2AB85002B55
:1019A0000CD10423237500223223EA54BA0705D54B
:1019B000281C2B69984701E004232375F10607D5FD
:1019C000102323752376FA0602D5281CEB69984765
:1019D000B10607D52023237523763A0702D5281CA4
:1019E000AB699847310707D5082323752376BA06D4
:1019F00002D52B6A281C9847F8BDC046B00C0020C1
:101A00007047C046F0B50A4B1B78002B0CD1094F2C
:101A1000094E0A4D0024DE515A1914600433182B64
:101A2000F9D10122024B1A708000024BC150F0BD67
:101A3000A8000020AC000020011A0000B00C00201B
:101A400010B582B0041C684605490622054B98472C
:101A5000201C054B98476B46185602B010BDC04677
:101A6000305F0000254E0000110B000008B5024B4E
:101A70001B680020984708BDAC00002008B5024B49
:101A80005B680120984708BDAC00002008B5024BF8
:101A90009B680220984708BDAC00002008B5024BA7
:101AA000DB680320984708BDAC00002008B5024B56
:101AB0001B690420984708BDAC00002008B5024B04
:101AC0005B690520984708BDAC0000201723002A59
:101AD0000FD18B00084A9A58002A04D1191C064BD2
:101AE000C850002305E01D23121A501E82415242A5
:101AF0001340181C7047C046540C002017230029BF
:101B000007D100231F2800D8034B01228240DA604E
:101B10000023181C7047C0460018004070B5002212
:101B2000164B1A7000231F26154D144C1F2B10D96D
:101B300019E0144900E000210A619B005B59002B69
:101B400000D0984723780133DBB223700F2B14D8D1
:101B5000ECE7321C1A40012191400A1C094909692D
:101B60001142E6D1EEE7321C1A40012191400A1CD5
:101B7000002109691142DED1E4E770BDC80C0020E4
:101B8000540C00200018004010B50020084B984766
:101B9000084CFA218900A047074B1860FA218900F8
:101BA000A047064B18600522054B1A6010BDC046C1
:101BB00069420000354C00000400002000000020B5
:101BC00010E000E030B5084B1C68084A0025802171
:101BD000490206E0002C04D05460956013680B4263
:101BE000FCD00138F6D230BD0000002010E000E04B
:101BF00030B5084B1C68084A00258021490206E0E0
:101C0000002C04D05460956013680B42FCD001385E
:101C1000F6D230BD0400002010E000E008B50E4907
:101C200000230B714B710B8058228B520B1C083315
:101C30004831002204C38B42FCD1084B9847084B23
:101C40009847084B9847084B9847084B9847084BCC
:101C50009847084B984708BDCC0C00205D2F00002A
:101C6000BD270000651E0000151D0000651F000057
:101C7000292C0000E124000008B5024B1880024B1B
:101C8000984708BDCC0C00209133000008B5024BEA
:101C90005880024B984708BDCC0C002071330000DF
:101CA00002308000014BC1507047C046CC0C002070
:101CB00008B5044B9847044B9847044B9847044B8E
:101CC000984708BD592800006D310000211D000013
:101CD0001D2D000008B50D4B1B68002B12D05A6853
:101CE00082420CD102E05A68824208D18522825C8D
:101CF0001A778822825C5A7702221A7202E01B68E5
:101D0000002BF0D1024B984708BDC046C40000200C
:101D1000F11E00000022014B1A607047C400002031
:101D200038B54A4B1A68002A00D18DE0141C237A7A
:101D3000002B02D0022B6DD082E0454B9847051E48
:101D400003D10223237223777EE060600122227296
:101D5000404B89214354180A8A216854180C8B215E
:101D600068541B0E8C216B54A07B80080123184003
:101D700088216854A17B1940E87A9043021C0A43E9
:101D8000EA72A17BC90819408900D2B204208243BB
:101D90000A43EA72A27B520813405A00EB7A0221EE
:101DA0008B431343EB722C4B1A790132D2B21A7166
:101DB0002A731A786A735B78AB736389A27AEA73C1
:101DC0001B0A2B74617B0F2319406A7C0F2082430E
:101DD0000A436A74227B1201697C0B4013436B74C3
:101DE0008123EB5C8222A85C000218438323EB5C16
:101DF0001B0418438423EB5C1B061843227D2169D6
:101E0000164B9847227D6B78D3186B70281C144BA7
:101E1000984719E0944203D10C4B22681A6006E0FF
:101E200013689C4201D01A1CFAE7236813600A4A1F
:101E30005823D15A0139D152A369201C984703E095
:101E40002468002C00D072E738BDC046C4000020D2
:101E5000811E0000D51C0000CC0C0020254E000087
:101E6000912F0000044B054A991800221A708D33F7
:101E70008B42FBD17047C046C8000020820500009D
:101E800070B5184B1B78002B07D0164A8D320123F2
:101E9000181C117800291DD100E00020114E8D255D
:101EA00045437419201C00218D220F4B98471023A5
:101EB0006370231C8033201C12305870020A9A7001
:101EC000020CDA70000E1871084A5823D15A0131F9
:101ED000D15204E001338D320A2BD9D10024201CC9
:101EE00070BDC046C8000020374E0000CC0C00205A
:101EF00000230370024A5823D15A0139D152704746
:101F0000CC0C0020002806D08D300C4B0C4A9B18BE
:101F1000984201D30FE009480378002B0CD1074AFF
:101F2000074BD21802E00378002B05D18D30904288
:101F3000F9D3002000E000207047C046C800002010
:101F40008205000000228523C254054B1A79013214
:101F5000D2B21A7102731A7842735B788373704736
:101F6000CC0C0020F0B5094A0232002301277F4241
:101F70000648012600251780D9000C5CB4430C5498
:101F8000157101330832642BF5D1F0BD4C060020E9
:101F900070B50B4A02320023094E1488844209D1DD
:101FA000DC00A45DA407E40F8C4203D1DD000448EB
:101FB000401904E001330832642BEED1002070BDDB
:101FC0004C06002010B500221048C824A4000119B6
:101FD0000378DC070BD48379002B0CD0002A03D0C4
:101FE00094799C4202D802E0021C00E0021C0830F6
:101FF0008842EDD1101C0378022293430F22134034
:102000003022134303708023837110BD4C060020DF
:102010000378DA0704D401235B42438000238371F1
:102020007047C04608B5044B9847002801D0808807
:1020300000E0024808BDC046911F0000FFFF0000FD
:10204000F8B5061C0D1C141C1F1C0C4B98470028CF
:1020500001D10B4B98474680848001231D406B00C3
:102060000578022295431D430F231D4030231D4355
:10207000057080238371C771F8BDC046911F0000B1
:10208000C51F000008B5034B9847002801D0024B3C
:10209000984708BD911F0000112000007047C046FE
:1020A00010B5041CC37B007C000218431B4B9842F4
:1020B00032D0E17A0907C90F194B984700282BD075
:1020C0000378DA0728D48523E35C002B17D1037843
:1020D0000F22134030221343037083790133DBB2A4
:1020E0008371FF2B18D10F498B1D0F4A89181A785D
:1020F000520801321A7008338B42F8D10CE0027892
:1021000013090F330F210B401C010A4022430270B8
:10211000002B01D1054B984710BDC046FFFF0000C2
:10212000911F00004C060020260300001120000033
:1021300038B5041CC27B007C000210430E4B984251
:1021400004D101235B42E371237214E0E37A5A075E
:1021500003D5E071000A20720DE0E17A0907C90F8A
:10216000064B9847E071030A2372034B984202D151
:10217000201C034B984738BDFFFF000025200000BE
:102180000D250000F0B5474680B4041CC27B067CD8
:1021900036021643C77A3F07FF0FF9B2301C284BAF
:1021A0009847284B98420FD000228923E2548A2373
:1021B000E2548B23E2548C23E25402228823E2541B
:1021C000201C214B984738E0627BA37B1B02134302
:1021D00098461E4B9847051E2CD01D4B98476B7890
:1021E00006336B7000228923EA548A23EA548B2336
:1021F000EA548C23EA54FF2143461940E9731A0A32
:102200002A748123E85C8223EB5C1B020343832056
:10221000285C000403438420285C0006034301205B
:10222000187059709A70DE70360A1E715F71281C22
:10223000054B9847201C074B984704BC9046F0BDBF
:1022400025200000FFFF0000912F0000811E0000EC
:10225000451F0000F11E000008B58268037B0020C6
:10226000062B07D1D3781079000218435179024B1D
:102270009847012008BDC04685200000F0B50D4BF1
:1022800000245D89002D0ED01D8885420BD15D880C
:102290008D4208D11D79954205D163001F19BF00F9
:1022A0000448C01904E001340C33052CE9D10020A6
:1022B000F0BDC0468009002010B5114B5B89002B92
:1022C00007D00F4A16320123181C1188002910D19B
:1022D00000E00020440020188000094C241800234E
:1022E00023726372FA239B0063810648064B98476A
:1022F00004E001330C32052BE6D10024201C10BD74
:10230000800900206C09002099360000F8B55F466E
:1023100056464D464446F0B48346264B1C1C0A34B0
:102320001D1C3C3398460027221C2388642B03D9AC
:10233000643B238001272DE000232380AA462988BF
:102340001D480388994225D1013A1278914600260A
:102350001BE03378402B18D1F17B337C1B025046B5
:1023600042880B439A4210D1F37A1B070279DB0FA4
:102370009A420AD14946002903D0301C0F4B984796
:1023800003E0301C11210E4B9847301C0D49884743
:10239000061EDED10C340C354545C5D1002F02D0C8
:1023A0005846094B98473CBC90469946A246AB46D6
:1023B000F8BDC04680090020CC0C0020912F000001
:1023C00019310000051F00009936000070B5051C8A
:1023D0000E1C1E4B9847041E36D01D4B9847637841
:1023E0000733637000228923E2548A23E2548B234B
:1023F000E2548C23E254E27A04231343E372012370
:102400005B42E37323748123E25C8223E35C1B025F
:1024100013438322A25C120413438422A25C12069B
:10242000134302221A702A885A70120A9A706A8814
:10243000A978D970120A1A712A795A719E71201CD2
:10244000044B9847012000E0002070BD811E000071
:10245000451F0000912F0000F8B5051C0F1C161C2D
:102460001C4B9847041E34D01B4B984763780833A5
:10247000637000228923E2548A23E2548B23E254BE
:102480008C23E25404228823E254EB88E3731B0A72
:1024900023748123E25C8223E35C1B0213438322C7
:1024A000A25C120413438422A25C1206134303228B
:1024B0001A7028885870000A98706A88A978D970AC
:1024C000120A1A712A795A719F71DE71201C034B0E
:1024D0009847F8BD811E0000451F0000912F0000A5
:1024E000074B00225A81DA825A84DA855A87054BD3
:1024F00064229A6000221A73034A1A617047C04628
:10250000800900206C0900200D23000010B5041C78
:10251000174B1888E27B217C09021143E27A1207EB
:10252000D20F144B9847002802D0402323701EE09E
:10253000114B9847002816D00D4B1B880380E17B78
:10254000227C12020A434280E37A1B07DB0F0371ED
:1025500001235B42C380FF21084B9847002802D02B
:102560004023237003E0201C1121054B984710BD28
:10257000CC0C00207D220000B9220000CD230000F9
:1025800019310000F0B5474680B4051C8468037B10
:102590000020072B69D16279002A5BD1344B1B885C
:1025A000E078217909020143C91A48424141C9B280
:1025B00088466178A07800020843834242D04146B1
:1025C000002902D11BB2002B3EDBA3796F7B5F4356
:1025D0003F0AE378217909021943264B9847061EE2
:1025E00004D0037A0120BB4204D33EE0224B98473B
:1025F000061E2BD06278A3781B0213433380E27847
:1026000023791B0213437380637933712B88F38022
:1026100037724346002B0FD06378A078000218432E
:102620002A8800213B1C154CA047301C391CFF2276
:10263000134B9847012018E0301C391C114B984768
:10264000012012E0012010E001200EE001200CE04A
:1026500001200AE06378A07800021843044B1B882D
:102660009842F5D000218846ACE704BC9046F0BD06
:10267000CC0C00207D220000B92200004120000087
:1026800059240000CD230000F8B5051C8468037BA5
:102690000020082B43D16378A07800021843E37828
:1026A00021790902194362791D4B9847061CE37989
:1026B0006A7B002832D0A179477A01208F422ED23E
:1026C00071726778A17809021648008839438842F8
:1026D0000AD1E37820790002184361792A88A37926
:1026E000114CA04701201AE053431F0AE3782079D8
:1026F0000002184361792A883B1C0B4DA847637878
:10270000A07800021843F288337A0021A847A17903
:10271000301C3A1C054B9847012000E00120F8BD11
:102720007D220000CC0C0020412000005924000034
:1027300008B5027B0023002A1BD082681378012B86
:102740000AD0002B04D0022B0AD0032B0CD00FE0B0
:10275000094B9847031C0CE0084B9847031C08E002
:10276000074B9847031C04E0064B9847031C00E006
:102770000023181C08BDC046DD30000059220000AF
:10278000852500008926000038B50A490B1D313126
:10279000FF31002401251A78002A02D0013A1A706C
:1027A0002C1C06338B42F6D1002C01D0024B9847EB
:1027B00038BDC046BC0900209936000008B50A495A
:1027C0000B1D3131FF3100221A7006338B42FBD1D1
:1027D000064B64229A6000221A73054A1A6100208F
:1027E0000449054B984708BDBC090020EC0A0020AD
:1027F0008927000031270000A11C000010B5041C2F
:1028000003685A78882A1AD11B7820229343412BD7
:1028100015D103790F2B12D9094B984700280ED0F8
:10282000202303702379437062798523C254A279EF
:102830008623C254023022792168024B984710BD8A
:10284000811E0000254E0000002902D022230370C3
:1028500001E0242303707047F0B557464E464546C5
:10286000E0B484B00024D54DD54E2D36FF369FE11F
:102870002378203BDAB2042A00D999E19300D14AA7
:10288000D3589F4624232370E37A180700D58FE19D
:102890006179A27912020A43CB4B9A4214D1E27BAE
:1028A000237C1B021343C94A12889A4203D0C64AAA
:1028B000934200D07CE1E37A990702D5212323706B
:1028C00076E12223237073E1E17B227C12020A432A
:1028D000BD4B9A4203D1E37ADA0700D568E1617B08
:1028E000A37B1B02B94A12880B439A4200D15FE1D5
:1028F000201CB74B9847B24B0027B846A01C191CA8
:102900001A79002A37D0C27A077B3F02BC461F885B
:10291000BA4667463A4392452ED1227B9B789B1A52
:10292000DBB2072B1CD8CA78101C1841C70712D578
:10293000E179237A1B02A54A12880B439A4200D000
:1029400036E1E27B207C00021043E17A0907C90FDF
:10295000A04B98472CE1012098400243CA7051E1F6
:102960008A70CA785B42DBB29A4001231343CB7072
:1029700015230B7146E198460633B342BFD140465A
:10298000002800D114E1617BA27B12020A4302807D
:10299000237B83700123C370152303718E488F4BF3
:1029A00098472FE1894B1A88E07B237C1B02034365
:1029B0009A4210D0E17A4F070AD4201C884B9847DE
:1029C000824B1A88E07B237C1B0203439A4202D08D
:1029D0007D498B4208D1E37A980702D521232370E1
:1029E000E6E022232370E3E0E179237A1B020B4324
:1029F0009A4200D0DCE023232370D9E0201C002180
:102A0000784B9847D4E00022774B1A70617C090913
:102A1000CAB2023292006D4BD258002A62D0A31C77
:102A2000677BA07B0002384380466F463880E77B97
:102A3000207C00020743B946381C6F467880677CCB
:102A40003F073F0F6846077141718121615C822019
:102A5000275C3F0239438320275C3F0439438420AD
:102A6000275C3F0639430291591A8C4661786144CC
:102A7000684601738521615C41738621615C8173C5
:102A8000E37AD907C90F02273B400B43DBB2E17A57
:102A90004907C90F49010B43E17A0907C90F8901A9
:102AA0000B4352490F1C4F4479424F41BF003B43F7
:102AB000677AA17A090239434746781A4142484168
:102AC000C0000343684683716079A179090201431C
:102AD000464FC9194842414109010B436846837179
:102AE000904700E00020E37ADB07DB171840E3792A
:102AF000227A12021A43344B9A420BD1E17B237C97
:102B00001B02324A12880B439A4203D1E37A190717
:102B100000D401206379A27912021A432A4B9A4207
:102B20003CD02A4B1A88284B9A4237D0002835D0FF
:102B30002F4B9847071E31D02E4B98477B78033395
:102B40007B7000228923FA548A23FA548B23FA5487
:102B50008C23FA54E27A02231A40FB7A02218B4337
:102B60001343FB72627BA37BFA733B748123FA5C91
:102B70008223FB5C1B0213438322BA5C12041343BF
:102B80008422BA5C1206134300221A70164A127885
:102B90009A70227B5A70381C174B98472423237055
:102BA00006E0201C154B984702E0201C144B984768
:102BB000201CA847041E00D05AE62CE0051F000088
:102BC000BC090020385F0000FFFF0000CC0C002093
:102BD0009D20000085200000EC0A002099360000AE
:102BE00051300000552C0000E80A00200100FFFFD2
:102BF000811E0000451F0000912F0000852100006C
:102C0000F11E0000E179227A12020A43054B9A4232
:102C100000D0D5E6C6E604B01CBC90469946A24654
:102C2000F0BDC046FFFF00000023024A1370024AB5
:102C300013607047000B0020040B002008B5011C36
:102C400002481022024B984708BDC046140D0020D0
:102C5000254E0000002902D03023037001E031230B
:102C60000370024B1A7801321A707047000B002073
:102C7000F0B5474680B4244B1E68244B1B78984619
:102C80008123F35C8222B15C090219438323F45C43
:102C9000240421438423F45C2406214341441C4B37
:102CA0001B789C461F1C102B00D91027FFB2002F49
:102CB00016D0184B1D780B1C174A7C1EE4B20C1959
:102CC00001341078197841401970002D01D011702D
:102CD00002E010784140117001330132A342F0D17B
:102CE0004346FA18094B1A706346DF1BFFB2084BC4
:102CF0001F70002F02D03223337001E03423337071
:102D000004BC9046F0BDC046040B0020080B002018
:102D1000090B00200A0B00200C0B002030B583B0FB
:102D2000564B1B78002B00D1A5E0554B1C68002C9E
:102D300000D19BE02378342B45D18123E35C8222B0
:102D4000A15C090219438323E35C1B041943842318
:102D5000E35C1B0619434B4B1B78C9184A4B5D6853
:102D60001A6855409A685540DB685D400095474BAE
:102D70001B78002B09D0081C69460422444B984755
:102D8000637804336370012108E001A80422404BFA
:102D90009847019BE91A4D426941C9B23B4B1B78E8
:102DA000002B04D0364B18683A4B984703E0344B5D
:102DB0001868394B98470022314B1A602F4B1A780C
:102DC000013A1A7057E0322B55D1332323702E4825
:102DD0003249334B98474EE00378303B012B47D8BC
:102DE000274B1860284A017B1160C17B047C2402B8
:102DF0000C432404417C090921435160417B847BBD
:102E000024020C432404417C0907090F21439160EB
:102E1000C17A447983791B0223431B040B43D3609B
:102E20000378312B02D14378043B4370831C812209
:102E3000815C8222825C12020A438321415C090484
:102E40000A438421415C09060A439A1A4378D2183E
:102E5000144B1A7000220B4B1A700278303A53420E
:102E60005A410A4B1A703223037004E000200E4CC2
:102E7000A0470028B0D103B030BDC046000B0020F1
:102E8000040B0020080B00200C0B00200A0B002074
:102E9000254E00002531000049280000140D0020B7
:102EA00085350000090B0020051F0000F0B54746DE
:102EB00080B48046002700200F4C8626872510E02E
:102EC0000378112B0DD1825D435D1B021343013B3F
:102ED0009BB283551A0A42550127002B01D11323B7
:102EE0000370A0470028EBD1002F02D04046034BCF
:102EF000984704BC9046F0BD051F000099360000BD
:102F0000F0B5474680B4804600270020114C862645
:102F1000872513E00378162B10D1825D435D1B02D9
:102F20001343013B9BB283551A0A42550127002BDC
:102F300004D11723037010228523C254A047002810
:102F4000E8D1002F02D04046034B984704BC90467E
:102F5000F0BDC046051F0000993600000022074B57
:102F60001A60074B322199601A7306491961064BA2
:102F70000A2199601A73054A1A617047300B0020C4
:102F80001C0B0020012F0000340B0020AD2E000090
:102F900010B5041C8823C35C990702D51222027065
:102FA00007E0C27A910702D51022027001E01222D6
:102FB000027000218522A154DA0704D5012149427B
:102FC0006171A17104E01E4988786071C978A171AE
:102FD00005221A4203D1201C1A4B984703E0E17BDB
:102FE000227CE1712272164A117861725178A172C5
:102FF00051790131C9B251712171E179227A1202FC
:103000000A43114B9A4210D14123A37078235B42AB
:10301000E3700E4B98470723184001308623E05495
:10302000000A80B28723E05409E06123A37078236B
:103030005B42E37000228623E2548723E25410BDF2
:10304000CC0C002031210000FFFF0000814E000069
:1030500038B5051C1D4B9847041E36D0122303704B
:103060006B78437000228523C254194B984707237D
:10307000184001308623E054000A80B28723E054D0
:1030800000228923E2548A23E2548B23E2548C23C6
:10309000E254A01C6A78A91C0E4B98474123A370E8
:1030A00078235B42E37001235B42E37123726A7908
:1030B000AB796271A371084B1A7862725A78A27266
:1030C0005A790132D2B25A71227138BD811E000084
:1030D000814E0000254E0000CC0C002038B58568DC
:1030E000037B0020032B13D10DE00378162B0CD1AA
:1030F000027B6B789A4208D117230370AA78882341
:10310000C254012004E00020024CA0470028ECD16A
:1031100038BDC046051F0000172303708523C15426
:103120007047C046122303707047C0460D4B1B68A2
:10313000012809D0002803D02122022805D001E06F
:10314000002202E0012200E0202285215A541522AB
:103150001A700022034B1A60034A5823D15A0139CE
:10316000D1527047300B0020CC0C002070B50024E9
:10317000374D384E66E02378103BDAB2072A61D823
:103180009300F3589F46201C0121334B984759E088
:103190008623E25C8723E35C1B02134305D01123E3
:1031A00023702E482E4B98474CE01323237049E0A0
:1031B0002C4B1B68002B45D12A4B1C601423237019
:1031C000601C294B9847294A5823D15A0131D152C2
:1031D00038E08523E35C002B19D1617BA37B1B02C4
:1031E000224A12880B439A420ED1E37ADA070BD5B2
:1031F0001623237015228623E25400228723E254EB
:103200001B48174B98471DE0172323701AE017231C
:10321000237017E0201C174B98478923E25C8A2310
:10322000E35C1B0213438B22A25C120413438C2227
:10323000A25C1206134303D1201C0F4B984701E0F8
:10324000201C9847201CA847041E94D170BDC0467E
:10325000051F00004C5F0000552C0000340B0020BF
:1032600099360000300B0020E1330000CC0C002028
:103270001C0B0020A1200000F11E0000F8B5041C6A
:103280000B4F0C4E1F2502200321B8470120B047E9
:1032900028400828F7D1064F064E1F250220211C82
:1032A000B8470120B04728408442F7D1F8BDC04656
:1032B000213B0000293A000008B50820064B98473A
:1032C0000F20064B9847064B1B78002B02D0162088
:1032D000014B984708BDC0467D320000293A0000E6
:1032E000C90B002070B50E4B98470E4B9847002233
:1032F0000D4B1A7001220D4B1A700D4E0D4D1F24EF
:1033000002200821B0470120A84720400828F7D113
:1033100004202E21064CA0470C208021A04770BD20
:10332000D5380000F9390000C90B0020C80B002077
:10333000213B0000293A000008B5024B1870024BEF
:10334000984708BDC90B0020B932000010B5041C15
:103350000820054B98471F23011C99430C43E1B2F9
:103360000820024B984710BD293A0000213B00007D
:1033700030B583B06C46E080C1B22220034DA8472F
:10338000E1792320A84703B030BDC046213B0000AF
:1033900070B582B06D46E8800635C6B22020311C7B
:1033A000054CA0476D782120291CA047AE19F1B229
:1033B0002D20A04702B070BD213B000010B5041CB9
:1033C0000520054B98470F23011C99430C43E1B29C
:1033D0000520024B984710BD293A0000213B000010
:1033E00010B5041C19200C4B98470F200B4B984725
:1033F00021788B1C23700131C9B2201C084B9847DF
:103400000322084B1A70084B802252039A61C0466F
:10341000C0465A6110BDC0467D320000293A000006
:103420005D3D0000C80B002000440041F0B585B0B0
:10343000264B1B78022B46D00F20254B98470307BD
:1034400041D5224B1B78012B24D10720204B9847D4
:10345000071C6C460734201C01211E4EB0471E4D30
:1034600021780231C9B2281CB04702A86A1C029216
:103470002278911E0171AD186A7842715B3F8771A5
:10348000164B9847124D1F240120A84720401628AC
:10349000FAD118E0032B16D102200D4B98474409AE
:1034A000E4B2002C07D0032C04D0053C631E9C41E1
:1034B000023400E001240A4B98470122034B1A70A2
:1034C000201C084B984705B0F0BDC046C80B002033
:1034D000293A00001D3C0000480B0020FD27000099
:1034E000B93200002D31000008B5034B9847034B5B
:1034F0009847034B984708BD31360000E53200007D
:103500001D1C000008B5034B9847034B9847034B1D
:10351000984708BD2D340000B11C0000B5360000EE
:10352000F0B54F464646C0B484460468426800235E
:103530000325124881462E1C1E40B6007758DF191D
:103540005609B046160140464640B6187E40A419BA
:103550000B4E9B19670926017E403619DF0A2F4062
:10356000BF007F58DF197E4092194B45E3D160467A
:10357000046042600CBC90469946F0BD2037EFC60F
:10358000B979379E70B5041C0E1C084DA847A36876
:1035900022685340A360E36862685340E360201CE4
:1035A0000830311CA847024B984770BD21350000F8
:1035B000712C000030B5154B1D68002D1ED082689F
:1035C00069682C1C8A420AD204E05968914203D8E7
:1035D0001C1C04E02B1C0024891A596003E0521AB9
:1035E0002368002BF1D14260002C03D023680360D4
:1035F000206009E00560054B186005E000230360CA
:1036000083684360014B186030BDC046CC0B00207E
:1036100008B5044B1A780132D2B21A700248034B33
:10362000984708BD280D002010270000394B0000E6
:1036300010B50024064B1C700648074B9847074BF3
:1036400098470748074B9847074B1C6010BDC0467A
:10365000280D002011360000294C0000A54B000069
:1036600010270000394B0000CC0B0020094B1B68D1
:10367000002B09D0834202D108E0984208D01B6891
:10368000002BFAD1002004E0002002E0012000E03D
:1036900001207047CC0B002010B5041C034B984749
:1036A000002802D1201C024B984710BD6D36000047
:1036B000B5350000F8B51A4B1B78002B2FD0EFF36F
:1036C000108072B6BFF35F8F0021164B1970144A39
:1036D0001378DBB21170002805D10121114A117055
:1036E000BFF35F8F62B69D00ED186D000E4E371C64
:1036F0000DE0ED1A23683B60237B012B02D1201CD7
:103700000A4B98472369002B01D0201C9847346846
:10371000002C04D063689D42EBD25D1B6560F8BD50
:10372000280D002008000020CC0B0020B53500003B
:1037300008B5014B984708BD0D4C000008B5014B7A
:10374000984708BDC54B000008B50248024B984792
:1037500080B208BD600D00209D130000034B1022B5
:1037600019680A73597E914359767047600D00209D
:1037700010B50A4C20680A4B98470A4B1B5C1F2265
:103780001A40012393401A1C074B1A60627E1023D3
:1037900013436376236810225A7310BD600D002016
:1037A000F11000006C5F000000E100E008B5021CB1
:1037B00002480021024B984708BDC046600D00201A
:1037C000CD130000F8B54F464646C0B42D4A00233D
:1037D00013709370002193809171138151709172D5
:1037E000D172117391735173117453619361117795
:1037F000136253621385938501235B425385224CE8
:10380000201C2249224B9847201C22490022224D8D
:10381000A847201C21490222A8472068204A914637
:103820009047204B98461B5C1F273B4001252A1CD4
:103830009A401D4E3260627E0123134363762068F6
:103840004573C8474246135C1F40BD403560627EE9
:103850001023134363762268102353737F21D37B95
:103860008B43FCD1118802230B43138000200F4BA4
:1038700098470F490F4B9847C0B20CBC90469946E9
:10388000F8BDC0462C0D0020600D0020002C004229
:10389000291100003D3700003110000031370000D1
:1038A000F11000006C5F000000E100E069420000E0
:1038B00040420F00354C000008B50122034B1A614D
:1038C000034B1B68002B00D0984708BD0018004030
:1038D000D00B0020F0B585B0354A002353709370AB
:1038E0003F211170334C21706370A370012269462F
:1038F0004A708B700A703F202F4B98472378D90964
:103900000022002903D15A09D2012C4952181F273D
:103910003B400124211C99409161294A14700023E5
:1039200053609360137453749474D4741375242186
:103930005354D361136280235B02D360214B9361A4
:10394000214B936201235B42D362204B1363204BD4
:103950005363204E301C2049204B98473568281C63
:103960001F4B98470740BC401E4B1C603268D36910
:10397000002BFCD12B68022633432B6001AC201CAA
:10398000194B98472023019380239B036360267281
:10399000012363720022A272E3720020211C134BE8
:1039A0009847134800210022124B984705B0F0BDFC
:1039B000800D0020840D0020293F000000440041BC
:1039C000880D002000093D000500530005003E0061
:1039D00005005200C00D0020001800424D0B0000F1
:1039E000411A000000E100E0D5060000E9060000F1
:1039F000B9380000CD1A000070B5094B1C1C80348A
:103A000080252D02A561802252035A61A520400025
:103A1000044EB04765610A20B047A56170BDC0463D
:103A200000440041C51B000070B5061CEFF3108474
:103A300063425C4172B6BFF35F8F0022334B1A7052
:103A4000334D281C33490122334B98472B68012101
:103A50001A7E0A42FCD01A7ED10702D58022164374
:103A60009E6202211A7E0A42FCD004211A7E0A427A
:103A7000FCD01A7E510714D55A8B510703D5598BA8
:103A800004220A435A83224A9279012A05D1996A6B
:103A9000C905C90D214A118003E0996AC9B21F4ABC
:103AA000118001211A7E0A42FCD01A7ED10701D56D
:103AB00000229A6202211A7E0A42FCD004211A7E58
:103AC0000A42FCD01A7E0025510710D55A8B5107A7
:103AD00003D5598B04220A435A830D4A9279012A4D
:103AE00003D19D6AED05ED0D01E09D6AEDB2084838
:103AF00008490022084B9847002C05D00122034BAF
:103B00001A70BFF35F8F62B6E8B270BD0800002084
:103B1000C00D0020840D0020650D00007C0D0020EC
:103B2000F8B5071C0D1CEFF3108463425C4172B6BC
:103B3000BFF35F8F0022344B1A70344E301C34496F
:103B40000122344B9847336801211A7E0A42FCD087
:103B50001A7ED10702D5C02217439F6202211A7E26
:103B60000A42FCD004211A7E0A42FCD01A7E510778
:103B700014D55A8B510703D5598B04220A435A8313
:103B8000224A9279012A05D1996AC905C90D224AAA
:103B9000118003E0996AC9B21F4A118001201A7E80
:103BA0000242FCD01A7ED10700D59D6202211A7E06
:103BB0000A42FCD004211A7E0A42FCD01A7E510728
:103BC00014D55A8B510703D5598B04220A435A83C3
:103BD0000E4A9279012A05D19A6AD205D20D0E4B6E
:103BE0001A8003E09A6AD2B20B4B1A800748084940
:103BF0000022084B9847002C05D00122024B1A7076
:103C0000BFF35F8F62B6F8BD08000020C00D002032
:103C1000840D0020650D00007C0D0020F0B55F468E
:103C200056464D464446F0B483B0061C0C1CEFF3D8
:103C3000108778427841019072B6BFF35F8F0022FF
:103C4000414B1A70414D281C41490122414B984774
:103C50002B6801211A7E0A42FCD01A7ED10701D5B9
:103C600020229A6202211A7E0A42FCD004201A7E87
:103C70000242FCD01A7E50070FD55A8B510703D54C
:103C8000598B04220A435A83304A9279012A09D176
:103C90009A6AD205D20D304B1A80631EDBB2002C1B
:103CA00005D13CE09A6AD2B22B4B1A80F5E701337A
:103CB0009B1999462020254A9046012400239A46C4
:103CC00002250421171C04229346424613681A7EDB
:103CD0002242FCD01A7E224201D052469A621A7EBB
:103CE0002A42FCD01A7E0A42FCD03B681A7E0A4265
:103CF00011D05A8B0A4204D05A8B5846024392B2D2
:103D00005A8312488279012A03D1986AC005C00DEE
:103D100001E0986AC0B2307001364E45D5D10B48EB
:103D20000B4900220B4B98470199002905D001222D
:103D3000054B1A70BFF35F8F62B603B03CBC904670
:103D40009946A246AB46F0BD08000020C00D0020F9
:103D5000840D0020650D00007C0D0020F8B54F4655
:103D60004646C0B4041C0D1CEFF31086714271412D
:103D7000894672B6BFF35F8F00223C4B1A703C4FEE
:103D8000381C3C4901223C4B98473B6801211A7E74
:103D90000A42FCD01A7ED10701D560229A62022124
:103DA0001A7E0A42FCD004211A7E0A42FCD01A7EF6
:103DB00051070FD55A8B510703D5598B04220A435B
:103DC0005A832B4A9279012A0ED1996AC905C90DE5
:103DD0002A4A1180264A92799046261C0127022001
:103DE0000424042294462BE0996AC9B2234A118024
:103DF000F0E71A7E3A42FCD031781A7E3A4200D07F
:103E000099621A7E0242FCD01A7E2242FCD01A7EAF
:103E1000224214D05A8B224204D05A8B61460A4364
:103E200092B25A834246012A05D19A6AD205D20D2E
:103E300012490A8003E09A6AD2B210490A80013618
:103E4000013DEDB2FF2DD4D109480A4900220A4BA9
:103E500098474A46002A05D00122044B1A70BFF346
:103E60005F8F62B60CBC90469946F8BD08000020F2
:103E7000C00D0020840D0020650D00007C0D002089
:103E80000C4B1B68002B10D1EFF31083002B09D1D2
:103E900072B6BFF35F8F0022074B1A700122074BE7
:103EA0001A7002E00022054B1A70024B1A680132A8
:103EB0001A607047D40B002008000020D80B0020A7
:103EC000084B1A68013A1A601B68002B09D1064B8F
:103ED0001B78002B05D00122044B1A70BFF35F8FB3
:103EE00062B67047D40B0020D80B002008000020D9
:103EF000F0B583B001AC012565700027A77025706F
:103F00001320211C064EB04780221203054B9A61F4
:103F1000277065701C20211CB04703B0F0BDC0465F
:103F2000293F00000044004100B583B001AB80226E
:103F30001A700A785A704A789A708A78DA70191C5E
:103F4000014B984703B000BD5D44000008B5082848
:103F500034D880001B4B1B589F468020000230E065
:103F6000194B18692DE0194B186A8005800F184B02
:103F7000C340181C25E0144B586922E0124B1B6803
:103F8000022018401DD011491022CB681A42FCD0E3
:103F90000D4B1B685A0713D500200E4B98470A4B50
:103FA0009B681B041B0C58430BE05023074AD35C4F
:103FB00000205A0705D5044BD86802E0002000E035
:103FC000054808BD705F0000DC0B002000080040C1
:103FD00000127A009D430000006CDC0270B50C4BAF
:103FE0001C6A0178857840780122104080014026C3
:103FF000B44304432A40D00180229443221C02434C
:10400000032001400902034802400A431A6270BDBE
:1040100000080040FFFCFFFF082843D88000224B27
:104020001B589F4600203EE0204B196A02220A439B
:104030001A62002037E01D4B996902220A439A61F7
:10404000002030E0194B198A02220A431A8200200C
:1040500029E0164B998A02220A439A82002022E024
:10406000134B196802220A431A601A68114B1A404E
:104070000E4B9A84191C1022CB681A42FCD00C4AB1
:1040800091680A4BD96251689962126892B29A8417
:10409000002008E0054A4423D05C02210143D154AA
:1040A000002000E017207047945F000000080040E7
:1040B000DC0B00207FFF000030B585B0C222D200AB
:1040C000194B9A60194B5A681E218A435A60012382
:1040D0006A4613700024164DE0B26946A8470134C1
:1040E000252CF9D103A800244470012585700470A3
:1040F000104B98470620104B9847104B9847104B91
:104100001C725C729C7201956B465C7006236A4659
:10411000137014725472002069460A4B98470020AD
:10412000094B984705B030BD0008004000400041F1
:1041300081430000DD3F0000194000004D410000B8
:10414000000400407141000025420000064B9969BF
:1041500008220A439A610122044B1A70191C0B7839
:104160001342FCD17047C04600040040000C0040E0
:10417000F8B5061C071C0D782D0205434B78002B63
:1041800002D08023DB021D434B7A002B02D0802318
:104190001B031D434C68012C17D9631E1C420FD111
:1041A000022C06D90223002201325B009C42FBD87C
:1041B00000E000221702374380235B031D4304E025
:1041C0002702374380239B021D430B7A002B02D02A
:1041D00080239B031D430F4A53785BB2002BFBDB0C
:1041E0000D4B98470D4B1E700A4A53785BB2002B5B
:1041F000FBDB084B9F601A1C53785BB2002BFBDB88
:10420000044B5968802252020A4015435D60044BFA
:104210009847F8BD000C0040813E0000080C0040AB
:10422000C13E000010B5041C0B4A53785BB2002B52
:10423000FBDB0A4B98470A4B1C70074A53785BB26A
:10424000002BFBDB044B5968802252020A435A6060
:10425000044B984710BDC046000C0040813E000052
:10426000040C0040C13E000070B5041C1A4A53788B
:104270005BB2002BFBDB194B9847194B1C70164A9D
:1042800053785BB2002BFBDB134E7068C004C00E8A
:10429000144B9847051C124B1C707668F602F60FFB
:1042A000114B1C700C4A53785BB2002BFBDB0A4BA2
:1042B0009C68240AA4B20D4B9847002E07D1012C0C
:1042C00007D9281C211C0A4B9847051C01E0013422
:1042D000E540281C70BDC046000C0040813E000037
:1042E000040C00404D3F0000080C0040C13E00009F
:1042F000354C000010B5041C064B9847064B1C704B
:10430000064B59888022D2010A435A80044B9847B1
:1043100010BDC046813E0000020C0040000C004071
:10432000C13E000010B5041C0F4B98470F4B1C708A
:104330000F4B58880005000F59880E4A0A405A80D2
:1043400059880D4A0A405A80191C8022D2014B8894
:104350001342FCD1064B01025888064A02400A4328
:104360005A80064B984710BD813E0000020C004069
:10437000000C0040FFF0FFFFFFBFFFFFC13E000049
:1043800010B50C7824020443024B9847A4B2024BA8
:104390005C8010BD25430000000C004010B5041CDB
:1043A000064B9847064B1C70064B5C882405240F6F
:1043B000054B9847201C054B984710BD813E0000D7
:1043C000020C0040000C0040C13E000069420000A9
:1043D00030B5D378002B1ED11378802B04D01B0668
:1043E00080246402234300E0002354780225AC4378
:1043F0000AD19478002C03D18024A402234302E044
:10440000C024E402234341605478013C012C04D8C9
:10441000114C234001E0416000230D042D0CA02429
:10442000E4052C431C4384620D0CD02424062C4349
:104430001C438462D478002C0CD15C0305D593789E
:10444000012B01D1816100E041615378013B012BD7
:1044500000D8816030BDC046FFFFFBFF08B5031CDC
:104460000A1CC1090020002903D15809C0010449D0
:1044700040181F210B4001219940024B984708BD6D
:1044800000440041D14300007047C04608B5044BCA
:104490009847044B9847044B9847044B984708BDEE
:1044A000B9400000F13E00008944000069060000A8
:1044B000FEE7C04610B51C4B1C4A9A4203D01C4B69
:1044C000194A9A4204D31B4B1B4A9A4210D31BE051
:1044D0001A4B17480330C01A8008013080000023AF
:1044E0001149124AD458CC5004338342FAD1EAE736
:1044F000114B1A1D0F490331891A89088900521876
:10450000002102C39342FCD10D4B7F210D4A8A4307
:104510009A600D4B596880220A435A600B4B9847AA
:104520000B4B9847FEE7C04600000020C06000002B
:1045300088000020A4100020880000200400002033
:1045400000ED00E00000000000400041D94D0000F7
:1045500061470000064B1B68002B02D1054A044B43
:104560001A60034A136818181060181C7047C04678
:10457000F40B0020A8300020012040427047C046C4
:1045800080239B014B6000207047C046012070478C
:104590000020704770B582B0051C0E1C00226B46CF
:1045A000DA80064C281C69460631A0470028F9D15C
:1045B0006B4606331B88337002B070BDED170000E8
:1045C00070B5061C0D1C034C301C291CA04700288C
:1045D000FAD170BDC117000008B50D4B1B68552BF3
:1045E00011DD3C220A4B1A600A4B18680A490B4B32
:1045F0009847002803D10A4A064B1A6006E0064A8B
:10460000044B1A6002E00133014A136008BDC04642
:104610000C00002014000020B85F000019500000BA
:10462000C05F000070B5074C8026F60266618025E9
:104630002D03A56196204000034B98476661656194
:1046400070BDC04600440041F11B000070B5074C2E
:104650008026F602A66180252D0365619620400024
:10466000034B98476661656170BDC04600440041D8
:10467000F11B000010B58CB06846134B984700231F
:104680006A465370137153740A231373E023DB00DB
:10469000D3810E4C201C0E490E4B984723685A7E3E
:1046A00052B2002AFBDB802109040B4A1160197801
:1046B00002220A431A70054B1A68537E5BB2002B24
:1046C000FBDB0CB010BDC046150100007C100020C3
:1046D000004000425D01000000E100E030B583B021
:1046E00001AC0023A3700123237002236370122006
:1046F000211C074DA8471320211CA847054B8022E9
:10470000D2025A61802212035A6103B030BDC04602
:10471000293F00000044004108B50020084B98479D
:104720000848094B98470F20084B98470120084B31
:1047300098472320074B98470748084B984708BDE0
:10474000791C0000391200008D1C00004D33000060
:1047500039330000BD330000C85F00003D2C00006D
:10476000F0B55F4656464D464446F0B495B0C34B4F
:104770009847C34B9847C34B9847C34B984704AAE5
:104780008023DB05049300235360FF211181002166
:104790009372D37296208001106201252420155453
:1047A00025201554262013542720135493622C20BF
:1047B00013542D20135453611382D376117611773D
:1047C000517613239376517780235B03D360AF4BED
:1047D0001363AF4B536301235B429363D363AD4CCD
:1047E000AD4B1C60AD49AE4B1960AE49AE4B196084
:1047F000201CAE49AE4B9847AE4F3B6898680021ED
:10480000AD4EB0473B6858680021B0472668301C61
:10481000AA4B98471F2318408540A94B1D60236869
:10482000DA69002AFCD1336802252B433360A54B9B
:10483000984704AC201CA44B98471C2304930023E6
:1048400063600327E7720126A6720820211C9F4B94
:1048500098479F48082100229E4B98470820002136
:104860009D4B98479D4B1E70BFF35F8F62B61E70C5
:10487000BFF35F8F62B69A4B1D609A4B5F705822F0
:104880001A725E604621D9601D70052159741A762E
:104890005D614422DA6104221A74934B9847934B6A
:1048A000984793498B468E4A9246D84753461E688E
:1048B000731E002B49DD8F4C00258F4989468F4A96
:1048C00090468F4F4B461E68301C4146B847002823
:1048D00017D1211C62688B4B1B689A4207DD207838
:1048E000582804D14F232370874B984726E09A42DB
:1048F00024DA0B784F2B21D158230B70834B984728
:104900001CE0301C82497E4B9847002816D1211CA0
:1049100062687C4B1B689A4207DA2078582804D1D9
:104920004F232370784B984708E09A4206DD0B78B6
:104930004F2B03D158230B70744B98470135684BAC
:104940001E681034731E9D42BCDB0022654BDA608A
:10495000704B1C68201C64216F4B9847002916D1AE
:104960006E4B1B68013B1B015E4AD3186C4AD96829
:104970001160197A6B4A11705B685A1EB24203DAF1
:104980000133664A136002E00022644B1A60201C67
:104990000A21614B984700296AD1464B1868826802
:1049A0009368013B9360002B19DA826893689469DD
:1049B000A34210DB1368FE221A703E4B186882680F
:1049C000136819780A2902D00133136011E00A2113
:1049D000554B98470DE0FE21534B984709E08368FB
:1049E0001B68FE221A70334B1B689B681A680132E1
:1049F0001A60304B186882689368013B9360002B03
:104A000019DA826891689369994210DB13688022F1
:104A10001A70284B18688268136819780A2902D01E
:104A20000133136011E00A213F4B98470DE08021CC
:104A30003D4B984709E083681B6880221A701D4B24
:104A40001B689B681A6801321A60384B18782A4B29
:104A50001968324B1A682B4B1B680090304C246845
:104A6000019402902F48007803903148314CA047C0
:104A7000284B1A6801321A6017E7C0468D440000BF
:104A8000891B0000F13E0000E9340000030004002F
:104A900003000500000C0020AC0C0020C145000004
:104AA000A80C002095450000A40C0020000800423E
:104AB000B914000084000020F94E0000411A0000E3
:104AC00000E100E019470000D5060000E9060000FB
:104AD000D9450000CD1A0000FD1A00000800002092
:104AE000FC0B0020FC0D0020DD4600007546000098
:104AF00005350000040E002014000020C05F0000F7
:104B0000195000000C000020254600004D46000012
:104B1000B85F0000F80B00207D4D00001C00002055
:104B20001800002010000020A155000020000020E7
:104B3000DC5F0000494E000010B5041C134B984781
:104B4000134B1A7862438118124B59605968090C4B
:104B500059605B68002B07D00E4B596801328018F2
:104B600018810D4B984704E082180A4B1A810B4BB1
:104B70009847084B1B89632B02D86433054A13817D
:104B8000044B1889064B984710BDC04649370000B2
:104B90009C100020340C00205D37000071370000AD
:104BA000AD37000008B50022034B1A70034B98473D
:104BB000034B187008BDC046340C0020C5370000F8
:104BC0009C10002008B50E4B5B68002B07D00C4AE8
:104BD0005368013B5360002B01D10A4B9847084AA8
:104BE00013780133DBB21370074A12789A4206D861
:104BF000034B00221A70DB68002B00D0984708BDD9
:104C0000340C0020713700009C10002008B5044BC4
:104C10009847044B1B69002B00D0984708BDC0463D
:104C20005D370000340C0020014B18617047C0460E
:104C3000340C0020002934D00123002210B4884213
:104C40002CD301242407A14204D2814202D20901BB
:104C50001B01F8E7E400A14204D2814202D24900DC
:104C60005B00F8E7884201D3401A1A434C08A0427F
:104C700002D3001B5C0822438C08A04202D3001B15
:104C80009C082243CC08A04202D3001BDC0822432C
:104C9000002803D01B0901D00909E3E7101C10BC50
:104CA0007047002801D00020C04307B4024802A189
:104CB0004018029003BDC046D90000000029F0D082
:104CC00003B5FFF7B9FF0EBC4243891A1847C04627
:104CD000002941D010B4041C4C40A44601230022FA
:104CE000002900D54942002800D5404288422CD3F3
:104CF00001242407A14204D2814202D209011B01EE
:104D0000F8E7E400A14204D2814202D249005B00EC
:104D1000F8E7884201D3401A1A434C08A04202D354
:104D2000001B5C0822438C08A04202D3001B9C0895
:104D30002243CC08A04202D3001BDC0822430028F7
:104D400003D01B0901D00909E3E7101C6446002CBD
:104D500000D5404210BC7047002806D003DB00207D
:104D6000C043400801E08020000607B4024802A1C9
:104D70004018029003BDC046190000000029EBD086
:104D800003B5FFF7A7FF0EBC4243891A1847C04678
:104D90007047C0469C460304F0B51B0C17043F0C3B
:104DA000150C1E1C041C000C7E436B4347434543FB
:104DB000FB18300C1818874202D980235B02ED18CB
:104DC000030CED1863465C434A433604360CA118C5
:104DD000000480194919F0BD70B50E4B0E4D00242A
:104DE000ED1AAD101E1CAC4204D0A300F358984736
:104DF0000134F8E701F054F9084B094D0024ED1A8D
:104E0000AD101E1CAC4204D0A300F35898470134E7
:104E1000F8E770BDAC600000AC600000AC60000062
:104E2000B060000010B50023934203D0CC5CC454A2
:104E30000133F9E710BD031C8218934202D01970A8
:104E40000133FAE7704700000FB40B4B13B51C6831
:104E5000002C05D0A369002B02D1201C00F074FDAA
:104E600005ABA168201C049A019300F007F916BC59
:104E700008BC04B01847C0468400002000000000B1
:104E8000174B10B51C68A36B002B15D1182000F030
:104E90001BFE144BA0630380134B4380134B838092
:104EA000134BC380134B0381052343810B23838161
:104EB0000122002302614361084B074AA46B206969
:104EC0006169FFF767FF01220023801859412061C3
:104ED00061614800400810BD2D7F954C2DF451585C
:104EE000840000200E330000CDABFFFF3412000021
:104EF0006DE6FFFFECDEFFFF08B54A424A41802322
:104F00005200DB0000F002F808BD0000F7B51E1CDF
:104F10003C4B041C1D680F1C0192002D05D0AA6992
:104F2000002A02D1281C00F00FFD374B9C4201D112
:104F30006C6808E0354B9C4201D1AC6803E0344B0F
:104F40009C4200D1EC68019B022B57D8002E55DB08
:104F5000281C211C00F078FC00236360A361A38956
:104F60001A0603D5281C216900F0C4FDA3898322F9
:104F70009343A381019B022B13D0002F25D1002E38
:104F800001D18026F600301C00F09EFD071E18D1CE
:104F90008020C00000F098FD071E10D10120404283
:104FA00000E00020A38902221343A3810023A36011
:104FB000231C4733236023610123636120E08026A3
:104FC000F600A38980221343A381019A012A04D108
:104FD000A3891343A3817342A3610E4B0020AB62EC
:104FE000A3892760276166611A0709D50322134048
:104FF0005A4253415B421E40A66001E001204042FC
:10500000FEBDC046840000204060000060600000DB
:1050100080600000A158000002780B780130013157
:10502000002A01D09A42F7D0D01A7047936810B581
:10503000013B9360002B05DA9469A34208DBCBB2F5
:105040000A2B05D01368581C10601970C8B201E013
:1050500000F0A6FA10BDF8B5061C0F1C141CD518DC
:10506000AC4208D02178301C3A1CFFF7DFFF013436
:10507000431CF5D100E00020F8BD0000F0B59FB062
:10508000061C0F1C03920593002804D08169002997
:1050900001D100F059FC754B9F4201D1776808E0BF
:1050A000734B9F4201D1B76803E0724B9F4200D11E
:1050B000F768BB891A070AD53B69002B07D006ADF4
:1050C00000236B6120236B763023AB763BE0301CF2
:1050D000391C00F0BDFA0028F1D001204042C2E0A6
:1050E000059A111D12680591002A76DB0992013498
:1050F00023782E2B00D181E021785F48032200F035
:10510000EDFC002807D05C492A68431A40209840EB
:105110001043286001342178631C58480622039309
:10512000297600F0DBFC002800D18AE0544B002BEC
:105130007ED1059B072207339343083305936A69A1
:10514000049953186B61039C2378002B04D10399B5
:10515000611A029110D003E0252BF8D00134F3E757
:10516000301C391C039A029BFFF775FF013075D084
:105170006A69029953186B612378002B6ED0012263
:1051800052426A606A4600235B3201342B60EB6056
:10519000AB601370AB6521783A48052200F09EFCA5
:1051A000002808D0374A0134831A012098402B6820
:1051B00018432860EFE72B68D90603D56A462021FB
:1051C0005B3211701A0703D56A462B215B321170CE
:1051D00022782A2A84D0099B05E05242EA60022202
:1051E00013432B6083E72278303A092A04D80A2136
:1051F0004B4301349B18F6E7099379E763782A2B30
:1052000009D1059B02341A1D1B680592002B0DDA8B
:1052100001235B420AE0013400232278303A092A54
:1052200004D80A214B4301349B18F6E7079363E740
:1052300005AB0093301C291C3A1C134B00E000BF47
:1052400007E005AB0093301C291C3A1C0E4B00F004
:1052500091F804900499013100D070E7BB895A0697
:1052600000D53AE70B981FB0F0BDC0464060000083
:1052700060600000806000001260000016600000A6
:10528000000000000C60000057500000F7B5151C2E
:1052900001930A698B68061C0C1C934200DA131CEC
:1052A000221C2B6043321278002A01D001332B607C
:1052B0002068800602D52B6802332B602168062700
:1052C0000F401FD0231C43331B785A1E9341226882
:1052D00092061FD5E11840313020C870211C5A1C9D
:1052E00045310978A21840320233D17012E0221CF5
:1052F000301C019919320123089FB847013011D0A1
:10530000009F01370097E0682968009F431A9F4279
:10531000EDDBD7E7221C301C01994332089FB847C8
:10532000013002D10120404223E0206806212B6891
:10533000E26801400025042903D1D51AEB43DB17AD
:105340001D40A26823699A4201DDD31AED18002797
:105350000097009FAF420BDA221C301C01991A32D1
:105360000123089FB8470130DCD0009F0137EFE7E9
:105370000020FEBDF0B50D1C8BB0433506920590A4
:10538000079304950B7E0C1C109A6E2B00D1A7E09E
:1053900011D8632B22D009D8002B00D1B0E0582BB4
:1053A00000D0C0E045310B707B4D4EE0642B1CD02B
:1053B000692B1AD0B7E0732B00D1A5E009D86F2B69
:1053C00029D0702B00D0AEE00E68202333430B6051
:1053D00036E0752B1FD0782B32D0A4E013680D1C5B
:1053E000191D423511601B689FE0216813680E0685
:1053F00003D5191D11601E6805E04806F9D5191D71
:10540000116000215E5E644B002E3BDA049D2D226C
:1054100076422A7036E0216813680E0603D5191DFE
:1054200011601E6804E04806F9D5191D1E88116038
:10543000594B227E039308276F2A1ED00A271CE0AF
:10544000231C78214533554D197011682368081DB8
:10545000039510601E0601D50E6802E05806FBD5C4
:105460000E88D90702D52022134323601027002E6F
:1054700003D1226820239A432260231C0022433355
:105480001A7001E003930A276368A360002B03DB13
:105490002568042295432560002E02D1049D002B2F
:1054A0000ED0049D301C391CFFF708FC0398013D09
:1054B000435C301C2B70391CFFF7BCFB061EF1D17E
:1054C000082F09D12168C90706D5626823699A4265
:1054D00002DC013D30232B70049E731B23612AE004
:1054E000086813684969050604D5181D10601B6813
:1054F000196005E04606F8D5181D10601B68198074
:1055000000232361049D16E01368191D11601D68B6
:10551000281C00F0E9FB63682061984200D92361F0
:105520002069606004E0251C42352B700123236153
:10553000049E00233370079E05980096211C09AA3B
:10554000069BFFF7A3FE013002D10120404221E07B
:105550002A1C059806992369079DA8470130F4D0B5
:105560002668B60705D4099BE068984212DA181C31
:1055700010E00025E0680999431A9D42F3DA221CE5
:105580000598069919320123079EB0470130DCD0F7
:105590000135EFE70BB0F0BD1D6000002E6000008C
:1055A00070B5051C0E1C141C002804D08269002A4A
:1055B00001D100F0C9F9234B9C4201D16C6808E08D
:1055C000214B9C4201D1AC6803E0204B9C4200D1AE
:1055D000EC68A369A360A3891A070AD52369002B85
:1055E00007D022682369F6B2D01A626990420FDBB5
:1055F00008E0281C211C00F02BF80028F1D0012025
:1056000040421DE0281C211C00F01EF90028F6D1A4
:10561000A3680130013BA36023685A1C22601E70FE
:105620006369984205D0A389301CDA0708D50A2E91
:1056300006D1281C211C00F007F90028DFD1301CFE
:1056400070BDC046406000006060000080600000E7
:10565000344B70B51D68061C0C1C002D05D0A969C3
:10566000002902D1281C00F06FF92F4B9C4201D178
:105670006C6808E02D4B9C4201D1AC6803E02C4BD8
:105680009C4200D1EC68A28993B2190721D4D906B3
:1056900005D40923336040231A43A2813FE05A070F
:1056A00013D5616B002908D0231C4433994202D0E2
:1056B000301C00F01FFA00236363A3892422934364
:1056C000A3810023636023692360A3890822134315
:1056D000A381216900290BD1A389A02292001A403D
:1056E00080239B009A4203D0301C211C00F09CF9BF
:1056F000A38901221A4005D061690022A2604A42B2
:10570000A26103E0990700D46269A26022690020C7
:10571000824206D1190604D540221343A3810120F9
:10572000404270BD840000204060000060600000C6
:1057300080600000F7B58B89051C0C1C19075ED42E
:105740006268002A02DC276C002F1ADDE76A002F4E
:1057500017D000222E682A60802252011A4001D000
:10576000626D15E0281C216A0123B847021C411C08
:105770000ED12B68002B0BD01D2B01D0162B02D184
:105780002E6000205EE0A38940210B43A38159E0F5
:10579000A3895F0706D56168636B521A002B01D09D
:1057A000276CD21B281C216A0023E76AB847A2890C
:1057B000411C06D12B68002B03D01D2B01D0162BCA
:1057C00019D10023636023692360D70405D5411CE8
:1057D00002D12A68002A00D16065616B2E60002921
:1057E000CFD0231C4433994202D0281C00F082F908
:1057F0000020606326E040231A43A28122E026694C
:10580000002EBED027680022BF1B01972660990793
:1058100000D16269A260019F002FB2DD281C216ABD
:10582000321C019BA76AB847002806DCA3894022E6
:1058300013430120A381404204E0019F36183F1A20
:105840000197E8E7FEBD00000A6938B5051C0C1C8D
:10585000002A01D100201CE0002804D08369002B1D
:1058600001D100F071F80B4B9C4201D16C6808E04B
:10587000094B9C4201D1AC6803E0084B9C4200D12B
:10588000EC680C22A35E002BE4D0281C211CFFF73F
:1058900051FF38BD40600000606000008060000083
:1058A000F8B5041C071C4834002C12D0A5686668A3
:1058B000013E0CD4AB89012B07D90E22AB5E01331C
:1058C00003D0381C291CFFF7BFFF6835F0E72468B8
:1058D000EAE7F8BD002310B5041C03604360836051
:1058E00081814366C281036143618361191C08227F
:1058F0005C30FFF7A0FA054B24626362044BA3629D
:10590000044BE362044B236310BDC046515C0000AE
:10591000795C0000B15C0000DD5C000070B54B1EDE
:1059200068255D430E1C291C743100F02BF9041E00
:1059300008D00021016046602A1C0C30A06068324B
:10594000FFF779FA201C70BD836913B5041C002B86
:1059500027D18364C3640365124B134A1B688262B8
:10596000984201D101238361201C00F01FF8606080
:10597000201C00F01BF8A060201C00F017F8042188
:10598000E06000226068FFF7A5FFA06809210122FE
:10599000FFF7A0FFE06812210222FFF79BFF01231F
:1059A000A36113BD08600000A1580000F8B51D4BAD
:1059B000071C1E68B269002A02D1301CFFF7C4FF21
:1059C0004836B4687368013B05D40C22A55E002DEF
:1059D00010D06834F7E73368002B06D1381C042157
:1059E000FFF79CFF3060002801D03668E9E70C2300
:1059F0003B6016E001235B42E381201C0123A3816D
:105A000065662560A560656025616561A5615C309E
:105A1000291C0822FFF70FFA6563A563A564E564F6
:105A2000201CF8BD08600000F0B58B8991B0051C02
:105A30000C1C9A0725D40E23C95E002906DAA78913
:105A400080231F400FD0002740260EE001AA00F05F
:105A500079F90028F3DB029BF0273F02184A1F4028
:105A6000BF187B425F418026F600281C311C00F0E5
:105A700089F800280CD1A3899A051FD40222134368
:105A8000A381231C4733236023610123636115E055
:105A90000C4B8022AB62A38920601343A381206159
:105AA0006661002F0AD00E23E15E281C00F05CF92D
:105AB000002803D0A38901221343A38111B0F0BDB4
:105AC00000E0FFFFA158000008B5034B011C186857
:105AD00000F058F808BDC04684000020C9B2821802
