S01800004144435F515549434B5F5354415254322E7372656349
S1130000202A00208921000085210000852100008C
S113001000000000000000000000000000000000DC
S11300200000000000000000000000008521000026
S11300300000000000000000852100008521000070
S11300408521000085210000852100008521000014
S11300508501000085210000852100008521000024
S1130060852100008915000099150000A9150000DC
S1130070B9150000C9150000D9150000852100003C
S11300808521000085210000DD0B0000ED0B000040
S1130090FD0B0000000000000000000085210000AE
S11300A0852100000000000085210000852100005A
S11300B00000000010B5064C2378002B07D1054B37
S11300C0002B02D0044800E000BF0123237010BDC0
S11300D07000002000000000FC7D000008B5084B03
S11300E0002B03D00748084900E000BF0748036815
S11300F0002B03D0064B002B00D0984708BDC04608
S113010000000000FC7D000074000020FC7D000065
S1130110000000001723002A0FD18B00084A9A58C8
S1130120002A04D1191C064BC850002305E01D23E6
S1130130121A501E824152421340181C7047C04686
S1130140680800201723002907D100231F2800D89E
S1130150034B01228240DA600023181C7047C0461A
S1130160001800401723002907D100231F2800D8B6
S1130170034B012282409A600023181C7047C0463A
S11301800018004070B50022164B1A7000231F2679
S1130190154D144C1F2B10D919E0144900E000210F
S11301A00A619B005B59002B00D0984723780133E8
S11301B0DBB223700F2B14D8ECE7321C1A40012158
S11301C091400A1C094909691142E6D1EEE7321C43
S11301D01A40012191400A1C002109691142DED113
S11301E0E4E770BD6408002068080020001800409F
S11301F0054B197802220A431A701A1C53785BB211
S1130200002BFBDB7047C0460018004000B583B0EC
S1130210124B996940220A439A6101A900230B7089
S113022005200F4B984705200E4B98470E4B197825
S113023001220A431A701A1C53785BB2002BFBDBB1
S11302400A4B191C4031002204C38B42FCD11022FA
S1130250074B1A60074B984703B000BD00040040E9
S113026055200000C91F0000001800406808002045
S113027000E100E0F101000000230360436001227B
S11302800272427283720223C3727047F0B583B064
S1130290051C0C1C01A900234B70CB7063680B7008
S11302A0237A8B702078154B984700231F2D00D894
S11302B0134B072129408900E07AA27A002A01D051
S11302C008221043EA0892009A18966988400F277A
S11302D08F40BE43311C01439161627A002A06D0EB
S11302E05A690121A9400D1C15435D6104E05A6956
S11302F00121A9408A435A6103B0F0BD31210000B5
S11303000018004010B5031C4908402099420CD342
S11303100024C91A601C80B28B4201D8041CF8E77F
S11303204020FF2C01D81480002010BD00000000E4
S1130330F0B55F4656464D464446F0B487B0061CB9
S11303400D1C049210AA1078321C424340248A42A5
S113035000D9B3E0002B4BD10021321C5E4CA047E6
S113036083462E1C002700200021002200233F2466
S1130370A4460125A846029003916146203903D47E
S113038040468840814605E0202165464C1B404696
S1130390E040814641466446A1408A46101C191C2F
S11303A080185941021C0B1C5D464C46254202D064
S11303B0424602430B1C9F420CD801D1964209D8F5
S11303C0921BBB415046029D28434946039C21434E
S11303D0029003916546013DAC46CED20298039942
S11303E03C4B3B4A121A8B41120C1B041A4362E029
S11303F00022012B5FD14F0FB946CD00AB4600213F
S1130400321C0023344CA047061C0F1C002301257A
S1130410029603979A465046C0B20590002188463A
S1130420002200233F24271C203F03D42E1CBE405F
S1130430019604E02020071B291CF94001912E1C81
S1130440A6400096101C191C80185941021C0B1C54
S11304505F463740BC46019E4F463E4067463E439A
S113046002D02A1C02430B1C039898420BD802D1D9
S11304700299914207D8029E039F921BBB414746B3
S113048000980743B846013CCDD2414652468B1AE8
S1130490DB08124CA34208D9059A0132D2B2059264
S11304A00126B2445746082FB5D1402405980828A0
S11304B004D042031A43049C22800024201C07B069
S11304C03CBC90469946A246AB46F0BDC046C046E9
S11304D00000000001000000254D0000FF1F000087
S11304E010B582B0041C0F4B1B78002B01D00029DF
S11304F00DD001A90C7013200B4B984713200B4B04
S11305009847084B5C7001221A70002007E0054BE5
S11305105A781D20141B621E94416442204002B08C
S113052010BDC0468C00002055200000C91F0000EB
S1130530444B984233D006D8434B98420DD0434B9A
S113054098421BD06FE0424B98424AD0414B9842AC
S113055058D0414B984266D132E0012965D0002938
S113056004D0022906D0032906D001E03B4867E005
S1130570002065E03A4863E03A4861E0012956D03A
S1130580002904D0022906D0032906D001E0032063
S113059056E0002054E0344852E0344850E0012949
S11305A047D0002904D0022906D0032906D001E04F
S11305B02F4845E0002043E02E4841E02E483FE02C
S11305C0012938D0002904D0022906D0032906D0F5
S11305D001E02A4834E0002032E0294830E029488C
S11305E02EE0012929D0002904D0022906D00329AC
S11305F006D001E0244823E0002021E023481FE046
S113060023481DE001291AD0002904D0022906D06C
S1130610032906D001E01F4812E0002010E01E4824
S11306200EE01E480CE000200AE01D4808E01D48CA
S113063006E01D4804E01D4802E01D4800E01D4896
S11306407047C0460010004200080042000C0042FF
S113065000180042001C0042001400420300040081
S1130660030006000300070003001E0003001F0030
S113067002000C0002000E0002000F000300100034
S113068003001200030013000500530005003E00A0
S113069005005200030016000300180003001900AF
S11306A0030005000300010002000D000300110017
S11306B005003F000300170070B586B00C4A6B4676
S11306C070CA70C332CA32C3009E864206D0012368
S11306D09A0069465258824203D100E00023D8B2FE
S11306E003E00133062BF3D1002006B070BDC046F1
S11306F0987A0000F0B5474680B488B0051C0C1CFD
S1130700161C29600B681C209A0700D5C1E00B68F1
S11307100520DA0700D5BCE0081C604B9847604B05
S1130720196A821C012797403A1C0A431A6207A9D6
S11307302427F35D0B701430C0B28046594B9847A0
S11307404046594B9847F05D0021584B9847337801
S1130750012B00D09AE022680C231343236095E018
S1130760EA18D16004331C2BFAD10023EB62AB628C
S11307700024AB862B863623EC543723EC543823E1
S1130780EC5403236B722C712868444B9847071C64
S11307904749484B9847BF00474BFD502F6802AB71
S11307A080221A705C7001229A70DC703378002BFE
S11307B002D1002202AB9A70B36A0393F06A0490E8
S11307C0326B0592736B06930024E1B2A30003AA73
S11307D09858002802D1381C384A9047431C06D048
S11307E06A461072000CC0B202A9354B9847013416
S11307F0042CEAD133786B71337CAB71B37CEB712D
S1130800337D2B7200226B46DA803378012B14D1AE
S11308102868224B98471430C0B22A4B9847011CD1
S1130820B0696A460632284B9847031C1720002BF0
S11308302FD16B4606331B783B73B2687068024352
S1130840F3681A43337C717C002903D11F498978EA
S1130850880701D580210A43B17C002902D0802178
S113086089020B43F17C002902D0802189000B43CB
S1130870317D002902D0802189010B4339680A4364
S11308803A607A6813437B60002002E00023002171
S113089066E708B004BC9046F0BDC046B906000047
S11308A00004004055200000C91F0000E1040000BE
S11308B0BD09000021150000C40800203105000016
S11308C031210000712000000503000000200041D8
S11308D010B544791523012C6CD1047A0023002C23
S11308E068D1002A57D04B78002B44D00268137E7D
S11308F0DC070FD40B78D9090022002903D15A0947
S1130900D2012D4952181F210B40012199409161B8
S113091005234FE00B78DC090022002C03D15A098F
S1130920D201254C12191F24234001249C405461F8
S1130930897803681A7ED40700D59962C2790023A6
S1130940002A37D102680421137E0B42FCD0117EA9
S113095000234C072ED5538B590703D5518B042301
S11309600B4353838379012B02D1936A002321E043
S1130970936A00231EE00B78D9090022002903D1D1
S11309805A09D2010C4C12191F210B400121994024
S1130990516100230EE00B78D9090022002903D10C
S11309A05A09D201044952181F210B4001219940D0
S11309B091610023181C10BD00440041F8B580006B
S11309C0604BC45825683623E35C3722A25C171CAD
S11309D01F402B7EAE7D1E40F10743D56379012B6A
S11309E040D1637A002B0FD1574B1B88AB62638EC7
S11309F0013B9BB26386638E9BB2002B01D1012322
S1130A002B756379012B2DD1637A002B2AD02268B0
S1130A10E36A1978C9B2581CE062A079012804D1AC
S1130A205878000201430233E362CB05DB0D936285
S1130A30A38E013B9BB2A386A38E9BB2002B11D144
S1130A4001232B75637A012B0CD1E379002B09D197
S1130A500323637200223823E254FA0702D5201CD0
S1130A60E3689847710761D56B8B5A0714D5637A8D
S1130A70012B0BD01E223823E25403236372052377
S1130A802B753B0702D5201CA1698847AB6A6A8B8A
S1130A90042313436B8349E0637A012B16D1236843
S1130AA09B6A638E013B9BB26386638E9BB2002B71
S1130AB03CD104232B7500223823E25403236372B0
S1130AC0FA0733D5201CE36898472FE023689A6A15
S1130AD0D205D20DD3B2A16A0B70A36A591CA162CC
S1130AE0A179012904D1120A5A70A36A0133A362BD
S1130AF0238E013B9BB22386238E9BB2002B15D100
S1130B0000223823E25404232B75637A022B05D187
S1130B107A070BD5201C6369984707E0637A002B9A
S1130B2004D1B90702D5201C22699047F60907D0E1
S1130B3080232B752B767B0602D5636A201C98478D
S1130B40F8BDC046C4080020A8080020931C9B00E0
S1130B501950022A04D1027E1023134303760CE0B9
S1130B60032A04D1027E20231343037605E00123E4
S1130B7093401A1C037E1A43027600207047C04635
S1130B8038B58000144BC4582268957B237E1D40E1
S1130B90637E1D40EB0705D5201CA2689047012306
S1130BA022689373AB0705D5201CE26890470223A3
S1130BB022689373EB0605D5201C22699047102305
S1130BC022689373AB0605D5201C6269904723689D
S1130BD020229A7338BDC046AC08002008B5002016
S1130BE0014B984708BDC046810B000008B50120A1
S1130BF0014B984708BDC046810B000008B5022090
S1130C00014B984708BDC046810B000070B584B005
S1130C10011C01AB0A4A70CA70C3019B83420AD00B
S1130C20029C844205D00020039D8D4205D1022000
S1130C3002E0012000E00020C0B204B070BDC04654
S1130C40B07A0000F0B54F464646C0B487B0041CE5
S1130C500D1C9046081C904B984781468F4F391CB9
S1130C600C3105A803228E4EB047391C103103A85D
S1130C700622B0470023A360E36023616361237607
S1130C80637648468200874BD450256041468B7872
S1130C90082B04D117204A46D20700D4F6E023716A
S1130CA02B880520D90700D5F0E0EB7B1C20DA0661
S1130CB000D5EBE02B88990700D5E7E04246137C8A
S1130CC0002B0CD002A901238B700022CA7040466D
S1130CD0806908704B704246107D734B98474046BC
S1130CE0037F002B0BD002A901238B700022CA7052
S1130CF0426A0A704B70036AD8B26B4B98476B4BCD
S1130D00196A4846420003A8125A0A431A62414625
S1130D108B78082B08D1654B1A6A4846013040008D
S1130D2003A9415A0A431A6201A9424613780B7077
S1130D3005AB48461E5C301C5D4B9847301C5D4B30
S1130D409847414688880B89034388798A781043F9
S1130D5018434B78002B02D080231B0118432168D1
S1130D607F22CB7B9343FCD128804246507B431E99
S1130D7098418000937B002B01D001231843216804
S1130D807F22CB7B9343FCD1FF232B71002805D01A
S1130D9021687F22CB7B9343FCD168714346987AC8
S1130DA0DB7A002B01D01023184341460B7B002B28
S1130DB001D02023184321687F22CB7B9343FCD1AD
S1130DC0A87122687F21D37B8B43FCD12379042B28
S1130DD005D0082B41D01720002B57D124E07F21C8
S1130DE0D37B8B43FCD128234246D35C2B742168EC
S1130DF07F22CB7B9343FCD129234046C35C2B75D4
S1130E0021687F22CB7B9343FCD12A234146CB5CD0
S1130E102B7621687F22CB7B9343FCD12B23424644
S1130E20D35C6B76002031E07F21D37B8B43FCD1F4
S1130E304046038D2B8221687F22CB7B9343FCD1D8
S1130E4041464B8D2B8321687F22CB7B9343FCD17E
S1130E504246938D6B83002018E07F21D37B8B4324
S1130E60FCD143469B6A2B6121687F22CB7B934351
S1130E70FCD14046C06AA86121687F22CB7B9343A2
S1130E80FCD141460B6BEB610020FFE707B00CBCC3
S1130E9090469946F0BDC0460D0C0000B07A0000A3
S1130EA0F96A0000AC080020312100000004004071
S1130EB055200000C91F000002687F21D37B8B43AB
S1130EC0FCD10379042B05D0082B09D00020002B7A
S1130ED008D102E0107CC0B204E0108A80B201E0C4
S1130EE01069FFE77047C04630B504687F25E37B8F
S1130EF0AB43FCD10379042B05D0082B14D0172065
S1130F00002B19D107E01720012915D8D2B2611896
S1130F100A76002010E0172001290DD892B20C3176
S1130F2049000A53002007E01720012904D806319C
S1130F3089000A510020FFE730BDC046F0B547469E
S1130F4080B40C1C904600280CD1002A0DDD8F18AB
S1130F50094E0A4D3068211C2B6898470134BC4265
S1130F60F8D104E00120404202E0002000E04046C5
S1130F7004BC9046F0BDC046C0080020B80800205C
S1130F80F0B5474680B40E1C151C0138022810D851
S1130F90002A11D000240D4B98460D4F4346186883
S1130FA0315D3B689847002808DB0134A542F5D140
S1130FB007E00120404205E0002003E00120404218
S1130FC000E0201C04BC9046F0BDC046C0080020D0
S1130FD0BC080020F0B55F4656464D464446F0B482
S1130FE091B0051C0C1C161C2960081CAD4B9847BD
S1130FF0021C23680520D90700D54BE123681C2077
S11310009F0700D546E1A84B186A911C01278F4021
S1131010391C014319620FA92D27F35D0B7014329B
S1131020D2B29046101CA14B98474046A04B98471B
S1131030F05D00219F4B9847F37A6B712423F35C96
S1131040AB712523F35CEB71F37E2B72337F6B72F0
S113105029688846081C934B9847143000226B4635
S1131060DA84328A02928023DB019A4221D08023DF
S1131070DB019A4204D880239B019A4211D008E0F4
S1131080C023DB01029F9F420FD080231B029F429B
S113109003D01027069700270EE0032706970027A2
S11310A00AE010270697012706E00827069701277C
S11310B002E008270697002731680391F2689146F9
S11310C073690493317E8A462623F35C9B467368D6
S11310D0002B13D08022520593422ED12723F35C98
S11310E0002B2ED1376AC0B2734B9847011C381CB1
S11310F06A462632714B9847031C1FE02723F35C92
S1131100002B0AD0069A0092306AB16A6A462632E7
S11311103B1C6B4FB847031C10E0316A0791C0B207
S1131120654B9847011C069A009207986A46263236
S11311303B1C634FB847031C00E00023181E00D07B
S1131140A8E0737E002B02D0B37E41468B732A68DD
S1131150029FD369002BFCD102976B4626331B8870
S1131160424693814B46039F3B43049F3B43716834
S11311700B43029F1F43524613021F4359464B071A
S11311801F432723F35C002B01D104231F43717EEB
S11311908902337F5B021943F27AB37A134319430A
S11311A0737F1B0219432423F35C5B041943252337
S11311B0F35C1B0419433389FF2B0BD0F27E002A06
S11311C003D0A022D204174302E080225204174322
S11311D0194305E0F37E002B02D08023DB041F4378
S11311E02C23F35C002B03D1364B9B789A0701D553
S11311F080231F432A68D369002BFCD143465960DE
S11312002A68D369002BFCD141460F600EAB8022C3
S11312101A7000225A70DA709A70326B0A92736BE9
S11312200B93B76B0C97F66B0D9600270EAEF9B2C5
S1131230BB000AAA9858002802D1201C224A9047D1
S1131240431C05D03070000CC0B2311C1F4A9047BB
S11312500137042FEBD10023EB602B616B61AB6191
S1131260EB612B62AB626B620022EB85AB853023B2
S1131270EA543123EA543223EA543323EA542868E3
S1131280084B9847041C1249124B9847A400124B70
S1131290E550002011B03CBC90469946A246AB46AE
S11312A0F0BDC046B906000000040040552000000F
S11312B0C91F0000E10400007120000005030000C4
S11312C031030000002000413105000031210000FD
S11312D08113000021150000C408002010B5021C71
S11312E00368C4791C20002C0DD0D28D92B2052045
S11312F0002A08D1DA69002AFCD1198502211A7E54
S11313000A42FCD0002010BD10B5031C0468827989
S11313101C20002A33D09B8D9BB20520002B2ED19C
S1131320237E5A072BD5E369002BFCD1638BDBB2F8
S11313309A0621D09A0703D5022363831A201EE05C
S11313405A0703D5042363831E2018E0DA0703D564
S113135001236383132012E0DA0605D5628B102380
S11313601343638342200AE09A0605D5628B202347
S113137013436383412002E0238D0B80002010BDC2
S1131380F8B58000644BC5582C68E369002BFCD188
S1131390237EA67D1E403123EB5C3022AF5C1F40D0
S11313A0F10720D5EB8D9BB2002B1AD0AB6A1A78CB
S11313B0D2B2591CA9626979012904D15978090268
S11313C00A430233AB62D305DB0D2385EB8D013B6E
S11313D09BB2EB85002B06D1012323750223A37551
S11313E001E001232375B20709D5022323750022E6
S11313F03323EA54FB0702D5281CE968884772079F
S11314006AD5AB8D9BB2002B64D0638BDBB219071A
S113141002D43F22134001E037221340002B37D07F
S11314209A0707D51A223223EA54628B0223134304
S1131430638327E0590707D51E223223EA54628BBF
S11314400423134363831DE0DA0707D513223223F1
S1131450EA54628B01231343638313E0D90607D54F
S113146042223223EA54628B10231343638309E03C
S113147020221A4206D041223223EA54628B2023CE
S1131480134363837A0727D5281C6B69984723E0A5
S1131490228DD205D20DD3B2696A0B706B6A591CC6
S11314A069626979012904D1120A5A706B6A01339D
S11314B06B62AB8D013B9BB2AB85002B0CD104233B
S11314C0237500223223EA54BA0705D5281C2B6958
S11314D0984701E004232375F10607D510232375EB
S11314E02376FA0602D5281CEB699847B10607D57E
S11314F02023237523763A0702D5281CAB69984725
S1131500310707D5082323752376BA0602D52B6A3B
S1131510281C9847F8BDC046C40800207047C04640
S1131520F0B50A4B1B78002B0CD1094F094E0A4D1C
S11315300024DE515A1914600433182BF9D1012206
S1131540024B1A708000024BC150F0BD9000002085
S1131550940000201D150000C408002010B582B0BE
S1131560041C684605490622054B9847201C054B78
S113157098476B46185602B010BDC046C87A0000A2
S1131580F96A0000B906000008B5024B1B68002088
S1131590984708BD9400002008B5024B5B68012001
S11315A0984708BD9400002008B5024B9B680220B0
S11315B0984708BD9400002008B5024BDB6803205F
S11315C0984708BD9400002008B5024B1B6904200D
S11315D0984708BD9400002008B5024B5B690520BC
S11315E0984708BD9400002010B50020084B984788
S11315F0084CFA218900A047074B1860FA2189009A
S1131600A047064B18600522054B1A6010BDC04662
S11316103D1F0000854C0000040000200000002055
S113162010E000E030B5084B1C68084A0025802112
S1131630490206E0002C04D05460956013680B4204
S1131640FCD00138F6D230BD0000002010E000E0EC
S113165030B5084B1C68084A00258021490206E081
S1131660002C04D05460956013680B42FCD0013800
S1131670F6D230BD0400002010E000E00C4B1B68E3
S1131680002B10D1EFF31083002B09D172B6BFF3F6
S11316905F8F0022074B1A700122074B1A7002E079
S11316A00022054B1A70024B1A6801321A60704707
S11316B0AC00002008000020B0000020084B1A688D
S11316C0013A1A601B68002B09D1064B1B78002BCA
S11316D005D00122044B1A70BFF35F8F62B67047C6
S11316E0AC000020B000002008000020F0B5474600
S11316F080B482B001AC012666700027A770267002
S11317001320211C274DA847274A904680231B03FA
S11317109361277066701C20211CA8476670A7700F
S113172026705220211CA8473E20211CA8473F2098
S1131730211CA8472F20211CA8471420211CA8479E
S11317408022D202194B9A61803B8022D2059A6191
S1131750802212069A61802212029A6180235B031E
S11317604246936127705320211CA847104B196AE5
S1131770802292030A431A6204220E4B1A806B469B
S11317809E70DF7005236A461370567009206946FF
S1131790094CA0470C206946A04702B004BC9046FF
S11317A0F0BDC046FD1B000000440041004500415F
S11317B000040040005400423121000010B5002212
S11317C0002302704270002142800171037602629C
S11317D0C261826006240473C0246401C48103745A
S11317E043748374C37403752A2403554375837542
S11317F024240355C2840285C1752B23C1542C2390
S1131800C15410BDF0B55F4656464D464446F0B44B
S113181099B0061C151C0160B54B186A802252024F
S113182002431A620B780520DA0700D5D9E10B7858
S11318301C20990700D5D4E16B783371002B04D1B7
S1131840AC4B196C04220A431A64326801922B7857
S1131850684603721E2002A9A74B98471E20A74B77
S113186098472C23EB5C002B42D02B22AC5C297BC9
S113187088460A19D2B2D318DBB299469A4221D2C9
S11318809F4A93469F4B9A460F2727402B7BFF186E
S113189004A859465022D047132F0CD8BF0004ABDC
S11318A0F85803A900234B70CB708B7001230B7085
S11318B0C0B2954A90470134E4B240460319DBB202
S11318C09945E1D8EC8904A88D4950228D4B98475D
S11318D0132C37D8A40004ABE05803A900234B70A1
S11318E0CB708B7001230B70C0B2874B984729E0F3
S11318F02C7B04A882495022824B9847132C0CD885
S1131900A40004ABE05803A900234B70CB708B7088
S113191001230B70C0B27C4B9847EC8904A878492A
S11319205022784B9847132C0CD8A40004ABE058F1
S113193003A900234B70CB708B7001230B70C0B2D2
S1131940714B98476B7D9B00DBB201990B70AB7DAB
S1131950DB016A781343DBB24B702B79342B00D94B
S11319603EE19B00694AD3589F460222102401237A
S11319701AE06B7C2A7C102416E006221024012332
S113198012E00822102400230EE000223024002359
S11319900AE000222024002306E000220024002381
S11319A002E00422102402231B0170210B40134384
S11319B0019A9370EB7D17203F2B00D911E1D3706E
S11319C03268537E5BB2002BFBDBEA7C6B881343EB
S11319D02422AA5CD20013432A7D92001343AA7CDA
S11319E0520013432343019883802B7E002B01D1A3
S11319F0316895E0102C5BD002D8002C38D0F7E782
S1131A00202C19D0302CF3D1EA7C002A0AD0EA69C0
S1131A1080321720FF2A00D9E3E02A6A8032FF2AA5
S1131A2000D9DEE01720E969FF2900DDD9E02A6A40
S1131A30FF2A00DDD5E0DBE7EA7C002A0DD0E86967
S1131A408022920081181720314A914200D9C8E0BF
S1131A50304A296A914200DBC3E017202C4AE96925
S1131A60914200DDBDE0296A914200DDB9E0BFE7A3
S1131A70EA7C002A11D0EA6980200001111817209D
S1131A80254A914200D9ACE02A6A8020000111184D
S1131A901720214A914200D9A3E017201E4AE96980
S1131AA0914200DD9DE0296A914200DD99E09FE7C3
S1131AB0EA7C002A11D0EA6980200002111817205C
S1131AC0164A914200D98CE02A6A8020000211183B
S1131AD01720124A914200D983E017200F4AE9697E
S1131AE0914200DD7DE0296A914200DD79E07FE7E3
S1131AF0000400400008004055200000C91F0000F9
S1131B00A47B0000F96A000031210000D07A0000B3
S1131B10FF03000001FEFFFFFF0F0000FFFF0000B6
S1131B204A7E52B2002AFBDB019A13723268537E5A
S1131B305BB2002BFBDBAB8B019883833268537E53
S1131B405BB2002BFBDB2B8C01990B842C23EB5C0D
S1131B50002B04D0013BDBB217200F2B41D82B22E2
S1131B60AA5C17200F2A3CD83168487E40B200286E
S1131B70FBDBE889297B0143A868014312050A437A
S1131B801B04134301990B612A23EB5C0B750F2390
S1131B908B752423EB5C002B10D0EB8C1720144A9C
S1131BA093421ED88B842B8D80200001191889B292
S1131BB017200F4A914214D80199CB840D4B1A680F
S1131BC05201E023DB001A400B4B586841011B68AB
S1131BD0DB0E0B43DBB2134301990B85002000E0BD
S1131BE0172019B03CBC90469946A246AB46F0BDBE
S1131BF0FF0F0000246080002060800000B583B0E7
S1131C0001AB80221A700A785A704A789A708A78DE
S1131C10DA70191C014B984703B000BD3121000054
S1131C2008B5082834D880001B4B1B589F468020D9
S1131C30000230E0194B18692DE0194B186A800531
S1131C40800F184BC340181C25E0144B586922E040
S1131C50124B1B68022018401DD011491022CB687A
S1131C601A42FCD00D4B1B685A0713D500200E4BAB
S1131C7098470A4B9B681B041B0C58430BE05023EA
S1131C80074AD35C00205A0705D5044BD86802E004
S1131C90002000E0054808BDF47B0000B4000020EB
S1131CA00008004000127A0071200000006CDC0281
S1131CB070B50C4B1C6A017885784078012210407D
S1131CC080014026B44304432A40D0018022944337
S1131CD0221C0243032001400902034802400A4334
S1131CE01A6270BD00080040FFFCFFFF082843D8BB
S1131CF08000224B1B589F4600203EE0204B196A6F
S1131D0002220A431A62002037E01D4B996902221D
S1131D100A439A61002030E0194B198A02220A43CF
S1131D201A82002029E0164B998A02220A439A82D9
S1131D30002022E0134B196802220A431A601A6831
S1131D40114B1A400E4B9A84191C1022CB681A426C
S1131D50FCD00C4A91680A4BD962516899621268A6
S1131D6092B29A84002008E0054A4423D05C022100
S1131D700143D154002000E017207047187C000074
S1131D8000080040B40000207FFF000030B585B09B
S1131D90C222D200194B9A60194B5A681E218A43F9
S1131DA05A6001236A4613700024164DE0B2694656
S1131DB0A8470134252CF9D103A800244470012537
S1131DC085700470104B98470620104B9847104BB1
S1131DD09847104B1C725C729C7201956B465C7048
S1131DE006236A46137014725472002069460A4B23
S1131DF098470020094B984705B030BD00080040C3
S1131E000040004155200000B11C0000ED1C000002
S1131E10211E000000040040451E0000F91E0000C1
S1131E20064B996908220A439A610122044B1A70ED
S1131E30191C0B781342FCD17047C04600040040C3
S1131E40000C0040F8B5061C071C0D782D02054354
S1131E504B78002B02D08023DB021D434B7A002BEE
S1131E6002D080231B031D434C68012C17D9631E29
S1131E701C420FD1022C06D90223002201325B003E
S1131E809C42FBD800E000221702374380235B0307
S1131E901D4304E02702374380239B021D430B7A32
S1131EA0002B02D080239B031D430F4A53785BB25F
S1131EB0002BFBDB0D4B98470D4B1E700A4A5378E1
S1131EC05BB2002BFBDB084B9F601A1C53785BB2A0
S1131ED0002BFBDB044B5968802252020A40154355
S1131EE05D60044B9847F8BD000C00407D1600006F
S1131EF0080C0040BD16000010B5041C0B4A5378B2
S1131F005BB2002BFBDB0A4B98470A4B1C70074A59
S1131F1053785BB2002BFBDB044B596880225202DE
S1131F200A435A60044B984710BDC046000C004059
S1131F307D160000040C0040BD16000070B5041CA2
S1131F401A4A53785BB2002BFBDB194B9847194BA9
S1131F501C70164A53785BB2002BFBDB134E70687F
S1131F60C004C00E144B9847051C124B1C707668B5
S1131F70F602F60F114B1C700C4A53785BB2002B1F
S1131F80FBDB0A4B9C68240AA4B20D4B9847002E35
S1131F9007D1012C07D9281C211C0A4B9847051C82
S1131FA001E00134E540281C70BDC046000C00402F
S1131FB07D160000040C0040211C0000080C0040A9
S1131FC0BD160000854C000010B5041C064B984754
S1131FD0064B1C70064B59888022D2010A435A8052
S1131FE0044B984710BDC0467D160000020C00400B
S1131FF0000C0040BD16000010B5041C0F4B9847A0
S11320000F4B1C700F4B58880005000F59880E4A5F
S11320100A405A8059880D4A0A405A80191C802265
S1132020D2014B881342FCD1064B01025888064A60
S113203002400A435A80064B984710BD7D160000A3
S1132040020C0040000C0040FFF0FFFFFFBFFFFF49
S1132050BD16000010B50C7824020443024B9847C7
S1132060A4B2024B5C8010BDF91F0000000C0040BC
S113207010B5041C064B9847064B1C70064B5C8835
S11320802405240F054B9847201C054B984710BD89
S11320907D160000020C0040000C0040BD1600003C
S11320A03D1F000030B5D378002B1ED11378802B50
S11320B004D01B0680246402234300E000235478E8
S11320C00225AC430AD19478002C03D18024A402C5
S11320D0234302E0C024E402234341605478013CDA
S11320E0012C04D8114C234001E0416000230D046D
S11320F02D0CA024E4052C431C4384620D0CD02435
S113210024062C431C438462D478002C0CD15C0339
S113211005D59378012B01D1816100E041615378A9
S1132120013B012B00D8816030BDC046FFFFFBFF9F
S113213008B5031C0A1CC1090020002903D1580951
S1132140C001044940181F210B4001219940024B52
S1132150984708BD00440041A52000007047C046D0
S113216008B5044B9847044B9847044B9847044BD5
S1132170984708BD8D1D0000ED1600005D2100008C
S11321800D020000FEE7C04610B51C4B1C4A9A42E3
S113219003D01C4B194A9A4204D31B4B1B4A9A4244
S11321A010D31BE01A4B17480330C01A80080130C3
S11321B0800000231149124AD458CC50043383427E
S11321C0FAD1EAE7114B1A1D0F490331891A89081C
S11321D089005218002102C39342FCD10D4B7F2188
S11321E00D4A8A439A600D4B596880220A435A600B
S11321F00B4B98470B4B9847FEE7C0460000002066
S1132200FC7D0000700000201C0A002070000020EB
S11322100400002000ED00E0000000000040004148
S1132220AD6A0000E9490000064B1B68002B02D18F
S1132230054A044B1A60034A136818181060181CE6
S11322407047C046CC000020202A002001204042D4
S11322507047C04680239B014B6000207047C046F6
S1132260012070470020704708B50D4900230B7109
S11322704B710B8058228B520B1C083348310022BF
S113228004C38B42FCD1074B9847074B9847074B35
S11322909847074B9847074B9847074B984708BD03
S11322A0DC08002045310000B1290000DD240000D5
S11322B059230000D1250000112E000008B5024B5F
S11322C01880024B984708BDDC0800206D350000DB
S11322D008B5024B5880024B984708BDDC08002023
S11322E04D35000002308000014BC1507047C0469C
S11322F0DC08002008B5044B9847044B9847044B6E
S11323009847044B984708BD4D2A00004933000004
S113231099230000052F000008B50D4B1B68002B06
S113232012D05A6882420CD102E05A68824208D123
S11323308522825C1A778822825C5A7702221A727A
S113234002E01B68002BF0D1024B984708BDC04641
S1132350D0000020612500000022014B1A60704764
S1132360D00000200023037203774360084A5823F7
S1132370D15A0131D152074B1B68002B03D10360A2
S1132380044B186002E00360024B18607047C046BB
S1132390DC080020D000002038B54A4B1A68002A17
S11323A000D18DE0141C237A002B02D0022B6DD0B7
S11323B082E0454B9847051E03D1022323722377FD
S11323C07EE0606001222272404B89214354180A46
S11323D08A216854180C8B2168541B0E8C216B5471
S11323E0A07B80080123184088216854A17B1940F0
S11323F0E87A9043021C0A43EA72A17BC908194097
S11324008900D2B2042082430A43EA72A27B5208B2
S113241013405A00EB7A02218B431343EB722C4B8B
S11324201A790132D2B21A712A731A786A735B78F4
S1132430AB736389A27AEA731B0A2B74617B0F2343
S113244019406A7C0F2082430A436A74227B12017A
S1132450697C0B4013436B748123EB5C8222A85C80
S1132460000218438323EB5C1B0418438423EB5CB6
S11324701B061843227D2169164B9847227D6B78F1
S1132480D3186B70281C144B984719E0944203D15D
S11324900C4B22681A6006E013689C4201D01A1C97
S11324A0FAE7236813600A4A5823D15A0139D152F2
S11324B0A369201C984703E02468002C00D072E72D
S11324C038BDC046D0000020F124000019230000CC
S11324D0DC080020F96A000079310000034B002277
S11324E01A708D215A5449005A547047D400002060
S11324F070B5184B1B78002B0ED08D23154AD35C76
S1132500002B07D08D235B00D35C0024002B1FD14C
S1132510022302E0012300E000230E4E8D255D43DB
S11325207419201C00218D220B4B984710236370D3
S1132530231C8033221C12325A70110A9970110C18
S1132540D970120E1A71054A5823D15A0131D15249
S1132550201C70BDD40000200B6B0000DC080020A0
S113256000230370024A5823D15A0139D1527047CB
S1132570DC080020002806D08D300C4BA833FF3334
S1132580984201D30FE009480378002B0CD1074A85
S1132590A832FF3202E00378002B05D18D3090423F
S11325A0F9D3002000E000207047C046D40000208A
S11325B000228523C254054B1A790132D2B21A7112
S11325C002731A7842735B7883737047DC080020C7
S11325D0F0B5094A0232002301277F42064801264A
S11325E000251780D9000C5CB4430C5415710133D9
S11325F00832642BF5D1F0BD7C02002070B50B4A83
S113260002320023094E1488844209D1DC00A45DFF
S1132610A407E40F8C4203D1DD000448401904E010
S113262001330832642BEED1002070BD7C020020FF
S113263010B500221048C824A40001190378DC074F
S11326400BD48379002B0CD0002A03D094799C42BC
S113265002D802E0021C00E0021C08308842EDD1DE
S1132660101C0378022293430F2213403022134399
S113267003708023837110BD7C0200200378DA0785
S113268004D401235B424380002383717047C04616
S113269008B5044B9847002801D0808800E0024820
S11326A008BDC046FD250000FFFF000008B5034B30
S11326B09847002801D0024B984708BDFD2500002B
S11326C07D26000038B5041C427A857A2D02154314
S11326D02BB2002B05DA427B837B1B0213439D4202
S11326E041D16179A27912020A431F4B9A423AD02E
S11326F0627BA07B0002104300211C4B98470028FA
S113270022D0E179227A12020A430021164B9A421E
S113271008D1E27B217C0902154B1B881143591A0D
S11327204B4259418388AB4204D08523E25CC37990
S11327309A4201D8002913D0858003780F221340D0
S11327403022134303700BE00A4B9847617BA27B52
S113275012020A434280627AA37A1B0213438380E3
S11327608523E35CC37138BDFFFF0000FD25000035
S1132770DC0800203126000010B5041CC37B007C5B
S1132780000218431B4B984232D0E17A0907C90F63
S1132790194B984700282BD00378DA0728D48523CF
S11327A0E35C002B17D103780F221340302213432C
S11327B0037083790133DBB28371FF2B18D10F4986
S11327C08B1D0F4A89181A78520801321A7008337F
S11327D08B42F8D10CE0027813090F330F210B4020
S11327E01C010A4022430270002B01D1054B98477B
S11327F010BDC046FFFF0000FD2500007C02002044
S1132800260300007D26000010B5C17B037C1B025B
S11328100B430D4A934204D101235B42C3710372FB
S113282010E0C27A510703D5C3711B0A037209E091
S1132830841CC17A0907C90F181C044B984760719E
S1132840000AA07110BDC046FFFF000091260000E1
S1132850F0B5474680B4041CC27B067C360216439E
S1132860C77A3F07FF0FF9B2301C284B9847284B13
S113287098420FD000228923E2548A23E2548B2306
S1132880E2548C23E25402228823E254201C214B7C
S1132890984738E0627BA37B1B02134398461E4B88
S11328A09847051E2CD01D4B98476B7806336B70E8
S11328B000228923EA548A23EA548B23EA548C2382
S11328C0EA54FF2143461940E9731A0A2A74812302
S11328D0E85C8223EB5C1B0203438320285C000436
S11328E003438420285C00060343012018705970B8
S11328F09A70DE70360A1E715F71281C054B98476A
S1132900201C074B984704BC9046F0BD912600005C
S1132910FFFF000079310000F1240000B125000020
S11329206125000008B58268037B0020062B07D1CF
S1132930D3781079000218435179024B984701204B
S113294008BDC046AD26000008B5027B0023002A5E
S11329500FD082681378002B02D0012B04D007E03B
S1132960054B9847031C04E0044B9847031C00E004
S11329700023181C08BDC046C532000025290000EC
S113298038B509490B1D4031002401251A78002A65
S113299002D0013A1A702C1C06338B42F6D1002C5B
S11329A001D0024B984738BD9C050020293800000F
S11329B008B50A490B1D403100221A7006338B42B8
S11329C0FBD1074B64229A6000221A73054A1A61EC
S11329D000200549054B984708BDC0469C050020CA
S11329E0DC0500208129000049290000E5220000BF
S11329F010B5041C03685A78882A1AD11B7820223F
S1132A009343412B15D103790F2B12D9094B9847C6
S1132A1000280ED020230370237943706279852324
S1132A20C254A2798623C254023022792168024B0F
S1132A30984710BDF1240000F96A0000002902D073
S1132A402223037001E0242303707047F0B54F463E
S1132A504646C0B485B00024D34DD44881463C20BA
S1132A6081449AE12378203BDAB2042A00D994E124
S1132A709300CF4AD3589F4624232370E37A19073F
S1132A8000D58AE16179A27912020A43C94B9A42BC
S1132A9014D1E27B237C1B021343C74A12889A4257
S1132AA003D0C44A934200D077E1E37A9A0702D56F
S1132AB02123237071E1222323706EE1E17B227CC8
S1132AC012020A43BB4B9A4203D1E37ADE0700D5D4
S1132AD063E1617BA37B1B02B74A12880B439A42D2
S1132AE000D15AE1201CB54B9847B04B0027A11CDC
S1132AF0181C1A79002A37D0CE7A0A7B1202904623
S1132B001A88944642461643B4452ED1227B9B78BC
S1132B109B1ADBB2072B1CD8C278111C1941CE07B3
S1132B2012D5E179237A1B02A34A12880B439A42F5
S1132B3000D032E1E27B207C00021043E17A0907F5
S1132B40C90F9F4B984728E1012199400A43C2705D
S1132B504EE18270C2785B42DBB29A400123134398
S1132B60C3701F23037143E11F1C06334B45BFD1C0
S1132B70002F00D111E1617BA27B12020A433A804B
S1132B80237BBB700123FB701F233B718D488E4B4D
S1132B9098472DE1884B1A88E07B237C1B02034372
S1132BA09A4210D0E17A4F070AD4201C874B9847E9
S1132BB0814B1A88E07B237C1B0203439A4202D098
S1132BC07C498B4208D1E37A980702D521232370EC
S1132BD0E3E022232370E0E0E179237A1B020B4334
S1132BE09A4200D0D9E023232370D6E0201C002190
S1132BF0774B9847D1E00022764B1A70617C090923
S1132C00CAB2023292006C4BD258002A5FD0A31C85
S1132C10677BA07B0002384380466E463080E07BB1
S1132C20267C3602371C074368464780667C360795
S1132C30360F067141718121615C8220265C360267
S1132C4031438320265C360431438420265C3606D7
S1132C5031430291591A8C46617861446846017384
S1132C608521615C41738621615C8173E37AD907B4
S1132C70C90F022633400B43DBB2E17A4907C90F7F
S1132C8049010B43E17A0907C90F89010B435249F2
S1132C907F1879424F41BF003B43677AA17A09020A
S1132CA039434646701A41424841C00003436F46C7
S1132CB0BB716079A1790902014347480918484268
S1132CC0414109010B43BB716846904700E0002075
S1132CD0E37ADB07DB171840E379227A12021A43FE
S1132CE0344B9A420BD1E17B237C1B02324A12887B
S1132CF00B439A4203D1E37A190700D40120637984
S1132D00A27912021A432B4B9A423CD02A4B1A88BE
S1132D10284B9A4237D0002835D0304B9847071EAD
S1132D2031D02F4B98477B7803337B700022892363
S1132D30FA548A23FA548B23FA548C23FA54E27AF1
S1132D4002231A40FB7A02218B431343FB72627BFA
S1132D50A37BFA733B748123FA5C8223FB5C1B0222
S1132D6013438322BA5C120413438422BA5C12060E
S1132D70134300221A70174A12789A70227B5A70F1
S1132D80381C184B98472423237006E0201C164B4C
S1132D90984702E0201C154B9847201CA847041EA6
S1132DA000D05FE62DE0C046752500009C0500209C
S1132DB03C7C0000FFFF0000DC080020C52600006A
S1132DC0AD260000DC05002029380000393200005F
S1132DD03D2E0000D80500200100FFFFF124000073
S1132DE0B125000079310000512800006125000060
S1132DF0E179227A12020A43044B9A4200D0D7E6C0
S1132E00C8E605B00CBC90469946F0BDFFFF000033
S1132E100023024A1370024A13607047F005002031
S1132E20F405002008B5011C02481022024B984703
S1132E3008BDC04624090020F96A0000002902D018
S1132E403023037001E031230370024B1A780132FE
S1132E501A707047F0050020F0B5474680B4244B43
S1132E601E68244B1B7898468123F35C8222B15C54
S1132E70090219438323F45C240421438423F45C6E
S1132E802406214341441C4B1B789C461F1C102BD9
S1132E9000D91027FFB2002F16D0184B1D780B1C39
S1132EA0174A7C1EE4B20C19013410781978414099
S1132EB01970002D01D0117002E01078414011709A
S1132EC001330132A342F0D14346FA18094B1A7078
S1132ED06346DF1BFFB2084B1F70002F02D0322362
S1132EE0337001E03423337004BC9046F0BDC04617
S1132EF0F4050020F8050020F9050020FA0500205B
S1132F00FC05002030B583B0564B1B78002B00D154
S1132F10A5E0554B1C68002C00D19BE02378342B92
S1132F2045D18123E35C8222A15C090219438323F6
S1132F30E35C1B0419438423E35C1B0619434B4BDA
S1132F401B78C9184A4B5D681A6855409A68554001
S1132F50DB685D400095474B1B78002B09D0081CAB
S1132F6069460422444B9847637804336370012113
S1132F7008E001A80422404B9847019BE91A4D42FE
S1132F806941C9B23B4B1B78002B04D0364B1868FF
S1132F903A4B984703E0344B1868394B9847002262
S1132FA0314B1A602F4B1A78013A1A7057E0322BC2
S1132FB055D1332323702E483249334B98474EE082
S1132FC00378303B012B47D8274B1860284A017BF4
S1132FD01160C17B047C24020C432404417C090954
S1132FE021435160417B847B24020C432404417CB3
S1132FF00907090F21439160C17A447983791B023F
S113300023431B040B43D3600378312B02D1437851
S1133010043B4370831C8122815C8222825C120205
S11330200A438321415C09040A438421415C090663
S11330300A439A1A4378D218144B1A7000220B4B85
S11330401A700278303A53425A410A4B1A703223AA
S1133050037004E000200E4CA0470028B0D103B058
S113306030BDC046F0050020F4050020F80500201E
S1133070FC050020FA050020F96A00000133000075
S11330803D2A00002409002031370000F905002002
S113309075250000F0B5474680B48046002700201F
S11330A00F4C8626872510E00378112B0DD1825D05
S11330B0435D1B021343013B9BB283551A0A4255DD
S11330C00127002B01D113230370A0470028EBD163
S11330D0002F02D04046034B984704BC9046F0BDF5
S11330E07525000029380000F0B5474680B48046B5
S11330F000270020114C8626872513E00378162B21
S113310010D1825D435D1B021343013B9BB2835587
S11331101A0A42550127002B04D1172303701022E9
S11331208523C254A0470028E8D1002F02D040468E
S1133130034B984704BC9046F0BDC046752500007B
S1133140293800000022074B1A60074B322199608E
S11331501A7306491961064B0A2199601A73054AC4
S11331601A617047200600200C060020E930000098
S1133170240600209530000010B5041C8823C35C8D
S1133180990702D51222027007E0C27A910702D58C
S11331901022027001E01222027000218522A15443
S11331A0DA0704D5012149426171A17104E01E4985
S11331B088786071C978A17105221A4203D1201C54
S11331C01A4B984703E0E17B227CE1712272164A94
S11331D0117861725178A17251790131C9B251717A
S11331E02171E179227A12020A43114B9A4210D1D9
S11331F04123A37078235B42E3700E4B9847072367
S1133200184001308623E054000A80B28723E0543A
S113321009E06123A37078235B42E37000228623D4
S1133220E2548723E25410BDDC0800200928000082
S1133230FFFF0000516B000038B5051C1D4B98477B
S1133240041E36D0122303706B784370002285234A
S1133250C254194B98470723184001308623E05481
S1133260000A80B28723E05400228923E2548A238F
S1133270E2548B23E2548C23E254A01C6A78A91CE8
S11332800E4B98474123A37078235B42E3700123DC
S11332905B42E37123726A79AB796271A371084B63
S11332A01A7862725A78A2725A790132D2B25A7179
S11332B0227138BDF1240000516B0000F96A00004E
S11332C0DC08002038B58568037B0020032B13D16C
S11332D00DE00378162B0CD1027B6B789A4208D14F
S11332E017230370AA788823C254012004E0002025
S11332F0024CA0470028ECD138BDC046752500001B
S1133300122303707047C0460D4B1B68012809D077
S1133310002803D02122022805D001E0002202E087
S1133320012200E0202285215A5415221A7000221D
S1133330034B1A60034A5823D15A0139D1527047BA
S113334020060020DC08002070B50024374D384EDC
S113335066E02378103BDAB2072A61D89300F35869
S11333609F46201C0121334B984759E08623E25C99
S11333708723E35C1B02134305D0112323702E48DB
S11333802E4B98474CE01323237049E02C4B1B68C9
S1133390002B45D12A4B1C6014232370601C294B3D
S11333A09847294A5823D15A0131D15238E085230C
S11333B0E35C002B19D1617BA37B1B02224A128898
S11333C00B439A420ED1E37ADA070BD51623237006
S11333D015228623E25400228723E2541B48174B0C
S11333E098471DE0172323701AE01723237017E072
S11333F0201C174B98478923E25C8A23E35C1B0259
S113340013438B22A25C120413438C22A25C120687
S1133410134303D1201C0F4B984701E0201C98470D
S1133420201CA847041E94D170BDC0467525000019
S1133430507C00003D2E00002406002029380000A6
S113344020060020BD350000DC0800200C0600200A
S11334507927000061250000F8B5041C0B4F0C4EC1
S11334601F2502200321B8470120B047284008281F
S1133470F7D1064F064E1F250220211CB847012014
S1133480B04728408442F7D1F8BDC0466D3E0000E5
S1133490753D000008B50820064B98470F20064BE1
S11334A09847064B1B78002B02D01620014B9847F7
S11334B008BDC04659340000753D0000B90600201F
S11334C070B50E4B98470E4B984700220D4B1A705F
S11334D001220D4B1A700D4E0D4D1F2402200821A0
S11334E0B0470120A84720400828F7D104202E2106
S11334F0064CA0470C20A021A04770BD213C000031
S1133500453D0000B9060020B80600206D3E0000CD
S1133510753D000008B5024B1870024B984708BD72
S1133520B90600209534000010B5041C0820054B92
S113353098471F23011C99430C43E1B20820024B16
S1133540984710BD753D00006D3E000030B583B056
S11335506C46E080C1B22220034DA847E1792320C4
S1133560A84703B030BDC0466D3E000070B582B0C0
S11335706D46E8800635C6B22020311C054CA047B4
S11335806D782120291CA047AE19F1B22D20A04747
S113359002B070BD6D3E000010B5041C0520054B43
S11335A098470F23011C99430C43E1B20520024BB9
S11335B0984710BD753D00006D3E000010B5041C19
S11335C019200C4B98470F200B4B984721788B1CE4
S11335D023700131C9B2201C084B98470322084BC1
S11335E01A70084B802252039A61C046C0465A6141
S11335F010BDC04659340000753D0000A9400000CC
S1133600B80600200044004110B5041C081C002129
S11336100022054B9847201C0021044B9847201C8E
S1133620034B984710BDC046B93A00004D3A00001C
S1133630F13B0000F0B585B0264B1B78022B46D039
S11336400F20254B9847030741D5224B1B78012BAC
S113365024D10720204B9847071C6C460734201CB4
S113366001211E4EB0471E4D21780231C9B2281CDB
S1133670B04702A86A1C02922278911E0171AD180B
S11336806A7842715B3F8771164B9847124D1F242D
S11336900120A84720401628FAD118E0032B16D1A0
S11336A002200D4B98474409E4B2002C07D0032CA8
S11336B004D0053C631E9C41023400E001240A4B03
S11336C098470122034B1A70201C084B984705B0F9
S11336D0F0BDC046B8060020753D0000693F0000FB
S11336E038060020F1290000953400000933000059
S11336F008B5044B9847044B9847044B9847044B30
S1133700984708BDC1370000493A0000C1340000A1
S11337106922000008B5034B9847034B9847034BB5
S1133720984708BD35360000F522000045380000F2
S113373008B5024B9847024B984708BD093600006C
S1133740592E000030B5154B1D68002D1ED082681F
S113375069682C1C8A420AD204E05968914203D851
S11337601C1C04E02B1C0024891A596003E0521A23
S11337702368002BF1D14260002C03D0236803603E
S1133780206009E00560054B186005E00023036034
S113379083684360014B186030BDC046BC060020FE
S11337A008B5044B1A780132D2B21A700248034B9E
S11337B0984708BD3809002010270000894B0000F5
S11337C010B50024064B1C700648074B9847074B5E
S11337D098470748074B9847074B1C6010BDC046E5
S11337E038090020A1370000794C0000F54B000097
S11337F010270000894B0000BC060020094B1B6801
S1133800002B09D0834202D108E0984208D01B68FB
S1133810002BFAD1002004E0002002E0012000E0A7
S113382001207047BC06002010B5041C034B9847C8
S1133830002802D1201C024B984710BDFD37000020
S113384045370000F8B51A4B1B78002B2FD0EFF347
S1133850108072B6BFF35F8F0021164B1970144AA3
S11338601378DBB21170002805D10121114A1170BF
S1133870BFF35F8F62B69D00ED186D000E4E371CCE
S11338800DE0ED1A23683B60237B012B02D1201C41
S11338900A4B98472369002B01D0201C98473468B1
S11338A0002C04D063689D42EBD25D1B6560F8BDBB
S11338B03809002008000020BC060020453700001D
S11338C008B5014B984708BD5D4C000008B5014B95
S11338D0984708BD154C000008B50248024B9847AC
S11338E080B208BD70090020B90E0000034B1022FD
S11338F019680A73597E91435976704770090020FC
S113390010B50A4C20680A4B98470A4B1B5C1F22CF
S11339101A40012393401A1C074B1A60627E10233D
S113392013436376236810225A7310BD7009002074
S11339300D0C0000707C000000E100E008B5021CE2
S113394002480021024B984708BDC0467009002078
S1133950E90E0000F8B54F464646C0B42D4A002390
S1133960137093700021938091711381517091723F
S1133970D1721173917351731174536193611177FF
S1133980136253621385938501235B425385224C52
S1133990201C2249224B9847201C22490022224DF8
S11339A0A847201C21490222A8472068204A9146A2
S11339B09047204B98461B5C1F273B4001252A1C3F
S11339C09A401D4E3260627E012313436376206861
S11339D04573C8474246135C1F40BD403560627E54
S11339E01023134363762268102353737F21D37B00
S11339F08B43FCD1118802230B43138000200F4B0F
S1133A0098470F490F4B9847C0B20CBC9046994653
S1133A10F8BDC0463C09002070090020002C00427B
S1133A20450C0000CD3800004D0B0000C1380000EB
S1133A300D0C0000707C000000E100E03D1F000060
S1133A4040420F00854C00007047C04638B5031C47
S1133A500D1C144C601C191C1022134B9847647CD9
S1133A60124B1B78002B08D083200E491222104BD6
S1133A70984700220D4B1A7005E084200949013152
S1133A8011220B4B9847002D05D0281C0549013104
S1133A901022054B9847034B5C741820054B98473C
S1133AA038BDC046E4060020F96A0000F80600208C
S1133AB0E144000025160000F0B5474680B484B008
S1133AC0051C0F1C141C002817D000223E4B1A7032
S1133AD002223E4B1A703E48291C10223D4B984648
S1133AE098473D4E10233370701C291C1022C04788
S1133AF08320311C1122394B9847002C02D0012C11
S1133B0012D05AE0314B1B78012B3DD1324D10239A
S1133B102B70681C2E4910222E4B98478320291C99
S1133B2011222E4B98472FE0284B1B78012B2BD0CA
S1133B301022294B1A70244B1B78002B16D1264DCA
S1133B402B7080236B740122254B1A706846002168
S1133B50244B984710232B708320291C01221F4BD0
S1133B609847842020491022204B98471A4D681CFE
S1133B701D491022174B98478320291C1122174BEB
S1133B809847114B01221A70104B1C70002F02D061
S1133B900020022F13D1E40008231C403F017023AE
S1133BA01F403C430C4B1C7080277F423C435C7499
S1133BB001220B4B1A70012001E00020FFE704B042
S1133BC004BC9046F0BDC046C00600200900002099
S1133BD0D4060020F96A0000E4060020CD4100006C
S1133BE0F80600204D3A0000C406002045430000BA
S1133BF008B5011C84201022014B984708BDC0461B
S1133C004543000008B50122034B1A61034B1B68AE
S1133C10002B00D0984708BD00180040FC06002087
S1133C20F0B585B0354A0023537093703F2111706D
S1133C30334C21706370A370012269464A708B7003
S1133C400A703F202F4B98472378D9090022002976
S1133C5003D15A09D2012C4952181F273B40012491
S1133C60211C99409161294A147000235360936088
S1133C70137453749474D474137524215354D361FA
S1133C80136280235B02D360214B9361214B9362C7
S1133C9001235B42D362204B1363204B5363204EBA
S1133CA0301C2049204B98473568281C1F4B9847E7
S1133CB00740BC401E4B1C603268D369002BFCD10A
S1133CC02B68022633432B6001AC201C194B984708
S1133CD02023019380239B03636026720123637274
S1133CE00022A272E3720020211C134B9847134850
S1133CF000210022124B984705B0F0BD9009002026
S1133D0094090020FD1B0000004400419809002094
S1133D1000093D000500530005003E000500520067
S1133D20D009002000180042F50600005D150000CF
S1133D3000E100E0790200008D020000053C000073
S1133D401501000070B5094B1C1C803480252D0220
S1133D50A561802252035A61A5204000044EB04759
S1133D6065610A20B047A56170BDC04600440041AA
S1133D702516000070B5061CEFF3108463425C4105
S1133D8072B6BFF35F8F0022334B1A70334D281C79
S1133D9033490122334B98472B6801211A7E0A428A
S1133DA0FCD01A7ED10702D5802216439E620221DE
S1133DB01A7E0A42FCD004211A7E0A42FCD01A7EE2
S1133DC0510714D55A8B510703D5598B04220A4342
S1133DD05A83224A9279012A05D1996AC905C90DE3
S1133DE0214A118003E0996AC9B21F4A1180012156
S1133DF01A7E0A42FCD01A7ED10701D500229A62AB
S1133E0002211A7E0A42FCD004211A7E0A42FCD006
S1133E101A7E0025510710D55A8B510703D5598BAB
S1133E2004220A435A830D4A9279012A03D19D6AD6
S1133E30ED05ED0D01E09D6AEDB208480849002248
S1133E40084B9847002C05D00122034B1A70BFF38E
S1133E505F8F62B6E8B270BD08000020D009002070
S1133E6094090020D10800008C090020F8B5071C33
S1133E700D1CEFF3108463425C4172B6BFF35F8F95
S1133E800022344B1A70344E301C34490122344B16
S1133E909847336801211A7E0A42FCD01A7ED10762
S1133EA002D5C02217439F6202211A7E0A42FCD027
S1133EB004211A7E0A42FCD01A7E510714D55A8B6B
S1133EC0510703D5598B04220A435A83224A927913
S1133ED0012A05D1996AC905C90D224A118003E056
S1133EE0996AC9B21F4A118001201A7E0242FCD08D
S1133EF01A7ED10700D59D6202211A7E0A42FCD0A7
S1133F0004211A7E0A42FCD01A7E510714D55A8B1A
S1133F10510703D5598B04220A435A830E4A9279D6
S1133F20012A05D19A6AD205D20D0E4B1A8003E0FC
S1133F309A6AD2B20B4B1A80074808490022084BF0
S1133F409847002C05D00122024B1A70BFF35F8FF3
S1133F5062B6F8BD08000020D009002094090020B2
S1133F60D10800008C090020F0B55F4656464D4646
S1133F704446F0B483B0061C0C1CEFF3108778425F
S1133F807841019072B6BFF35F8F0022414B1A70E3
S1133F90414D281C41490122414B98472B6801217E
S1133FA01A7E0A42FCD01A7ED10701D520229A62D9
S1133FB002211A7E0A42FCD004201A7E0242FCD05E
S1133FC01A7E50070FD55A8B510703D5598B0422FB
S1133FD00A435A83304A9279012A09D19A6AD2054E
S1133FE0D20D304B1A80631EDBB2002C05D13CE0AD
S1133FF09A6AD2B22B4B1A80F5E701339B19994682
S11340002020254A9046012400239A4602250421B3
S1134010171C04229346424613681A7E2242FCD09F
S11340201A7E224201D052469A621A7E2A42FCD05B
S11340301A7E0A42FCD03B681A7E0A4211D05A8B7F
S11340400A4204D05A8B5846024392B25A83124809
S11340508279012A03D1986AC005C00D01E0986AEB
S1134060C0B2307001364E45D5D10B480B49002201
S11340700B4B98470199002905D00122054B1A7072
S1134080BFF35F8F62B603B03CBC90469946A2462C
S1134090AB46F0BD08000020D009002094090020A0
S11340A0D10800008C090020F8B54F464646C0B43C
S11340B0041C0D1CEFF3108671427141894672B6DF
S11340C0BFF35F8F00223C4B1A703C4F381C3C49B5
S11340D001223C4B98473B6801211A7E0A42FCD0DE
S11340E01A7ED10701D560229A6202211A7E0A4201
S11340F0FCD004211A7E0A42FCD01A7E51070FD547
S11341005A8B510703D5598B04220A435A832B4AED
S11341109279012A0ED1996AC905C90D2A4A1180DA
S1134120264A92799046261C012702200424042260
S113413094462BE0996AC9B2234A1180F0E71A7EAB
S11341403A42FCD031781A7E3A4200D099621A7E03
S11341500242FCD01A7E2242FCD01A7E224214D0A3
S11341605A8B224204D05A8B61460A4392B25A8334
S11341704246012A05D19A6AD205D20D12490A8013
S113418003E09A6AD2B210490A800136013DEDB2C9
S1134190FF2DD4D109480A4900220A4B98474A46C0
S11341A0002A05D00122044B1A70BFF35F8F62B658
S11341B00CBC90469946F8BD08000020D0090020A8
S11341C094090020D10800008C090020F8B54F465E
S11341D04646C0B4071C0C1C151CEFF31086714234
S11341E07141894672B6BFF35F8F0022504B1A703B
S11341F0504E301C50490122504B984733680121DE
S11342001A7E0A42FCD01A7ED10701D540229A6256
S113421002211A7E0A42FCD004211A7E0A42FCD0F2
S11342201A7E510714D55A8B510703D5598B042292
S11342300A435A833F4A9279012A05D1996AC905EA
S1134240C90D3F4A118003E0996AC9B23C4A118002
S113425001211A7E0A42FCD01A7ED10700D59F6242
S113426002211A7E0A42FCD004211A7E0A42FCD0A2
S11342701A7E51070FD55A8B510703D5598B042247
S11342800A435A832B4A9279012A0ED1996AC905A5
S1134290C90D2B4A1180274A92799046261C012782
S11342A002210424042294462BE0996AC9B2244AC8
S11342B01180F0E7187E3842FCD03278187E3842FC
S11342C000D09A62187E0842FCD0187E2042FCD0AE
S11342D0187E204214D0588B204204D0588B62465A
S11342E0104380B258834246012A05D1986AC0051A
S11342F0C00D134A108003E0986AC0B2104A1080BF
S11343000136013DEDB2FF2DD4D10A480A490022FD
S11343100A4B98474B46002B05D00122044B1A70D8
S1134320BFF35F8F62B60CBC90469946F8BDC04699
S113433008000020D009002094090020D1080000C2
S11343408C090020F0B55F4656464D464446F0B40D
S113435083B0051C0E1C141C01205B4B9847EFF323
S1134360108779427941019172B6BFF35F8F0022C1
S1134370564B1A70564F381C56490122564B9847D3
S11343803B6801211A7E0A42FCD01A7ED10701D56E
S113439000229A6202211A7E0A42FCD00422197E6B
S11343A01142FCD01A7E510714D55A8B510703D5FC
S11343B0598B04220A435A83454A9279012A05D12A
S11343C0996AC905C90D454A118003E0996AC9B2C1
S11343D0424A11800122197E1142FCD01A7ED10773
S11343E000D59D620222197E1142FCD00422197E5E
S11343F01142FCD01A7E51070FD55A8B510703D5B1
S1134400598B04220A435A83314A9279012A09D1E9
S11344109A6AD205D20D314B1A80631EDBB2002C8E
S113442005D13BE09A6AD2B22C4B1A80F5E70133EE
S11344309B1999460021264A904601248A46022562
S11344400420171C04229346424613681A7E224213
S1134450FCD01A7E224201D052469A621A7E2A4227
S1134460FCD01A7E0242FCD03B681A7E024211D074
S11344705A8B024204D05A8B59460A4392B25A8349
S113448013498A79012A03D1996AC905C90D01E042
S1134490996AC9B2317001364E45D5D10C480D49DF
S11344A000220D4B9847019A002A05D00122074BA0
S11344B01A70BFF35F8F62B603B03CBC9046994656
S11344C0A246AB46F0BDC0462516000008000020F9
S11344D0D009002094090020D10800008C09002094
S11344E0F0B55F4656464D464446F0B483B0051CCD
S11344F08846141C0120834B984700200021824BDE
S11345009847824E301C82490122824B9847336877
S113451001211A7E0A42FCD01A7ED00701D540221E
S11345209A6202211A7E0A42FCD004211A7E0A42AF
S1134530FCD01A7E510714D55A8B560703D5598BD4
S113454004220A435A83714A9279012A05D1996A4D
S1134550C905C90D704A118003E0996AC9B26E4A4F
S1134560118001211A7E0A42FCD01A7ED00700D5A0
S11345709D6202211A7E0A42FCD00422197E114255
S1134580FCD01A7E510714D55A8B560703D5598B84
S113459004220A435A835D4A9279012A05D1996A11
S11345A0C905C90D5C4A118003E0996AC9B25A4A27
S11345B011800122197E1142FCD0404601781A7EF6
S11345C0D60700D599620222197E1142FCD004223A
S11345D0197E1142FCD01A7E50070FD55A8B510711
S11345E003D5598B04220A435A83484A9279012AF3
S11345F008D19A6AD205D20D474B1A800021002CAB
S113460047D004E09A6AD2B2434B1A80F6E7454693
S1134610013CE4B20194231C434401339B46002132
S11346203A4B9A4601200224042299465F46564694
S113463033681E7E0642FCD0AC466E78B3461E7EBE
S1134640064201D05E469E621E7E2642FCD01E7E3D
S11346501642FCD04E4633681E7E164211D0598B4A
S1134660114204D0598B0426314389B25983274E11
S1134670B179012903D1996AC905C90D01E0996A83
S1134680C9B2634619700135BD42D0D1019B0133D3
S113469098441E4B1B6801201A7E0242FCD01A7EED
S11346A0D60701D500229A6202201A7E0242FCD06B
S11346B004201A7E0242FCD01A7E500710D55A8B71
S11346C0510703D5598B04220A435A830F4A92791E
S11346D0012A03D1996AC905C90D01E0996AC9B2D1
S11346E04246117009480A4900220A4B98470020A3
S11346F000210A4B984703B03CBC90469946A24619
S1134700AB46F0BD2516000065010000D00900206D
S113471094090020D10800008C0900204501000004
S1134720037F002B06D10022034B1A708022120350
S1134730024BDA617047C046B807002000440041CC
S113474010B5017B002908D0846800230448E25C8A
S11347501A540133DAB28A42F9D3012010BDC0469B
S11347603407002070B50C4B1D780C4E301C0C49DE
S11347702A1C0C4B98470C480023438101240473E2
S113478002234373837306610575084B8361084BE9
S11347909847084B1C7070BD48070020BC070020D8
S11347A04C070020F96A0000280800202147000077
S11347B065230000B807002070B582B0051C0E1CEC
S11347C000226B46DA80064C281C69460631A04755
S11347D00028F9D16B4606331B88337002B070BDD4
S11347E00913000070B5061C0D1C034C301C291C59
S11347F0A0470028FAD170BDDD12000010B58CB0BE
S11348006846114B984700236A46537013715374DA
S11348100A231373E023DB00D3810C4C201C0C49C6
S11348200C4B984723685A7E52B2002AFBDB197856
S113483002220A431A70054B1A68537E5BB2002B9E
S1134840FBDB0CB010BDC046BD1700000C0A0020F5
S11348500040004205180000F8B54F464646C0B473
S1134860514B1B78002B00D086E00A2500274F48C7
S11348708046424611684B7E5BB2002BFBDB0A7B11
S1134880022313430B734B7E5BB2002BFBDB012033
S1134890042602240A7ED2B2031C1340164200D01E
S11348A02343144200D033431842F3D04B7E5BB20F
S11348B0002BFBDB4E8BB6B2B14601230B760A7E8E
S11348C0D2B21340560701D502200343900701D505
S11348D0042213435A0728D502230B7625E002202D
S11348E00343960701D50422134301221A40980773
S11348F001D5042002435E0701D502231A43D2B234
S11349000A763F19013D002DB3D1381C0A21284BEA
S11349109847011C274B18600422274B1A7027481C
S1134920274B9847274B984726E04846264B9847FD
S1134930264B9847264C134B114AA047124A134B57
S1134940A047134A134B234EB047134A134BA047B7
S1134950134A144B204CA047204B9847041C204872
S11349604946174B9847114B19680A7ED2B2012366
S113497013405007B3D4B4E70CBC90469946F8BD35
S11349804C4006C9FFFF2F3F000000000000184004
S11349907B14AE47E17A843FCDCCCCCCCCCCFC3F6D
S11349A00000000000003E40B80700200C0A002070
S11349B0854C00004C07002048070020747C000050
S11349C01D6B000065470000A94D0000C56600008E
S11349D0D55A00008D540000494E0000694D000076
S11349E0947C0000C046C046F0B591B0454B984752
S11349F0454B9847454B98470220454B98474548B7
S1134A00454B98470F20454B98470120444B984706
S1134A102320444B98474448444B98470220444938
S1134A20444B98478023DB05009300230193FF2226
S1134A306846028100228372C3729621890108911B
S1134A400126242146542521465426214354272156
S1134A5043540A932C2143542D2143540593038238
S1134A60C3760276027742761323837642778023D5
S1134A705B030393304B0C93304B0D9301235B4248
S1134A800E930F932E4C2F4B1C602F4A2F4B1A6002
S1134A902F4A304B1A60201C2F496A462F4B9847E7
S1134AA02F4F3B68986800212E4DA8473B685868F3
S1134AB00021A8472568281C2B4B98471F23184022
S1134AC086402A4B1E602368DA69002AFCD12A68D2
S1134AD0022313432B600122254B1A70BFF35F8F0F
S1134AE062B6244B984780221203234B5A61234C0D
S1134AF0234E244DA047B047A047FA20C000A84742
S1134B00F8E7C04661210000E9150000F136000015
S1134B10BD22000067450000D122000029350000B5
S1134B201535000099350000AC7C0000252E0000EE
S1134B3041470000E52200000300040003000500D3
S1134B4000070020C0080020E5470000BC08002042
S1134B50B9470000B808002000080042D50F000043
S1134B606C000020C96B00005D15000000E100E04E
S1134B7008000020FD4700000044004115370000F4
S1134B80594800005116000010B5041C134B9847F7
S1134B90134B1A7862438118124B59605968090CF7
S1134BA059605B68002B07D00E4B5968013280189E
S1134BB018810D4B984704E082180A4B1A810B4B5D
S1134BC09847084B1B89632B02D86433054A138129
S1134BD0044B1889064B984710BDC046D9380000CD
S1134BE0140A002048080020ED38000001390000B4
S1134BF03D39000008B50022034B1A70034B984757
S1134C00034B187008BDC046480800205539000001
S1134C10140A002008B50E4B5B68002B07D00C4A21
S1134C205368013B5360002B01D10A4B9847084A53
S1134C3013780133DBB21370074A12789A4206D80C
S1134C40034B00221A70DB68002B00D0984708BD84
S1134C504808002001390000140A002008B5044B5C
S1134C609847044B1B69002B00D0984708BDC046E9
S1134C70ED38000048080020014B18617047C04619
S1134C8048080020002934D00123002210B48842AF
S1134C902CD301242407A14204D2814202D2090167
S1134CA01B01F8E7E400A14204D2814202D2490088
S1134CB05B00F8E7884201D3401A1A434C08A0422B
S1134CC002D3001B5C0822438C08A04202D3001BC1
S1134CD09C082243CC08A04202D3001BDC082243D8
S1134CE0002803D01B0901D00909E3E7101C10BCFC
S1134CF07047002801D00020C04307B4024802A135
S1134D004018029003BDC046190000000029F0D0ED
S1134D1003B5FFF7B9FF0EBC4243891A1847C046D2
S1134D207047C0469C460304F0B51B0C17043F0CA7
S1134D30150C1E1C041C000C7E436B434743454367
S1134D40FB18300C1818874202D980235B02ED1837
S1134D50030CED1863465C434A433604360CA11831
S1134D60000480194919F0BD38B50E4B0C4A041CD7
S1134D700D1C01F02DFD002804D1201C291C01F07C
S1134D806DFC38BD074B064A201C291C01F032F982
S1134D9001F064FC80231B06C018F2E7C046C0463D
S1134DA0000000000000E04110B5041E33D001F003
S1134DB019FD9E231B1A962B09DC083884406402D3
S1134DC0640ADBB26402DB05600A184310BD992B48
S1134DD00ADD0522121A211CD1400A1C011C1B31B8
S1134DE08C40611E8C411443052801DD421F944010
S1134DF0144A2240610704D00F210C40042C00D037
S1134E00043251010AD59F23181AFF2816D09401A1
S1134E10640AC3B2D6E700230024D3E7D208FF2BE9
S1134E2003D05402640ADBB2CCE7002A06D0802403
S1134E30E40314436402640AFF23C3E7FF2300244A
S1134E40C0E7C046FFFFFFFBF8B55F465646444641
S1134E504D46F0B40C034D00CE0F610A440F2143BC
S1134E60C400180380465800400D8246D80F84467B
S1134E704046400A530F0343D0006D0D371C834650
S1134E805246664500D1A4E0AF1A002F00DC09E1C8
S1134E90002A3BD1184300D0EAE0630700D187E041
S1134EA00F232340042B00D182E0221DA242A441FF
S1134EB06442802309191B040B40371C141C002B6B
S1134EC000D17CE0CE4B01359D4200D105E1CD4BB4
S1134ED0E40819404807490204430B0B0020002151
S1134EE01B031A0B0B0D6D051B0513436A08C64DF6
S1134EF0FF071D4015436D006D08291C3943201C14
S1134F003CBC90469946A246AB46F8BDBC48854297
S1134F10C3D0802000040343382F00DDF0E01F2FAE
S1134F2000DD24E12020C01B1A1C81468240584623
S1134F30F8400243944658464A469040421E9041E7
S1134F40FB40624602431F1CA21A9442A4416442DD
S1134F50C91B091B141C0B029FD549024F0A002FC1
S1134F6000D1C8E0381C01F03DFC021C083A1F2A9D
S1134F7000DDB5E02821091A201C9740C8400743EA
S1134F809440954200DDB2E0551B691C1F2900DDE9
S1134F90DCE01F22551B3B1C221CAB40CA40AC402A
S1134FA0651EAC411343CF401C43391C002574E7F4
S1134FB080231B040B40371C002B00D082E7904B4E
S1134FC04807E4080443C9089D4248D009030B0B71
S1134FD084E7AA1A9446002A00DC98E05046002888
S1134FE052D08748854200D157E78020000403430C
S1134FF06246382A00DDFCE01F2A00DD4AE1202257
S11350006046101A1A1C82408246914658466246EF
S1135010D0404A4602439046584652469040421E6B
S11350209041424602436046C3401219A242A44141
S1135030644259180919141C080200D42DE7704B56
S113504001359D4200D122E16E4B600819400123D5
S113505023401C1C0443CB071C4349081DE7231CA5
S11350600B433AD080231B030B431B031B0B35E775
S1135070013F002F65D15846221A9442A44164424C
S1135080C91A091B141C66E75846184300D104E7E3
S11350900122524294446046002800D0C5E058469C
S11350A00219C3E7002F73D1681C4005400D012885
S11350B000DCDEE05A46A21A9442BF41C81A7F427D
S11350C0C71B380200D489E05A46141BA3459241F9
S11350D0591A52428F1A664641E700230024FDE61E
S11350E0271C283887400024954200DC4CE74549BA
S11350F0AD1A3940D1E6201C01F074FB203034E7AE
S11351005A461A43531E9A41D2B200271CE7002A7A
S113511000D0DCE0681C4205520D012A00DC8DE061
S1135120374DA84200D1F3E05D462A19A242A441BA
S1135130644259180919CC07520814434908051C3C
S1135140ABE62F48854200D0E6E6A6E62B1C1F3BC3
S11351503A1CDA40131C20296CD03F22551BAF4067
S11351603C43601E84411C430021002595E6381C05
S113517020381A1CC240101C202F5DD04022D71B9F
S1135180BB405A461A43531E9A4102430027DBE6AA
S1135190002D3BD01A4DAA4500D193E080252D0463
S11351A07F422943382F00DDACE01F2F00DD29E1C9
S11351B02025ED1B081C261CA840FE40AC400643DD
S11351C0651EAC413443F9405D462C1BA345924116
S11351D05B1A5242991A55466646BCE6131C3B4379
S11351E0141C002B00D0BAE600270021002500245F
S11351F0E5E65A461A43531E9A41D2B2002314E7F5
S1135200FF070000FFFF7FFFFFFF0F800D1C2543FA
S113521058D0FF43002F51D1041BA3459241591A82
S11352205242891A5546664695E69648854200D00C
S1135230DEE632E6002793E70023A2E7081C2043BA
S1135240002D00D0C4E0002800D1F7E058461843F0
S113525000D122E658460219A242A44164425918D8
S11352600919141C0A0200D417E6874B01251940BA
S113527013E6081C2043002D39D1002871D159466A
S1135280194303D0191C5C46664606E60027002134
S1135290002494E6604620381A1CC24060469146B9
S11352A0202800D1ACE04022121A93405A461A43F7
S11352B0531E9A414B461A430023B6E6714DAA4544
S11352C000D06FE7191C5C4655466646E5E5002D9F
S11352D022D10D1C254377D0D543002D71D15C44D8
S11352E05C4592415918524289185546A4E6002853
S11352F04DD15946194300D194E0191C5C466646C9
S1135300604DCAE50C43611E8C41E4B200215BE7A9
S1135310051C0021002452E65A4DAA4554D055429A
S1135320802210040143382D00DD81E01F2D00DDB3
S113533092E02022501B0A1C84468240201CE84034
S11353400243904662469440601E844142461443A0
S1135350E9405C445C459241CB1852429918554649
S11353606AE65846184300D197E55846271ABC42C6
S11353709241C81A5242801A020266D55846041B4A
S1135380A3459241591A5242891A664685E5584600
S1135390184333D04807E40804438020C9080003B5
S11353A0014208D0DD08054205D15946CA085C0708
S11353B01443291C6646630FC9001943E400314DA8
S11353C06BE5304A9245AED1191C5C46554664E5FE
S11353D0002836D05846184310D080254807E408E2
S11353E0C9082D0304432942E5D0D8082842E2D154
S11353F05D46EA085C071443011CDCE7214D4CE5DB
S1135400002353E73D1C203D0A1CEA40151C202FB5
S113541034D04026F71BB9400C43611E8C412C4309
S11354200021D1E680210027C903164D0024C6E5DA
S11354300C43611E8C41E4B200218AE7191C5C46CE
S11354402BE5191C5C460F4D27E5031C3B4300D19B
S11354501CE7011C3C1C20E52020404240190A1C8A
S1135460C2409046202D0BD04020451BA9400C4340
S1135470611E8C4145462C4300216AE70021CBE79D
S11354800021F4E7FF070000FFFF7FFFF0B5564659
S113549044465F464D46F0B41F1C0B031B0B984655
S11354A04B0087B0041C81465B0DC80F161C9A463E
S11354B00090002B51D06A4B9A4531D0802241464E
S11354C052030A43630FD2001A43664B90460025E9
S11354D0E20091469A44002402953B031B0B9B4631
S11354E0FD0F7B00311C5B0D019560D05C4A93423B
S11354F054D08021584649030143720FC900114317
S1135500584A8B469B18F1000020009A04436A40D5
S113551003920F2C00D9ADE0534EA4003459A74692
S1135520404604436ED1002102250824884689465A
S11355300295D2E7009C0298C3464946019402288A
S113554064D0032800D1ABE2012800D038E2019AEC
S1135550002402400025A14660E0434623434AD08C
S11355604046002800D1C0E101F03CF9031E272B7E
S113557000DDB3E128210D1A211C083B4246E94015
S11355809A400D1C1543221C9A40A8469146374B5D
S113559000251B1A9A46002402959EE75A46164394
S11355A00320002EB1D1B34600210220ADE75A46B4
S11355B032431BD05B46002B00D18AE1584601F0F0
S11355C011F9272800DD7DE12822171A011C321C5D
S11355D008395B46FA408B40171C1F43331C8B4031
S11355E0BB46191C214B1B1A00208EE70027BB4623
S11355F00021012089E700200125042480468146FA
S113560002956AE703250C24029566E7019C03943E
S1135610039D01222A400024114DA14600200021AF
S11356202403260B0C0D2405114B34432D05234074
S11356302B435B005B08D207191C4846114307B093
S11356403CBC90469946A246AB46F0BD002280245D
S113565024039146024DE1E700240025A146DDE73D
S1135660FF07000001FCFFFFC07C00000DFCFFFFF2
S1135670FFFF0F805546ED1A0495D84500D953E134
S113568000D14EE1049C0025013C4E46049447465B
S1135690A946584603020C0E1C430902250C230498
S11356A01B0C0091381C291C0193FFF7EBFA01999C
S11356B083464143381C8A46291CFFF727FB330CD9
S11356C0090419438A450CD95B460919013B8C42EC
S11356D000D947E18A4500D844E10222524293446A
S11356E009195346CB1A181C291C9846FFF7CAFA05
S11356F0071C0198291C784382464046FFF706FBA5
S113570036040B04360C33439A4509D91B197A1E07
S11357109C4200D924E19A4500D821E1023F1B199B
S11357205E4632041743380CBB46009E009F514628
S11357303F0C32045B1A5946BA46120C0F043F0C54
S1135740904651467A434F4341464143564670433F
S1135750CF19160CBE19B14202D980277F02C01995
S1135760310C12043604120C4018B618834200D2CD
S1135770C4E000D1BEE0191A4846861BB145BF41BA
S11357807F42CF1BA74200D113E1291C381CFFF72D
S113579079FA019902904143381C8946291CFFF784
S11357A0B5FA330C0904194389450CD9029B09192C
S11357B0013B8C4200D9FFE0894500D8FCE0029F00
S11357C00919023F02974F46CF1B381C291C059725
S11357D0FFF758FA071C0198291C7843814605985D
S11357E0FFF794FA36040904360C0E43B14509D97F
S11357F036197B1EB44200D9E0E0B14500D8DDE0A3
S1135800023F3619029D4946761A290439430B048E
S113581057460A0C1B0C40464546584355437B43A8
S11358207A43EB18070CDB199D4202D980256D02DF
S113583052191D0C00041B04000C52191B1896422B
S113584035D300D1FCE001231943049E994FF51987
S1135850002D00DCA1E0480709D00F230B40042BE6
S113586005D00B1D8B42894149428B44191C5A4671
S1135870D20107D5904B5C46049E80271C40FF0054
S1135880A346F5198D4B9D427ADD039C01222240EB
S113589000248B4DA146C1E68024240347462742B9
S11358A04CD13C432403240B009A854DB6E63619AB
S11358B0481EB4425ED9011C9642C4D1009E9E4249
S11358C0C1D1C2E7031C283B311C99408B460021FF
S11358D088E6301C00F086FF203072E6283B211C4D
S11358E0994000228846914651E6201C00F07AFF38
S11358F020303BE60021B14500D33DE7009F5A46E6
S1135900B944B945BF417F423F19FB18013A9C4253
S11359101ED2984200D97EE000D1B5E0191A934610
S11359202AE7894500D8ADE6484646464246770808
S1135930D3074608C0071E438146AAE658462042BC
S113594012D1044324032A1C240B89465C4D65E6CA
S1135950A342E3D1009F4F45DBD9211A93460BE7BD
S1135960171CDDE69B46BCE63C432403240B009A4B
S1135970534D53E6B24259D800D18AE0011C62E784
S11359805F46C9087B07039E0B437C026D05012219
S11359909946240B6D0D324040E64A4B049FDB1BB5
S11359A0382B10DD039C0122224000240025A1464F
S11359B034E60121494248E7029304E71F1C21E72A
S11359C0019C039441E71F2B40DC3F48049F0C1CBF
S11359D03A1858469140DC40904020430A1C511E1E
S11359E08A41011C11435A46DA40131C480709D066
S11359F00F220A40042A05D00A1D8A4289414942DD
S1135A005B18111C1A0234D5039C01222240002485
S1135A100125A14602E6009F02214942B9448B4474
S1135A20B945894149420919CB18A4E6009D881E4D
S1135A306900A942AD416D422C19361900913AE72B
S1135A40002B00D033E70024009437E71F4A049C5E
S1135A505D46121BD5402A1C202B1FD01C4E5F46CE
S1135A60A3199F403B1C19434B1E9941114300232A
S1135A70BCE75A07C9080A43039F91465B02012207
S1135A801C0B3A400025C9E54E45C4D89346002175
S1135A9072E6009F9F42C9D3011C0FE70023E2E78F
S1135AA0802424035F463C432403240B019A894643
S1135AB0034DB3E5FF030000FFFFFFFEFE070000F8
S1135AC0FF07000002FCFFFF1E040000E2FBFFFFD3
S1135AD03E040000F0B5564644465F464D46F0B4D9
S1135AE01F1C0B031B0B9A464B0087B0041C8046FB
S1135AF05B0DC80F161C02938146002B68D0694BBE
S1135B000299994232D08022534652031A43D2005A
S1135B10630F1A439246644AE00089188046029152
S1135B20002400253B031B0B9B467800FB0F321C13
S1135B30400D039300D175E05A4B984269D08022FE
S1135B40594652030A43730FD2001A43564B9346E5
S1135B50C018F200002303994E4671401C430F2CD9
S1135B6000D9A9E0514EA4003459A74653461C431A
S1135B7000D087E00025AA46A84608240225D1E7DC
S1135B804946022D6CD0032D00D117E2012D00D01F
S1135B9058E10D40EDB20024A9460023A0460020A0
S1135BA0002125030A0D1C052D0B1205404B2A4329
S1135BB0134023435B004C465B08E207191C404634
S1135BC0114307B03CBC90469946A246AB46F0BD93
S1135BD05346234350D05346002B00D184E1504612
S1135BE000F000FE031E272B00DD76E128210D1AAC
S1135BF0211C083B5246E9409A400D1C1543221CC7
S1135C009A40AA4690462B4B00241B1A0293002567
S1135C1088E75B461E430323002E9CD1B346002233
S1135C20022398E75B46334321D05846002800D12D
S1135C304EE100F0D7FD272800DD42E128210F1AAC
S1135C40021C311C083A5B46F94093400F1C1F4369
S1135C50331C9340BB461A1C164B181A00237AE7D0
S1135C6001230B4000249946A0460E4B97E70027DA
S1135C70BB46002201236EE7002104248A4688469D
S1135C8001254FE70C2403254CE700258024A94671
S1135C902403A846034B82E7DA46904603991D1C69
S1135CA06FE7C046FF07000001FCFFFF007D000016
S1135CB0FFFF0F800DFCFFFF029F160C38180490A5
S1135CC04046070C0004000C1204120C031C53433E
S1135CD0041C3D1C7443554398463B1C7343641990
S1135CE0A44644460293230C63449D4204D9029D76
