:100000009829002035170000311700003117000033
:1000100000000000000000000000000000000000E0
:100020000000000000000000000000003117000088
:100030000000000000000000311700003117000030
:100040003117000031170000311700003117000090
:100050002D03000031170000311700003117000098
:10006000311700000D0700001D0700002D070000DC
:100070003D0700004D0700005D070000311700003C
:100080003117000031170000D1130000E113000008
:10009000F113000000000000000000003117000014
:1000A0003117000000000000311700003117000078
:1000B0000000000010B5064C2378002B07D1054B3B
:1000C000002B02D0044800E000BF0123237010BDC4
:1000D0007000002000000000B443000008B5084B89
:1000E000002B03D00748084900E000BF0748036819
:1000F000002B03D0064B002B00D0984708BDC0460C
:1001000000000000B443000074000020B44300006D
:100110000000000010B50020084B9847084CFA2159
:100120008900A047074B1860FA218900A047064BB9
:1001300018600522054B1A6010BDC046F91000007A
:10014000953F0000040000200000002010E000E0C7
:1001500030B5084B1C68084A00258021490206E09A
:10016000002C04D05460956013680B42FCD0013819
:10017000F6D230BD0000002010E000E00C4B1B6800
:10018000002B10D1EFF31083002B09D172B6BFF30F
:100190005F8F0022074B1A700122074B1A7002E092
:1001A0000022054B1A70024B1A6801321A60704720
:1001B0008C0000200800002090000020084B1A68E6
:1001C000013A1A601B68002B09D1064B1B78002BE3
:1001D00005D00122044B1A70BFF35F8F62B67047DF
:1001E0008C0000209000002008000020F0B5474659
:1001F00080B482B001AC012666700027A77026701B
:100200001320211C274DA847274A904680231B0313
:100210009361277066701C20211CA8476670A77028
:1002200026705220211CA8473E20211CA8473F20B1
:10023000211CA8472F20211CA8471420211CA847B7
:100240008022D202194B9A61803B8022D2059A61AA
:10025000802212069A61802212029A6180235B0337
:100260004246936127705320211CA847104B196AFE
:10027000802292030A431A6204220E4B1A806B46B4
:100280009E70DF7005236A46137056700920694618
:10029000094CA0470C206946A04702B004BC904618
:1002A000F0BDC046AD0400000044004100450041DF
:1002B0000004004000540042ED1200001723002A01
:1002C0000FD18B00084A9A58002A04D1191C064BFA
:1002D000C850002305E01D23121A501E82415242CD
:1002E0001340181C7047C0464408002017230029FB
:1002F00007D100231F2800D8034B01228240DA6077
:100300000023181C7047C04600180040172300291E
:1003100007D100231F2800D8034B012282409A6096
:100320000023181C7047C0460018004070B500221A
:10033000164B1A7000231F26154D144C1F2B10D975
:1003400019E0144900E000210A619B005B59002B71
:1003500000D0984723780133DBB223700F2B14D8D9
:10036000ECE7321C1A40012191400A1C0949096935
:100370001142E6D1EEE7321C1A40012191400A1CDD
:10038000002109691142DED1E4E770BD4008002078
:100390004408002000180040054B197802220A4347
:1003A0001A701A1C53785BB2002BFBDB7047C046F7
:1003B0000018004000B583B0124B996940220A43EF
:1003C0009A6101A900230B7005200F4B9847052067
:1003D0000E4B98470E4B197801220A431A701A1CCB
:1003E00053785BB2002BFBDB0A4B191C4031002217
:1003F00004C38B42FCD11022074B1A60074B98476D
:1004000003B000BD0004004011120000851100007F
:10041000001800404408002000E100E099030000BB
:10042000002303604360012202724272837202233E
:10043000C3727047F0B583B0051C0C1C01A90023E2
:100440004B70CB7063680B70237A8B702078154BE0
:10045000984700231F2D00D8134B072129408900FE
:10046000E07AA27A002A01D008221043EA0892001A
:100470009A18966988400F278F40BE43311C01436C
:100480009161627A002A06D05A690121A9400D1CA7
:1004900015435D6104E05A690121A9408A435A610C
:1004A00003B0F0BDED1200000018004000B583B0AD
:1004B00001AB80221A700A785A704A789A708A784A
:1004C000DA70191C014B984703B000BDED12000013
:1004D00010B5031C4908402099420CD30024C91AC6
:1004E000601C80B28B4201D8041CF8E74020FF2C2E
:1004F00001D81480002010BD10B582B0041C0F4B31
:100500001B78002B01D000290DD001A90C701320FD
:100510000B4B984713200B4B9847084B5C700122FC
:100520001A70002007E0054B5A781D20141B621E2C
:1005300094416442204002B010BDC04694000020A7
:100540001112000085110000444B984233D006D8A8
:10055000434B98420DD0434B98421BD06FE0424B27
:1005600098424AD0414B984258D0414B984266D16C
:1005700032E0012965D0002904D0022906D00329E0
:1005800006D001E03B4867E0002065E03A4863E0C0
:100590003A4861E0012956D0002904D0022906D04A
:1005A000032906D001E0032056E0002054E034483F
:1005B00052E0344850E0012947D0002904D00229F4
:1005C00006D0032906D001E02F4845E0002043E093
:1005D0002E4841E02E483FE0012938D0002904D0C0
:1005E000022906D0032906D001E02A4834E0002081
:1005F00032E0294830E029482EE0012929D000299D
:1006000004D0022906D0032906D001E0244823E0C3
:10061000002021E023481FE023481DE001291AD0D3
:10062000002904D0022906D0032906D001E01F4882
:1006300012E0002010E01E480EE01E480CE00020F2
:100640000AE01D4808E01D4806E01D4804E01D487A
:1006500002E01D4800E01D487047C04600100042FF
:1006600000080042000C004200180042001C00423A
:10067000001400420300040003000600030007000A
:1006800003001E0003001F0002000C0002000E0009
:1006900002000F000300100003001200030013000B
:1006A0000500530005003E0005005200030016003F
:1006B00003001800030019000300050003000100F7
:1006C00002000D000300110005003F0003001700A9
:1006D00070B586B00C4A6B4670CA70C332CA32C35A
:1006E000009E864206D001239A00694652588242F3
:1006F00003D100E00023D8B203E00133062BF3D18D
:10070000002006B070BDC0465442000008B5024B40
:100710001B680020984708BD9800002008B5024BD0
:100720005B680120984708BD9800002008B5024B7F
:100730009B680220984708BD9800002008B5024B2E
:10074000DB680320984708BD9800002008B5024BDD
:100750001B690420984708BD9800002008B5024B8B
:100760005B690520984708BD98000020F0B55F46FA
:1007700056464D464446F0B489B0071C0D1C141C67
:1007800039600B68980700D48DE0916A0391D26AB2
:100790000492236B0593606B06900026B1461F22DE
:1007A0009046F1B2B30003AA9858002802D1281C41
:1007B0008F4B9847411C29D00204120C9446030C1D
:1007C000DAB24946180603D45109C901894BC91840
:1007D000404610400B1840331B789A4680239B46B6
:1007E0005346DB070CD54008091830310B78DBB2D3
:1007F000D00702D51B099B4602E00F2213409B46FF
:10080000DC4503D000233B601C20EAE00136042EC7
:10081000C7D11320784B9847011C23780026012B61
:1008200011D1A06902AA754B9847031C1720002B11
:1008300000D0D6E02B7BDBB202AA12781C209A42B1
:1008400000D0CEE00C26A26861680A43E3681A4330
:100850003243237C617C002901D080210A43A17CA2
:10086000002902D0802189020B43E17C002902D0BB
:10087000802189000B43217D002902D0802189013C
:100880000B432968022002438A4208D16A689A42CF
:1008900005D123787B71237CBB710020A1E000236C
:1008A0003B601C209DE00B680520D90700D598E02F
:1008B000281C534B9847534B196A821C01269640BB
:1008C000321C0A431A6207A92426A35D0B70143058
:1008D000C0B280464C4B984740464C4B9847A05D71
:1008E00000214B4B98472378012B03D12A680C2316
:1008F00013432B603E6802AB80221A7000225A70AC
:1009000001219970DA702378002B01D102AB9A7023
:10091000A26A0392E36A0493206B0590616B0691CF
:100920000025E9B2AB0003AA9858002802D1301C78
:100930002F4A9047431C06D069460872000CC0B28B
:1009400002A9344A90470135042DEAD123787B71FE
:10095000237CBB71A37CFB71237D3B7200226B4621
:10096000DA802378012B14D13868254B984714304E
:10097000C0B2214B9847011CA0696A4606321F4B42
:100980009847031C1720002B2BD16B4606331B788E
:100990003373A26863681A43E0680243237C617C76
:1009A000002903D11C498978880701D580210A4391
:1009B000A17C002902D0802189020B43E17C00291F
:1009C00002D0802189000B43217D002902D08021A3
:1009D00089010B4331680A433260726813437360C4
:1009E000002009B03CBC90469946A246AB46F0BDFB
:1009F00049050000004400412D120000D104000010
:100A0000D106000000040040111200008511000012
:100A1000F9040000ED1200000020004110B54479F7
:100A20001523012C6CD1047A0023002C68D1002AF4
:100A300057D04B78002B44D00268137EDC070FD4CC
:100A40000B78D9090022002903D15A09D2012D4976
:100A500052181F210B4001219940916105234FE05D
:100A60000B78DC090022002C03D15A09D201254C55
:100A700012191F24234001249C4054618978036883
:100A80001A7ED40700D59962C2790023002A37D193
:100A900002680421137E0B42FCD0117E00234C0718
:100AA0002ED5538B590703D5518B04230B43538306
:100AB0008379012B02D1936A002321E0936A0023FA
:100AC0001EE00B78D9090022002903D15A09D2016E
:100AD0000C4C12191F210B40012199405161002338
:100AE0000EE00B78D9090022002903D15A09D2015E
:100AF000044952181F210B400121994091610023A4
:100B0000181C10BD0044004108B5082834D88000E6
:100B10001B4B1B589F468020000230E0194B186980
:100B20002DE0194B186A8005800F184BC340181C24
:100B300025E0144B586922E0124B1B680220184034
:100B40001DD011491022CB681A42FCD00D4B1B68F6
:100B50005A0713D500200E4B98470A4B9B681B047D
:100B60001B0C58430BE05023074AD35C00205A0764
:100B700005D5044BD86802E0002000E0054808BD18
:100B80006C420000B00000200008004000127A0013
:100B90002D120000006CDC0270B50C4B1C6A017851
:100BA000857840780122104080014026B4430443F8
:100BB0002A40D00180229443221C0243032001409A
:100BC0000902034802400A431A6270BD000800404F
:100BD000FFFCFFFFF0B54F464646C0B4194A946982
:100BE00041788C4605780679C778437999468078AC
:100BF00001231840800004218C43044360461840C0
:100C0000C00008218C430443181C38408001402751
:100C1000BC430443181C3040C0018026B443044345
:100C2000072028400002084D2C40044349460B4051
:100C300019030648231C03400B4393610CBC9046E8
:100C40009946F0BD00080040FFF8FFFFFFEFFFFFEF
:100C5000F0B55F4656464D464446F0B4254A948A60
:100C600045780378594259418A4683789C46C17831
:100C7000884603799946467B077B817B8B46806853
:100C80001D4B586101235146880004218C430443C5
:100C900048461840C00008218C4304434046184091
:100CA000000110218C43044360461840400120217C
:100CB0008C430443181C384080014027BC43044344
:100CC000181C3040C0018026B4430443072028404C
:100CD00000020A4D2C40044359460B4019030848B2
:100CE000231C03400B4393823CBC90469946A2468A
:100CF000AB46F0BD00080040B0000020FFF8FFFF49
:100D0000FFEFFFFF10B5027A9206120C43899B0594
:100D10009B0D1A43154B5A60818842881143C47950
:100D2000827922430A434178C9010A431A60037851
:100D3000042B0FD1027B9206038A1A43C3891B043A
:100D40000B490B401A43094B9A60196804220A4365
:100D50001A6009E0202B07D1028A044B9A601968B7
:100D60008422D2000A431A6010BDC046B0000020A1
:100D70000000FF03082843D88000224B1B589F46E1
:100D800000203EE0204B196A02220A431A6200202A
:100D900037E01D4B996902220A439A61002030E036
:100DA000194B198A02220A431A82002029E0164BA5
:100DB000998A02220A439A82002022E0134B196882
:100DC00002220A431A601A68114B1A400E4B9A8489
:100DD000191C1022CB681A42FCD00C4A91680A4BAD
:100DE000D96251689962126892B29A84002008E030
:100DF000054A4423D05C02210143D154002000E085
:100E0000172070479042000000080040B00000200A
:100E10007FFF0000F0B557464E464546E0B490B01F
:100E2000C222D2005E4B9A605E4B5A681E218A43F2
:100E300004210A435A60032201AB1A7000245A4D60
:100E4000E0B201A9A8470134252CF9D10CA8002350
:100E50000370802212028260C37001220271037348
:100E600083730621417082704373504B984705206D
:100E70004F4B98474A490222CB681A42FCD0484B54
:100E8000998A80220A439A824A4A1168C904490E03
:100E900009049869484A02400A439A610AA801264F
:100EA00046708670067107240470002290464271D5
:100EB000C670424B984704203D4FB84705A800250F
:100EC0004246428082808571C57104723F2343810E
:100ED0000422914602704570B722D2000282047348
:100EE000C381374B984704A8457005708570354B12
:100EF00098470620B847344B984701AC6660657048
:100F000025726572052323700120211C2F4B9A4600
:100F1000984701202E4A90469047657065724B466F
:100F2000237020229146626026720220211CD04745
:100F30000220C047657025726572032323704A46FC
:100F400062600420211CD0470420C0472670002086
:100F5000211C154B984700201E4B98470720B84787
:100F60000F49D022CB681340D02BFBD11A4A002363
:100F700013725372937201A901224A604B700B7273
:100F80004B7207230B700020104B98470020104B2A
:100F9000984710B01CBC90469946A246F0BDC0468A
:100FA000000800400040004111120000510C0000F8
:100FB000750D000024608000FFFF80FFD50B00004E
:100FC000050D0000990B0000DD0F0000011000006E
:100FD000B51000008511000000040040064B99691F
:100FE00008220A439A610122044B1A70191C0B78DB
:100FF0001342FCD17047C04600040040000C004082
:10100000F8B5061C071C0D782D0205434B78002B04
:1010100002D08023DB021D434B7A002B02D08023B9
:101020001B031D434C68012C17D9631E1C420FD1B2
:10103000022C06D90223002201325B009C42FBD81D
:1010400000E000221702374380235B031D4304E0C6
:101050002702374380239B021D430B7A002B02D0CB
:1010600080239B031D430F4A53785BB2002BFBDBAD
:101070000D4B98470D4B1E700A4A53785BB2002BFC
:10108000FBDB084B9F601A1C53785BB2002BFBDB29
:10109000044B5968802252020A4015435D60044B9C
:1010A0009847F8BD000C00407D010000080C00408E
:1010B000BD01000010B5041C0B4A53785BB2002B35
:1010C000FBDB0A4B98470A4B1C70074A53785BB20C
:1010D000002BFBDB044B5968802252020A435A6002
:1010E000044B984710BDC046000C00407D01000035
:1010F000040C0040BD01000070B5041C1A4A53786E
:101100005BB2002BFBDB194B9847194B1C70164A3E
:1011100053785BB2002BFBDB134E7068C004C00E2B
:10112000144B9847051C124B1C707668F602F60F9C
:10113000114B1C700C4A53785BB2002BFBDB0A4B43
:101140009C68240AA4B20D4B9847002E07D1012CAD
:1011500007D9281C211C0A4B9847051C01E00134C3
:10116000E540281C70BDC046000C00407D01000019
:10117000040C0040090B0000080C0040BD010000F9
:10118000953F000010B5041C064B9847064B1C7099
:10119000064B59888022D2010A435A80044B984753
:1011A00010BDC0467D010000020C0040000C004054
:1011B000BD01000010B5041C0F4B98470F4B1C706D
:1011C0000F4B58880005000F59880E4A0A405A8074
:1011D00059880D4A0A405A80191C8022D2014B8836
:1011E0001342FCD1064B01025888064A02400A43CA
:1011F0005A80064B984710BD7D010000020C00404C
:10120000000C0040FFF0FFFFFFBFFFFFBD0100002B
:1012100010B50C7824020443024B9847A4B2024B49
:101220005C8010BDB5110000000C004010B5041C1E
:10123000064B9847064B1C70064B5C882405240F10
:10124000054B9847201C054B984710BD7D010000B9
:10125000020C0040000C0040BD010000F91000002D
:1012600030B5D378002B1ED11378802B04D01B0609
:1012700080246402234300E0002354780225AC4319
:101280000AD19478002C03D18024A402234302E0E5
:10129000C024E402234341605478013C012C04D86B
:1012A000114C234001E0416000230D042D0CA024CB
:1012B000E4052C431C4384620D0CD02424062C43EB
:1012C0001C438462D478002C0CD15C0305D5937840
:1012D000012B01D1816100E041615378013B012B79
:1012E00000D8816030BDC046FFFFFBFF08B5031C7E
:1012F0000A1CC1090020002903D15809C001044972
:1013000040181F210B4001219940024B984708BD0E
:1013100000440041611200007047C04608B5044B0C
:101320009847044B9847044B9847044B984708BD8F
:10133000150E0000ED01000019130000B5030000B8
:10134000931C9B001950022A04D1027E10231343E0
:1013500003760CE0032A04D1027E20231343037694
:1013600005E0012393401A1C037E1A4302760020F5
:101370007047C04638B58000144BC4582268957B2E
:10138000237E1D40637E1D40EB0705D5201CA2680F
:101390009047012322689373AB0705D5201CE268B0
:1013A0009047022322689373EB0605D5201C22691F
:1013B0009047102322689373AB0605D5201C626901
:1013C0009047236820229A7338BDC04684080020C5
:1013D00008B50020014B984708BDC04675130000B2
:1013E00008B50120014B984708BDC04675130000A1
:1013F00008B50220014B984708BDC0467513000090
:1014000070B584B0011C01AB0A4A70CA70C3019B5D
:1014100083420AD0029C844205D00020039D8D4265
:1014200005D1022002E0012000E00020C0B204B09B
:1014300070BDC046B4420000F0B54F464646C0B449
:1014400087B0041C0D1C9046081C904B98478146A1
:101450008F4F391C0C3105A803228E4EB047391C22
:10146000103103A80622B0470023A360E360236184
:1014700063612376637648468200874BD4502560AB
:1014800041468B78082B04D117204A46D20700D456
:10149000F6E023712B880520D90700D5F0E0EB7B1F
:1014A0001C20DA0600D5EBE02B88990700D5E7E091
:1014B0004246137C002B0CD002A901238B70002222
:1014C000CA704046806908704B704246107D734B6D
:1014D00098474046037F002B0BD002A901238B7055
:1014E0000022CA70426A0A704B70036AD8B26B4B12
:1014F00098476B4B196A4846420003A8125A0A43A0
:101500001A6241468B78082B08D1654B1A6A484607
:101510000130400003A9415A0A431A6201A9424618
:1015200013780B7005AB48461E5C301C5D4B98472A
:10153000301C5D4B9847414688880B890343887966
:101540008A78104318434B78002B02D080231B016C
:10155000184321687F22CB7B9343FCD128804246ED
:10156000507B431E98418000937B002B01D00123C8
:10157000184321687F22CB7B9343FCD1FF232B713F
:10158000002805D021687F22CB7B9343FCD1687172
:101590004346987ADB7A002B01D01023184341464A
:1015A0000B7B002B01D02023184321687F22CB7BAB
:1015B0009343FCD1A87122687F21D37B8B43FCD15C
:1015C0002379042B05D0082B41D01720002B57D1AD
:1015D00024E07F21D37B8B43FCD128234246D35C7C
:1015E0002B7421687F22CB7B9343FCD12923404677
:1015F000C35C2B7521687F22CB7B9343FCD12A23CC
:101600004146CB5C2B7621687F22CB7B9343FCD178
:101610002B234246D35C6B76002031E07F21D37BC5
:101620008B43FCD14046038D2B8221687F22CB7BEC
:101630009343FCD141464B8D2B8321687F22CB7B8A
:101640009343FCD14246938D6B83002018E07F21A9
:10165000D37B8B43FCD143469B6A2B6121687F225D
:10166000CB7B9343FCD14046C06AA86121687F22AE
:10167000CB7B9343FCD141460B6BEB610020FFE732
:1016800007B00CBC90469946F0BDC046011400005E
:10169000B4420000C540000084080020ED120000A4
:1016A00000040040111200008511000002687F2133
:1016B000D37B8B43FCD10379042B05D0082B09D0B5
:1016C0000020002B08D102E0107CC0B204E0108A98
:1016D00080B201E01069FFE77047C04630B504688A
:1016E0007F25E37BAB43FCD10379042B05D0082B8A
:1016F00014D01720002B19D107E01720012915D885
:10170000D2B261180A76002010E0172001290DD806
:1017100092B20C3149000A53002007E0172001293A
:1017200004D8063189000A510020FFE730BDC046C9
:10173000FEE7C04610B51C4B1C4A9A4203D01C4B16
:10174000194A9A4204D31B4B1B4A9A4210D31BE0FE
:101750001A4B17480330C01A80080130800000235C
:101760001149124AD458CC5004338342FAD1EAE7E3
:10177000114B1A1D0F490331891A89088900521823
:10178000002102C39342FCD10D4B7F210D4A8A43B5
:101790009A600D4B596880220A435A600B4B984758
:1017A0000B4B9847FEE7C04600000020B443000002
:1017B0007000002098090020700000200400002024
:1017C00000ED00E000000000004000417940000012
:1017D000513E0000064B1B68002B02D1054A044B0A
:1017E0001A60034A136818181060181C7047C04626
:1017F000C80000209829002008B50D4900230B716E
:101800004B710B8058228B520B1C0833483100223D
:1018100004C38B42FCD1074B9847074B9847074BB3
:101820009847074B9847074B9847074B984708BD81
:1018300090080020D5260000411F00006D1A00000E
:10184000E9180000611B0000A123000008B5024B4D
:101850001880024B984708BD90080020FD2A000020
:1018600008B5024B5880024B984708BD90080020ED
:10187000DD2A000002308000014BC1507047C04695
:101880009008002008B5044B9847044B9847044B38
:101890009847044B984708BDDD1F0000D928000079
:1018A000291900009524000008B50D4B1B68002B7A
:1018B00012D05A6882420CD102E05A68824208D1A2
:1018C0008522825C1A778822825C5A7702221A72F9
:1018D00002E01B68002BF0D1024B984708BDC046C0
:1018E000CC000020F11A00000022014B1A60704762
:1018F000CC0000200023037203774360084A58237A
:10190000D15A0131D152074B1B68002B03D1036020
:10191000044B186002E00360024B18607047C04639
:1019200090080020CC00002038B54A4B1A68002AE5
:1019300000D18DE0141C237A002B02D0022B6DD035
:1019400082E0454B9847051E03D10223237223777B
:101950007EE0606001222272404B89214354180AC4
:101960008A216854180C8B2168541B0E8C216B54EF
:10197000A07B80080123184088216854A17B19406E
:10198000E87A9043021C0A43EA72A17BC908194015
:101990008900D2B2042082430A43EA72A27B520831
:1019A00013405A00EB7A02218B431343EB722C4B0A
:1019B0001A790132D2B21A712A731A786A735B7873
:1019C000AB736389A27AEA731B0A2B74617B0F23C2
:1019D00019406A7C0F2082430A436A74227B1201F9
:1019E000697C0B4013436B748123EB5C8222A85CFF
:1019F000000218438323EB5C1B0418438423EB5C35
:101A00001B061843227D2169164B9847227D6B786F
:101A1000D3186B70281C144B984719E0944203D1DB
:101A20000C4B22681A6006E013689C4201D01A1C15
:101A3000FAE7236813600A4A5823D15A0139D15270
:101A4000A369201C984703E02468002C00D072E7AB
:101A500038BDC046CC000020811A0000A918000043
:101A600090080020C540000009270000034B002219
:101A70001A708D215A5449005A547047D0000020E2
:101A800070B5184B1B78002B0ED08D23154AD35CF4
:101A9000002B07D08D235B00D35C0024002B1FD1CB
:101AA000022302E0012300E000230E4E8D255D435A
:101AB0007419201C00218D220B4B98471023637052
:101AC000231C8033221C12325A70110A9970110C97
:101AD000D970120E1A71054A5823D15A0131D152C8
:101AE000201C70BDD0000020D740000090080020CE
:101AF00000230370024A5823D15A0139D15270474A
:101B000090080020002806D08D300C4BA833FF33FE
:101B1000984201D30FE009480378002B0CD1074A03
:101B2000A832FF3202E00378002B05D18D309042BD
:101B3000F9D3002000E000207047C046D00000200C
:101B400000228523C254054B1A790132D2B21A7190
:101B500002731A7842735B78837370479008002091
:101B6000F0B5094A0232002301277F4206480126C8
:101B700000251780D9000C5CB4430C541571013357
:101B80000832642BF5D1F0BD7802002070B50B4A05
:101B900002320023094E1488844209D1DC00A45D7E
:101BA000A407E40F8C4203D1DD000448401904E08F
:101BB00001330832642BEED1002070BD7802002082
:101BC00010B500221048C824A40001190378DC07CE
:101BD0000BD48379002B0CD0002A03D094799C423B
:101BE00002D802E0021C00E0021C08308842EDD15D
:101BF000101C0378022293430F2213403022134318
:101C000003708023837110BD780200200378DA0707
:101C100004D401235B424380002383717047C04694
:101C200008B5044B9847002801D0808800E002489E
:101C300008BDC0468D1B0000FFFF000008B5034B28
:101C40009847002801D0024B984708BD8D1B000023
:101C50000D1C000038B5041C427A857A2D0215430C
:101C60002BB2002B05DA427B837B1B0213439D4280
:101C700041D16179A27912020A431F4B9A423AD0AC
:101C8000627BA07B0002104300211C4B9847002878
:101C900022D0E179227A12020A430021164B9A429D
:101CA00008D1E27B217C0902154B1B881143591A8C
:101CB0004B4259418388AB4204D08523E25CC3790F
:101CC0009A4201D8002913D0858003780F2213404F
:101CD0003022134303700BE00A4B9847617BA27BD1
:101CE00012020A434280627AA37A1B021343838062
:101CF0008523E35CC37138BDFFFF00008D1B00002E
:101D000090080020C11B000010B5041CC37B007CA0
:101D1000000218431B4B984232D0E17A0907C90FE1
:101D2000194B984700282BD00378DA0728D485234D
:101D3000E35C002B17D103780F22134030221343AA
:101D4000037083790133DBB28371FF2B18D10F4904
:101D50008B1D0F4A89181A78520801321A700833FD
:101D60008B42F8D10CE0027813090F330F210B409E
:101D70001C010A4022430270002B01D1054B9847F9
:101D800010BDC046FFFF00008D1B00007802002040
:101D9000260300000D1C000010B5C17B037C1B0254
:101DA0000B430D4A934204D101235B42C37103727A
:101DB00010E0C27A510703D5C3711B0A037209E010
:101DC000841CC17A0907C90F181C044B984760711D
:101DD000000AA07110BDC046FFFF0000211C0000DA
:101DE000F0B5474680B4041CC27B067C360216431D
:101DF000C77A3F07FF0FF9B2301C284B9847284B92
:101E000098420FD000228923E2548A23E2548B2384
:101E1000E2548C23E25402228823E254201C214BFA
:101E2000984738E0627BA37B1B02134398461E4B06
:101E30009847051E2CD01D4B98476B7806336B7066
:101E400000228923EA548A23EA548B23EA548C2300
:101E5000EA54FF2143461940E9731A0A2A74812380
:101E6000E85C8223EB5C1B0203438320285C0004B4
:101E700003438420285C0006034301201870597036
:101E80009A70DE70360A1E715F71281C054B9847E8
:101E9000201C074B984704BC9046F0BD211C000055
:101EA000FFFF000009270000811A0000411B00000D
:101EB000F11A000008B58268037B0020062B07D1C9
:101EC000D3781079000218435179024B98470120CA
:101ED00008BDC0463D1C000008B5027B0023002A57
:101EE0000FD082681378002B02D0012B04D007E0BA
:101EF000054B9847031C04E0044B9847031C00E083
:101F00000023181C08BDC04655280000B51E00005F
:101F100038B509490B1D4031002401251A78002AE3
:101F200002D0013A1A702C1C06338B42F6D1002CD9
:101F300001D0024B984738BD98050020B92D00000C
:101F400008B50A490B1D403100221A7006338B4236
:101F5000FBD1074B64229A6000221A73054A1A616A
:101F600000200549054B984708BDC046980500204C
:101F7000D8050020111F0000D91E000075180000B0
:101F800010B5041C03685A78882A1AD11B782022BD
:101F90009343412B15D103790F2B12D9094B984745
:101FA00000280ED0202303702379437062798523A3
:101FB000C254A2798623C254023022792168024B8E
:101FC000984710BD811A0000C5400000002902D0CA
:101FD0002223037001E0242303707047F0B54F46BD
:101FE0004646C0B485B00024D34DD44881463C2039
:101FF00081449AE12378203BDAB2042A00D994E1A3
:102000009300CF4AD3589F4624232370E37A1907BD
:1020100000D58AE16179A27912020A43C94B9A423A
:1020200014D1E27B237C1B021343C74A12889A42D5
:1020300003D0C44A934200D077E1E37A9A0702D5ED
:102040002123237071E1222323706EE1E17B227C46
:1020500012020A43BB4B9A4203D1E37ADE0700D552
:1020600063E1617BA37B1B02B74A12880B439A4250
:1020700000D15AE1201CB54B9847B04B0027A11C5A
:10208000181C1A79002A37D0CE7A0A7B12029046A1
:102090001A88944642461643B4452ED1227B9B783B
:1020A0009B1ADBB2072B1CD8C278111C1941CE0732
:1020B00012D5E179237A1B02A34A12880B439A4274
:1020C00000D032E1E27B207C00021043E17A090774
:1020D000C90F9F4B984728E1012199400A43C270DC
:1020E0004EE18270C2785B42DBB29A400123134317
:1020F000C3701F23037143E11F1C06334B45BFD13F
:10210000002F00D111E1617BA27B12020A433A80C9
:10211000237BBB700123FB701F233B718D488E4BCB
:1021200098472DE1884B1A88E07B237C1B020343F0
:102130009A4210D0E17A4F070AD4201C874B984767
:10214000814B1A88E07B237C1B0203439A4202D016
:102150007C498B4208D1E37A980702D5212323706A
:10216000E3E022232370E0E0E179237A1B020B43B2
:102170009A4200D0D9E023232370D6E0201C00210E
:10218000774B9847D1E00022764B1A70617C0909A1
:10219000CAB2023292006C4BD258002A5FD0A31C04
:1021A000677BA07B0002384380466E463080E07B30
:1021B000267C3602371C074368464780667C360714
:1021C000360F067141718121615C8220265C3602E6
:1021D00031438320265C360431438420265C360656
:1021E00031430291591A8C46617861446846017303
:1021F0008521615C41738621615C8173E37AD90733
:10220000C90F022633400B43DBB2E17A4907C90FFD
:1022100049010B43E17A0907C90F89010B43524970
:102220007F1879424F41BF003B43677AA17A090288
:1022300039434646701A41424841C00003436F4645
:10224000BB716079A17909020143474809184842E6
:10225000414109010B43BB716846904700E00020F3
:10226000E37ADB07DB171840E379227A12021A437C
:10227000344B9A420BD1E17B237C1B02324A1288F9
:102280000B439A4203D1E37A190700D40120637902
:10229000A27912021A432B4B9A423CD02A4B1A883D
:1022A000284B9A4237D0002835D0304B9847071E2C
:1022B00031D02F4B98477B7803337B7000228923E2
:1022C000FA548A23FA548B23FA548C23FA54E27A70
:1022D00002231A40FB7A02218B431343FB72627B79
:1022E000A37BFA733B748123FA5C8223FB5C1B02A1
:1022F00013438322BA5C120413438422BA5C12068D
:10230000134300221A70174A12789A70227B5A706F
:10231000381C184B98472423237006E0201C164BCA
:10232000984702E0201C154B9847201CA847041E24
:1023300000D05FE62DE0C046051B00009805002098
:10234000CC420000FFFF000090080020551C000058
:102350003D1C0000D8050020B92D0000C927000051
:10236000CD230000D40500200100FFFF811A0000EA
:10237000411B000009270000E11D0000F11A0000C8
:10238000E179227A12020A43044B9A4200D0D7E63E
:10239000C8E605B00CBC90469946F0BDFFFF0000B2
:1023A0000023024A1370024A13607047EC050020B4
:1023B000F005002008B5011C02481022024B984786
:1023C00008BDC046D8080020C5400000002902D042
:1023D0003023037001E031230370024B1A7801327D
:1023E0001A707047EC050020F0B5474680B4244BC6
:1023F0001E68244B1B7898468123F35C8222B15CD3
:10240000090219438323F45C240421438423F45CEC
:102410002406214341441C4B1B789C461F1C102B57
:1024200000D91027FFB2002F16D0184B1D780B1CB7
:10243000174A7C1EE4B20C19013410781978414017
:102440001970002D01D0117002E010784140117018
:1024500001330132A342F0D14346FA18094B1A70F6
:102460006346DF1BFFB2084B1F70002F02D03223E0
:10247000337001E03423337004BC9046F0BDC04695
:10248000F0050020F4050020F5050020F6050020E9
:10249000F805002030B583B0564B1B78002B00D1D7
:1024A000A5E0554B1C68002C00D19BE02378342B11
:1024B00045D18123E35C8222A15C09021943832375
:1024C000E35C1B0419438423E35C1B0619434B4B59
:1024D0001B78C9184A4B5D681A6855409A68554080
:1024E000DB685D400095474B1B78002B09D0081C2A
:1024F00069460422444B9847637804336370012192
:1025000008E001A80422404B9847019BE91A4D427C
:102510006941C9B23B4B1B78002B04D0364B18687D
:102520003A4B984703E0344B1868394B98470022E0
:10253000314B1A602F4B1A78013A1A7057E0322B40
:1025400055D1332323702E483249334B98474EE000
:102550000378303B012B47D8274B1860284A017B72
:102560001160C17B047C24020C432404417C0909D2
:1025700021435160417B847B24020C432404417C31
:102580000907090F21439160C17A447983791B02BD
:1025900023431B040B43D3600378312B02D14378D0
:1025A000043B4370831C8122815C8222825C120284
:1025B0000A438321415C09040A438421415C0906E2
:1025C0000A439A1A4378D218144B1A7000220B4B04
:1025D0001A700278303A53425A410A4B1A70322329
:1025E000037004E000200E4CA0470028B0D103B0D7
:1025F00030BDC046EC050020F0050020F4050020A9
:10260000F8050020F6050020C540000091280000D4
:10261000CD1F0000D8080020C12C0000F5050020C7
:10262000051B0000F0B5474680B480460027002017
:102630000F4C8626872510E00378112B0DD1825D83
:10264000435D1B021343013B9BB283551A0A42555B
:102650000127002B01D113230370A0470028EBD1E1
:10266000002F02D04046034B984704BC9046F0BD73
:10267000051B0000B92D0000F0B5474680B4804628
:1026800000270020114C8626872513E00378162B9F
:1026900010D1825D435D1B021343013B9BB2835506
:1026A0001A0A42550127002B04D117230370102268
:1026B0008523C254A0470028E8D1002F02D040460D
:1026C000034B984704BC9046F0BDC046051B000074
:1026D000B92D00000022074B1A60074B3221996088
:1026E0001A7306491961064B0A2199601A73054A43
:1026F0001A6170471C060020080600207926000099
:10270000200600202526000010B5041C8823C35C89
:10271000990702D51222027007E0C27A910702D50A
:102720001022027001E01222027000218522A154C1
:10273000DA0704D5012149426171A17104E01E4903
:1027400088786071C978A17105221A4203D1201CD2
:102750001A4B984703E0E17B227CE1712272164A12
:10276000117861725178A17251790131C9B25171F8
:102770002171E179227A12020A43114B9A4210D157
:102780004123A37078235B42E3700E4B98470723E5
:10279000184001308623E054000A80B28723E054B9
:1027A00009E06123A37078235B42E3700022862353
:1027B000E2548723E25410BD90080020991D0000C8
:1027C000FFFF0000E940000038B5051C1D4B98478D
:1027D000041E36D0122303706B78437000228523C9
:1027E000C254194B98470723184001308623E05400
:1027F000000A80B28723E05400228923E2548A230E
:10280000E2548B23E2548C23E254A01C6A78A91C66
:102810000E4B98474123A37078235B42E37001235A
:102820005B42E37123726A79AB796271A371084BE1
:102830001A7862725A78A2725A790132D2B25A71F7
:10284000227138BD811A0000E9400000C540000037
:102850009008002038B58568037B0020032B13D136
:102860000DE00378162B0CD1027B6B789A4208D1CD
:1028700017230370AA788823C254012004E00020A3
:10288000024CA0470028ECD138BDC046051B000013
:10289000122303707047C0460D4B1B68012809D0F6
:1028A000002803D02122022805D001E0002202E006
:1028B000012200E0202285215A5415221A7000229C
:1028C000034B1A60034A5823D15A0139D152704739
:1028D0001C0600209008002070B50024374D384EAB
:1028E00066E02378103BDAB2072A61D89300F358E8
:1028F0009F46201C0121334B984759E08623E25C18
:102900008723E35C1B02134305D0112323702E4859
:102910002E4B98474CE01323237049E02C4B1B6847
:10292000002B45D12A4B1C6014232370601C294BBB
:102930009847294A5823D15A0131D15238E085238A
:10294000E35C002B19D1617BA37B1B02224A128816
:102950000B439A420ED1E37ADA070BD51623237084
:1029600015228623E25400228723E2541B48174B8A
:1029700098471DE0172323701AE01723237017E0F0
:10298000201C174B98478923E25C8A23E35C1B02D7
:1029900013438B22A25C120413438C22A25C120606
:1029A000134303D1201C0F4B984701E0201C98478C
:1029B000201CA847041E94D170BDC046051B000012
:1029C000E0420000CD23000020060020B92D0000C9
:1029D0001C0600204D2B0000900800200806002057
:1029E000091D0000F11A0000F8B5041C0B4F0C4E35
:1029F0001F2502200321B8470120B047284008289E
:102A0000F7D1064F064E1F250220211CB847012092
:102A1000B04728408442F7D1F8BDC046E9330000F2
:102A2000F132000008B50820064B98470F20064BEE
:102A30009847064B1B78002B02D01620014B984775
:102A400008BDC046E9290000F1320000B5060020AB
:102A500070B50E4B98470E4B984700220D4B1A70DD
:102A600001220D4B1A700D4E0D4D1F24022008211E
:102A7000B0470120A84720400828F7D104202E2184
:102A8000064CA0470C20A021A04770BDB13100002A
:102A9000C1320000B5060020B4060020E933000072
:102AA000F132000008B5024B1870024B984708BD80
:102AB000B5060020252A000010B5041C0820054B8F
:102AC00098471F23011C99430C43E1B20820024B95
:102AD000984710BDF1320000E933000030B583B0F3
:102AE0006C46E080C1B22220034DA847E179232043
:102AF000A84703B030BDC046E933000070B582B0CE
:102B00006D46E8800635C6B22020311C054CA04732
:102B10006D782120291CA047AE19F1B22D20A047C5
:102B200002B070BDE933000010B5041C0520054B50
:102B300098470F23011C99430C43E1B20520024B37
:102B4000984710BDF1320000E933000010B5041CB5
:102B500019200C4B98470F200B4B984721788B1C62
:102B600023700131C9B2201C084B98470322084B3F
:102B70001A70084B802252039A61C046C0465A61BF
:102B800010BDC046E9290000F132000025360000E2
:102B9000B40600200044004110B5041C081C0021AC
:102BA0000022054B9847201C0021044B9847201C0D
:102BB000034B984710BDC04649300000DD2F000090
:102BC00081310000F0B585B0264B1B78022B46D032
:102BD0000F20254B9847030741D5224B1B78012B2B
:102BE00024D10720204B9847071C6C460734201C33
:102BF00001211E4EB0471E4D21780231C9B2281C5A
:102C0000B04702A86A1C02922278911E0171AD1889
:102C10006A7842715B3F8771164B9847124D1F24AB
:102C20000120A84720401628FAD118E0032B16D11E
:102C300002200D4B98474409E4B2002C07D0032C26
:102C400004D0053C631E9C41023400E001240A4B81
:102C500098470122034B1A70201C084B984705B077
:102C6000F0BDC046B4060020F1320000E53400009B
:102C700034060020811F0000252A0000992800004A
:102C800008B5044B9847044B9847044B9847044BAE
:102C9000984708BD512D0000D92F0000512A00008F
:102CA000F917000008B5034B9847034B9847034BAF
:102CB000984708BDC52B000085180000D52D0000E1
:102CC00008B5024B9847024B984708BD992B000066
:102CD000E923000030B5154B1D68002D1ED0826819
:102CE00069682C1C8A420AD204E05968914203D8D0
:102CF0001C1C04E02B1C0024891A596003E0521AA2
:102D00002368002BF1D14260002C03D023680360BC
:102D1000206009E00560054B186005E000230360B2
:102D200083684360014B186030BDC046B806002080
:102D300008B5044B1A780132D2B21A700248034B1C
:102D4000984708BDEC08002010270000993E0000BD
:102D500010B50024064B1C700648074B9847074BDC
:102D600098470748074B9847074B1C6010BDC04663
:102D7000EC080020312D0000893F0000053F0000D5
:102D800010270000993E0000B8060020094B1B6880
:102D9000002B09D0834202D108E0984208D01B687A
:102DA000002BFAD1002004E0002002E0012000E026
:102DB00001207047B806002010B5041C034B98474B
:102DC000002802D1201C024B984710BD8D2D000019
:102DD000D52C0000F8B51A4B1B78002B2FD0EFF341
:102DE000108072B6BFF35F8F0021164B1970144A22
:102DF0001378DBB21170002805D10121114A11703E
:102E0000BFF35F8F62B69D00ED186D000E4E371C4C
:102E10000DE0ED1A23683B60237B012B02D1201CBF
:102E20000A4B98472369002B01D0201C984734682F
:102E3000002C04D063689D42EBD25D1B6560F8BD39
:102E4000EC08002008000020B8060020D52C000067
:102E500008B5014B984708BD6D3F000008B5014B10
:102E6000984708BD253F000008B50248024B984727
:102E700080B208BD24090020AD160000034B1022CB
:102E800019680A73597E91435976704724090020C6
:102E900010B50A4C20680A4B98470A4B1B5C1F224E
:102EA0001A40012393401A1C074B1A60627E1023BC
:102EB00013436376236810225A7310BD240900203F
:102EC000011400000043000000E100E008B5021C0E
:102ED00002480021024B984708BDC0462409002043
:102EE000DD160000F8B54F464646C0B42D4A002313
:102EF00013709370002193809171138151709172BE
:102F0000D17211739173517311745361936111777D
:102F1000136253621385938501235B425385224CD0
:102F2000201C2249224B9847201C22490022224D76
:102F3000A847201C21490222A8472068204A914620
:102F40009047204B98461B5C1F273B4001252A1CBD
:102F50009A401D4E3260627E0123134363762068DF
:102F60004573C8474246135C1F40BD403560627ED2
:102F70001023134363762268102353737F21D37B7E
:102F80008B43FCD1118802230B43138000200F4B8D
:102F900098470F490F4B9847C0B20CBC90469946D2
:102FA000F8BDC046F008002024090020002C004293
:102FB000391400005D2E000041130000512E000066
:102FC000011400000043000000E100E0F9100000DF
:102FD00040420F00953F00007047C04638B5031CC3
:102FE0000D1C144C601C191C1022134B9847647C58
:102FF000124B1B78002B08D083200E491222104B55
:10300000984700220D4B1A7005E0842009490131D0
:1030100011220B4B9847002D05D0281C0549013182
:103020001022054B9847034B5C741820054B9847BA
:1030300038BDC046E0060020C5400000F406002070
:103040005D3A000051010000F0B5474680B484B0FD
:10305000051C0F1C141C002817D000223E4B1A70B0
:1030600002223E4B1A703E48291C10223D4B9846C6
:1030700098473D4E10233370701C291C1022C04706
:103080008320311C1122394B9847002C02D0012C8F
:1030900012D05AE0314B1B78012B3DD1324D102319
:1030A0002B70681C2E4910222E4B98478320291C18
:1030B00011222E4B98472FE0284B1B78012B2BD049
:1030C0001022294B1A70244B1B78002B16D1264D49
:1030D0002B7080236B740122254B1A7068460021E7
:1030E000244B984710232B708320291C01221F4B4F
:1030F0009847842020491022204B98471A4D681C7D
:103100001D491022174B98478320291C1122174B69
:103110009847114B01221A70104B1C70002F02D0DF
:103120000020022F13D1E40008231C403F0170232C
:103130001F403C430C4B1C7080277F423C435C7417
:1031400001220B4B1A70012001E00020FFE704B0C0
:1031500004BC9046F0BDC046BC060020090000201B
:10316000D0060020C5400000E006002049370000DE
:10317000F4060020DD2F0000C0060020C13800004A
:1031800008B5011C84201022014B984708BDC04699
:10319000C138000008B50122034B1A61034B1B68BC
:1031A000002B00D0984708BD00180040F80600200A
:1031B00030B585B0324A0023537093703F211170AF
:1031C000304C21706370A370012268464270837096
:1031D00002703F2069462C4B98472378D90900227A
:1031E000002903D15A09D201284952181F210B4046
:1031F0000121081C98409061254A117000235360FA
:103200009360137453749174D174137524215354BF
:10321000D361136280235B02D3601E4B93611E4B0C
:10322000936201235B42D3621C4B13631C4B5363B9
:103230001C4C201C1C491D4B98472268D369002B4D
:10324000FCD1136802252B43136001AC201C184BE2
:1032500098472023019380239B03636025720123F9
:1032600063720022A272E3720020211C114B984766
:10327000114800210022114B984705B030BDC046CF
:103280004409002048090020AD040000004400412A
:103290004C090020404B4C000500530005003E0047
:1032A0000500520084090020001800426D0700004C
:1032B000210400003504000095310000BD0200002B
:1032C00070B5094B1C1C803480252D02A56180221D
:1032D00052035A61A5204000044EB04765610A20A0
:1032E000B047A56170BDC0460044004151010000D7
:1032F00070B5061CEFF3108463425C4172B6BFF3F5
:103300005F8F0022334B1A70334D281C3349012242
:10331000334B98472B6801211A7E0A42FCD01A7E53
:10332000D10702D5802216439E6202211A7E0A42EC
:10333000FCD004211A7E0A42FCD01A7E510714D513
:103340005A8B510703D5598B04220A435A83224AC8
:103350009279012A05D1996AC905C90D214A1180BE
:1033600003E0996AC9B21F4A118001211A7E0A42FC
:10337000FCD01A7ED10701D500229A6202211A7E62
:103380000A42FCD004211A7E0A42FCD01A7E002593
:10339000510710D55A8B510703D5598B04220A4384
:1033A0005A830D4A9279012A03D19D6AED05ED0DEC
:1033B00001E09D6AEDB2084808490022084B984791
:1033C000002C05D00122034B1A70BFF35F8F62B649
:1033D000E8B270BD080000208409002048090020E0
:1033E0001D0A000040090020F8B5071C0D1CEFF372
:1033F000108463425C4172B6BFF35F8F0022344B8E
:103400001A70344E301C34490122344B98473368CB
:1034100001211A7E0A42FCD01A7ED10702D5C022B1
:1034200017439F6202211A7E0A42FCD004211A7EB1
:103430000A42FCD01A7E510714D55A8B510703D586
:10344000598B04220A435A83224A9279012A05D1D0
:10345000996AC905C90D224A118003E0996AC9B267
:103460001F4A118001201A7E0242FCD01A7ED10729
:1034700000D59D6202211A7E0A42FCD004211A7EE8
:103480000A42FCD01A7E510714D55A8B510703D536
:10349000598B04220A435A830E4A9279012A05D194
:1034A0009A6AD205D20D0E4B1A8003E09A6AD2B204
:1034B0000B4B1A80074808490022084B9847002CFC
:1034C00005D00122024B1A70BFF35F8F62B6F8BDC0
:1034D0000800002084090020480900201D0A00007F
:1034E00040090020F0B55F4656464D464446F0B4CC
:1034F00083B0061C0C1CEFF31087784278410190D2
:1035000072B6BFF35F8F0022414B1A70414D281CE9
:1035100041490122414B98472B6801211A7E0A42FA
:10352000FCD01A7ED10701D520229A6202211A7E90
:103530000A42FCD004201A7E0242FCD01A7E5007B8
:103540000FD55A8B510703D5598B04220A435A834E
:10355000304A9279012A09D19A6AD205D20D304BAC
:103560001A80631EDBB2002C05D13CE09A6AD2B20D
:103570002B4B1A80F5E701339B1999462020254AE9
:103580009046012400239A4602250421171C042298
:103590009346424613681A7E2242FCD01A7E22428B
:1035A00001D052469A621A7E2A42FCD01A7E0A4202
:1035B000FCD03B681A7E0A4211D05A8B0A4204D0D2
:1035C0005A8B5846024392B25A8312488279012A92
:1035D00003D1986AC005C00D01E0986AC0B230708E
:1035E00001364E45D5D10B480B4900220B4B98476D
:1035F0000199002905D00122054B1A70BFF35F8F96
:1036000062B603B03CBC90469946A246AB46F0BDBC
:103610000800002084090020480900201D0A00003D
:1036200040090020F8B54F464646C0B4041C0D1CA6
:10363000EFF3108671427141894672B6BFF35F8F16
:1036400000223C4B1A703C4F381C3C4901223C4B39
:1036500098473B6801211A7E0A42FCD01A7ED107A6
:1036600001D560229A6202211A7E0A42FCD004210E
:103670001A7E0A42FCD01A7E51070FD55A8B510789
:1036800003D5598B04220A435A832B4A9279012A83
:103690000ED1996AC905C90D2A4A1180264A927924
:1036A0009046261C012702200424042294462BE085
:1036B000996AC9B2234A1180F0E71A7E3A42FCD0D7
:1036C00031781A7E3A4200D099621A7E0242FCD0CA
:1036D0001A7E2242FCD01A7E224214D05A8B2242F9
:1036E00004D05A8B61460A4392B25A834246012A59
:1036F00005D19A6AD205D20D12490A8003E09A6A6E
:10370000D2B210490A800136013DEDB2FF2DD4D16D
:1037100009480A4900220A4B98474A46002A05D020
:103720000122044B1A70BFF35F8F62B60CBC904647
:103730009946F8BD080000208409002048090020AF
:103740001D0A000040090020F8B54F464646C0B4A7
:10375000071C0C1C151CEFF3108671427141894641
:1037600072B6BFF35F8F0022504B1A70504E301C60
:1037700050490122504B9847336801211A7E0A4272
:10378000FCD01A7ED10701D540229A6202211A7E0E
:103790000A42FCD004211A7E0A42FCD01A7E51074C
:1037A00014D55A8B510703D5598B04220A435A83E7
:1037B0003F4A9279012A05D1996AC905C90D3F4A44
:1037C000118003E0996AC9B23C4A118001211A7E36
:1037D0000A42FCD01A7ED10700D59F6202211A7ED0
:1037E0000A42FCD004211A7E0A42FCD01A7E5107FC
:1037F0000FD55A8B510703D5598B04220A435A839C
:103800002B4A9279012A0ED1996AC905C90D2B4A12
:103810001180274A92799046261C01270221042410
:10382000042294462BE0996AC9B2244A1180F0E739
:10383000187E3842FCD03278187E384200D09A6226
:10384000187E0842FCD0187E2042FCD0187E204210
:1038500014D0588B204204D0588B6246104380B25B
:1038600058834246012A05D1986AC005C00D134A03
:10387000108003E0986AC0B2104A10800136013D02
:10388000EDB2FF2DD4D10A480A4900220A4B9847CD
:103890004B46002B05D00122044B1A70BFF35F8FFB
:1038A00062B60CBC90469946F8BDC04608000020A0
:1038B00084090020480900201D0A0000400900205A
:1038C000F0B55F4656464D464446F0B483B0051CFD
:1038D0000E1C141C01205B4B9847EFF310877942B4
:1038E0007941019172B6BFF35F8F0022564B1A7077
:1038F000564F381C56490122564B98473B680121C8
:103900001A7E0A42FCD01A7ED10701D500229A62A3
:1039100002211A7E0A42FCD00422197E1142FCD0F8
:103920001A7E510714D55A8B510703D5598B04229F
:103930000A435A83454A9279012A05D1996AC905F1
:10394000C90D454A118003E0996AC9B2424A118003
:103950000122197E1142FCD01A7ED10700D59D624A
:103960000222197E1142FCD00422197E1142FCD0A1
:103970001A7E51070FD55A8B510703D5598B042254
:103980000A435A83314A9279012A09D19A6AD205A7
:10399000D20D314B1A80631EDBB2002C05D13BE007
:1039A0009A6AD2B22C4B1A80F5E701339B199946DB
:1039B0000021264A904601248A4602250420171C2D
:1039C00004229346424613681A7E2242FCD01A7E95
:1039D000224201D052469A621A7E2A42FCD01A7EB6
:1039E0000242FCD03B681A7E024211D05A8B02423E
:1039F00004D05A8B59460A4392B25A8313498A79A2
:103A0000012A03D1996AC905C90D01E0996AC9B2B1
:103A1000317001364E45D5D10C480D4900220D4B71
:103A20009847019A002A05D00122074B1A70BFF36C
:103A30005F8F62B603B03CBC90469946A246AB4647
:103A4000F0BDC0465101000008000020840900209C
:103A5000480900201D0A000040090020F0B55F461B
:103A600056464D464446F0B483B0051C8846141CA7
:103A70000120834B984700200021824B9847824EBB
:103A8000301C82490122824B9847336801211A7EFB
:103A90000A42FCD01A7ED00701D540229A62022148
:103AA0001A7E0A42FCD004211A7E0A42FCD01A7EF9
:103AB000510714D55A8B560703D5598B04220A4354
:103AC0005A83714A9279012A05D1996AC905C90DAB
:103AD000704A118003E0996AC9B26E4A11800121CF
:103AE0001A7E0A42FCD01A7ED00700D59D620221C0
:103AF0001A7E0A42FCD00422197E1142FCD01A7EA2
:103B0000510714D55A8B560703D5598B04220A4303
:103B10005A835D4A9279012A05D1996AC905C90D6E
:103B20005C4A118003E0996AC9B25A4A11800122A5
:103B3000197E1142FCD0404601781A7ED60700D586
:103B400099620222197E1142FCD00422197E114290
:103B5000FCD01A7E50070FD55A8B510703D5598BCD
:103B600004220A435A83484A9279012A08D19A6A60
:103B7000D205D20D474B1A800021002C47D004E01B
:103B80009A6AD2B2434B1A80F6E74546013CE4B24A
:103B90000194231C434401339B4600213A4B9A462F
:103BA00001200224042299465F46564633681E7E51
:103BB0000642FCD0AC466E78B3461E7E064201D06B
:103BC0005E469E621E7E2642FCD01E7E1642FCD0C1
:103BD0004E4633681E7E164211D0598B114204D0D6
:103BE000598B0426314389B25983274EB179012973
:103BF00003D1996AC905C90D01E0996AC9B2634642
:103C000019700135BD42D0D1019B013398441E4B40
:103C10001B6801201A7E0242FCD01A7ED60701D50D
:103C200000229A6202201A7E0242FCD004201A7EF0
:103C30000242FCD01A7E500710D55A8B510703D58B
:103C4000598B04220A435A830F4A9279012A03D1DD
:103C5000996AC905C90D01E0996AC9B24246117055
:103C600009480A4900220A4B9847002000210A4BC4
:103C7000984703B03CBC90469946A246AB46F0BD7F
:103C8000510100000D0300008409002048090020B4
:103C90001D0A000040090020ED020000037F002BF8
:103CA00006D10022034B1A7080221203024BDA6104
:103CB0007047C046950700200044004170B5104B86
:103CC0001B78002B1BD10F4B1C78002C17D00E4EED
:103CD000301C0E49221C0E4B98470E48022343818C
:103CE0000373012545738373066104750A4B836171
:103CF0000A4B98470022034B1A70014B1D7070BD90
:103D0000950700209407002098070020280700202E
:103D1000C5400000040800209D3C0000F51800008C
:103D2000F8B5274B1B78002B1FD10120254B984756
:103D30002548264B98470F20254B98470120254BB7
:103D400098472320244B98472448254B9847012027
:103D50002449254B9847254B14229A6000221A7358
:103D6000234A1A610122164B1A70224B1B78002B32
:103D700024D121482149224B9847002818D180227C
:103D80001203204BDA6113E03378692B01D11E4B0B
:103D900098472B78682B05D8591C1C4A117021783C
:103DA0001B4AD1540134BC42EED1174B984705E071
:103DB000184C271C0937154E351CE5E7F8BDC046E1
:103DC000240700204D18000067450000611800001E
:103DD000B92A0000A52A0000292B0000104300008A
:103DE000B5230000193E00007518000010070020E0
:103DF000453E000095070020FC06002024430000FB
:103E00006141000000440041BD3C000094070020D7
:103E1000280700200443000010B5037B002B09D0C5
:103E2000002306498468E25CCA540133DBB2027B9A
:103E30009A42F7D8024B9847012010BDFC0600209B
:103E4000213D000008B5014B984708BDBD3C00006E
:103E500010B50A4B98470A4B98470A4B98470122DE
:103E6000094B1A70BFF35F8F62B680221203074BB3
:103E70005A61074B9847074CA047FDE71D13000008
:103E800015010000812C00000800002000440041C2
:103E9000213D0000A52C000010B5041C134B9847D1
:103EA000134B1A7862438118124B59605968090CF8
:103EB00059605B68002B07D00E4B5968013280189F
:103EC00018810D4B984704E082180A4B1A810B4B5E
:103ED0009847084B1B89632B02D86433054A13812A
:103EE000044B1889064B984710BDC046692E000048
:103EF00090090020240800207D2E0000912E000053
:103F0000CD2E000008B50022034B1A70034B9847D2
:103F1000034B187008BDC04624080020E52E0000A1
:103F20009009002008B50E4B5B68002B07D00C4AA7
:103F30005368013B5360002B01D10A4B9847084A54
:103F400013780133DBB21370074A12789A4206D80D
:103F5000034B00221A70DB68002B00D0984708BD85
:103F600024080020912E00009009002008B5044B81
:103F70009847044B1B69002B00D0984708BDC046EA
:103F80007D2E000024080020014B18617047C046B8
:103F900024080020002934D00123002210B48842D4
:103FA0002CD301242407A14204D2814202D2090168
:103FB0001B01F8E7E400A14204D2814202D2490089
:103FC0005B00F8E7884201D3401A1A434C08A0422C
:103FD00002D3001B5C0822438C08A04202D3001BC2
:103FE0009C082243CC08A04202D3001BDC082243D9
:103FF000002803D01B0901D00909E3E7101C10BCFD
:104000007047002801D00020C04307B4024802A135
:104010004018029003BDC046190000000029F0D0EE
:1040200003B5FFF7B9FF0EBC4243891A1847C046D3
:104030007047C0469C460304F0B51B0C17043F0CA8
:10404000150C1E1C041C000C7E436B434743454368
:10405000FB18300C1818874202D980235B02ED1838
:10406000030CED1863465C434A433604360CA11832
:10407000000480194919F0BD70B50E4B0E4D002497
:10408000ED1AAD101E1CAC4204D0A300F3589847A3
:104090000134F8E700F07EF9084B094D0024ED1AD1
:1040A000AD101E1CAC4204D0A300F3589847013455
:1040B000F8E770BDA0430000A0430000A04300004B
:1040C000A443000010B50023934203D0CC5CC45439
:1040D0000133F9E710BD031C8218934202D0197016
:1040E0000133FAE770470000174B10B51C68A36B4B
:1040F000002B15D1182000F03DF8144BA06303806D
:10410000134B4380134B8380134BC380134B0381AA
:10411000052343810B238381012200230261436134
:10412000084B074AA46B20696169FFF783FF0122EE
:10413000002380185941206161614800400810BD8A
:104140002D7F954C2DF451586C0000200E3300004B
:10415000CDABFFFF341200006DE6FFFFECDEFFFF8A
:1041600002780B7801300131002A01D09A42F7D051
:10417000D01A704708B5034B011C186800F004F80A
:1041800008BDC0466C00002070B50323CD1C9D43C4
:104190000835061C0C2D01D20C2501E0002D3FDB5B
:1041A0008D423DD3204B1C681A1C211C002913D0C2
:1041B0000868431B0DD40B2B02D90B60CC181EE0F2
:1041C0008C4202D1636813601AE0486860600C1C7E
:1041D00016E00C1C4968E9E7144C2068002803D15C
:1041E000301C00F025F82060301C291C00F020F85D
:1041F000431C15D0C41C03239C4384420AD1256070
:10420000201C0B300722231D9043C31A0BD05A42A7
:10421000E25008E0211A301C00F00AF80130EED11B
:104220000C233360002070BD3C08002038080020BB
:1042300038B5074C0023051C081C2360FDF7CAFA9B
:10424000431C03D12368002B00D02B6038BDC0462F
:104250009409002000080042000C004200100042B7
:104260000014004200180042001C00421C0B000019
:10427000780B0000780B0000160B0000160B0000F6
:10428000320B0000220B0000380B0000660B000010
:10429000A00D0000000E0000000E0000800D0000C8
:1042A000920D0000AE0D0000840D0000BC0D00005A
:1042B000F00D0000002C00420030004200340042AB
:1042C0001B1C1C000008001000200000082000003B
:1042D0007C210000862100001C2300002423000014
:1042E000F2280000B0290000FC2800001C29000072
:1042F000B02900003E290000B029000080290000FC
:1043000012131400596F7520526F636B0000000088
:104310005465737453656375726974794B6579304C
:10432000000000007468697320726F636B73000093
:10433000430000000000000000000000000000003A
:10434000000000000000000000000000000000006D
:10435000000000000000000000000000000000005D
:10436000000000000000000000000000000000004D
:10437000000000000000000000000000000000003D
:10438000000000000000000000000000000000002D
:1043900000000000F8B5C046F8BC08BC9E46704757
:1043A000DD000000F8B5C046F8BC08BC9E4670476A
:0443B000B500000054
:1043B40008000000401F000001020000000000008F
:1043C4003443000054430000744300000000000024
:1043D4000000000000000000000000003043000066
:1043E40000000000000000000000000000000000C9
:1043F40000000000000000000000000000000000B9
:1044040000000000000000000000000000000000A8
:104414000000000000000000000000000C0000206C
:0400000300001735AD
:00000001FF
