:10000000402100208D16000089160000891600008E
:1000100000000000000000000000000000000000E0
:100020000000000000000000000000008916000031
:100030000000000000000000891600008916000082
:100040008916000089160000891600008916000034
:100050008916000089160000891600008916000024
:1000600089160000510B0000610B0000710B0000AD
:10007000810B0000910B0000A10B0000891600000D
:1000800089160000891600008916000089160000F4
:100090008916000000000000000000008916000022
:1000A0008916000000000000891600008916000073
:1000B0000000000010B5064C2378002B07D1054B3B
:1000C000002B02D0044800E000BF0123237010BDC4
:1000D00070000020000000000C4B000008B5084B29
:1000E000002B03D00748084900E000BF0748036819
:1000F000002B03D0064B002B00D0984708BDC0460C
:10010000000000000C4B0000740000200C4B0000AD
:100110000000000010B5031C4908402099420CD390
:100120000024C91A601C80B28B4201D8041CF8E775
:100130004020FF2C01D81480002010BD00000000DA
:10014000F0B55F4656464D464446F0B487B0061CAF
:100150000D1C049210AA1078321C424340248A429B
:1001600000D9B3E0002B4BD10021321C5E4CA047DC
:1001700083462E1C002700200021002200233F245C
:10018000A4460125A846029003916146203903D474
:1001900040468840814605E0202165464C1B40468C
:1001A000E040814641466446A1408A46101C191C25
:1001B00080185941021C0B1C5D464C46254202D05A
:1001C000424602430B1C9F420CD801D1964209D8EB
:1001D000921BBB415046029D28434946039C214344
:1001E000029003916546013DAC46CED20298039938
:1001F0003C4B3B4A121A8B41120C1B041A4362E01F
:100200000022012B5FD14F0FB946CD00AB46002134
:10021000321C0023344CA047061C0F1C0023012570
:10022000029603979A465046C0B205900021884630
:10023000002200233F24271C203F03D42E1CBE4055
:10024000019604E02020071B291CF94001912E1C77
:10025000A6400096101C191C80185941021C0B1C4A
:100260005F463740BC46019E4F463E4067463E4390
:1002700002D02A1C02430B1C039898420BD802D1CF
:100280000299914207D8029E039F921BBB414746A9
:1002900000980743B846013CCDD2414652468B1ADE
:1002A000DB08124CA34208D9059A0132D2B205925A
:1002B0000126B2445746082FB5D140240598082896
:1002C00004D042031A43049C22800024201C07B05F
:1002D0003CBC90469946A246AB46F0BDC046C046DF
:1002E0000000000001000000211B0000FF1F0000B3
:1002F00010B582B0041C0F4B1B78002B01D00029D5
:100300000DD001A90C7013200B4B984713200B4BF9
:100310009847084B5C7001221A70002007E0054BDB
:100320005A781D20141B621E94416442204002B082
:1003300010BDC0468C00002059150000CD140000EF
:10034000444B984233D006D8434B98420DD0434B90
:1003500098421BD06FE0424B98424AD0414B9842A2
:1003600058D0414B984266D132E0012965D000292E
:1003700004D0022906D0032906D001E03B4867E0FB
:10038000002065E03A4863E03A4861E0012956D030
:10039000002904D0022906D0032906D001E0032059
:1003A00056E0002054E0344852E0344850E001293F
:1003B00047D0002904D0022906D0032906D001E045
:1003C0002F4845E0002043E02E4841E02E483FE022
:1003D000012938D0002904D0022906D0032906D0EB
:1003E00001E02A4834E0002032E0294830E0294882
:1003F0002EE0012929D0002904D0022906D00329A2
:1004000006D001E0244823E0002021E023481FE03B
:1004100023481DE001291AD0002904D0022906D062
:10042000032906D001E01F4812E0002010E01E481A
:100430000EE01E480CE000200AE01D4808E01D48C0
:1004400006E01D4804E01D4802E01D4800E01D488C
:100450007047C0460010004200080042000C0042F5
:1004600000180042001C0042001400420300040077
:10047000030006000300070003001E0003001F0026
:1004800002000C0002000E0002000F00030010002A
:1004900003001200030013000500530005003E0096
:1004A00005005200030016000300180003001900A5
:1004B000030005000300010002000D00030011000D
:1004C00005003F000300170070B586B00C4A6B466C
:1004D00070CA70C332CA32C3009E864206D001235E
:1004E0009A0069465258824203D100E00023D8B2F4
:1004F00003E00133062BF3D1002006B070BDC046E7
:1005000020480000F0B5474680B40C1C90460028F7
:100510000CD1002A0DDD8F18094E0A4D3068211CC0
:100520002B6898470134BC42F8D104E001204042D6
:1005300002E0002000E0404604BC9046F0BDC0460A
:10054000140100200C010020F0B5474680B40E1CB9
:10055000151C0138022810D8002A11D000240D4B98
:1005600098460D4F43461868315D3B689847002810
:1005700008DB0134A542F5D107E00120404205E047
:10058000002003E00120404200E0201C04BC904613
:10059000F0BDC0461401002010010020F0B55F46F8
:1005A00056464D464446F0B491B0051C0C1C161C32
:1005B0002960081CAD4B9847021C23680520D90709
:1005C00000D54BE123681C209F0700D546E1A84BCE
:1005D000186A911C01278F40391C014319620FA929
:1005E0002D27F35D0B701432D2B29046101CA14B34
:1005F00098474046A04B9847F05D00219F4B984795
:10060000F37A6B712423F35CAB712523F35CEB71FC
:10061000F37E2B72337F6B7229688846081C934BDC
:100620009847143000226B46DA84328A0292802383
:10063000DB019A4221D08023DB019A4204D8802337
:100640009B019A4211D008E0C023DB01029F9F4228
:100650000FD080231B029F4203D01027069700274C
:100660000EE00327069700270AE0102706970127C8
:1006700006E008270697012702E0082706970027CB
:1006800031680391F268914673690493317E8A461A
:100690002623F35C9B467368002B13D080225205FF
:1006A00093422ED12723F35C002B2ED1376AC0B2A0
:1006B000734B9847011C381C6A462632714B984789
:1006C000031C1FE02723F35C002B0AD0069A00923C
:1006D000306AB16A6A4626323B1C6B4FB847031C2E
:1006E00010E0316A0791C0B2654B9847011C069A29
:1006F000009207986A4626323B1C634FB847031C9A
:1007000000E00023181E00D0A8E0737E002B02D06A
:10071000B37E41468B732A68029FD369002BFCD1BC
:1007200002976B4626331B88424693814B46039FB4
:100730003B43049F3B4371680B43029F1F43524658
:1007400013021F4359464B071F432723F35C002B1B
:1007500001D104231F43717E8902337F5B02194359
:10076000F27AB37A13431943737F1B02194324238C
:10077000F35C5B0419432523F35C1B0419433389A1
:10078000FF2B0BD0F27E002A03D0A022D204174305
:1007900002E0802252041743194305E0F37E002B48
:1007A00002D08023DB041F432C23F35C002B03D1F6
:1007B000364B9B789A0701D580231F432A68D3695B
:1007C000002BFCD1434659602A68D369002BFCD129
:1007D00041460F600EAB80221A7000225A70DA7008
:1007E0009A70326B0A92736B0B93B76B0C97F66B24
:1007F0000D9600270EAEF9B2BB000AAA9858002841
:1008000002D1201C224A9047431C05D03070000CB6
:10081000C0B2311C1F4A90470137042FEBD100238F
:10082000EB602B616B61AB61EB612B62AB626B6266
:100830000022EB85AB853023EA543123EA5432237E
:10084000EA543323EA542868084B9847041C124999
:10085000124B9847A400124BE550002011B03CBC4D
:1008600090469946A246AB46F0BDC046C90400007A
:100870000004004059150000CD140000F1020000F2
:100880007515000015010000410100000020004125
:10089000410300003516000049090000E90A000084
:1008A0001801002010B5021C0368C4791C20002C1C
:1008B0000DD0D28D92B20520002A08D1DA69002A23
:1008C000FCD1198502211A7E0A42FCD0002010BDFD
:1008D00010B5031C046882791C20002A33D09B8D3C
:1008E0009BB20520002B2ED1237E5A072BD5E3691E
:1008F000002BFCD1638BDBB29A0621D09A0703D57B
:10090000022363831A201EE05A0703D5042363835E
:100910001E2018E0DA0703D501236383132012E0B9
:10092000DA0605D5628B10231343638342200AE065
:100930009A0605D5628B202313436383412002E08E
:10094000238D0B80002010BDF8B58000644BC55886
:100950002C68E369002BFCD1237EA67D1E40312349
:10096000EB5C3022AF5C1F40F10720D5EB8D9BB2D2
:10097000002B1AD0AB6A1A78D2B2591CA9626979D5
:10098000012904D1597809020A430233AB62D30525
:10099000DB0D2385EB8D013B9BB2EB85002B06D154
:1009A000012323750223A37501E001232375B207F8
:1009B00009D50223237500223323EA54FB0702D50D
:1009C000281CE968884772076AD5AB8D9BB2002B5B
:1009D00064D0638BDBB2190702D43F22134001E0DD
:1009E00037221340002B37D09A0707D51A2232231B
:1009F000EA54628B02231343638327E0590707D528
:100A00001E223223EA54628B0423134363831DE0C6
:100A1000DA0707D513223223EA54628B01231343EA
:100A2000638313E0D90607D542223223EA54628B4E
:100A300010231343638309E020221A4206D0412287
:100A40003223EA54628B2023134363837A0727D52A
:100A5000281C6B69984723E0228DD205D20DD3B2B2
:100A6000696A0B706B6A591C69626979012904D142
:100A7000120A5A706B6A01336B62AB8D013B9BB2F9
:100A8000AB85002B0CD10423237500223223EA54BA
:100A9000BA0705D5281C2B69984701E00423237564
:100AA000F10607D5102323752376FA0602D5281CF4
:100AB000EB699847B10607D52023237523763A07BB
:100AC00002D5281CAB699847310707D50823237541
:100AD0002376BA0602D52B6A281C9847F8BDC04673
:100AE000180100207047C046F0B50A4B1B78002B58
:100AF0000CD1094F094E0A4D0024DE515A191460D9
:100B00000433182BF9D10122024B1A708000024BDA
:100B1000C150F0BD9000002094000020E50A0000C4
:100B20001801002010B582B0041C68460549062251
:100B3000054B9847201C054B98476B46185602B04A
:100B400010BDC04638480000F9380000C904000054
:100B500008B5024B1B680020984708BD9400002090
:100B600008B5024B5B680120984708BD940000203F
:100B700008B5024B9B680220984708BD94000020EE
:100B800008B5024BDB680320984708BD940000209D
:100B900008B5024B1B690420984708BD940000204B
:100BA00008B5024B5B690520984708BD94000020FA
:100BB00010B50020084B9847084CFA218900A0473F
:100BC000074B1860FA218900A047064B18600522E0
:100BD000054B1A6010BDC04641140000811A000088
:100BE000040000200000002010E000E030B5084BB9
:100BF0001C68084A00258021490206E0002C04D028
:100C00005460956013680B42FCD00138F6D230BDB9
:100C10000400002010E000E00C4B1B68002B10D1FA
:100C2000EFF31083002B09D172B6BFF35F8F002260
:100C3000074B1A700122074B1A7002E00022054B85
:100C40001A70024B1A6801321A607047AC0000201B
:100C500008000020B0000020084B1A68013A1A6012
:100C60001B68002B09D1064B1B78002B05D00122F5
:100C7000044B1A70BFF35F8F62B67047AC00002060
:100C8000B000002008000020F0B583B001AC0125C1
:100C900065700027A77025701320211C064EB047F1
:100CA00080221203054B9A61277065701C20211C5D
:100CB000B04703B0F0BDC046011100000044004140
:100CC00010B50022002302704270002142800171A1
:100CD00003760262C261826006240473C024640148
:100CE000C481037443748374C37403752A24035545
:100CF0004375837524240355C2840285C1752B2353
:100D0000C1542C23C15410BDF0B55F4656464D4624
:100D10004446F0B499B0061C151C0160B54B186A26
:100D20008022520202431A620B780520DA0700D5AE
:100D3000D9E10B781C20990700D5D4E16B78337189
:100D4000002B04D1AC4B196C04220A431A6432689C
:100D500001922B78684603721E2002A9A74B984780
:100D60001E20A74B98472C23EB5C002B42D02B2254
:100D7000AC5C297B88460A19D2B2D318DBB29946FB
:100D80009A4221D29F4A93469F4B9A460F2727406B
:100D90002B7BFF1804A859465022D047132F0CD89C
:100DA000BF0004ABF85803A900234B70CB708B70C5
:100DB00001230B70C0B2954A90470134E4B240461B
:100DC0000319DBB29945E1D8EC8904A88D4950227A
:100DD0008D4B9847132C37D8A40004ABE05803A9D7
:100DE00000234B70CB708B7001230B70C0B2874B0C
:100DF000984729E02C7B04A882495022824B9847CF
:100E0000132C0CD8A40004ABE05803A900234B70AA
:100E1000CB708B7001230B70C0B27C4B9847EC8970
:100E200004A878495022784B9847132C0CD8A4007A
:100E300004ABE05803A900234B70CB708B700123E7
:100E40000B70C0B2714B98476B7D9B00DBB2019970
:100E50000B70AB7DDB016A781343DBB24B702B79EF
:100E6000342B00D93EE19B00694AD3589F460222A9
:100E7000102401231AE06B7C2A7C102416E0062241
:100E80001024012312E00822102400230EE0002287
:100E9000302400230AE000222024002306E0002260
:100EA0000024002302E00422102402231B017021ED
:100EB0000B401343019A9370EB7D17203F2B00D911
:100EC00011E1D3703268537E5BB2002BFBDBEA7C0E
:100ED0006B8813432422AA5CD20013432A7D92001C
:100EE0001343AA7C520013432343019883802B7E33
:100EF000002B01D1316895E0102C5BD002D8002C7A
:100F000038D0F7E7202C19D0302CF3D1EA7C002A16
:100F10000AD0EA6980321720FF2A00D9E3E02A6A62
:100F20008032FF2A00D9DEE01720E969FF2900DDC1
:100F3000D9E02A6AFF2A00DDD5E0DBE7EA7C002A57
:100F40000DD0E8698022920081181720314A914221
:100F500000D9C8E0304A296A914200DBC3E017207B
:100F60002C4AE969914200DDBDE0296A914200DD29
:100F7000B9E0BFE7EA7C002A11D0EA6980200001CD
:100F800011181720254A914200D9ACE02A6A802026
:100F9000000111181720214A914200D9A3E017201F
:100FA0001E4AE969914200DD9DE0296A914200DD17
:100FB00099E09FE7EA7C002A11D0EA6980200002CC
:100FC00011181720164A914200D98CE02A6A802015
:100FD000000211181720124A914200D983E017200D
:100FE0000F4AE969914200DD7DE0296A914200DD06
:100FF00079E07FE700040040000800405915000038
:10100000CD14000014490000F93800003516000026
:1010100040480000FF03000001FEFFFFFF0F00003B
:10102000FFFF00004A7E52B2002AFBDB019A1372D6
:101030003268537E5BB2002BFBDBAB8B0198838362
:101040003268537E5BB2002BFBDB2B8C01990B8447
:101050002C23EB5C002B04D0013BDBB217200F2BC1
:1010600041D82B22AA5C17200F2A3CD83168487E31
:1010700040B20028FBDBE889297B0143A8680143D3
:1010800012050A431B04134301990B612A23EB5CED
:101090000B750F238B752423EB5C002B10D0EB8C8E
:1010A0001720144A93421ED88B842B8D8020000178
:1010B000191889B217200F4A914214D80199CB848C
:1010C0000D4B1A685201E023DB001A400B4B5868A5
:1010D00041011B68DB0E0B43DBB2134301990B8507
:1010E000002000E0172019B03CBC90469946A2466B
:1010F000AB46F0BDFF0F0000246080002060800040
:1011000000B583B001AB80221A700A785A704A7811
:101110009A708A78DA70191C014B984703B000BDA9
:101120003516000008B5082834D880001B4B1B5822
:101130009F468020000230E0194B18692DE0194BC2
:10114000186A8005800F184BC340181C25E0144B0B
:10115000586922E0124B1B68022018401DD011492B
:101160001022CB681A42FCD00D4B1B685A0713D5CE
:1011700000200E4B98470A4B9B681B041B0C5843DE
:101180000BE05023074AD35C00205A0705D5044BD7
:10119000D86802E0002000E0054808BD644900006E
:1011A000B40000200008004000127A00751500000D
:1011B000006CDC0270B50C4B1C6A017885784078B5
:1011C0000122104080014026B44304432A40D0014C
:1011D00080229443221C0243032001400902034859
:1011E00002400A431A6270BD00080040FFFCFFFF86
:1011F000082843D88000224B1B589F4600203EE021
:10120000204B196A02220A431A62002037E01D4B64
:10121000996902220A439A61002030E0194B198A29
:1012200002220A431A82002029E0164B998A0222E0
:101230000A439A82002022E0134B196802220A43D3
:101240001A601A68114B1A400E4B9A84191C10220E
:10125000CB681A42FCD00C4A91680A4BD96251689B
:101260009962126892B29A84002008E0054A4423E9
:10127000D05C02210143D154002000E017207047C8
:101280008849000000080040B40000207FFF0000F3
:1012900030B585B0C222D200194B9A60194B5A68FA
:1012A0001E218A435A6001236A4613700024164D9A
:1012B000E0B26946A8470134252CF9D103A80024DF
:1012C0004470012585700470104B98470620104B20
:1012D0009847104B9847104B1C725C729C7201959A
:1012E0006B465C7006236A461370147254720020B9
:1012F00069460A4B98470020094B984705B030BD16
:10130000000800400040004159150000B5110000E0
:10131000F1110000251300000004004049130000F3
:10132000FD130000064B996908220A439A610122C5
:10133000044B1A70191C0B781342FCD17047C0463D
:1013400000040040000C0040F8B5061C071C0D7896
:101350002D0205434B78002B02D08023DB021D4376
:101360004B7A002B02D080231B031D434C68012CB9
:1013700017D9631E1C420FD1022C06D9022300226A
:1013800001325B009C42FBD800E000221702374389
:1013900080235B031D4304E02702374380239B0225
:1013A0001D430B7A002B02D080239B031D430F4A61
:1013B00053785BB2002BFBDB0D4B98470D4B1E7037
:1013C0000A4A53785BB2002BFBDB084B9F601A1C68
:1013D00053785BB2002BFBDB044B5968802252022E
:1013E0000A4015435D60044B9847F8BD000C00406F
:1013F000190C0000080C0040590C000010B5041C2A
:101400000B4A53785BB2002BFBDB0A4B98470A4B25
:101410001C70074A53785BB2002BFBDB044B596806
:10142000802252020A435A60044B984710BDC046BE
:10143000000C0040190C0000040C0040590C000086
:1014400070B5041C1A4A53785BB2002BFBDB194BB6
:101450009847194B1C70164A53785BB2002BFBDB84
:10146000134E7068C004C00E144B9847051C124BF5
:101470001C707668F602F60F114B1C700C4A5378FC
:101480005BB2002BFBDB0A4B9C68240AA4B20D4B19
:101490009847002E07D1012C07D9281C211C0A4B84
:1014A0009847051C01E00134E540281C70BDC0468A
:1014B000000C0040190C0000040C00402511000035
:1014C000080C0040590C0000811A000010B5041CE3
:1014D000064B9847064B1C70064B59888022D20158
:1014E0000A435A80044B984710BDC046190C0000AF
:1014F000020C0040000C0040590C000010B5041C08
:101500000F4B98470F4B1C700F4B58880005000F6E
:1015100059880E4A0A405A8059880D4A0A405A8012
:10152000191C8022D2014B881342FCD1064B0102C8
:101530005888064A02400A435A80064B984710BD15
:10154000190C0000020C0040000C0040FFF0FFFFEF
:10155000FFBFFFFF590C000010B50C7824020443B4
:10156000024B9847A4B2024B5C8010BDFD140000F2
:10157000000C004010B5041C064B9847064B1C702D
:10158000064B5C882405240F054B9847201C054B0F
:10159000984710BD190C0000020C0040000C0040E0
:1015A000590C00004114000030B5D378002B1ED137
:1015B0001378802B04D01B0680246402234300E0B0
:1015C000002354780225AC430AD19478002C03D12F
:1015D0008024A402234302E0C024E40223434160A8
:1015E0005478013C012C04D8114C234001E04160A7
:1015F00000230D042D0CA024E4052C431C4384621D
:101600000D0CD02424062C431C438462D478002C77
:101610000CD15C0305D59378012B01D1816100E0E9
:1016200041615378013B012B00D8816030BDC04639
:10163000FFFFFBFF08B5031C0A1CC109002000299D
:1016400003D15809C001044940181F210B40012152
:101650009940024B984708BD00440041A91500007D
:101660007047C04608B5044B9847044B9847044B55
:101670009847044B984708BD91120000890C000060
:101680006116000061160000FEE7C04610B51C4B55
:101690001C4A9A4203D01C4B194A9A4204D31B4B52
:1016A0001B4A9A4210D31BE01A4B17480330C01A4A
:1016B00080080130800000231149124AD458CC50D0
:1016C00004338342FAD1EAE7114B1A1D0F49033163
:1016D000891A890889005218002102C39342FCD15B
:1016E0000D4B7F210D4A8A439A600D4B5968802229
:1016F0000A435A600B4B98470B4B9847FEE7C0468E
:10170000000000200C4B0000700000203C01002075
:10171000700000200400002000ED00E00000000048
:1017200000400041AD38000011180000064B1B6856
:10173000002B02D1054A044B1A60034A136818189B
:101740001060181C7047C046CC00002040210020CB
:10175000012040427047C04680239B014B6000201F
:101760007047C046012070470020704770B582B0B6
:10177000051C0E1C00226B46DA80064C281C6946AC
:101780000631A0470028F9D16B4606331B88337019
:1017900002B070BDD108000070B5061C0D1C034CD2
:1017A000301C291CA0470028FAD170BDA5080000F4
:1017B00010B58CB06846114B984700236A465370A9
:1017C000137153740A231373E023DB00D3810C4C91
:1017D000201C0C490C4B984723685A7E52B2002AB1
:1017E000FBDB197802220A431A70054B1A68537EF4
:1017F0005BB2002BFBDB0CB010BDC046C10C00007F
:101800003001002000400042090D000000000000EF
:10181000F0B54F464646C0B491B07D4B98477D4BDE
:1018200098477D4B98477D4B1B685A7E52B2002AE1
:10183000FBDB197B02220A431A735A7E52B2002A3A
:10184000FBDB8023DB05009300230193FF22684626
:10185000028100228372C3729621890108910126B8
:1018600024214654252146542621435427214354FC
:101870000A932C2143542D21435405930382C376AC
:1018800002760277427613238376427780235B03C6
:101890000393634B0C93634B0D9301235B420E93B5
:1018A0000F93614C614B1C60614A624B1A60624A43
:1018B000624B1A60201C62496A46624B9847624F2D
:1018C0003B6898680021614DA8473B685868002133
:1018D000A8472568281C5E4B98471F231840864060
:1018E0005C4B1E602368DA69002AFCD12A68022357
:1018F00013432B60494C25682A7ED2B20123134042
:10190000560701D502210B43900701D5042213434A
:10191000D907F0D56B7E5BB2002BFBDB6B8B9BB2E8
:10192000994601232B763D4A11680A7ED2B21340B4
:10193000560701D502200343900701D50422134323
:101940005A0725D502230B7622E002200143960791
:1019500001D50422114301220A40880701D5042041
:1019600002434E0701D502210A43D2B21A765A7EAB
:1019700052B2002AFBDB197B02220A431A735A7EF9
:1019800052B2002AFBDBFA204000334B9847B2E703
:1019900032484946324A904690474846314B98472C
:1019A000314B9847314D114B0F4AA847104A114B04
:1019B000A847114A114B2E4EB047114A114BA84768
:1019C000114A124B2B4DA8472B4B9847011C2B4813
:1019D000C047124B1B681A7ED2B20121114050073A
:1019E000B3D4B4E7C046C0464C4006C9FFFF2F3F02
:1019F00000000000000018407B14AE47E17A843FED
:101A0000CDCCCCCCCCCCFC3F000000000000404052
:101A100065160000B10B0000B11700003001002076
:101A20000300040003000500D00000201401002082
:101A300099170000100100206D1700000C01002014
:101A4000000800429D0500006C0000205139000094
:101A5000250B000000E100E0ED0B0000AC490000A8
:101A60001D390000A91B0000C5340000D528000066
:101A70008D220000491C0000691B0000C0490000C5
:101A8000002934D00123002210B488422CD3012431
:101A90002407A14204D2814202D209011B01F8E7C6
:101AA000E400A14204D2814202D249005B00F8E77F
:101AB000884201D3401A1A434C08A04202D3001BAB
:101AC0005C0822438C08A04202D3001B9C082243DE
:101AD000CC08A04202D3001BDC082243002803D01C
:101AE0001B0901D00909E3E7101C10BC704700284E
:101AF00001D00020C04307B4024802A14018029060
:101B000003BDC046190000000029F0D003B5FFF75F
:101B1000B9FF0EBC4243891A1847C0467047C046F9
:101B20009C460304F0B51B0C17043F0C150C1E1C3F
:101B3000041C000C7E436B4347434543FB18300CA9
:101B40001818874202D980235B02ED18030CED18A8
:101B500063465C434A433604360CA11800048019DE
:101B60004919F0BD0000000038B50E4B0C4A041CAA
:101B70000D1C01F02DFD002804D1201C291C01F0B2
:101B80006DFC38BD074B064A201C291C01F032F9B8
:101B900001F064FC80231B06C018F2E7C046C04673
:101BA000000000000000E04110B5041E33D001F039
:101BB00019FD9E231B1A962B09DC08388440640209
:101BC000640ADBB26402DB05600A184310BD992B7E
:101BD0000ADD0522121A211CD1400A1C011C1B31EE
:101BE0008C40611E8C411443052801DD421F944046
:101BF000144A2240610704D00F210C40042C00D06D
:101C0000043251010AD59F23181AFF2816D09401D7
:101C1000640AC3B2D6E700230024D3E7D208FF2B1F
:101C200003D05402640ADBB2CCE7002A06D0802439
:101C3000E40314436402640AFF23C3E7FF23002480
:101C4000C0E7C046FFFFFFFBF8B55F465646444677
:101C50004D46F0B40C034D00CE0F610A440F2143F2
:101C6000C400180380465800400D8246D80F8446B1
:101C70004046400A530F0343D0006D0D371C834686
:101C80005246664500D1A4E0AF1A002F00DC09E1FE
:101C9000002A3BD1184300D0EAE0630700D187E077
:101CA0000F232340042B00D182E0221DA242A44135
:101CB0006442802309191B040B40371C141C002BA1
:101CC00000D17CE0CE4B01359D4200D105E1CD4BEA
:101CD000E40819404807490204430B0B0020002187
:101CE0001B031A0B0B0D6D051B0513436A08C64D2C
:101CF000FF071D4015436D006D08291C3943201C4A
:101D00003CBC90469946A246AB46F8BDBC488542CD
:101D1000C3D0802000040343382F00DDF0E01F2FE4
:101D200000DD24E12020C01B1A1C81468240584659
:101D3000F8400243944658464A469040421E90411D
:101D4000FB40624602431F1CA21A9442A441644213
:101D5000C91B091B141C0B029FD549024F0A002FF7
:101D600000D1C8E0381C01F03DFC021C083A1F2AD3
:101D700000DDB5E02821091A201C9740C840074320
:101D80009440954200DDB2E0551B691C1F2900DD1F
:101D9000DCE01F22551B3B1C221CAB40CA40AC4060
:101DA000651EAC411343CF401C43391C002574E72A
:101DB00080231B040B40371C002B00D082E7904B84
:101DC0004807E4080443C9089D4248D009030B0BA7
:101DD00084E7AA1A9446002A00DC98E050460028BE
:101DE00052D08748854200D157E780200004034342
:101DF0006246382A00DDFCE01F2A00DD4AE120228D
:101E00006046101A1A1C8240824691465846624625
:101E1000D0404A4602439046584652469040421EA1
:101E20009041424602436046C3401219A242A44177
:101E3000644259180919141C080200D42DE7704B8C
:101E400001359D4200D122E16E4B6008194001230B
:101E500023401C1C0443CB071C4349081DE7231CDB
:101E60000B433AD080231B030B431B031B0B35E7AB
:101E7000013F002F65D15846221A9442A441644282
:101E8000C91A091B141C66E75846184300D104E719
:101E90000122524294446046002800D0C5E05846D2
:101EA0000219C3E7002F73D1681C4005400D0128BB
:101EB00000DCDEE05A46A21A9442BF41C81A7F42B3
:101EC000C71B380200D489E05A46141BA34592412F
:101ED000591A52428F1A664641E700230024FDE654
:101EE000271C283887400024954200DC4CE74549F0
:101EF000AD1A3940D1E6201C01F074FB203034E7E4
:101F00005A461A43531E9A41D2B200271CE7002AB0
:101F100000D0DCE0681C4205520D012A00DC8DE097
:101F2000374DA84200D1F3E05D462A19A242A441F0
:101F3000644259180919CC07520814434908051C72
:101F4000ABE62F48854200D0E6E6A6E62B1C1F3BF9
:101F50003A1CDA40131C20296CD03F22551BAF409D
:101F60003C43601E84411C430021002595E6381C3B
:101F700020381A1CC240101C202F5DD04022D71BD5
:101F8000BB405A461A43531E9A4102430027DBE6E0
:101F9000002D3BD01A4DAA4500D193E080252D0499
:101FA0007F422943382F00DDACE01F2F00DD29E1FF
:101FB0002025ED1B081C261CA840FE40AC40064313
:101FC000651EAC413443F9405D462C1BA34592414C
:101FD0005B1A5242991A55466646BCE6131C3B43AF
:101FE000141C002B00D0BAE6002700210025002495
:101FF000E5E65A461A43531E9A41D2B2002314E72B
:10200000FF070000FFFF7FFFFFFF0F800D1C254330
:1020100058D0FF43002F51D1041BA3459241591AB8
:102020005242891A5546664695E69648854200D042
:10203000DEE632E6002793E70023A2E7081C2043F0
:10204000002D00D0C4E0002800D1F7E05846184326
:1020500000D122E658460219A242A441644259180E
:102060000919141C0A0200D417E6874B01251940F0
:1020700013E6081C2043002D39D1002871D15946A0
:10208000194303D0191C5C46664606E6002700216A
:10209000002494E6604620381A1CC24060469146EF
:1020A000202800D1ACE04022121A93405A461A432D
:1020B000531E9A414B461A430023B6E6714DAA457A
:1020C00000D06FE7191C5C4655466646E5E5002DD5
:1020D00022D10D1C254377D0D543002D71D15C440E
:1020E0005C4592415918524289185546A4E6002889
:1020F0004DD15946194300D194E0191C5C466646FF
:10210000604DCAE50C43611E8C41E4B200215BE7DF
:10211000051C0021002452E65A4DAA4554D05542D0
:10212000802210040143382D00DD81E01F2D00DDE9
:1021300092E02022501B0A1C84468240201CE8406A
:102140000243904662469440601E844142461443D6
:10215000E9405C445C459241CB185242991855467F
:102160006AE65846184300D197E55846271ABC42FC
:102170009241C81A5242801A020266D55846041B80
:10218000A3459241591A5242891A664685E5584636
:10219000184333D04807E40804438020C9080003EB
:1021A000014208D0DD08054205D15946CA085C073E
:1021B0001443291C6646630FC9001943E400314DDE
:1021C0006BE5304A9245AED1191C5C46554664E534
:1021D000002836D05846184310D080254807E40818
:1021E000C9082D0304432942E5D0D8082842E2D18A
:1021F0005D46EA085C071443011CDCE7214D4CE511
:10220000002353E73D1C203D0A1CEA40151C202FEB
:1022100034D04026F71BB9400C43611E8C412C433F
:102220000021D1E680210027C903164D0024C6E510
:102230000C43611E8C41E4B200218AE7191C5C4604
:102240002BE5191C5C460F4D27E5031C3B4300D1D1
:102250001CE7011C3C1C20E52020404240190A1CC0
:10226000C2409046202D0BD04020451BA9400C4376
:10227000611E8C4145462C4300216AE70021CBE7D3
:102280000021F4E7FF070000FFFF7FFFF0B556468F
:1022900044465F464D46F0B41F1C0B031B0B98468B
:1022A0004B0087B0041C81465B0DC80F161C9A4674
:1022B0000090002B51D06A4B9A4531D08022414684
:1022C00052030A43630FD2001A43664B904600251F
:1022D000E20091469A44002402953B031B0B9B4667
:1022E000FD0F7B00311C5B0D019560D05C4A934271
:1022F00054D08021584649030143720FC90011434D
:10230000584A8B469B18F1000020009A04436A400B
:1023100003920F2C00D9ADE0534EA4003459A746C8
:10232000404604436ED10021022508248846894690
:102330000295D2E7009C0298C346494601940228C0
:1023400064D0032800D1ABE2012800D038E2019A22
:10235000002402400025A14660E0434623434AD0C2
:102360004046002800D1C0E101F03CF9031E272BB4
:1023700000DDB3E128210D1A211C083B4246E9404B
:102380009A400D1C1543221C9A40A8469146374B93
:1023900000251B1A9A46002402959EE75A461643CA
:1023A0000320002EB1D1B34600210220ADE75A46EA
:1023B00032431BD05B46002B00D18AE1584601F026
:1023C00011F9272800DD7DE12822171A011C321C93
:1023D00008395B46FA408B40171C1F43331C8B4067
:1023E000BB46191C214B1B1A00208EE70027BB4659
:1023F0000021012089E70020012504248046814630
:1024000002956AE703250C24029566E7019C039474
:10241000039D01222A400024114DA14600200021E5
:102420002403260B0C0D2405114B34432D052340AA
:102430002B435B005B08D207191C4846114307B0C9
:102440003CBC90469946A246AB46F0BD0022802493
:1024500024039146024DE1E700240025A146DDE773
:10246000FF07000001FCFFFFD04900000DFCFFFF4B
:10247000FFFF0F805546ED1A0495D84500D953E16A
:1024800000D14EE1049C0025013C4E460494474691
:10249000A946584603020C0E1C430902250C2304CE
:1024A0001B0C0091381C291C0193FFF7E9FA0199D4
:1024B00083464143381C8A46291CFFF725FB330C11
:1024C000090419438A450CD95B460919013B8C4222
:1024D00000D947E18A4500D844E1022252429344A0
:1024E00009195346CB1A181C291C9846FFF7C8FA3D
:1024F000071C0198291C784382464046FFF704FBDD
:1025000036040B04360C33439A4509D91B197A1E3D
:102510009C4200D924E19A4500D821E1023F1B19D1
:102520005E4632041743380CBB46009E009F51465E
:102530003F0C32045B1A5946BA46120C0F043F0C8A
:10254000904651467A434F43414641435646704375
:10255000CF19160CBE19B14202D980277F02C019CB
:10256000310C12043604120C4018B618834200D203
:10257000C4E000D1BEE0191A4846861BB145BF41F0
:102580007F42CF1BA74200D113E1291C381CFFF763
:1025900077FA019902904143381C8946291CFFF7BC
:1025A000B3FA330C0904194389450CD9029B091964
:1025B000013B8C4200D9FFE0894500D8FCE0029F36
:1025C0000919023F02974F46CF1B381C291C05975B
:1025D000FFF756FA071C0198291C78438146059895
:1025E000FFF792FA36040904360C0E43B14509D9B7
:1025F00036197B1EB44200D9E0E0B14500D8DDE0D9
:10260000023F3619029D4946761A290439430B04C4
:1026100057460A0C1B0C40464546584355437B43DE
:102620007A43EB18070CDB199D4202D980256D0215
:1026300052191D0C00041B04000C52191B18964261
:1026400035D300D1FCE001231943049E994FF519BD
:10265000002D00DCA1E0480709D00F230B40042B1C
:1026600005D00B1D8B42894149428B44191C5A46A7
:10267000D20107D5904B5C46049E80271C40FF008A
:10268000A346F5198D4B9D427ADD039C0122224021
:1026900000248B4DA146C1E68024240347462742EF
:1026A0004CD13C432403240B009A854DB6E63619E1
:1026B000481EB4425ED9011C9642C4D1009E9E427F
:1026C000C1D1C2E7031C283B311C99408B46002135
:1026D00088E6301C00F086FF203072E6283B211C83
:1026E000994000228846914651E6201C00F07AFF6E
:1026F00020303BE60021B14500D33DE7009F5A461C
:10270000B944B945BF417F423F19FB18013A9C4289
:102710001ED2984200D97EE000D1B5E0191A934646
:102720002AE7894500D8ADE648464646424677083E
:10273000D3074608C0071E438146AAE658462042F2
:1027400012D1044324032A1C240B89465C4D65E600
:10275000A342E3D1009F4F45DBD9211A93460BE7F3
:10276000171CDDE69B46BCE63C432403240B009A81
:10277000534D53E6B24259D800D18AE0011C62E7BA
:102780005F46C9087B07039E0B437C026D0501224F
:102790009946240B6D0D324040E64A4B049FDB1BEB
:1027A000382B10DD039C0122224000240025A14685
:1027B00034E60121494248E7029304E71F1C21E760
:1027C000019C039441E71F2B40DC3F48049F0C1CF5
:1027D0003A1858469140DC40904020430A1C511E54
:1027E0008A41011C11435A46DA40131C480709D09C
:1027F0000F220A40042A05D00A1D8A428941494213
:102800005B18111C1A0234D5039C012222400024BB
:102810000125A14602E6009F02214942B9448B44AA
:10282000B945894149420919CB18A4E6009D881E83
:102830006900A942AD416D422C19361900913AE761
:10284000002B00D033E70024009437E71F4A049C94
:102850005D46121BD5402A1C202B1FD01C4E5F4604
:10286000A3199F403B1C19434B1E99411143002360
:10287000BCE75A07C9080A43039F91465B0201223D
:102880001C0B3A400025C9E54E45C4D893460021AB
:1028900072E6009F9F42C9D3011C0FE70023E2E7C5
:1028A000802424035F463C432403240B019A894679
:1028B000034DB3E5FF030000FFFFFFFEFE0700002E
:1028C000FF07000002FCFFFF1E040000E2FBFFFF09
:1028D0003E040000F0B5564644465F464D46F0B40F
:1028E0001F1C0B031B0B9A464B0087B0041C804631
:1028F0005B0DC80F161C02938146002B68D0694BF4
:102900000299994232D08022534652031A43D20090
:10291000630F1A439246644AE00089188046029188
:10292000002400253B031B0B9B467800FB0F321C49
:10293000400D039300D175E05A4B984269D0802234
:10294000594652030A43730FD2001A43564B93461B
:10295000C018F200002303994E4671401C430F2C0F
:1029600000D9A9E0514EA4003459A74653461C4350
:1029700000D087E00025AA46A84608240225D1E712
:102980004946022D6CD0032D00D117E2012D00D055
:1029900058E10D40EDB20024A9460023A0460020D6
:1029A000002125030A0D1C052D0B1205404B2A435F
:1029B000134023435B004C465B08E207191C40466A
:1029C000114307B03CBC90469946A246AB46F0BDC9
:1029D0005346234350D05346002B00D184E1504648
:1029E00000F000FE031E272B00DD76E128210D1AE2
:1029F000211C083B5246E9409A400D1C1543221CFD
:102A00009A40AA4690462B4B00241B1A029300259D
:102A100088E75B461E430323002E9CD1B346002269
:102A2000022398E75B46334321D05846002800D163
:102A30004EE100F0D7FD272800DD42E128210F1AE2
:102A4000021C311C083A5B46F94093400F1C1F439F
:102A5000331C9340BB461A1C164B181A00237AE706
:102A600001230B4000249946A0460E4B97E7002710
:102A7000BB46002201236EE7002104248A468846D3
:102A800001254FE70C2403254CE700258024A946A7
:102A90002403A846034B82E7DA46904603991D1C9F
:102AA0006FE7C046FF07000001FCFFFF104A00006F
:102AB000FFFF0F800DFCFFFF029F160C38180490DB
:102AC0004046070C0004000C1204120C031C534374
:102AD000041C3D1C7443554398463B1C73436419C6
:102AE000A44644460293230C63449D4204D9029DAC
:102AF000802464022D1902951D0C039545462C0473
:102B00001B04240C1C1905945C46230C051C58431B
:102B10002404240C8446381C604365435F4381468B
:102B2000CC44280C6044BB46814502D980277F02F3
:102B3000BB442D04070C2D0C000440195546BC461F
:102B40002F04E3448446280C3D0C2F1C5743B84601
:102B50002F1C77434243B94647463F0C9144BA463F
:102B6000D14446434A4502D980225202B6184F4604
:102B70003A0CB6183A0447463F043F0CB8462F1C9F
:102B800067435D434443584365190190380C2D1841
:102B90004244B846AC4204D9019880235B02C01875
:102BA0000190039C029F201C6044C0196045A44111
:102BB00047466442A4462B043C049946240C4C44EA
:102BC000A046D8448018C246E244904292415746FB
:102BD00052429146F219E245BF417F424B46BC4604
:102BE000D845BF41D4187F4263461F432D0C7F193F
:102BF000B24292414C45AD4152426D421543019E55
:102C00007D19AB19E20D5B02059F134342023A4363
:102C10009A46531E9A41C30D101C18436402204368
:102C200080465046C0010DD5454601225646049CBB
:102C30006B082A401A43F30701341A4376080494B8
:102C40009046B246049E634FF319002B61DD404667
:102C500040070BD00F2244462240042A06D04246A9
:102C60000432424580414042824490465546ED013F
:102C700007D5594B5646049F80201E40C000B246DF
:102C80003B18564A934200DDEAE644465546E208C0
:102C90006807104301226C025B050A408046240B42
:102CA0005B0D91467BE6DA4690461D1C69E6802462
:102CB0002403574627421CD13C432403240B484B92
:102CC0006DE6031C283B311C99408B460022C3E66D
:102CD000301C00F087FC2030ADE6283B211C9940D9
:102CE00000228A4690468EE6201C00F07BFC2030B5
:102CF00078E65846204207D1044303992403240B65
:102D000089469046364B4AE63C432403240B344B19
:102D100045E6344B049E9B1B382B06DD01230B40FC
:102D200000249946A046002339E61F2B25DC049C8D
:102D30002D4D46466019524644468640DC4082404E
:102D40005746301C2243DF40441EA04102433B1C37
:102D5000540709D00F201040042805D0101D9042C0
:102D6000924152429B18021C1D021AD501230B40AE
:102D700000249946A046012311E61C48049C5546B0
:102D8000001BC540281C202B16D0194E5746A219EF
:102D900097403A1C43461A43531E9A41024300236C
:102DA000D6E758075B02D2081C0B01230B401043E7
:102DB000994680460023F2E50022EBE780242403B5
:102DC00050460123044319402403240B8946044B35
:102DD000E5E5C046FF030000FFFFFFFEFE07000021
:102DE000FF07000002FCFFFF1E040000E2FBFFFFE4
:102DF0003E040000F8B55F46564644464D46F0B4E2
:102E00000C034D00CF0F610A440F2143C400180387
:102E1000DE0F8046B44646465800760A530F3343C9
:102E2000D600D14A6D0DBA46400DB346904200D14E
:102E3000F5E06246012672409446674500D1ABE05A
:102E40002F1A002F00DC11E100283ED1584618430C
:102E500000D0F1E0600700D197E00F232340042B5E
:102E600000D122E1221DA242A4416442802309191B
:102E70001B04012750460B400740141C002B00D1B7
:102E800079E0B94B01359D4200D10BE1B74BE40825
:102E900019404807490204430B0B002000211B0383
:102EA0001A0B0B0D6D051B0513436A08B04DFF0788
:102EB0001D4015436D006D08291C3943201C3CBC86
:102EC00090469946A246AB46F8BDA7488542C1D078
:102ED000802000040343382F00DDFDE01F2F00DDBC
:102EE00031E12020C01B1A1C5E468240FE40324366
:102EF00094465A468240101C421E9041FB40624656
:102F000002431F1CA21A9442A4416442C91B091B1C
:102F1000141C0A029ED549024F0A002F00D1D6E0A8
:102F2000381C00F05FFB021C083A1F2A00DDC3E0DA
:102F30002821231C091A9740CB401F4394409542F7
:102F400000DDC0E0551B691C1F2900DDEAE01F22DF
:102F5000551B3B1C221CAB40CA40AC40651EAC411B
:102F60001343CF401C43391C002573E780217E4D5D
:102F70000027C90300247C4B4807E4080443C90820
:102F80009D4250D009030B0B87E780231B040127C8
:102F900052460B40174071E72A1A9446002A00DC7B
:102FA000A1E0002854D07048854200D152E780202B
:102FB000000403436046382800DD0EE11F2800DDD1
:102FC00057E162462020801A1E1C8640B1465E46AC
:102FD000D6404A4632435E4686409046301C421EEA
:102FE0009041424602436046C3401219A242A441A6
:102FF000644259180919141C080200D42AE75A4BD4
:1030000001359D4200D131E1584B60081940012340
:1030100023401C1C0443CB071C4349081AE71E43EA
:1030200000D00AE705E7231C0B433BD080231B039A
:103030000B431B031B0B30E7013F002F6DD15E4696
:10304000A21B9442A4416442C91A091B141C60E7E4
:103050005846184300D1FDE601267642B444604646
:10306000002800D0D0E05E463219BFE7002F00D024
:1030700080E0681C4005400D012800DCE8E05A466D
:10308000A21A9442BF41C81A7F42C71B3E0200D415
:1030900098E05846041BA3459241591A52428F1A90
:1030A000E2463AE700230024F7E680231B040127C9
:1030B00056460B403740E1E6271C2838874000245D
:1030C000954200DC3EE72949AD1A3940C2E6201C92
:1030D00000F088FA203026E75A461A43531E9A41D8
:1030E000D2B200270EE7002A00D0DEE0681C4605B9
:1030F000760D012E00DC90E01B4DA84200D1F5E0DA
:103100005E463219A242A441644259180919CC07FB
:10311000520814434908051C9CE61348854200D018
:10312000D9E697E62B1C1F3B3E1CDE40331C2029B2
:103130006FD03F22551BAF403C43601E84411C436F
:103140000021002586E6381C20381E1CC640301C95
:10315000202F60D04022D71BBB405A461A43531E33
:103160009A4102430027CDE6FF070000FFFF7FFFE3
:10317000FFFF0F80002D37D0B64DA84200D18FE061
:1031800080252D047F422943382F00DDA8E01F2F22
:1031900000DD24E12025ED1B0E1CAE40B046261CB0
:1031A000FE404246AC401643651EAC413443F940F4
:1031B0005A46141BA34592415B1A5242991A051CA8
:1031C000E246A6E6131C3B43141C002B00D0A4E6E9
:1031D0000027002100250024CDE65A461A43531E3D
:1031E0009A41D2B2002300E70D1C254358D0FF437B
:1031F000002F51D15A46141BA3459241591A5242ED
:10320000891A051CE24684E69248854200D0D1E640
:1032100020E6002790E700239FE7081C2043002DAD
:1032200000D0C2E0002800D1EFE05846184300D19A
:1032300010E658460219A242A441644259180919DD
:10324000141C0A0200D405E6834B0125194001E64F
:10325000081C2043002D38D100286FD1594619434E
:1032600003D0191C5C46E246F4E500270021002447
:1032700081E6604620381A1CC2406646101C202E8B
:1032800000D1AAE04022921B93405A461A43531E93
:103290009A4102430023A8E66E4DA84200D073E78E
:1032A000191C5C46051CE246D4E5002D22D10D1CFC
:1032B000254376D0D543002D70D15C445C459241C6
:1032C000591852428918051C96E600284CD15946D7
:1032D000194300D14AE6191C5C46E2465D4DB9E54A
:1032E0000C43611E8C41E4B2002161E7051C002102
:1032F000002440E6574DA84253D055428022160480
:103300003143382D7BDC1F2D00DD8CE02022561B45
:103310000A1CB446B240261CEE4032439046624638
:103320009440661EB44142461443E9405C445C4507
:103330009241CB1852429918051C5DE65846184335
:1033400000D187E55E46A71BBC429241C81A524293
:10335000801A060260D55846041BA3459241591AAB
:103360005242891AE24675E55846184333D0480759
:10337000E40804438020C9080003014208D0DD08A6
:10338000054205D15946CA085C071443291CE24688
:10339000630FC9001943E4002E4D5BE52D4A9042AE
:1033A000AFD1191C5C46051C54E5002830D05846A6
:1033B000184310D080254807E408C9082D030443AA
:1033C0002942E5D0D8082842E2D15D46EA085C07E8
:1033D0001443011CDCE71F4D3CE5002355E73D1C71
:1033E000203D0E1CEE40351C202F2ED04026F71B12
:1033F000B9400C43611E8C412C430021D8E60C439C
:10340000611E8C41E4B2002190E7191C5C4621E565
:10341000191C5C460F4D1DE5031C3B4300D124E7FE
:10342000011C3C1C16E52026764276190A1CF24047
:103430009046202D0BD04026751BA9400C43611EE1
:103440008C4145462C43002170E70021D1E7002143
:10345000F4E7C046FF070000FFFF7FFF70B50B1CBD
:10346000124C09030E0B5900021C490DDD0F002000
:10347000A14211DD0E4881420FDC8020400306434B
:103480000C48401A1F280BDD0B4A521AD640321C3A
:103490005042002D00D1101C70BD084BE818FBE70E
:1034A000074BC240C9188E403243F1E7FE030000CB
:1034B0001D0400003304000013040000FFFFFF7F21
:1034C000EDFBFFFF43001B0E5A1C4102D2B270B548
:1034D0004C0AC50F012A17DDE02292006407090B90
:1034E0009818002200231E0D221C34050C431B4992
:1034F000400540082140014349004908ED070B1CE5
:103500002B43101C191C70BD002B15D1002C1CD096
:10351000201C00F067F80A281ADC0B21091A231C6A
:10352000CB40191C031C15339C400D4B0903181A82
:103530004005090B400DD4E7002C03D06407090BAC
:103540000848CEE707480021CBE700200021C8E764
:10355000011C0B398C40211C0024E6E7FFFF0F8083
:1035600089030000FF0700008446101C62468C4659
:10357000191C634600E0C0461FB500F019F9002889
:1035800001D40021C8421FBD10B500F049F84042E7
:10359000013010BD10B500F00BF9002801DB002050
:1035A00010BD012010BDC04610B500F001F9002883
:1035B00001DD002010BD012010BDC04610B500F097
:1035C00079F8002801DC002010BD012010BDC046A4
:1035D00010B500F06FF8002801DA002010BD0120BE
:1035E00010BDC0461C2101231B04984201D3000CCE
:1035F00010391B0A984201D3000A08391B09984266
:1036000001D30009043902A2105C40187047C0467B
:10361000040302020101010100000000000000009B
:10362000F0B55F4656464D464446F0B40D1C041CAA
:103630008046E80F814618030F03000B3F0B83B051
:1036400084461B48009749005E00DF0F490D9246F3
:10365000760DBB4681420CD01548864210D0012021
:10366000B14215D003B03CBC90469946A246AB4649
:10367000F0BD009F01202743F4D10D488642EED1D2
:10368000604602430120002AECD10120B142E9D179
:10369000009B6345E6D1D045E4D1D94506D0002949
:1036A000E0D11C43201C441EA041DBE70020D9E7E9
:1036B000FF070000F0B55F4656464D464446F0B45D
:1036C000CD0FDE0FAC461D032D0BB146374E0F0359
:1036D0004C00AB465D0080463F0B640D92466D0D7D
:1036E000B44232D0314EB54235D0002C0ED13843E1
:1036F00041424141081C002D0BD0002919D1CC4575
:103700002DD0654668420123184318E0002DF6D1FC
:10371000281C59460A4353425341002806D1002B26
:10372000EDD0634658420123184308E00020002BE7
:1037300005D14A46504250414042012318433CBC07
:1037400090469946A246AB46F0BD3E1C0643C9D002
:1037500002204042F3E75E461643C6D0F8E7AC428B
:1037600007DC0BDA614648424841404201231843D6
:10377000E5E76646704201231843E0E75F450AD853
:103780000ED000205F45DAD265466842684140426B
:1037900001231843D3E76246504201231843CEE782
:1037A000D045F8D80020D045EED3C8E7FF07000089
:1037B000F0B556464D4644465F46F0B40D1C83B006
:1037C000041C0190E80F814618030F03000B3F0B08
:1037D00084463548009749005E00DF0F490D924648
:1037E000760DB846814234D02F48864236D0002923
:1037F00018D0002E1FD1341C67463A435342534120
:10380000002C1FD00020002B05D1424650425041D1
:1038100040420123184303B03CBC90469946A2465F
:10382000AB46F0BD0098044360426041041C002E8A
:10383000E2D00028E9D1C14515D04F467842012396
:103840001843E8E7002BF6D04B46584201231843B3
:10385000E1E7009F02202743DDD1C5E7674602204C
:103860001743D8D1C3E7B14204DD4A465042012391
:103870001843D0E7B14207DB00986045E4D80AD08E
:10388000009F00206745C6D24F46784278414042AB
:1038900001231843BFE7019A5245D5D8019A002069
:1038A0005245F1D3B7E7C046FF07000070B50E4B95
:1038B0000E4D0024ED1AAD101E1CAC4204D0A30026
:1038C000F35898470134F8E701F010F9084B094D17
:1038D0000024ED1AAD101E1CAC4204D0A300F35816
:1038E00098470134F8E770BDF84A0000F84A000034
:1038F000F84A0000FC4A000010B50023934203D0B0
:10390000CC5CC4540133F9E710BD031C8218934208
:1039100002D019700133FAE7704700000FB40B4B67
:1039200013B51C68002C05D0A369002B02D1201C04
:1039300000F02CFD05ABA168201C049A019300F057
:10394000BFF816BC08BC04B01847C0466C00002085
:1039500008B54A424A4180235200DB0000F002F8D9
:1039600008BD0000F7B51E1C3C4B041C1D680F1C55
:103970000192002D05D0AA69002A02D1281C00F06E
:1039800005FD374B9C4201D16C6808E0354B9C42E9
:1039900001D1AC6803E0344B9C4200D1EC68019B40
:1039A000022B57D8002E55DB281C211C00F06EFC82
:1039B00000236360A361A3891A0603D5281C21692B
:1039C00000F0BAFDA38983229343A381019B022BBC
:1039D00013D0002F25D1002E01D18026F600301CF7
:1039E00000F094FD071E18D18020C00000F08EFD6D
:1039F000071E10D10120404200E00020A3890222CE
:103A00001343A3810023A360231C47332360236156
:103A10000123636120E08026F600A38980221343FE
:103A2000A381019A012A04D1A3891343A38173427C
:103A3000A3610E4B0020AB62A389276027616661FA
:103A40001A0709D5032213405A4253415B421E40D4
:103A5000A66001E001204042FEBDC0466C0000208F
:103A60008C4A0000AC4A0000CC4A0000E54200004D
:103A7000936810B5013B9360002B05DA9469A3426B
:103A800008DBCBB20A2B05D01368581C10601970E4
:103A9000C8B201E000F0A6FA10BDF8B5061C0F1C74
:103AA000141CD518AC4208D02178301C3A1CFFF702
:103AB000DFFF0134431CF5D100E00020F8BD000019
:103AC000F0B59FB0061C0F1C03920593002804D08C
:103AD0008169002901D100F059FC754B9F4201D149
:103AE000776808E0734B9F4201D1B76803E0724BDF
:103AF0009F4200D1F768BB891A070AD53B69002BA2
:103B000007D006AD00236B6120236B763023AB76A4
:103B10003BE0301C391C00F0BDFA0028F1D0012038
:103B20004042C2E0059A111D12680591002A76DB19
:103B30000992013423782E2B00D181E021785F484F
:103B4000032200F0EDFC002807D05C492A68431AE4
:103B5000402098401043286001342178631C584865
:103B600006220393297600F0DBFC002800D18AE0CE
:103B7000544B002B7ED1059B072207339343083318
:103B800005936A69049953186B61039C2378002B91
:103B900004D10399611A029110D003E0252BF8D0CB
:103BA0000134F3E7301C391C039A029BFFF775FFC1
:103BB000013075D06A69029953186B612378002B24
:103BC0006ED0012252426A606A4600235B320134A1
:103BD0002B60EB60AB601370AB6521783A4805222F
:103BE00000F09EFC002808D0374A0134831A0120D7
:103BF00098402B6818432860EFE72B68D90603D557
:103C00006A4620215B3211701A0703D56A462B21C0
:103C10005B32117022782A2A84D0099B05E0524237
:103C2000EA60022213432B6083E72278303A092AA4
:103C300004D80A214B4301349B18F6E7099379E72E
:103C400063782A2B09D1059B02341A1D1B68059243
:103C5000002B0DDA01235B420AE0013400232278B5
:103C6000303A092A04D80A214B4301349B18F6E75D
:103C7000079363E705AB0093301C291C3A1C134BD8
:103C800000E000BF07E005AB0093301C291C3A1C84
:103C90000E4B00F091F804900499013100D070E7C8
:103CA000BB895A0600D53AE70B981FB0F0BDC04655
:103CB0008C4A0000AC4A0000CC4A00005E4A00007A
:103CC000624A000000000000584A00009B3A0000D1
:103CD000F7B5151C01930A698B68061C0C1C9342EE
:103CE00000DA131C221C2B6043321278002A01D008
:103CF00001332B602068800602D52B6802332B60CD
:103D0000216806270F401FD0231C43331B785A1EFF
:103D10009341226892061FD5E11840313020C870C7
:103D2000211C5A1C45310978A21840320233D17047
:103D300012E0221C301C019919320123089FB84758
:103D4000013011D0009F01370097E0682968009F7B
:103D5000431A9F42EDDBD7E7221C301C0199433206
:103D6000089FB847013002D10120404223E020687B
:103D700006212B68E26801400025042903D1D51AE9
:103D8000EB43DB171D40A26823699A4201DDD31A79
:103D9000ED1800270097009FAF420BDA221C301C61
:103DA00001991A320123089FB8470130DCD0009FE7
:103DB0000137EFE70020FEBDF0B50D1C8BB0433599
:103DC00006920590079304950B7E0C1C109A6E2B9F
:103DD00000D1A7E011D8632B22D009D8002B00D145
:103DE000B0E0582B00D0C0E045310B707B4D4EE069
:103DF000642B1CD0692B1AD0B7E0732B00D1A5E03F
:103E000009D86F2B29D0702B00D0AEE00E6820238C
:103E100033430B6036E0752B1FD0782B32D0A4E0F3
:103E200013680D1C191D423511601B689FE0216845
:103E300013680E0603D5191D11601E6805E04806BB
:103E4000F9D5191D116000215E5E644B002E3BDA2E
:103E5000049D2D2276422A7036E0216813680E06F2
:103E600003D5191D11601E6804E04806F9D5191D17
:103E70001E881160594B227E039308276F2A1ED09B
:103E80000A271CE0231C78214533554D1970116811
:103E90002368081D039510601E0601D50E6802E018
:103EA0005806FBD50E88D90702D52022134323607C
:103EB0001027002E03D1226820239A432260231C5E
:103EC000002243331A7001E003930A276368A3605A
:103ED000002B03DB2568042295432560002E02D1C8
:103EE000049D002B0ED0049D301C391CFDF70CFEE8
:103EF0000398013D435C301C2B70391CFDF7C0FD5D
:103F0000061EF1D1082F09D12168C90706D56268BC
:103F100023699A4202DC013D30232B70049E731BFF
:103F200023612AE0086813684969050604D5181D4D
:103F300010601B68196005E04606F8D5181D106072
:103F40001B68198000232361049D16E01368191D66
:103F500011601D68281C00F0E9FB6368206198422D
:103F600000D923612069606004E0251C42352B7074
:103F700001232361049E00233370079E0598009659
:103F8000211C09AA069BFFF7A3FE013002D10120E4
:103F9000404221E02A1C059806992369079DA847FD
:103FA0000130F4D02668B60705D4099BE068984232
:103FB00012DA181C10E00025E0680999431A9D42A6
:103FC000F3DA221C0598069919320123079EB0479F
:103FD0000130DCD00135EFE70BB0F0BD694A0000DD
:103FE0007A4A000070B5051C0E1C141C002804D071
:103FF0008269002A01D100F0C9F9234B9C4201D10A
:104000006C6808E0214B9C4201D1AC6803E0204B76
:104010009C4200D1EC68A369A360A3891A070AD562
:104020002369002B07D022682369F6B2D01A62698F
:1040300090420FDB08E0281C211C00F02BF8002820
:10404000F1D0012040421DE0281C211C00F01EF987
:104050000028F6D1A3680130013BA36023685A1CF5
:1040600022601E706369984205D0A389301CDA076C
:1040700008D50A2E06D1281C211C00F007F90028BB
:10408000DFD1301C70BDC0468C4A0000AC4A000035
:10409000CC4A0000344B70B51D68061C0C1C002D6A
:1040A00005D0A969002902D1281C00F06FF92F4B17
:1040B0009C4201D16C6808E02D4B9C4201D1AC6858
:1040C00003E02C4B9C4200D1EC68A28993B2190703
:1040D00021D4D90605D40923336040231A43A28191
:1040E0003FE05A0713D5616B002908D0231C4433E5
:1040F000994202D0301C00F01FFA00236363A389A9
:1041000024229343A3810023636023692360A3894E
:1041100008221343A381216900290BD1A389A0227E
:1041200092001A4080239B009A4203D0301C211C2D
:1041300000F09CF9A38901221A4005D06169002290
:10414000A2604A42A26103E0990700D46269A260BA
:1041500022690020824206D1190604D54022134369
:10416000A3810120404270BD6C0000208C4A0000F9
:10417000AC4A0000CC4A0000F7B58B89051C0C1C2A
:1041800019075ED46268002A02DC276C002F1ADD52
:10419000E76A002F17D000222E682A608022520181
:1041A0001A4001D0626D15E0281C216A0123B8472E
:1041B000021C411C0ED12B68002B0BD01D2B01D0F3
:1041C000162B02D12E6000205EE0A38940210B4314
:1041D000A38159E0A3895F0706D56168636B521A12
:1041E000002B01D0276CD21B281C216A0023E76A10
:1041F000B847A289411C06D12B68002B03D01D2B88
:1042000001D0162B19D10023636023692360D704E2
:1042100005D5411C02D12A68002A00D16065616B76
:104220002E600029CFD0231C4433994202D0281C91
:1042300000F082F90020606326E040231A43A28147
:1042400022E02669002EBED027680022BF1B0197FE
:104250002660990700D16269A260019F002FB2DD3C
:10426000281C216A321C019BA76AB847002806DC7B
:10427000A389402213430120A381404204E0019F0F
:1042800036183F1A0197E8E7FEBD00000A6938B505
:10429000051C0C1C002A01D100201CE0002804D0C1
:1042A0008369002B01D100F071F80B4B9C4201D1C6
:1042B0006C6808E0094B9C4201D1AC6803E0084BF4
:1042C0009C4200D1EC680C22A35E002BE4D0281C99
:1042D000211CFFF751FF38BD8C4A0000AC4A00009A
:1042E000CC4A0000F8B5041C071C4834002C12D03E
:1042F000A5686668013E0CD4AB89012B07D90E2254
:10430000AB5E013303D0381C291CFFF7BFFF6835B3
:10431000F0E72468EAE7F8BD002310B5041C036049
:104320004360836081814366C2810361436183612D
:10433000191C08225C30FFF7E8FA054B246263621F
:10434000044BA362044BE362044B236310BDC046DD
:1043500095460000BD460000F546000021470000DC
:1043600070B54B1E68255D430E1C291C743100F08E
:104370002BF9041E08D00021016046602A1C0C3075
:10438000A0606832FFF7C1FA201C70BD836913B5C5
:10439000041C002B27D18364C3640365124B134AAA
:1043A0001B688262984201D101238361201C00F0C6
:1043B0001FF86060201C00F01BF8A060201C00F0BB
:1043C00017F80421E06000226068FFF7A5FFA068ED
:1043D00009210122FFF7A0FFE06812210222FFF766
:1043E0009BFF0123A36113BD544A0000E542000076
:1043F000F8B51D4B071C1E68B269002A02D1301C9B
:10440000FFF7C4FF4836B4687368013B05D40C223B
:10441000A55E002D10D06834F7E73368002B06D175
:10442000381C0421FFF79CFF3060002801D036685B
:10443000E9E70C233B6016E001235B42E381201C8B
:104440000123A38165662560A560656025616561BE
:10445000A5615C30291C0822FFF757FA6563A56344
:10446000A564E564201CF8BD544A0000F0B58B89B2
:1044700091B0051C0C1C9A0725D40E23C95E002997
:1044800006DAA78980231F400FD0002740260EE0C0
:1044900001AA00F079F90028F3DB029BF0273F0224
:1044A000184A1F40BF187B425F418026F600281C37
:1044B000311C00F089F800280CD1A3899A051FD47B
:1044C00002221343A381231C47332360236101236A
:1044D000636115E00C4B8022AB62A389206013431B
:1044E000A38120616661002F0AD00E23E15E281CA3
:1044F00000F05CF9002803D0A38901221343A381B3
:1045000011B0F0BD00E0FFFFE542000008B5034B2D
:10451000011C186800F058F808BDC0466C00002067
:10452000C9B28218904204D003788B4202D0013085
:10453000F8E700207047000030B5002940D004396A
:104540000B68002B00DAC9181E4A1368141C002BD4
:1045500002D14B60116033E099420FD208680A180B
:104560009A4205D113685268C01808604A6000E09A
:104570004B60216024E08A4203D8131C5A68002A49
:10458000F9D11D685C198C420BD10968691858185B
:104590001960904214D114685268091919605A6060
:1045A0000EE08C4202D90C23036009E008680C1865
:1045B000944203D114685268001908604A60596037
:1045C00030BDC0460801002070B50323CD1C9D43BB
:1045D0000835061C0C2D01D20C2501E0002D3FDB17
:1045E0008D423DD3204B1C681A1C211C002913D07E
:1045F0000868431B0DD40B2B02D90B60CC181EE0AE
:104600008C4202D1636813601AE0486860600C1C39
:1046100016E00C1C4968E9E7144C2068002803D117
:10462000301C00F025F82060301C291C00F020F818
:10463000431C15D0C41C03239C4384420AD125602B
:10464000201C0B300722231D9043C31A0BD05A4263
:10465000E25008E0211A301C00F00AF80130EED1D7
:104660000C233360002070BD0801002004010020ED
:1046700038B5074C0023051C081C2360FDF756F8CD
:10468000431C03D12368002B00D02B6038BDC046EB
:104690003801002038B50C1C0E25495F00F0ACF83D
:1046A000002803DB626D1318636503E0A289024BE7
:1046B0001340A38138BDC046FFEFFFFFF8B51E1CB5
:1046C0008B89051C0C1C171CDA0505D50E23C95E49
:1046D0000022022300F07CF8A289054B281C13401D
:1046E000A3810E22A15E331C3A1C00F027F8F8BD0E
:1046F000FFEFFFFF38B50C1C0E25495F00F068F88E
:10470000A389421C03D1054A1340A38104E08022FF
:1047100052011343A381606538BDC046FFEFFFFF20
:1047200008B50E23C95E00F01DF808BD0023C25C69
:104730000133002AFBD1581E7047000038B5084CE1
:10474000051C00202060081C111C1A1CFBF7FCFE35
:10475000431C03D12368002B00D02B6038BDC0461A
:104760003801002038B5074C0023051C081C2360C5
:10477000FCF7EEFF431C03D12368002B00D02B6015
:1047800038BDC0463801002038B5074C0023051C51
:10479000081C111C2360FCF7DFFF431C03D12368B6
:1047A000002B00D02B6038BD3801002038B5074CF5
:1047B0000023051C081C2360FCF7D4FF431C03D115
:1047C0002368002B00D02B6038BDC0463801002084
:1047D00038B5084C051C00202060081C111C1A1C50
:1047E000FCF7C2FF431C03D12368002B00D02B60D1
:1047F00038BDC0463801002038B5084C051C0020E3
:104800002060081C111C1A1CFBF77CFE431C03D102
:104810002368002B00D02B6038BDC0463801002033
:1048200000080042000C0042001000420014004248
:1048300000180042001C0042090A0B0C0D0E00007B
:104840009E0E0000E4100000E4100000E4100000E0
:10485000E4100000E4100000E4100000E410000088
:10486000E4100000E4100000E4100000E410000078
:10487000E4100000E4100000E4100000E410000068
:10488000860E0000E4100000E4100000E4100000B8
:10489000E4100000E4100000E4100000E410000048
:1048A000E4100000E4100000E4100000E410000038
:1048B000E4100000E4100000E4100000E410000028
:1048C000960E0000E4100000E4100000E410000068
:1048D000E4100000E4100000E4100000E410000008
:1048E000E4100000E4100000E4100000E4100000F8
:1048F000E4100000E4100000E4100000E4100000E8
:104900008E0E00006E0E0000A60E00007E0E00004F
:10491000760E0000FFFF0000FFFF0000FFFF000019
:10492000FFFF00000400000005000000060000007A
:1049300007000000FFFF0000FFFF00002200000052
:1049400023000000FFFF0000FFFF0000FFFF00004A
:10495000FFFF00000800000009000000FFFF00004A
:10496000FFFF0000381100009411000094110000B6
:1049700032110000321100004E1100003E11000003
:1049800054110000821100001C1200007C12000073
:104990007C120000FC1100000E1200002A12000020
:1049A00000120000381200006C12000054686520EC
:1049B000726573756C742069732025640A000000A9
:1049C000205468652074656D70206973202564002B
:1049D0007424000010240000582400003E2300002E
:1049E000582400004C240000582400003E230000FE
:1049F00010240000102400004C2400003E2300007E
:104A000034230000342300003423000098260000E3
:104A1000B82A0000A62C0000A62C0000982A00004E
:104A200082290000822900008A2A0000982A0000BA
:104A3000822900008A2A000082290000982A0000AA
:104A4000802900008029000080290000AE2C000091
:104A5000430000000C000020232D302B2000686C48
:104A60004C00656667454647003031323334353691
:104A700037383941424344454600303132333435CA
:104A800036373839616263646566000000000000F3
:104A90000000000000000000000000000000000016
:104AA0000000000000000000000000000000000006
:104AB00000000000000000000000000000000000F6
:104AC00000000000000000000000000000000000E6
:104AD00000000000000000000000000000000000D6
:104AE000000000000000000000000000F8B5C04613
:104AF000F8BC08BC9E467047DD000000F8B5C04613
:0C4B0000F8BC08BC9E467047B5000000E1
:104B0C0008000000401F0000010000000000000031
:104B1C008C4A0000AC4A0000CC4A000000000000A7
:104B2C00000000000000000000000000504A0000DF
:104B3C000000000000000000000000000000000069
:104B4C000000000000000000000000000000000059
:104B5C000000000000000000000000000000000049
:104B6C000000000000000000000000000C0000200D
:040000030000168D56
:00000001FF
